:100000000C94D0010C94F8010C94F8010C94F801B4
:100010000C94F8010C94F8010C94F8010C94F8017C
:100020000C94F8010C94F8010C94190B0C94F80141
:100030000C94F8010C94F8010C94F8010C94F8015C
:100040000C94F8010C94F8010C94F8010C94F8014C
:100050000C94F8010C94F8010C94F8010C94CF0A5C
:100060000C94F8010C94F8010C94F8010C94F8012C
:100070000C94F8010C94F8010C94F8010C94F8011C
:100080000C94F8010C94F8010C94F8010C94F8010C
:100090000C94F8010C94F8010C94F8010C94F801FC
:1000A0000C94F8010C94F8010C94F80109029900E1
:1000B000040100A0FA0904000002FF5D0100112103
:1000C0000001012581140000000013010800000751
:1000D0000581032000010705010320000809040130
:1000E0000004FF5D03001B210001010182400102A9
:1000F000201683000000000000160300000000002E
:100100000007058203200002070502032000040700
:1001100005830320004007050303200010090402A3
:100120000001FF5D02000921000101228407000790
:100130000584032000100904030000FFFD130406DA
:1001400041000101030902290001010080FA0904AC
:1001500000000203000000092111010001225600E5
:100160000705020340000107058103400001050166
:100170000905A101150025013500450175019510FE
:10018000050919012910810205012507463B017562
:1001900004950165140939814265009501810126A4
:1001A000FF0046FF0009300931093209357508950D
:1001B0000481020600FF0920950181020A2126958B
:1001C000089102C00902290001010080FA09040017
:1001D0000002030000000921110100012294000720
:1001E00005020340000107058103400001092111B8
:1001F00001000122940005010904A101A102850169
:1002000075089501150026FF0081037501951315EA
:1002100000250135004501050919012913810275E1
:1002200001950D0600FF8103150026FF0005010959
:1002300001A10075089504350046FF000930093119
:10024000093209358102C005017508952709018128
:10025000027508953009019102750895300901B1C0
:1002600002C0A1028502750895300901B102C0A142
:100270000285EE750895300901B102C0A10285EF33
:10028000750895300901B102C0C012010002FFFFDC
:10029000FF405E048E0214010102030112010002FC
:1002A000000000400D0F9200000101020001120148
:1002B0000002000000404C0568020001010200013C
:1002C0003003580049006E00700075007400200073
:1002D0005300540041004E004400410052004400CD
:1002E0002000470041004D004500500041004400FF
:1002F000000014034D006900630072006F0073007A
:100300006F00660074000000240350004F004B0093
:100310004B0045004E00200043004F004E005400AB
:1003200052004F004C004C004500520000001C03DE
:1003300048004F0052004900200043004F002E00AB
:100340002C004C00540044002E0000000803310033
:100350002E0030000000360350004C0041005900D0
:10036000530054004100540049004F004E00280043
:10037000520029003300200043006F006E0074001B
:1003800072006F006C006C006500720000000A03D0
:1003900053006F006E0079000000040309048D1300
:1003A00011241FBECFEFDAE0DEBFCDBF11E0A0E029
:1003B000B1E0E6EAFAE202C005900D92AA32B10776
:1003C000D9F723E0AAE2B1E001C01D92A936B20735
:1003D000E1F711E0C0EDD1E004C02197FE010E94D9
:1003E0003F15CF3CD107C9F70E94CE0C0C94511594
:1003F0000C94000081FFD5C091E09093E9009091AA
:10040000EB009E7F9093EB009091ED009D7F909389
:10041000ED009091EB0091609093EB0091EC909344
:10042000EC008093ED001092F0008091EE0087FFC9
:10043000DFC082E08093E9003091EC008091ED0014
:100440002091F00081FF19C09091EB009E7F909366
:10045000EB009091ED009D7F9093ED009091EB006B
:1004600091609093EB003093EC008093ED0020932B
:10047000F0008091EE0087FFBBC083E08093E9002D
:100480003091EC009091ED002091F00091FF19C0A7
:100490008091EB008E7F8093EB008091ED008D7F4B
:1004A0008093ED008091EB0081608093EB003093AE
:1004B000EC009093ED002093F0008091EE0087FF18
:1004C00097C084E08093E9003091EC008091ED00CA
:1004D0002091F00081FF19C09091EB009E7F9093D6
:1004E000EB009091ED009D7F9093ED009091EB00DB
:1004F00091609093EB003093EC008093ED0020939B
:10050000F0008091EE0087FF73C085E08093E900E2
:100510003091EC008091ED002091F00081FF19C036
:100520009091EB009E7F9093EB009091ED009D7F6A
:100530009093ED009091EB0091609093EB003093DD
:10054000EC008093ED002093F0008091EE0087FF97
:100550004FC086E08093E9003091EC008091ED007F
:100560002091F00081FF19C09091EB009E7F909345
:10057000EB009091ED009D7F9093ED009091EB004A
:1005800091609093EB003093EC008093ED0020930A
:10059000F0008091EE0087FF2BC081E08093E9009E
:1005A000089581E08093E90082E08093E900309132
:1005B000EC008091ED002091F00081FF1BC0909134
:1005C000EB009E7F9093EB009091ED009D7F9093C8
:1005D000ED009091EB0091609093EB003093EC0074
:1005E0008093ED002093F0008091EE0087FD02C023
:1005F00080E0089583E08093E9003091EC008091E1
:10060000ED002091F00081FF5CCF9091EB009E7F88
:100610009093EB009091ED009D7F9093ED00909171
:10062000EB0091609093EB003093EC008093ED0031
:100630002093F0008091EE0087FD43CFD9CF81FF5A
:10064000B2C092E09093E9009091EB009E7F90936E
:10065000EB009091ED009D7F9093ED009091EB0069
:1006600091609093EB0090EC9093EC008093ED0000
:100670001092F0008091EE0087FFBCC083E0809371
:10068000E9003091EC008091ED002091F00081FFB5
:1006900019C09091EB009E7F9093EB009091ED003C
:1006A0009D7F9093ED009091EB0091609093EB0013
:1006B0003093EC008093ED002093F0008091EE00E9
:1006C00087FF98C084E08093E9003091EC0090911E
:1006D000ED002091F00091FF19C08091EB008E7F1A
:1006E0008093EB008091ED008D7F8093ED008091F1
:1006F000EB0081608093EB003093EC009093ED0071
:100700002093F0008091EE0087FF74C085E0809315
:10071000E9003091EC008091ED002091F00081FF24
:1007200019C09091EB009E7F9093EB009091ED00AB
:100730009D7F9093ED009091EB0091609093EB0082
:100740003093EC008093ED002093F0008091EE0058
:1007500087FF50C086E08093E9003091EC008091E3
:10076000ED002091F00081FF19C09091EB009E7F79
:100770009093EB009091ED009D7F9093ED00909110
:10078000EB0091609093EB003093EC008093ED00D0
:100790002093F0008091EE0087FF2CC082E08093D0
:1007A000E90081E0089582E08093E90083E080938E
:1007B000E9003091EC008091ED002091F00081FF84
:1007C0001BC09091EB009E7F9093EB009091ED0009
:1007D0009D7F9093ED009091EB0091609093EB00E2
:1007E0003093EC008093ED002093F0008091EE00B8
:1007F00087FD02C080E0089584E08093E900309195
:10080000EC008091ED002091F00081FF7FCF90916E
:10081000EB009E7F9093EB009091ED009D7F909375
:10082000ED009091EB0091609093EB003093EC0021
:100830008093ED002093F0008091EE0087FD66CF5D
:10084000D9CFFC01248935892227337081E0211515
:10085000334009F080E00895FC01A689B7898289B8
:100860009389218921110AC011962D913C91282349
:10087000392381E0232B09F480E008952C912F7017
:1008800030E0F5CFFC0163B149B140955FB15095BF
:1008900013A211A212A2252F30E0C90195958795C8
:1008A0009595879595958795959587959595879530
:1008B0008270D901B595A795B595A795B595A795DA
:1008C000A4708A2B551F5527551F852B35952795C5
:1008D0002870822B9389907F892B838B262F2095DC
:1008E000622F70E0922F96959695822F8295880FB1
:1008F000880F807C9B0122953295307F3227207FA4
:10090000322720723327DB01AA0FBB1FA078BB2739
:100910002A2B3B2B542F5F71252BDB01AA0FBB1F0A
:10092000A295B295B07FBA27A07FBA27AA27B17047
:100930002A2B3B2B7695762F66277795679566272A
:100940007270262B372BBC0166277470262B372B31
:1009500088279870282B392B45954074242B358B8C
:10096000248B089584B1817884B98AB180768AB95C
:1009700080B38F7080BB85B18E6785B98BB18F696D
:100980008BB981B3806F81BB08950895FC012091DC
:100990006001309161016217730708F49B0140E028
:1009A0002115310521F512C090918F01992319F17C
:1009B000953099F19091E80093FD31C09091E80055
:1009C00092FD25C09091E80090FD4DC04111ECCF03
:1009D0001EC0953011F19091E80093FD20C09091D8
:1009E000E80092FD14C09091E80090FD1AC090912B
:1009F0008F019111EECF82E0089580918F018823BD
:100A0000D1F3853051F08091E80083FD08C08091DA
:100A1000E80082FFF2CF80E0089583E0089581E04E
:100A200008956091F3008091F200762F682F603472
:100A3000710520F00DC06034710551F081918093F3
:100A4000F100215031096F5F7F4F2115310599F772
:100A500041E06034710509F040E08091E8008E7754
:100A60008093E8009DCF6091F3008091F200762F93
:100A7000682FEECFCF93DF93CDB7DEB7AA970FB62F
:100A8000F894DEBF0FBECDBF9091F10090935A0154
:100A90008091F10080935B012091F10020935C0133
:100AA0002091F10020935D012091F10020935E01DF
:100AB0002091F10020935F012091F10020936001CB
:100AC0002091F1002093610120916D0130916E0120
:100AD000232B09F083C0813009F080C0913A09F4DA
:100AE00064C02091E80023FF49C0992309F43EC265
:100AF000923009F043C080915C01811126C0809141
:100B00005E018F709FEF980F9630C0F58093E900DB
:100B10009091EB0090FF19C090915B01933009F424
:100B20001BC39091EB0090619093EB0021E030E0CB
:100B300001C0220F8A95EAF72093EA001092EA009A
:100B40008091EB0088608093EB001092E900809127
:100B5000E800877F8093E80080915A0187FF05C0F5
:100B6000FBC180918F01882349F08091E80080FFCC
:100B7000F8CF8091E8008E778093E8008091E800BC
:100B800083FF0AC08091E800877F8093E80080910E
:100B9000EB0080628093EB00AA960FB6F894DEBF5C
:100BA0000FBECDBFDF91CF9108958091E800877F80
:100BB0008093E80080916D0190916E01009709F497
:100BC00039C2029731F460E470E08AE291E00E9459
:100BD000C6048091E8008B778093E8008091E8005C
:100BE00083FFCCCF90915A0180915B018A3030F61F
:100BF000E82FF0E0E250FA4F0C943F1543077505DB
:100C0000BE057505BE057507EC06BE05CC060806D3
:100C10009111B4CF80915C01823008F0AFCF9091F8
:100C2000E800977F9093E80080936B0190915A01C0
:100C300097FF05C0CEC190918F01992359F09091F3
:100C4000E80090FFF8CF8091E8008E778093E8006D
:100C500080916B01882309F45EC284E080938F0148
:100C600080916D0190916E018130910509F44CC223
:100C7000029709F449C283E08093E9008091EB0078
:100C80008E7F8093EB008091ED008D7F8093ED004F
:100C90008091EB0081608093EB0081EC8093EC000D
:100CA00082E28093ED001092F0008091EE0087FFC9
:100CB0006FC084E08093E9003091EC009091ED00EA
:100CC0002091F00091FF19C08091EB008E7F8093FE
:100CD000EB008091ED008D7F8093ED008091EB0023
:100CE00081608093EB003093EC009093ED002093B3
:100CF000F0008091EE0087FF4BC085E08093E90013
:100D00003091EC009091ED002091F00091FF19C01E
:100D10008091EB008E7F8093EB008091ED008D7FC2
:100D20008093ED008091EB0081608093EB00309325
:100D3000EC009093ED002093F0008091EE0087FF8F
:100D400027C086E08093E9003091EC009091ED009F
:100D50002091F00091FF19C08091EB008E7F80936D
:100D6000EB008091ED008D7F8093ED008091EB0092
:100D700081608093EB003093EC009093ED00209322
:100D8000F0008091EE0087FF03C083E08093E900CC
:100D900082E20E94FA01F2CE903809F0EFCE809103
:100DA000E800877F8093E80080916B018093F100D9
:100DB0008091E8008E778093E80080915A0187FF48
:100DC00006C0FDC080918F01882309F4D7CE8091A1
:100DD000E80080FFF7CFCDCE9058923008F0CECE0D
:100DE00080915C0190915D018C3D23E0920709F4B4
:100DF00031C1292F3327409167015091680141305B
:100E0000510509F45EC14230510509F06CC123302F
:100E1000310509F4CEC108F493C12132310509F43A
:100E2000ECC184E990E0E6EFF1E02232310509F00F
:100E3000A5CE2091E800277F2093E8002091600153
:100E4000309161018217930708F49C0140E021155D
:100E5000310509F0D9C014C080918F01882309F4AD
:100E60007FC0853009F47CC08091E80083FD78C0A4
:100E70008091E80082FDD9C08091E80080FDE0C14A
:100E80004111EACFD2C0903809F4DBC0923809F0A2
:100E900075CE80915E018F70873008F06FCE8093A1
:100EA000E9008091EB0085FB882780F91092E9002A
:100EB0009091E800977F9093E8008093F100109262
:100EC000F1008091E8008E778093E80080915A01CC
:100ED00087FF06C06AC080918F01882309F44ECE37
:100EE0008091E80080FFF7CF44CE911147CE9091DA
:100EF0005C019F778091E3008078892B8093E300E9
:100F00008091E800877F8093E80080915A0187FFF5
:100F100005C03CC080918F01882349F08091E80092
:100F200080FFF8CF8091E8008E778093E800809171
:100F3000E80080FFFCCF8091E30080688093E300AD
:100F400083E0911101C082E080938F0117CE8091E0
:100F50008F01882309F412CE8091E80082FFF7CF39
:100F60008091E8008B778093E80008CE90915C0137
:100F7000913009F003CE91E0833009F090E0909336
:100F80006A01E3CD80918F01882389F28091E80086
:100F900082FFF8CF8091E8008B778093E800C7CF7D
:100FA00080918F01882309F4E9CD8091E80082FFC8
:100FB000F7CFD6CF80918F01882309F4DFCD8091C0
:100FC000E80082FFF7CFCCCF90918F01992309F4ED
:100FD00041CE9091E80092FFF7CF8091E8008B77A7
:100FE0008093E80080916B0135CE853009F4B8CF4D
:100FF0008091E80083FDB4CF8091E80082FD15C0A8
:101000008091E80080FDB3C080918F018111EDCF08
:10101000A7CF80918F01882309F4A2CF853009F4EE
:101020009FCF8091E80083FD9BCF8091E80082FFF5
:10103000F0CF96CF64E170E08BE791E00E94C604A8
:10104000C8CD8091690190916A01992309F430CF4C
:1010500082602ECF83E08A838AE289835FB7F89427
:10106000DE01139680E09EE041E207C0295C3F4F1D
:101070002D933D938F5F843191F0E92FF0E0409301
:101080005700E49180FF03C0E295EF709F5FEF701F
:101090002E2F30E0EA3050F7205D3F4FE9CF5FBFA1
:1010A0008091E800877F8093E8006AE270E0CE01DB
:1010B00001960E94C6048091E8008B778093E80037
:1010C0005DCD2330310509F4A2C068F1213231052C
:1010D00009F4ACC086E590E0EEE6F1E0223231059D
:1010E00009F4A7CE4BCD2230310509F4A4C023303A
:1010F000310509F474C082E190E0EAE8F2E02130C1
:10110000310509F03BCD95CE82E30E941F0382E3B7
:101110000E94FA0133CD8091E30087FD85C081E014
:1011200080938F019DCD2130310509F46BC089E298
:1011300090E0E5E4F1E02230310509F47ACE1ECDED
:101140002130310579F089E290E0E4ECF1E02230E1
:10115000310509F46ECE12CD8091EB008062809350
:10116000EB00F3CC82E190E0EEEAF2E062CE809117
:10117000F3009091F2008927982789278034910500
:1011800068F444914093F100319621503109019661
:101190002115310519F08034910599F741E080342B
:1011A000910509F040E08091E8008E778093E80097
:1011B0004ECE99278130910509F45EC008F457C0DE
:1011C0008230910509F44EC0039709F0D7CCECE4C6
:1011D000F3E0849190E0009709F4D0CC2ACE9927CF
:1011E00081309105A9F108F442C08230910561F780
:1011F000E0ECF2E0849190E0EECF89E090E0EDEE5B
:10120000F1E017CE82E190E0ECE9F2E012CE99270E
:101210008130910511F158F182309105A9F6E8E08D
:10122000F3E0849190E0D7CF84E07ACF89E090E03A
:10123000E7E5F1E0FECD89E990E0ECEAF0E0F9CDF8
:101240008091F3009091F200892798278927A6CFF3
:10125000E2EFF2E0849190E0BECFEEE2F3E0849121
:1012600090E0B9CFE6E5F3E0849190E0B4CFEAE90D
:10127000F3E0849190E0AFCFEEE8F3E0849190E06A
:10128000AACF0E944515AF92BF92CF92DF92EF9204
:10129000FF920F931F93CF93DF93CDB7DEB72897BD
:1012A0000FB6F894DEBF0FBECDBF80916D01909157
:1012B0006E01892B09F45AC082E08093E900809185
:1012C000E80082FF72C08091E80085FDD5C0809162
:1012D000E8008B778093E80048E0A42EB12C53E718
:1012E000C52E51E0D52E81E08093E9008091E80081
:1012F00080FF4AC04091E4005091E50025E68091CE
:10130000EC0080FF5AC08091E80080FD5AC08091B7
:101310008F01882381F0853071F08091EB0085FD8D
:101320000AC08091E4009091E5008417950739F395
:101330002150AC0121F78091E8008E778093E8007E
:10134000A50170E060E0C60128960FB6F894DEBFF4
:101350000FBECDBFDF91CF911F910F91FF90EF9006
:10136000DF90CF90BF90AF900C944A1524E1A22E4D
:10137000B12C3BE7C32E31E0D32E81E08093E9000E
:101380008091E80080FDB6CF28960FB6F894DEBFB6
:101390000FBECDBFDF91CF911F910F91FF90EF90C6
:1013A000DF90CF90BF90AF90089588E0A82EB12C29
:1013B00093E7C92E91E0D92EE0CF8091E80082FF1B
:1013C000A6CF8501760109C0F70181917F01809345
:1013D000F1000150110909F4AECF8091E80085FDBC
:1013E000F3CF8091E8008E778093E80080918F01A1
:1013F0008823A9F08091E9008F7088878091EC00A4
:1014000080FF03C0F885F068F8871092E9008091AA
:10141000E80083FDBBC088858F708093E900409110
:10142000E4005091E50025E68091EC0080FF1FC0AC
:101430008091E80080FDD1CF80918F01882309F44D
:101440007ACF853009F477CF8091EB0085FD73CF9B
:101450008091E4009091E5008417950729F32150CD
:10146000AC0109F468CF8091EC0080FDE1CF809160
:10147000E80082FFE1CFB1CF4091E4005091E50058
:1014800025E68091EC0080FF1FC08091E80080FD80
:1014900080C080918F01882309F419CF853009F429
:1014A00016CF8091EB0085FD12CF8091E4009091E2
:1014B000E5008417950729F32150AC0109F407CF03
:1014C0008091EC0080FDE1CF8091E80082FFE1CFC8
:1014D00007E010E0FE0131967F0109C08091F10024
:1014E000F70181937F010150110909F4F0CE809139
:1014F000E80085FDF3CF8091E8008B778093E800CA
:1015000080918F018823A9F08091E9008F70D82EF7
:101510008091EC0080FF02C06894D7F81092E90037
:101520008091E80083FD0E943A058D2D8F70809395
:10153000E9004091E4005091E50025E68091EC003F
:1015400080FF1FC08091E80080FDD1CF80918F0186
:10155000882309F4BCCE853009F4B9CE8091EB0024
:1015600085FDB5CE8091E4009091E5008417950744
:1015700029F32150AC0109F4AACE8091EC0080FD42
:10158000E1CF8091E80082FFE1CFB1CF0E943A0520
:1015900042CF07E010E0CE0101967C01A8CF1F9258
:1015A0000F920FB60F9211242F933F938F939F9317
:1015B000AF93BF9380916F0190917001A0917101E1
:1015C000B09172013091660123E0230F2D3768F14D
:1015D00026E8230F0296A11DB11D2093660180937A
:1015E0006F0190937001A0937101B093720180918B
:1015F000620190916301A0916401B091650101962F
:10160000A11DB11D8093620190936301A0936401B9
:10161000B0936501BF91AF919F918F913F912F91B1
:101620000F900FBE0F901F9018950196A11DB11D30
:10163000D4CF1F920F920FB60F9211242F933F9386
:101640008F939F938091E10082FF04C08091E2001C
:1016500082FD85C18091DA0080FF04C08091D800AE
:1016600080FD55C18091E10080FF04C08091E200BF
:1016700080FD61C18091E10084FF2AC08091E20079
:1016800084FF26C080E189BD82E189BD09B400FEE6
:10169000FDCF8091D8008F7D8093D8008091E100AC
:1016A0008F7E8093E1008091E2008F7E8093E20044
:1016B0008091E20081608093E20080916B01811152
:1016C00054C18091E30087FD58C181E080938F0170
:1016D0008091E10083FF12C18091E20083FF0EC17F
:1016E0008091E100877F8093E10082E080938F0109
:1016F00010926B018091E1008E7F8093E1008091D8
:10170000E2008E7F8093E2008091E200806180930E
:10171000E2001092E9008091EB008E7F8093EB0055
:101720008091ED008D7F8093ED008091EB008160D2
:101730008093EB001092EC0082E38093ED00109216
:10174000F0008091EE0087FFD9C081E08093E9002E
:101750003091EC008091ED002091F00081FF19C0E4
:101760009091EB009E7F9093EB009091ED009D7F18
:101770009093ED009091EB0091609093EB0030938B
:10178000EC008093ED002093F0008091EE0087FF45
:10179000B5C082E08093E9003091EC009091ED00BB
:1017A0002091F00091FF19C08091EB008E7F809313
:1017B000EB008091ED008D7F8093ED008091EB0038
:1017C00081608093EB003093EC009093ED002093C8
:1017D000F0008091EE0087FF91C083E08093E900E4
:1017E0003091EC008091ED002091F00081FF19C054
:1017F0009091EB009E7F9093EB009091ED009D7F88
:101800009093ED009091EB0091609093EB003093FA
:10181000EC008093ED002093F0008091EE0087FFB4
:101820006DC084E08093E9003091EC009091ED0070
:101830002091F00091FF19C08091EB008E7F809382
:10184000EB008091ED008D7F8093ED008091EB00A7
:1018500081608093EB003093EC009093ED00209337
:10186000F0008091EE0087FF49C085E08093E90099
:101870003091EC009091ED002091F00091FF19C0A3
:101880008091EB008E7F8093EB008091ED008D7F47
:101890008093ED008091EB0081608093EB003093AA
:1018A000EC009093ED002093F0008091EE0087FF14
:1018B00025C086E08093E9003091EC008091ED0036
:1018C0002091F00081FF18C09091EB009E7F9093D3
:1018D000EB009091ED009D7F9093ED009091EB00D7
:1018E00091609093EB003093EC008093ED00209397
:1018F000F0008091EE0087FD1092E9009F918F919A
:101900003F912F910F900FBE0F901F9018958091CF
:10191000DA008E7F8093DA008091D90080FF29C0A1
:1019200080E189BD82E189BD09B400FEFDCF81E07F
:1019300080938F0197CE8091E2008E7F8093E200AA
:101940008091E20080618093E2008091D800806203
:101950008093D80019BC85E080938F018BCE809155
:10196000E1008B7F8093E10075CE84E080938F014E
:10197000AFCE19BC10928F0175CE83E0A7CEFC01CB
:101980008EE191E09183808312821382148215820A
:101990008AE090E09783868310860895CF93DF9343
:1019A000CDB7DEB7E4970FB6F894DEBF0FBECDBF5C
:1019B000789484B5826084BD84B5816084BD85B52A
:1019C000826085BD85B5816085BD80916E00816036
:1019D00080936E00109281008091810082608093DC
:1019E00081008091810081608093810080918000DE
:1019F000816080938000809191008260809391004B
:101A0000809191008160809391008091900081602D
:101A1000809390008091C10084608093C100809188
:101A2000C10082608093C1008091C1008160809379
:101A3000C1008091C30081608093C3008091C00089
:101A400082608093C0008091C20081608093C20058
:101A500080917A00846080937A0080917A0082601D
:101A600080937A0080917A00816080937A008091DF
:101A70007A00806880937A0090E080E00E942915C7
:101A80008093B60181E090E00E9429158093B70110
:101A900081E090E00E9429158093B40182E090E0FB
:101AA0000E9429158093B50182E090E00E942915DB
:101AB0008093B80180E991E00E94B20480E991E04E
:101AC0000E9442042091B6013091B7018091A40197
:101AD0009091A50193FF0BC682E090E09093B7012F
:101AE0008093B60112E028173907E9F090E080E012
:101AF0000E942915811709F4F8C5612F90E080E054
:101B00000E9431151091B70181E090E00E942915E3
:101B1000811729F0612F81E090E00E9431158091BA
:101B2000B6019091B70190936E0180936D019093EF
:101B300068018093670184B7877F84BF0FB6F894EC
:101B4000A895809160008861809360001092600089
:101B50000FBE80E830E020E00FB6F894809361007B
:101B6000209361000FBE8091D8008F7E8093D800B3
:101B70008091D70081608093D70084E082BF91E09C
:101B800090936C018091D8008E7F8093D800109242
:101B9000E2001092DA001092E1008091D8008F7775
:101BA0008093D8008091D80080688093D80080917D
:101BB000D8008F7D8093D80019BC10928F011092AD
:101BC0006B0110926A01109269018091E0008B7F95
:101BD0008093E0008091D80081608093D8001092BB
:101BE000E9008091EB008E7F8093EB008091ED0007
:101BF0008D7F8093ED008091EB0081608093EB00FE
:101C00001092EC0082E38093ED001092F00080913E
:101C1000EE0087FFD8C09093E9003091EC009091DE
:101C2000ED002091F00091FF19C08091EB008E7FB4
:101C30008093EB008091ED008D7F8093ED0080918B
:101C4000EB0081608093EB003093EC009093ED000B
:101C50002093F0008091EE0087FFB5C082E0809372
:101C6000E9003091EC009091ED002091F00091FF9F
:101C700019C08091EB008E7F8093EB008091ED0086
:101C80008D7F8093ED008091EB0081608093EB006D
:101C90003093EC009093ED002093F0008091EE00E3
:101CA00087FF91C083E08093E9003091EC00909130
:101CB000ED002091F00091FF19C08091EB008E7F24
:101CC0008093EB008091ED008D7F8093ED008091FB
:101CD000EB0081608093EB003093EC009093ED007B
:101CE0002093F0008091EE0087FF6DC084E0809328
:101CF000E9003091EC009091ED002091F00091FF0F
:101D000019C08091EB008E7F8093EB008091ED00F5
:101D10008D7F8093ED008091EB0081608093EB00DC
:101D20003093EC009093ED002093F0008091EE0052
:101D300087FF49C085E08093E9003091EC009091E5
:101D4000ED002091F00091FF19C08091EB008E7F93
:101D50008093EB008091ED008D7F8093ED0080916A
:101D6000EB0081608093EB003093EC009093ED00EA
:101D70002093F0008091EE0087FF25C086E08093DD
:101D8000E9003091EC009091ED002091F00091FF7E
:101D900018C08091EB008E7F8093EB008091ED0066
:101DA0008D7F8093ED008091EB0081608093EB004C
:101DB0003093EC009093ED002093F0008091EE00C2
:101DC00087FD1092E9008091E1008E7F8093E10011
:101DD0008091E20081608093E2008091E20088605F
:101DE0008093E2008091E0008E7F8093E0008091FC
:101DF000D80080618093D800789409E613E07724B6
:101E0000739422242A949FE7392E82E0F82E63B13E
:101E100049B140955FB150951092B3011092B10154
:101E20001092B201252F30E0C901959587959595BF
:101E300087959595879595958795959587958270C2
:101E4000F901F595E795F595E795F595E795E47032
:101E50008E2B551F5527551F852B35952795287097
:101E6000822B9091A301907F892B8093A301862FD1
:101E70008095282F30E0582E56945694482E429440
:101E8000440C440C50EC4522C90182959295907FF8
:101E90009827807F982780729927B901660F771F4E
:101EA00060787727862B972B542F5F71852BB9018C
:101EB000660F771F62957295707F7627607F762711
:101EC00066277170862B972B3695322F22273795F0
:101ED000279522273270822B932B92012227347070
:101EE000822B932B920122273870822B932B4595BE
:101EF0004074842B9093A5018093A401B9EBCB2E61
:101F0000B1E0DB2E1CC02FB7F89480916F01909147
:101F10007001A0917101B09172012FBFF60182830F
:101F20009383A483B58390859F25908792FD97C066
:101F3000B8E1CB0ED11C0C151D0509F4ABC0D601C0
:101F400018969C9118979B7F18969C931897ED91E3
:101F5000FC910190F081E02DB4E0EC32FB0709F038
:101F6000AAC1D6015696ED91FC91579752964D9184
:101F70005C91539751968C91811199C12181328145
:101F80002423352381E0232B09F480E0969591707A
:101F90008913B9CF9FB7F89480906F01909070012A
:101FA000A0907101B09072019FBFD60112964D9121
:101FB0005D916D917C911597841A950AA60AB70ACE
:101FC00016964D915C91179770E060E08416950627
:101FD000A606B70608F474C1F6019085292F217072
:101FE000821709F4A3CF2FB7F89480916F019091D5
:101FF0007001A0917101B09172012FBF8283938310
:10200000A483B58380858725846080872FB7F89463
:1020100080916F0190917001A0917101B091720156
:102020002FBF4185528563857485841B950BA60B54
:10203000B70B85879687A787B08B2FB7F8948091C9
:102040006F0190917001A0917101B09172012FBF49
:1020500081879287A387B487908592FF69CFD60145
:1020600051968C91519752962D913C9190FF2BC196
:10207000882309F435C18091A301282B2F70807F1C
:10208000282B2093A301B8E1CB0ED11C0C151D0504
:1020900009F055CF8091A4019091A5012091A30151
:1020A000722F7F70622F6470AC014427537041150A
:1020B000534009F031C14091A7015091A8015C7FC4
:1020C0005093A8014093A701611176C223FDCEC2AF
:1020D00021FDAFC29093A8018093A70150E0E09149
:1020E000A60120FD17C140E0552309F493C1F8E093
:1020F0004F27242F2F70E22EE07FE22BE093A601E2
:102100002091B4013091B5012130310509F4C6C2E6
:102110002230310509F091C13092AA012092A90123
:102120003092AC012092AB01242F2C70243009F4A2
:10213000AFC2CC24CA94DC2C283021F0CC24CA9421
:102140006FE7D62ED092AE01C092AD0143706FEF13
:102150007FEF413031F070E060E0423011F06FEF1E
:102160007FE77093B0016093AF01E07FE093A60139
:10217000E12C4FEF5FE72FEF3FE7A1E19A2EE3EA73
:10218000F1E0DE01119601900D929A94E1F79090A2
:10219000B1018090B201B1E16B2EE2E9F1E0DE0124
:1021A000529601900D926A94E1F7EC81FD89EF2738
:1021B000EF7041F4E0919601F0919701E817F9076B
:1021C00009F4D1C1E091B601F091B701309709F45B
:1021D0004FC1319709F05AC0A32FB52F672FEFEFEA
:1021E000EE0D78E0EA3020F4F0E0E05EFE4F708122
:1021F000AC01440F551F82FBEE27E0F9EBAB1CAAA4
:102200009A0122703327EBA9FCA92E2B3F2B887F44
:102210009F73822B932B9A0124703327282B392B01
:102220003CA32BA37DA3AEA3BFA3D8A669A788E038
:10223000FE01B396DE019B9601900D928A95E1F71F
:1022400088E0FE01BB96A3E7B1E001900D928A956C
:10225000E1F780918F01843009F47DC180918F0175
:102260008823A1F08091E9008F70E82E8091EC0026
:1022700080FF02C06894E7F81092E9008091E800BE
:1022800083FDF1C18E2D8F708093E90081E1E3EA37
:10229000F1E0A2E9B1E001900D928A95E1F720E02A
:1022A00030E0232B09F4B3CD0E940000AECD208195
:1022B0002F7030E065CEC6010995F601908566CE97
:1022C00018969C9133CE8823B1F08091A301982F6A
:1022D0009F7020952923807F282B2093A30128CE4F
:1022E0008091A4019091A501282B392B3093A50151
:1022F0002093A4011DCE209530958091A40190914A
:10230000A501282339233093A5012093A40110CEE1
:102310006111CBC141E0E8CE322F3870422F4270BC
:102320002170E091A6019093A8018093A70151E04C
:10233000311101C050E0222309F463C04111E8CFFC
:10234000662341F345E0332309F440C041E0342FD4
:102350003F70E32EE07FE32BE093A6012091B401D0
:102360003091B5012130310509F0D2CE242F2C70E7
:102370002430D9F1283009F491C12FEF3FE7309391
:10238000AA012093A90143704130C1F1423009F400
:1023900082C14FEF5FE75093AC014093AB013092A5
:1023A000AE012092AD013092B0012092AF01E07FEA
:1023B000E093A601E12C6FEF7FE7CC24CA94EFE70E
:1023C000DE2EDBCE442309F46EC146E0B42FBF708D
:1023D000EB2EE07FEB2BE093A6012091B40130912E
:1023E000B5012130310509F093CE30E020E0309383
:1023F000AA012093A9014370413041F64FEF5FEFEE
:10240000CACF662309F4AAC03323E1F2442309F4B6
:102410005EC142E0A42FAF70EA2EE07FEA2BE0938A
:10242000A6012091B4013091B5012130310509F4A4
:10243000A4CF2230310509F46FCE3092AA01209248
:10244000A9013092AC012092AB013092AE012092F2
:10245000AD013092B0012092AF016FEF7FE7CC2445
:10246000CA942FE7D22E4FEF5FE72FEF3FE785CEDD
:1024700030585058A0E8DA1A7058FC01F695E795E4
:10248000F295E295EF70EF27FF70EF27E071DC0126
:10249000B695A795B695A795B695A795A072EA2B80
:1024A000DC01B295A295AF70AB27BF70AB27FA2FB6
:1024B000F074EF2BFA2FF078EF2BEE2AE92FE69548
:1024C000E695E470A370AE2BE82FE295E07FFE2F37
:1024D000F071AF2BFE2FF072AF2BFE2FF074AF2BED
:1024E000E078AE2BE091B301E11115C0FC010024AE
:1024F000EE0FFF1F001CEE0FFF1F001CEF2FF02D33
:10250000E1709E2E9194880F892F881F990B9195C9
:102510008170882E8194B4E1B0937C01E0927D01BA
:10252000A0937E0190927F0180928001309382017E
:10253000209381015093840140938301D0928601BE
:10254000C0928501709388016093870180918F010B
:10255000843009F083CE0E94430980CE442309F4DD
:10256000C2CD42E0C1CDE091A0019E122BCEE09100
:10257000A1018E1227CEE0919801F0919901E21706
:10258000F30709F01FCEE0919A01F0919B01E41747
:10259000F50709F017CEE0919C01F0919D01EC1533
:1025A000FD0509F00FCEE0919E01F0919F01E61725
:1025B000F70709F007CE52CEE091A601E07FE09345
:1025C000A6014091B4015091B50121E030E0309373
:1025D000B5012093B401EE24E39442175307E1F1CF
:1025E00081E090E00E9429158E1509F45AC06E2DE5
:1025F00081E090E00E943115E090B50182E090E02A
:102600000E9429158E1529F06E2D82E090E00E941F
:1026100031158091A4019091A5012091A301322F41
:102620003870622F6470422F42702170E091A601D1
:102630007ACEE091A601E07FE093A6014091B4013B
:102640005091B5011092B5011092B401E12C30E027
:1026500020E04217530721F6372F3870472F42707A
:10266000272F217060CE0E943A050CCEE091A60182
:10267000E07FE093A6014091B4015091B50122E0C2
:1026800030E03093B5012093B401F2E0EF2EA5CFF6
:10269000D12CC12C57CD50E040E07DCE2FEF3FEF45
:1026A0006ECEE12CABCF44E091CE31114FCEE07F26
:1026B000E560E093A6012091B4013091B50121308D
:1026C000310551F02230310521F445E025CD40E0BF
:1026D0003ECE35E0E32EB1CE1092AA011092A901B0
:1026E00030E020E04FEF5FEF56CE10E00DCA90FFD4
:1026F00008C081E090E09093B7018093B60111E0AB
:10270000F2C991FF08C01092B7011092B60110E013
:1027100090E080E0E8C9C90106CA8F929F92AF920B
:10272000BF92CF92DF92EF92FF920F931F93CF93BE
:10273000DF938AE091E09093910180939001109251
:10274000B80189EB91E00E94BF0C04E011E0109306
:10275000BA010093B901FF24F394F092CA018824CE
:102760008394912C9092CC018092CB01C5E0D0E073
:10277000D093CE01C093CD0181ED91E00E94BF0CBA
:102780001093D2010093D101F092E20192E0A92EC0
:10279000B12CB092E401A092E301D093E601C09382
:1027A000E50189EE91E00E94BF0C1093EA010093CD
:1027B000E901F092FA0124E0C22ED12CD092FC0162
:1027C000C092FB01D093FE01C093FD0181E092E035
:1027D0000E94BF0C1093020200930102F0921202B9
:1027E00038E0E32EF12CF0921402E0921302D09321
:1027F0001602C093150289E192E00E94BF0C10936B
:102800001A020093190210922A0290922C028092CE
:102810002B02D0932E02C0932D0281E392E00E94FE
:10282000BF0C109332020093310210924202B09218
:102830004402A0924302D0934602C093450289E429
:1028400092E00E94BF0C10934A020093490210923A
:102850005A02D0925C02C0925B02D0935E02C09397
:102860005D0281E692E00E94BF0C10936202009329
:10287000610210927202F0927402E0927302D0939D
:102880007602C093750289E792E00E94BF0C109314
:102890007A020093790210928A0280E190E090938C
:1028A0008C0280938B02D0938E02C0938D0281E9BB
:1028B00092E00E94BF0C109392020093910210923A
:1028C000A20280E290E09093A4028093A302D093AE
:1028D000A602C093A50289EA92E00E94BF0C109361
:1028E000AA020093A9021092BA0280E490E09093A9
:1028F000BC028093BB02D093BE02C093BD0281ECA8
:1029000092E00E94BF0C1093C2020093C102109289
:10291000D20280E890E09093D4028093D302D093C7
:10292000D602C093D50289ED92E00E94BF0C1093AD
:10293000DA020093D9021092EA0280E091E09093CB
:10294000EC028093EB02D093EE02C093ED0281EF94
:1029500092E00E94BF0C1093F2020093F1021092D9
:10296000020380E092E09093040380930303D093EA
:102970000603C093050389E093E00E94BF0C109307
:102980000A030093090310921A0380E094E09093E5
:102990001C0380931B03D0931E03C0931D0381E28D
:1029A00093E00E94BF0C1093220300932103109226
:1029B000320380E098E09093340380933303D09304
:1029C0003603C093350389E393E00E94BF0C109354
:1029D0003A030093390310924A0380E090E1909308
:1029E0004C0380934B03D0934E03C0934D0381E57A
:1029F00093E00E94BF0C1093520300935103109276
:102A0000620380E090E29093640380936303D09329
:102A10006603C0936503EFECF1E083EA91E09183F4
:102A20008083789623E0EF37F207C9F784E191E0DD
:102A30009093910180939001DF91CF911F910F911D
:102A4000FF90EF90DF90CF90BF90AF909F908F90CE
:102A50000895F999FECF92BD81BDF89A992780B566
:102A60000895262FF999FECF1FBA92BD81BD20BDD2
:102A70000FB6F894FA9AF99A0FBE01960895EE0FE0
:102A8000FF1F0590F491E02D099481E090E0F89407
:102A90000C945115DC0101C06D9341505040E0F79A
:062AA0000895F894FFCF39
:102AA600000000002C0400000000C504C504210439
:102AB60000000000B20442042104000000004109A5
:0A2AC60000040806070508020103DA
:00000001FF
