:100000000C9442010C946A010C946A010C946A01EC
:100010000C946A010C946A010C946A010C946A01B4
:100020000C946A010C946A010C9467060C946A01A2
:100030000C946A010C946A010C946A010C946A0194
:100040000C946A010C946A010C946A010C946A0184
:100050000C946A010C946A010C946A010C941D06BC
:100060000C946A010C946A010C946A010C946A0164
:100070000C946A010C946A010C946A010C946A0154
:100080000C946A010C946A010C946A010C946A0144
:100090000C946A010C946A010C946A010C946A0134
:1000A0000C946A010C946A010C946A01090299008B
:1000B000040100A0FA0904000002FF5D0100112103
:1000C0000001012581140000000013010800000751
:1000D0000581032000010705010320000809040130
:1000E0000004FF5D03001B210001010182400102A9
:1000F000201683000000000000160300000000002E
:100100000007058203200002070502032000040700
:1001100005830320004007050303200010090402A3
:100120000001FF5D02000921000101228407000790
:100130000584032000100904030000FFFD130406DA
:1001400041000101030902290001010080FA0904AC
:1001500000000203000000092111010001225600E5
:100160000705020340000107058103400001050166
:100170000905A101150025013500450175019510FE
:10018000050919012910810205012507463B017562
:1001900004950165140939814265009501810126A4
:1001A000FF0046FF0009300931093209357508950D
:1001B0000481020600FF0920950181020A2126958B
:1001C000089102C012010002FFFFFF405E048E0290
:1001D00014010102030112010002000000400D0F92
:1001E00092000001010200013003580049006E0036
:1001F00070007500740020005300540041004E0050
:1002000044004100520044002000470041004D00DE
:100210004500500041004400000014034D006900F7
:10022000630072006F0073006F00660074000000CE
:10023000080331002E0030000000240350004F005E
:100240004B004B0045004E00200043004F004E0085
:10025000540052004F004C004C004500520000007A
:100260001C0348004F0052004900200043004F008B
:100270002E002C004C00540044002E00000004030B
:100280000904680A11241FBECFEFDAE0DEBFCDBF3C
:1002900011E0A0E0B1E0E8E2F5E102C005900D92C6
:1002A000A231B107D9F721E0A2E1B1E001C01D926E
:1002B000AE35B207E1F711E0C2E4D1E004C0219706
:1002C000FE010E94850AC134D107C9F70E942807A0
:1002D0000C94920A0C9400003FB7F89480911F018F
:1002E00090912001A0912101B091220126B5A89BF7
:1002F00005C02F3F19F00196A11DB11D3FBFBA2FB8
:10030000A92F982F8827BC01CD01620F711D811D77
:10031000911D42E0660F771F881F991F4A95D1F7FC
:100320000895CF93DF93FC0193B1909549B1409527
:100330008FB18095108AA82FB0E09D01C5E035955A
:100340002795CA95E1F72270ED0133E0D595C79561
:100350003A95E1F7C4702C2B881F8827881F282B1B
:10036000B595A795A8702A2B2283B22FB870A1E06B
:1003700009F4A0E0322F3470522F5270822F817016
:1003800020FFB8C05111BCC0332339F130E051E037
:10039000B11150E0A0E0282F82E0311101C080E0CF
:1003A000282784E0511101C080E0822720E0A111BC
:1003B00028E0822783836130710591F062307105F6
:1003C00009F474C02FEF3FE73783268331872087F6
:1003D000338722873587248723C030E050E0DBCF86
:1003E000282F2C70243009F45EC0283009F058C042
:1003F0002FEF3FEF3783268383702FEF3FEF81305E
:1004000031F030E020E0823011F02FEF3FE731870C
:1004100020872FEF3FE73387228735872487138292
:10042000692F70E09B0186E0220F331F8A95E1F768
:10043000CB0154E0880F991F5A95E1F780729927F4
:10044000DB01AA0FBB1FA078BB278A2B9B2B542F45
:100450005F71852BDB01D5E0AA0FBB1FDA95E1F7B1
:10046000AA27B1708A2B9B2B7695762F66277795D6
:10047000679566277270862B972BB9016627747073
:10048000862B972B22273870822B932B459540740F
:10049000842B9583848316861786DF91CF910895E8
:1004A0002FEF3FE7A7CF30E020E0A4CF2FEF3FE7CB
:1004B0003783268331872087282F2C702430B9F08A
:1004C000283091F42FEF3FEF3387228783702FEF8F
:1004D0003FEF813009F4A1CF30E020E0823009F411
:1004E0009CCF2FEF3FE799CF2FEF3FE7EDCF30E0E5
:1004F00020E0EACF332351F031E0511148CF46CF0D
:1005000021E050E0332309F44ACF40CF22E05111DB
:100510004BCF20E049CF84B1817884B98AB180760D
:100520008AB980B38F7080BB85B18E6785B98BB176
:100530008F698BB981B3806F81BB0895FC012091D5
:100540001801309119016217730708F49B0190E0BC
:100550002115310541F4911106C08091E80082FF18
:1005600033C080E0089580912C018823C9F1853043
:10057000C9F18091E80083FD31C08091E80082FDDF
:10058000ECCF8091E80080FFE3CF4091F3008091B1
:10059000F200542F482F2115310519F04034510530
:1005A00058F091E04034510509F090E04091E800A6
:1005B0004E774093E800CCCF81918093F100215099
:1005C00031094F5F5F4FE7CF80912C01882341F0C5
:1005D000853041F08091E80083FFBFCF81E008952E
:1005E00082E0089583E008952091E4003091E500D1
:1005F00085E69091EC0090FF06C09091E80090FF96
:1006000006C080E008959091E80092FDFACF9091A5
:100610002C01992391F0953091F09091EB0095FD8C
:1006200010C04091E4005091E5002417350709F30C
:1006300081509A01F1F684E0089582E0089583E004
:10064000089581E008958091120187FF13C0809181
:10065000E80082FF06C08091E8008B778093E80075
:1006600004C080912C018111F2CF089580912C015A
:100670008823D9F38091E80080FFF8CF8091E800CB
:100680008E77ECCF982F9093E900242F762F50E0AF
:10069000891731F07091EC002091ED005091F0003D
:1006A00021FD07C09F5F973071F78093E90081E0DB
:1006B00008953091EB003E7F3093EB003091ED00D8
:1006C0003D7F3093ED003091EB0031603093EB00D3
:1006D0007093EC002093ED005093F0002091EE0019
:1006E00027FDE0CF80E008950F931F93CF93DF9312
:1006F000CDB7DEB7AA970FB6F894DEBF0FBECDBF59
:1007000080912C01882309F491C01091E9001F7099
:100710008091EC0080FF4AC080E8182B1092E9001D
:100720008091E80083FF7FC0E2E1F1E08091F10079
:10073000819321E0EA31F207C9F780914901909154
:100740004A01892BC1F4809113018130A1F4809179
:100750001201813A81F48091E800877F8093E8005C
:1007600064E170E085E391E00E949E028091E800E0
:100770008B778093E8008091E80083FF46C08091EA
:100780001201909113019A3008F03FC0E92FF0E078
:10079000E453FC4F0C94850AD803FE030504FE03C2
:1007A0000504600482040504A505B20580E0B5CF08
:1007B000803889F0823849F5809116018F70873032
:1007C00020F58093E9008091EB0085FB882780F974
:1007D0001092E90006C080912501909126019111A7
:1007E00082609091E800977F9093E8008093F100F9
:1007F0001092F1008091E8008E7731C0282F2D7F74
:1008000021F48823F1F0823079F18091E80083FFB0
:100810000AC08091E800877F8093E8008091EB0018
:1008200080628093EB001F701093E900AA960FB6C8
:10083000F894DEBF0FBECDBFDF91CF911F910F9116
:10084000089580911401813001F7933009F080E020
:10085000809326011092E9008091E800877F8093C1
:10086000E8000E942303D1CF809114018111F2CFBF
:10087000809116018F702FEF280F263030F680936D
:10088000E9002091EB0020FFE5CF933031F4809117
:10089000EB0080628093EB00DDCF9091EB009061E4
:1008A0009093EB0021E030E001C0220F8A95EAF737
:1008B0002093EA001092EA008091EB008860EACF72
:1008C0008111A3CF009114010F778091E30080780C
:1008D000802B8093E3008091E800877F8093E8007D
:1008E0000E9423038091E80080FFFCCF8091E30009
:1008F00080688093E30083E0011101C082E080936F
:100900002C0183CF8058823008F07FCF8091140172
:10091000909115018C3D23E09207A1F583E08A8335
:100920008AE289834FB7F894DE01139620E03EE017
:1009300051E2E32FF0E050935700E49120FF03C011
:10094000E295EF703F5FEF708E2F90E0EA30C0F0DD
:10095000C7968D939D932F5F243159F74FBF809198
:10096000E800877F8093E8006AE270E0CE0101969C
:100970000E949E028091E8008B778093E80045CF2B
:10098000C096E7CF292F33274091230150912401AE
:100990004130510509F070C02330310509F440C0E1
:1009A00078F521303105B9F189E290E0E5E4F1E034
:1009B0002230310509F029CF2091E800277F2093CC
:1009C000E80020911801309119018217930708F46B
:1009D0009C0140E02115310509F083C0411181C01F
:1009E0008091E80082FDC6CF80912C01882311F20E
:1009F000853009F4BFCF8091E80083FFF1CFBACFF3
:100A000021323105A1F186E590E0EEE6F1E02232F7
:100A1000310591F2FACE82E190E0E6EDF1E0CCCF43
:100A200099278130910581F008F446C08230910504
:100A3000B1F0039709F0E9CEE0E3F2E0E4918E2F04
:100A400090E0E0E3F2E007C0E0E6F2E0E4918E2F10
:100A500090E0E0E6F2E0009709F4D7CEADCFEAE30C
:100A6000F2E0E4918E2F90E0EAE3F2E0F4CF89E047
:100A700090E0E7E5F1E0A0CF2230310569F12330C5
:100A8000310549F082E190E0E4ECF1E021303105FC
:100A900009F0BBCE91CF992781309105A9F060F084
:100AA0008230910509F0C5CFE8EEF1E0E4918E2F98
:100AB00090E0E8EEF1E0CFCFEEE7F2E0E4918E2FA8
:100AC00090E0EEE7F2E0C7CFEAE1F2E0E4918E2FAA
:100AD00090E0EAE1F2E0BFCF89E990E0ECEAF0E0F3
:100AE0006BCF80912C01882309F444CF853009F421
:100AF00041CF8091E80083FD3DCF8091E80082FDE9
:100B00006FCF8091E80080FF65CF8091F3009091D6
:100B1000F2008927982789272115310519F080349B
:100B2000910558F041E08034910509F040E0809152
:100B3000E8008E778093E8004DCF44914093F10018
:100B40003196215031090196E7CF803809F05DCE0A
:100B50008091E800877F8093E8008091270180934F
:100B6000F10048CE811151CE00911401023008F0FD
:100B70004CCE8091E800877F8093E80000932701A6
:100B80000E9423030023A1F084E080932C01809134
:100B9000490190914A01019789F042E261EC83E0BA
:100BA0000E94420342E261EC81E00E9442032DCEAA
:100BB0008091E30087FDE8CF81E0E7CF42E360EC7E
:100BC00082E00E94420342E3EECF0F931F93CF9344
:100BD000DF938C01EB010E946F0A8883C8010196A4
:100BE0000E946F0A8983CE01DF91CF911F910F91EF
:100BF0000895FF920F931F93CF93DF93EC018B0126
:100C0000FB01F0800E946F0AF81621F06F2DCE01D3
:100C10000E94770AF801F1802196CE010E946F0AA6
:100C2000F81621F06F2DCE010E94770AC801DF91DE
:100C3000CF911F910F91FF9008951F920F920FB6C1
:100C40000F9211242F933F938F939F93AF93BF9352
:100C500080911B0190911C01A0911D01B0911E017A
:100C600030911A0123E0230F2D3758F50196A11D6D
:100C7000B11D20931A0180931B0190931C01A09336
:100C80001D01B0931E0180911F0190912001A09140
:100C90002101B09122010196A11DB11D80931F0178
:100CA00090932001A0932101B0932201BF91AF91B5
:100CB0009F918F913F912F910F900FBE0F901F909A
:100CC000189526E8230F0296A11DB11DD2CF1F92C1
:100CD0000F920FB60F9211242F933F934F935F9370
:100CE0006F937F938F939F93AF93BF93EF93FF93F4
:100CF0008091E10082FF09C08091E20082FF05C07F
:100D00008091E1008B7F8093E1008091DA0080FF89
:100D100017C08091D80080FF13C08091DA008E7FC9
:100D20008093DA008091D90080FF86C080E189BD80
:100D300082E189BD09B400FEFDCF81E080932C01E2
:100D40008091E10080FF17C08091E20080FF13C016
:100D50008091E2008E7F8093E2008091E2008061CA
:100D60008093E2008091D80080628093D80019BC03
:100D700085E080932C018091E10084FF26C0809162
:100D8000E20084FF22C080E189BD82E189BD09B40F
:100D900000FEFDCF8091D8008F7D8093D800809198
:100DA000E1008F7E8093E1008091E2008F7E80934E
:100DB000E2008091E20081608093E200809127014F
:100DC0008823F1F184E080932C018091E10083FF7E
:100DD00022C08091E20083FF1EC08091E100877FE6
:100DE0008093E10082E080932C0110922701809192
:100DF000E1008E7F8093E1008091E2008E7F8093FE
:100E0000E2008091E20080618093E20042E360E0D2
:100E100080E00E944203FF91EF91BF91AF919F91BB
:100E20008F917F916F915F914F913F912F910F9093
:100E30000FBE0F901F90189519BC10922C0180CFF7
:100E40008091E30087FD02C081E0BDCF83E0BBCF8E
:100E5000CF93DF93CDB7DEB7AD970FB6F894DEBF73
:100E60000FBECDBF789484B5826084BD84B58160A7
:100E700084BD85B5826085BD85B5816085BD809165
:100E80006E00816080936E001092810080918100DD
:100E900082608093810080918100816080938100D5
:100EA00080918000816080938000809191008260B9
:100EB0008093910080919100816080939100809156
:100EC00090008160809390008091C1008460809345
:100ED000C1008091C10082608093C1008091C100F7
:100EE00081608093C1008091C30081608093C300C2
:100EF0008091C00082608093C0008091C2008160B8
:100F00008093C20080917A00846080937A008091FF
:100F10007A00826080937A0080917A008160809369
:100F20007A0080917A00806880937A006AE271E0AA
:100F300090E080E00E94E5056BE471E081E090E0E4
:100F40000E94E50582E090E00E946F0A80932901EB
:100F50008DE491E00E948B020E946C014B015C01C8
:100F600054EFC52EDD24D394E12CF12C0E946C01AA
:100F7000681979098A099B09683E734081059105C2
:100F8000A8F321E0C21AD108E108F10838EE830E77
:100F900033E0931EA11CB11CC114D104E104F1047F
:100FA00029F760914B0170914C018DE491E00E9412
:100FB00091012091510130915201C901882792700D
:100FC00030FF7EC2892B61F481E090E090932B0189
:100FD00080932A016AE271E090E080E00E94F905C6
:100FE00080912A0190912B0190934A0180934901AD
:100FF000909324018093230184B7877F84BF0FB629
:10100000F894A895809160008861809360001092A8
:1010100060000FBE80E830E020E00FB6F8948093C7
:101020006100209361000FBE8091D8008F7E809375
:10103000D8008091D70081608093D70084E082BF80
:1010400081E0809328018091D8008E7F8093D80022
:101050001092E2001092DA001092E1008091D80024
:101060008F778093D8008091D80080688093D800D3
:101070008091D8008F7D8093D80019BC10922C01EC
:101080001092270110922601109225018091E00014
:101090008B7F8093E0008091D80081608093D8009E
:1010A00042E360E080E00E9442038091E1008E7F95
:1010B0008093E1008091E20081608093E200809162
:1010C000E20088608093E2008091E0008E7F809350
:1010D000E0008091D80080618093D800789442E04D
:1010E000642E712C01E010E030E0E32E30E0F32EAE
:1010F0008FE0EFE4F1E0DE01509601900D928A95C9
:10110000E1F7C0904B01D0904C01B6018DE491E025
:101110000E94910180915101909152019C012227DE
:101120003370232B79F020914F0122FFD9C0109208
:1011300050019C7F909352018093510110934C0178
:1011400000934B0180914B0190914C01C816D90638
:1011500031F06BE471E081E090E00E94F90590913C
:1011600050018989981338C0209151013091520162
:101170008A899B892817390779F590915B018C8DB5
:1011800098132AC090915C018D8D981325C02091F1
:101190005301309154018C899D8928173907E1F456
:1011A00020915501309156018E899F892817390762
:1011B00099F4288D398D8091570190915801281705
:1011C000390751F42A8D3B8D8091590190915A0134
:1011D0002817390709F47BC08FE0EFE4F1E0DE0166
:1011E000119601900D928A95E1F740914901509135
:1011F0004A014115510509F49AC04130510509F4DD
:1012000013C180912C01843009F061C024E1222EA9
:10121000312C35E3A32E31E0B32E452B89F1B2E01A
:10122000B093E9008091E80082FF23C08091E8003C
:1012300085FF1AC00E94F402811116C047E0C42E37
:10124000D12C5E01E7E2AE0EB11C8091E80085FD75
:1012500021C18091E8008B778093E8000E9474039D
:101260000E94F402882389F38091E8008B778093B1
:10127000E80088E0282E312C9DE2A92E91E0B92EBD
:10128000E1E0E093E9008091E80080FF20C00E9447
:10129000F402811111C0610145018091E80085FDD2
:1012A00004C18091E8008E778093E8000E94740367
:1012B0000E94F402882389F38091E8008E7780935E
:1012C000E800A10170E060E0C5010E948B0A0E9465
:1012D0007403E114F10409F40BCF0E94000004CF61
:1012E00023FF0CC0109250019C7F90935201809379
:1012F000510170924C0160924B0124CF20FF0CC031
:10130000109250019C7F9093520180935101109252
:101310004C0110924B0116CF21FF14CF10925001B7
:101320009C7F906190935201809351010BCF8B81F0
:101330009C819D848E84CD80DE80B0E8DB1AAF81F5
:10134000B885B058E985FA85F0586B857C8570586A
:101350005C0134E0B694A7943A95E1F71C0125E0CE
:10136000369427942A95E1F7222D2071B22E9C0104
:101370003695279536952795369527952072B22A6A
:101380002A81B22A2A2D2074B22A2A2D2078B22A44
:101390001C0124E0220C331C2A95E1F7392F3695E5
:1013A0003695232F24703A2D3370A32EA22A322D86
:1013B0003071A32A322D3072A32A322D3074A32A21
:1013C000222D2078A22A2F85211112C09C01689419
:1013D00015F8369527951694E1F72170922E919481
:1013E000880F892F881F990B91958170882E819481
:1013F00084E180933601B0923701A0923801909237
:10140000390180923A01D0923C01C0923B01B093E5
:101410003E01A0933D01F0934001E0933F017093A2
:10142000420160934101EDCE8B819C81CE80B884D6
:10143000FA85DC842A812F702150E8E02A3028F4D4
:1014400030E0285F3E4FD901EC919C01220F331F01
:1014500082FB442440F8512CB9016270772764293B
:101460007529887F9F73862B972B24703327822BB7
:10147000932B98A38F8FE9A3CAA2BBA2FCA3DDA2E2
:1014800088E0FE017F96ADE2B1E001900D928A9571
:10149000E1F7B7CE8091F100D5018D935D01B1E008
:1014A000CB1AD10809F0D1CEDFCED4018D914D01F8
:1014B0008093F100B1E0CB1AD10809F0EECEFCCE5A
:1014C000892B09F48DCD10922B0110922A0182CD27
:1014D00084E091E090934E0180934D010895F99935
:1014E000FECF92BD81BDF89A992780B50895262F29
:1014F000F999FECF1FBA92BD81BD20BD0FB6F894F9
:10150000FA9AF99A0FBE01960895EE0FFF1F059003
:10151000F491E02D0994DC0101C06D9341505040DD
:08152000E0F70895F894FFCFF5
:10152800000000008B02910100040806070508026C
:021538000103AD
:00000001FF
