:100000000C94D0010C94F8010C94F8010C94F801B4
:100010000C94F8010C94F8010C94F8010C94F8017C
:100020000C94F8010C94F8010C948E0C0C94F801CB
:100030000C94F8010C94F8010C94F8010C94F8015C
:100040000C94F8010C94F8010C94F8010C94F8014C
:100050000C94F8010C94F8010C94F8010C94440CE5
:100060000C94F8010C94F8010C94F8010C94F8012C
:100070000C94F8010C94F8010C94F8010C94F8011C
:100080000C94F8010C94F8010C94F8010C94F8010C
:100090000C94F8010C94F8010C94F8010C94F801FC
:1000A0000C94F8010C94F8010C94F80109029900E1
:1000B000040100A0FA0904000002FF5D0100112103
:1000C0000001012581140000000013010800000751
:1000D0000581032000010705010320000809040130
:1000E0000004FF5D03001B210001010182400102A9
:1000F000201683000000000000160300000000002E
:100100000007058203200002070502032000040700
:1001100005830320004007050303200010090402A3
:100120000001FF5D02000921000101228407000790
:100130000584032000100904030000FFFD130406DA
:1001400041000101030902290001010080FA0904AC
:1001500000000203000000092111010001225600E5
:100160000705020340000107058103400001050166
:100170000905A101150025013500450175019510FE
:10018000050919012910810205012507463B017562
:1001900004950165140939814265009501810126A4
:1001A000FF0046FF0009300931093209357508950D
:1001B0000481020600FF0920950181020A2126958B
:1001C000089102C00902290001010080FA09040017
:1001D0000002030000000921110100012294000720
:1001E00005020340000107058103400001092111B8
:1001F00001000122940005010904A101A102850169
:1002000075089501150026FF0081037501951315EA
:1002100000250135004501050919012913810275E1
:1002200001950D0600FF8103150026FF0005010959
:1002300001A10075089504350046FF000930093119
:10024000093209358102C005017508952709018128
:10025000027508953009019102750895300901B1C0
:1002600002C0A1028502750895300901B102C0A142
:100270000285EE750895300901B102C0A10285EF33
:10028000750895300901B102C0C012010002FFFFDC
:10029000FF405E048E0214010102030112010002FC
:1002A000000000400D0F9200000101020001120148
:1002B0000002000000404C0568020001010200013C
:1002C0003003580049006E00700075007400200073
:1002D0005300540041004E004400410052004400CD
:1002E0002000470041004D004500500041004400FF
:1002F000000014034D006900630072006F0073007A
:100300006F00660074000000240350004F004B0093
:100310004B0045004E00200043004F004E005400AB
:1003200052004F004C004C004500520000001C03DE
:1003300048004F0052004900200043004F002E00AB
:100340002C004C00540044002E0000000803310033
:100350002E0030000000360350004C0041005900D0
:10036000530054004100540049004F004E00280043
:10037000520029003300200043006F006E0074001B
:1003800072006F006C006C006500720000000A03D0
:1003900053006F006E00790000000403090420156B
:1003A00011241FBECFEFDAE0DEBFCDBF11E0A0E029
:1003B000B1E0E8EFFDE202C005900D92A633B1076F
:1003C000D9F723E0A6E3B1E001C01D92AB35B20737
:1003D000E1F711E0C0EDD1E004C02197FE010E94D9
:1003E000E816CF3CD107C9F70E94430E0C94FA16C9
:1003F0000C940000FC0163B149B140955FB1509588
:1004000010A211A2252F30E0C901959587959595E9
:1004100087959595879595958795959587958270FC
:10042000D901B595A795B595A795B595A795A4704C
:100430008A2B551F5527551F852B359527952870D5
:10044000822B9289907F892B828B262F2095622F79
:1004500070E0922F96959695822F8295880F880F3F
:10046000807C9B0122953295307F3227207F322776
:1004700020723327DB01AA0FBB1FA078BB272A2BD2
:100480003B2B542F5F71252BDB01AA0FBB1FA295BD
:10049000B295B07FBA27A07FBA27AA27B1702A2BBE
:1004A0003B2B7695762F6627779567956627727032
:1004B000262B372BBC0166277470262B372B8827F9
:1004C0009870282B392B45954074242B348B238B23
:1004D0000895FC01A489B589828993892189211114
:1004E0000AC011962D913C912823392381E0232BBA
:1004F00009F480E008952C912F7030E0F5CFFC01D5
:100500002389348922273C7081E021153C4009F081
:1005100080E00895FC01238934892227337081E02B
:100520002115334009F080E0089584B1817884B9C1
:100530008AB180768AB980B38F7080BB85B18E67AF
:1005400085B98BB18F698BB981B3806F81BB0895F9
:100550000895FC0120916C0130916D0162177307C1
:1005600008F49B0140E02115310521F512C090915E
:100570008F01992319F1953099F19091E80093FD3D
:1005800031C09091E80092FD25C09091E80090FD67
:100590004DC04111ECCF1EC0953011F19091E80093
:1005A00093FD20C09091E80092FD14C09091E80066
:1005B00090FD1AC090918F019111EECF82E00895C5
:1005C00080918F018823D1F3853051F08091E8002C
:1005D00083FD08C08091E80082FFF2CF80E008959B
:1005E00083E0089581E008956091F3008091F20026
:1005F000762F682F6034710520F00DC060347105CE
:1006000051F081918093F100215031096F5F7F4F4C
:100610002115310599F741E06034710509F040E09A
:100620008091E8008E778093E8009DCF6091F30081
:100630008091F200762F682FEECF1F93CF93DF9338
:10064000CDB7DEB7AA970FB6F894DEBF0FBECDBF09
:1006500080918F01882381F01091E9001F708091B3
:10066000EC0080FD10681092E9008091E80083FDA5
:100670000DC01F701093E900AA960FB6F894DEBF64
:100680000FBECDBFDF91CF911F9108959091F100E2
:10069000909366018091F100809367012091F100B1
:1006A000209368012091F100209369012091F100CD
:1006B00020936A012091F10020936B012091F100B9
:1006C00020936C012091F10020936D012091750120
:1006D00030917601232B09F07BC0813009F078C07E
:1006E000913A09F45CC02091E80023FF49C09923A6
:1006F00009F464C3923009F043C08091680181110C
:1007000026C080916A018F709FEF980F9630C0F5D8
:100710008093E9009091EB0090FF19C090916701E0
:10072000933009F4BAC49091EB0090619093EB0080
:1007300021E030E001C0220F8A95EAF72093EA0019
:100740001092EA008091EB0088608093EB00109299
:10075000E9008091E800877F8093E800809166013E
:1007600087FF05C0E2C280918F01882349F0809104
:10077000E80080FFF8CF8091E8008E778093E80052
:100780008091E80083FF75CF8091E800877F809398
:10079000E8008091EB0080628093EB006ACF80914B
:1007A000E800877F8093E800809175019091760141
:1007B000009709F4FCC2029731F460E470E086E32C
:1007C00091E00E94A9028091E8008B778093E80075
:1007D0008091E80083FFD4CF9091660180916701FA
:1007E0008A3070F6E82FF0E0E850FC4F0C94E816E1
:1007F00059047703C0037703C00341060204C00312
:1008000021068B049058923008F0BACF809168018D
:10081000909169018C3D23E0920709F4E4C2292FED
:10082000332740916F01509170014130510509F417
:1008300011C34230510509F0E8C32330310509F4F2
:1008400016C408F408C42132310509F462C484E9ED
:1008500090E0E6EFF1E02232310509F091CF2091EE
:10086000E800277F2093E80020916C0130916D0112
:100870008217930708F49C0140E02115310509F027
:1008800080C214C080918F01882309F443C285304F
:1008900009F440C28091E80083FD3CC28091E800E9
:1008A00082FD80C28091E80080FD02C44111EACF40
:1008B00079C2903809F48EC2923809F061CF8091E4
:1008C0006A018F70873008F05BCF8093E9008091D8
:1008D000EB0085FB882780F91092E9009091E800F1
:1008E000977F9093E8008093F1001092F10080913F
:1008F000E8008E778093E8008091660187FF06C04C
:1009000005C280918F01882309F43ACF8091E800D5
:1009100080FFF7CF30CF911133CF809168018230C3
:1009200008F02ECF9091E800977F9093E800809395
:1009300073018091660187FF05C00BC280918F0112
:10094000882349F08091E80080FFF8CF8091E8008B
:100950008E778093E80080917301882309F466C341
:1009600084E080938F0180917501909176018130B0
:10097000910509F482C2029709F47FC283E0809353
:10098000E9008091EB008E7F8093EB008091ED0079
:100990008D7F8093ED008091EB0081608093EB0070
:1009A00081EC8093EC0082E28093ED001092F000E5
:1009B0008091EE0087FF6FC084E08093E900309162
:1009C000EC009091ED002091F00091FF19C0809112
:1009D000EB008E7F8093EB008091ED008D7F809304
:1009E000ED008091EB0081608093EB003093EC0090
:1009F0009093ED002093F0008091EE0087FF4BC0B4
:100A000085E08093E9003091EC009091ED00209119
:100A1000F00091FF19C08091EB008E7F8093EB0076
:100A20008091ED008D7F8093ED008091EB008160DF
:100A30008093EB003093EC009093ED002093F00056
:100A40008091EE0087FF27C086E08093E900309117
:100A5000EC009091ED002091F00091FF19C0809181
:100A6000EB008E7F8093EB008091ED008D7F809373
:100A7000ED008091EB0081608093EB003093EC00FF
:100A80009093ED002093F0008091EE0087FF03C06B
:100A900083E08093E90081E08093E9008091EB009E
:100AA0008E7F8093EB008091ED008D7F8093ED0031
:100AB0008091EB0081608093EB0081EC8093EC00EF
:100AC00082E28093ED001092F0008091EE0087FFAB
:100AD00057CE82E08093E9003091EC009091ED00D8
:100AE0002091F00091FF19C08091EB008E7F8093E0
:100AF000EB008091ED008D7F8093ED008091EB0005
:100B000081608093EB003093EC009093ED00209394
:100B1000F0008091EE0087FF33CE83E08093E90000
:100B20003091EC009091ED002091F00091FF19C000
:100B30008091EB008E7F8093EB008091ED008D7FA4
:100B40008093ED008091EB0081608093EB00309307
:100B5000EC009093ED002093F0008091EE0087FF71
:100B60000FCE84E08093E9003091EC009091ED008D
:100B70002091F00091FF19C08091EB008E7F80934F
:100B8000EB008091ED008D7F8093ED008091EB0074
:100B900081608093EB003093EC009093ED00209304
:100BA000F0008091EE0087FFEBCD85E08093E900B7
:100BB0003091EC009091ED002091F00091FF19C070
:100BC0008091EB008E7F8093EB008091ED008D7F14
:100BD0008093ED008091EB0081608093EB00309377
:100BE000EC009093ED002093F0008091EE0087FFE1
:100BF000C7CD86E08093E9003091EC009091ED0044
:100C00002091F00091FF19C08091EB008E7F8093BE
:100C1000EB008091ED008D7F8093ED008091EB00E3
:100C200081608093EB003093EC009093ED00209373
:100C3000F0008091EE0087FFA3CD81E08093E90072
:100C40009FCD903809F09CCD8091E800877F8093FC
:100C5000E800809173018093F1008091E8008E7725
:100C60008093E8008091660187FF06C068C080918C
:100C70008F01882309F484CD8091E80080FFF7CFAD
:100C80007ACD91117DCD909168019F778091E3009D
:100C90008078892B8093E3008091E800877F8093A0
:100CA000E8008091660187FF05C021C080918F0117
:100CB000882349F08091E80080FFF8CF8091E80018
:100CC0008E778093E8008091E80080FFFCCF8091D0
:100CD000E30080688093E30083E0911101C082E02B
:100CE00080938F014DCD80918F01882361F3809196
:100CF000E80082FFF8CF8091E8008B778093E800CE
:100D0000E2CF80918F01882309F43ACD8091E800E9
:100D100082FFF7CF8091E8008B778093E80030CD99
:100D200080918F01882309F42BCD8091E80082FF08
:100D3000F7CFF0CF80918F01882309F421CD8091E6
:100D4000E80082FFF7CFE6CF80918F01882309F476
:100D500002CE8091E80082FFF7CF8091E8008B7788
:100D60008093E800F8CD8530A9F28091E80083FDFA
:100D7000D1CF8091E80082FD15C08091E80080FD10
:100D800097C180918F018111EECFC4CF80918F01E7
:100D9000882309F4BFCF853009F4BCCF8091E800E7
:100DA00083FDB8CF8091E80082FFF0CFB3CF64E13C
:100DB00070E080E991E00E94A90205CD9091680160
:100DC000913009F0DDCC91E0833009F090E0909310
:100DD0007201BDCC8091710190917201992309F447
:100DE0007DCD82607BCD83E08A838AE289835FB791
:100DF000F894DE01139680E09EE041E207C0295C92
:100E00003F4F2D933D938F5F843191F0E92FF0E0B8
:100E100040935700E49180FF03C0E295EF709F5F1D
:100E2000EF702E2F30E0EA3050F7205D3F4FE9CFD2
:100E30005FBF8091E800877F8093E8006AE270E0FE
:100E4000CE0101960E94A9028091E8008B778093E1
:100E5000E80096CC2330310509F465C108F4EEC0F2
:100E60002132310509F43BC186E590E0EEE6F1E080
:100E70002232310509F4F3CC83CC82E08093E9007F
:100E80008091EB008E7F8093EB008091ED008D7F51
:100E90008093ED008091EB0081608093EB0080EC0B
:100EA0008093EC0082E38093ED001092F00080913B
:100EB000EE0087FF93C083E08093E9003091EC005F
:100EC0009091ED002091F00091FF19C08091EB000E
:100ED0008E7F8093EB008091ED008D7F8093ED00FD
:100EE0008091EB0081608093EB003093EC00909355
:100EF000ED002093F0008091EE0087FF6FC084E04A
:100F00008093E9003091EC009091ED002091F00089
:100F100091FF19C08091EB008E7F8093EB00809150
:100F2000ED008D7F8093ED008091EB0081608093D8
:100F3000EB003093EC009093ED002093F000809153
:100F4000EE0087FF4BC085E08093E9003091EC0014
:100F50009091ED002091F00091FF19C08091EB007D
:100F60008E7F8093EB008091ED008D7F8093ED006C
:100F70008091EB0081608093EB003093EC009093C4
:100F8000ED002093F0008091EE0087FF27C086E0FF
:100F90008093E9003091EC009091ED002091F000F9
:100FA00091FF19C08091EB008E7F8093EB008091C0
:100FB000ED008D7F8093ED008091EB008160809348
:100FC000EB003093EC009093ED002093F0008091C3
:100FD000EE0087FF03C082E08093E90081E0809308
:100FE000E9008091EB008E7F8093EB008091ED0013
:100FF0008D7F8093ED008091EB0081608093EB000A
:1010000081EC8093EC0082E35CCD2230310509F461
:101010007BC02330310509F467C082E190E0EAE843
:10102000F2E02130310509F0ABCB19CC8091E3001F
:1010300087FD87C081E080938F0195CC21303105F9
:1010400009F46CC089E290E0E5E4F1E0223031057A
:1010500009F405CC95CB2130310529F189E290E0E6
:10106000E4ECF1E02230310509F4F9CB89CB992782
:101070008130910509F47CC008F475C08230910577
:1010800009F46CC0039709F07BCBECE4F3E08491A6
:1010900090E0009709F474CBE2CB8091EB00806282
:1010A0008093EB0054CB82E190E0EEEAF2E0D7CB04
:1010B0008091F3009091F2008927982789272115C4
:1010C000310509F440C08034910508F03CC04491DA
:1010D0004093F1003196215031090196F0CF89E01B
:1010E00090E0E7E5F1E0BBCB99278130910509F469
:1010F00044C008F438C08230910509F0C3CFE0EC59
:10110000F2E0849190E0C5CF89E990E0ECEAF0E06C
:10111000A6CB89E090E0EDEEF1E0A1CB82E190E09A
:10112000ECE9F2E09CCB99278130910559F1D8F098
:101130008230910509F0A6CFE8E0F3E0849190E0D9
:10114000A8CF84E078CF41E08034910509F040E0F9
:101150008091E8008E778093E8008FCBE6E5F3E09E
:10116000849190E096CFEAE9F3E0849190E091CF0A
:10117000EEE8F3E0849190E08CCFE2EFF2E084912E
:1011800090E087CFEEE2F3E0849190E082CF0F937E
:101190001F93CF93DF9300D0CDB7DEB78C0181E0F2
:1011A00090E00E94D216898382E090E00E94D216DD
:1011B0008A8389819A81F80193A382A390E080E0D9
:1011C0000E94D216898381E090E00E94D2168A8321
:1011D00089819A81F80195A384A382E090E00E941E
:1011E000D216898383E090E00E94D2168A83898197
:1011F0009A81F80197A386A30F900F90DF91CF916A
:101200001F910F9108951F93CF93DF93EC01A88155
:10121000B9811896ED91FC91199742E0EA38F407EC
:1012200001F58B899C899C0122273370211533405D
:10123000F1F01A96ED91FC9182E0EF37F80709F092
:1012400053C08B899C899C0122273C7021153C400E
:1012500009F451C0D0E0C0E0CE01DF91CF911F91E1
:1012600008950995882309F48BC08B899C894AA12C
:101270005BA19C7F9C8B8B8B2A8922FF27C081E0FE
:1012800090E09BA38AA3207F2A8B11E0C2E0D0E0EC
:101290004817590709F381E090E00E94D2168117A0
:1012A00029F0612F81E090E00E94DA1682E090E060
:1012B0000E94D216882381F260E082E090E00E94D2
:1012C000DA16CE01DF91CF911F91089523FD44C01E
:1012D00021FF59C01BA21AA2207F2A8B10E090E0A8
:1012E00080E0C1E0D0E0D4CFCE010995882309F495
:1012F000B1CF8B899C892EA13FA1937F9C8B8B8B37
:101300008A8980FD33C081FF48C041E050E05FA37F
:101310004EA3807F8A8B11E081E090E0C0E4D0E0B2
:101320002817390709F498CF82E090E00E94D2167E
:10133000811729F0612F82E090E00E94DA1683E0A5
:1013400090E00E94D216882309F486CF60E083E003
:1013500090E00E94DA1680CF82E090E09BA38AA3FF
:10136000207F2A8B12E0C4E0D0E092CF1FA21EA201
:10137000807F8A8B10E090E080E0C0E2D0E0D0CFA8
:10138000A881B98156CF20FF65CF207F2A8B90613D
:101390009C8B8B8BC8E0D0E05FCF82FF5BCF42E0BD
:1013A00050E05FA34EA3807F8A8B12E082E090E042
:1013B000C0E8D0E0B5CF0E94EE16AF92BF92CF92B8
:1013C000DF92EF92FF920F931F93CF93DF9300D0A2
:1013D00000D000D01F92CDB7DEB7809175019091FB
:1013E0007601892B09F45AC082E08093E90080914C
:1013F000E80082FF72C08091E80085FDBEC0809148
:10140000E8008B778093E80048E0A42EB12C57E8E1
:10141000C52E51E0D52E81E08093E9008091E8004F
:1014200080FF4AC04091E4005091E50025E680919C
:10143000EC0080FF5AC08091E80080FD5AC0809186
:101440008F01882381F0853071F08091EB0085FD5C
:101450000AC08091E4009091E5008417950739F364
:101460002150AC0121F78091E8008E778093E8004D
:10147000A50170E060E0C60127960FB6F894DEBFC4
:101480000FBECDBFDF91CF911F910F91FF90EF90D5
:10149000DF90CF90BF90AF900C94F31624E1A22E72
:1014A000B12C30E9C32E31E0D32E81E08093E900E6
:1014B0008091E80080FDB6CF27960FB6F894DEBF86
:1014C0000FBECDBFDF91CF911F910F91FF90EF9095
:1014D000DF90CF90BF90AF90089588E0A82EB12CF8
:1014E00097E8C92E91E0D92EE0CF8091E80082FFE5
:1014F000A6CF8501760109C0F70181917F01809314
:10150000F1000150110909F4AECF8091E80085FD8A
:10151000F3CF8091E8008E778093E8000E941D034E
:101520004091E4005091E50025E68091EC0080FFB9
:101530001FC08091E80080FDE8CF80918F01882353
:1015400009F491CF853009F48ECF8091EB0085FDB1
:101550008ACF8091E4009091E5008417950729F3E4
:101560002150AC0109F47FCF8091EC0080FDE1CFE8
:101570008091E80082FFE1CFC8CF4091E400509114
:10158000E50025E68091EC0080FF1FC08091E80017
:1015900080FD1FC080918F01882309F430CF8530F2
:1015A00009F42DCF8091EB0085FD29CF8091E400D7
:1015B0009091E5008417950729F32150AC0109F4B7
:1015C0001ECF8091EC0080FDE1CF8091E80082FF8A
:1015D000E1CF67E0E62EF12C8E010F5F1F4F0AC0AE
:1015E0008091F100F80181938F01F1E0EF1AF10889
:1015F00009F405CF8091E80085FDF2CF8091E800E5
:101600008B778093E8000E941D034091E400509185
:10161000E50025E68091EC0080FF1FC08091E80086
:1016200080FDE8CF80918F01882309F4E8CE8530D2
:1016300009F4E5CE8091EB0085FDE1CE8091E400D8
:101640009091E5008417950729F32150AC0109F426
:10165000D6CE8091EC0080FDE1CF8091E80082FF42
:10166000E1CFC8CFEF92FF920F931F93CF93DF93F9
:10167000CDB7DEB760970FB6F894DEBF0FBECDBF13
:101680002091C8013091C9012115310509F467C0C5
:101690002130310509F04DC0B091BD01A091BF01CD
:1016A0007091C1016091C301E091B901EF70E15007
:1016B000EA3008F0E2C0F0E0E45DFE4FE081209106
:1016C000BA013091BB01A901440F551F22FB8827A5
:1016D00080F990E08A0102701127802B912B287FDE
:1016E0003F73822B932B44705527842B952B9A8321
:1016F0008983EB83BC83AD837E836F8388E0FE01A7
:101700003196DE01199601900D928A95E1F788E0F5
:10171000FE013996A7E8B1E001900D928A95E1F7B4
:1017200080918F01843009F0A5C00E94DD090E94DC
:101730001D0380E1E6EBF1E0A6EAB1E001900D9235
:101740008A95E1F760960FB6F894DEBF0FBECDBF65
:10175000DF91CF911F910F91FF90EF900895A0918D
:10176000BC01B091BD01B058E091BE01F091BF0144
:10177000F0586091C0017091C10170584091C20150
:101780005091C30150582091BA013091BB017901A9
:10179000F294E2940FE0E022EF24F022EF2489019A
:1017A00016950795129502950F7001271F70012756
:1017B0000071C90196958795969587959695879519
:1017C0008072082B8091B9018F70082B8E2D807448
:1017D000082B8E2D8078082B922F9295907F832F47
:1017E0008695869584701E2D1370812B192F10718C
:1017F000812B192F1072812B192F1074812B907847
:10180000892B9091CC0191113AC079010024EE0C02
:10181000FF1C001CEE0CFF1C001CEF2CF02C9E2D5E
:101820009170E92EE194220F232F221F330B319563
:101830002170219594E190939101009392018093FE
:101840009301E092940120939501B0939701A093A6
:101850009601F0939901E093980170939B01609336
:101860009A0150939D0140939C0180918F01843097
:1018700009F45BCF0E941D035CCFE8E020CFE0902D
:10188000C4012091C501D6CF1F920F920FB60F92BF
:1018900011242F933F938F939F93AF93BF93809186
:1018A0007F0190918001A0918101B09182013091DE
:1018B0006E0123E0230F2D3768F126E8230F0296EF
:1018C000A11DB11D20936E0180937F019093800133
:1018D000A0938101B093820180917701909178016A
:1018E000A0917901B0917A010196A11DB11D80935B
:1018F000770190937801A0937901B0937A01BF9119
:10190000AF919F918F913F912F910F900FBE0F90AC
:101910001F9018950196A11DB11DD4CF1F920F9253
:101920000FB60F9211242F933F938F939F93809123
:10193000E10082FF04C08091E20082FD85C18091B8
:10194000DA0080FF04C08091D80080FD55C18091ED
:10195000E10080FF04C08091E20080FD61C18091C0
:10196000E10084FF2AC08091E20084FF26C080E16C
:1019700089BD82E189BD09B400FEFDCF8091D80008
:101980008F7D8093D8008091E1008F7E8093E1006D
:101990008091E2008F7E8093E2008091E20081607E
:1019A0008093E20080917301811154C18091E30022
:1019B00087FD58C181E080938F018091E10083FF12
:1019C00012C18091E20083FF0EC18091E100877F08
:1019D0008093E10082E080938F01109273018091E7
:1019E000E1008E7F8093E1008091E2008E7F809302
:1019F000E2008091E20080618093E2001092E900B1
:101A00008091EB008E7F8093EB008091ED008D7FC5
:101A10008093ED008091EB0081608093EB00109249
:101A2000EC0082E38093ED001092F0008091EE00D4
:101A300087FFD9C081E08093E9003091EC0080916C
:101A4000ED002091F00081FF19C09091EB009E7F86
:101A50009093EB009091ED009D7F9093ED0090911D
:101A6000EB0091609093EB003093EC008093ED00DD
:101A70002093F0008091EE0087FFB5C082E0809354
:101A8000E9003091EC009091ED002091F00091FF81
:101A900019C08091EB008E7F8093EB008091ED0068
:101AA0008D7F8093ED008091EB0081608093EB004F
:101AB0003093EC009093ED002093F0008091EE00C5
:101AC00087FF91C083E08093E9003091EC00809122
:101AD000ED002091F00081FF19C09091EB009E7FF6
:101AE0009093EB009091ED009D7F9093ED0090918D
:101AF000EB0091609093EB003093EC008093ED004D
:101B00002093F0008091EE0087FF6DC084E0809309
:101B1000E9003091EC009091ED002091F00091FFF0
:101B200019C08091EB008E7F8093EB008091ED00D7
:101B30008D7F8093ED008091EB0081608093EB00BE
:101B40003093EC009093ED002093F0008091EE0034
:101B500087FF49C085E08093E9003091EC009091C7
:101B6000ED002091F00091FF19C08091EB008E7F75
:101B70008093EB008091ED008D7F8093ED0080914C
:101B8000EB0081608093EB003093EC009093ED00CC
:101B90002093F0008091EE0087FF25C086E08093BF
:101BA000E9003091EC008091ED002091F00081FF80
:101BB00018C09091EB009E7F9093EB009091ED0008
:101BC0009D7F9093ED009091EB0091609093EB00DE
:101BD0003093EC008093ED002093F0008091EE00B4
:101BE00087FD1092E9009F918F913F912F910F9067
:101BF0000FBE0F901F9018958091DA008E7F809312
:101C0000DA008091D90080FF29C080E189BD82E19E
:101C100089BD09B400FEFDCF81E080938F0197CE8E
:101C20008091E2008E7F8093E2008091E2008061EB
:101C30008093E2008091D80080628093D80019BC24
:101C400085E080938F018BCE8091E1008B7F809324
:101C5000E10075CE84E080938F01AFCE19BC109265
:101C60008F0175CE83E0A7CEFC018AE291E09183DB
:101C7000808312821382148215828AE090E0978317
:101C8000868310860895789484B5826084BD84B577
:101C9000816084BD85B5826085BD85B5816085BD67
:101CA00080916E00816080936E001092810080911F
:101CB00081008260809381008091810081608093A7
:101CC00081008091800081608093800080919100EC
:101CD0008260809391008091910081608093910057
:101CE000809190008160809390008091C100846019
:101CF0008093C1008091C10082608093C100809177
:101D0000C10081608093C1008091C3008160809395
:101D1000C3008091C00082608093C0008091C200A7
:101D200081608093C20080917A00846080937A0001
:101D300080917A00826080937A0080917A0081603D
:101D400080937A0080917A00806880937A0084EA98
:101D500091E00E94950284EA91E00E94C70884EA1B
:101D600091E00E94FA014091C8015091C90120916F
:101D7000B7013091B80133FF4BC482E090E09093FB
:101D8000C9018093C801C2E048175907D1F090E01B
:101D900080E00E94D2168C1729F06C2F90E080E032
:101DA0000E94DA1681E090E00E94D216882329F082
:101DB00060E081E090E00E94DA168091C801909185
:101DC000C90190937601809375019093700180937F
:101DD0006F0184B7877F84BF0FB6F894A895809170
:101DE0006000886180936000109260000FBE80E800
:101DF00030E020E00FB6F8948093610020936100FA
:101E00000FBE8091D8008F7E8093D8008091D7003C
:101E100081608093D70084E082BF91E09093740149
:101E20008091D8008E7F8093D8001092E2001092AB
:101E3000DA001092E1008091D8008F778093D8006B
:101E40008091D80080688093D8008091D8008F7DE1
:101E50008093D80019BC10928F01109273011092D8
:101E60007201109271018091E0008B7F8093E000FD
:101E70008091D80081608093D8001092E900809111
:101E8000EB008E7F8093EB008091ED008D7F80933F
:101E9000ED008091EB0081608093EB001092EC00EC
:101EA00082E38093ED001092F0008091EE0087FFB6
:101EB000D8C09093E9003091EC009091ED00209112
:101EC000F00091FF19C08091EB008E7F8093EB00B2
:101ED0008091ED008D7F8093ED008091EB0081601B
:101EE0008093EB003093EC009093ED002093F00092
:101EF0008091EE0087FFB5C082E08093E9003091C9
:101F0000EC009091ED002091F00091FF19C08091BC
:101F1000EB008E7F8093EB008091ED008D7F8093AE
:101F2000ED008091EB0081608093EB003093EC003A
:101F30009093ED002093F0008091EE0087FF91C018
:101F400083E08093E9003091EC009091ED002091C6
:101F5000F00091FF19C08091EB008E7F8093EB0021
:101F60008091ED008D7F8093ED008091EB0081608A
:101F70008093EB003093EC009093ED002093F00001
:101F80008091EE0087FF6DC084E08093E90030917E
:101F9000EC009091ED002091F00091FF19C080912C
:101FA000EB008E7F8093EB008091ED008D7F80931E
:101FB000ED008091EB0081608093EB003093EC00AA
:101FC0009093ED002093F0008091EE0087FF49C0D0
:101FD00085E08093E9003091EC009091ED00209134
:101FE000F00091FF19C08091EB008E7F8093EB0091
:101FF0008091ED008D7F8093ED008091EB008160FA
:102000008093EB003093EC009093ED002093F00070
:102010008091EE0087FF25C086E08093E900309133
:10202000EC009091ED002091F00091FF18C080919C
:10203000EB008E7F8093EB008091ED008D7F80938D
:10204000ED008091EB0081608093EB003093EC0019
:102050009093ED002093F0008091EE0087FD1092A8
:10206000E9008091E1008E7F8093E1008091E200A1
:1020700081608093E2008091E20088608093E200BA
:102080008091E0008E7F8093E0008091D800806195
:102090008093D80078943FB7F8948091770190911D
:1020A0007801A0917901B0917A0126B5A89B05C06D
:1020B0002F3F19F00196A11DB11D3FBFBA2FA92FC7
:1020C000982F8827820F911DA11DB11D880F991F80
:1020D000AA1FBB1F880F991FAA1FBB1FD2E3CD2EBB
:1020E000D12CE12CF12C3FB7F8944091770150911D
:1020F00078016091790170917A0126B5A89B06C09C
:102100002F3F21F04F5F5F4F6F4F7F4F3FBF762FC5
:10211000652F542F4427420F511D611D711D440F1F
:10212000551F661F771F440F551F661F771F481BDB
:10213000590B6A0B7B0B483E53406105710598F2C1
:1021400021E0C21AD108E108F10888519C4FAF4F35
:10215000BF4FC114D104E104F10429F60E94320BEF
:1021600000E0E02E00E0F02ECC24CA948FE7D82EB9
:102170006624639412E0712E04C0E114F10409F0A6
:1021800044C23FB7F8948091770190917801A09173
:102190007901B0917A0126B5A89B05C02F3F19F0AF
:1021A0000196A11DB11D3FBFBA2FA92F982F8827D7
:1021B000820F911DA11DB11D880F991FAA1FBB1F62
:1021C000880F991FAA1FBB1F409183015091840162
:1021D0006091850170918601841B950BA60BB70B4E
:1021E0008E3E9105A105B10540F273B169B16095CC
:1021F000EFB1E0951092C4011092C5012E2F30E08E
:10220000C901959587959595879595958795959508
:102210008795959587958270A90155954795559510
:102220004795559547954470842BEE1FEE27EE1F7A
:102230008E2B359527952870282B8091B601807FAD
:10224000282B2093B6017095872F90E0172F1695B5
:102250001695072F0295000F000F007C9C01229518
:102260003295307F3227207F322720723327AC010E
:10227000440F551F40785527242B352B462F4F717F
:10228000242BAC01440F551F42955295507F542783
:10229000407F542744275170242B352BAC01569591
:1022A000542F44275795479544275270422B532B60
:1022B000F801EE27F4704E2B5F2BF801EE27F87033
:1022C0004E2B5F2B65956074462B5093B80140935D
:1022D000B701CFECD1E01AC02FB7F89480917F01FD
:1022E00090918001A0918101B09182012FBF8A83DA
:1022F0009B83AC83BD8328852725288722FD89C041
:10230000669623E0CB35D20709F499C048854B7F08
:102310004887E881F9810190F081E02D52E0E936AB
:10232000F50709F086C1EC89FD892A893B898989ED
:1023300081117BC1818192812823392381E0232B64
:1023400009F480E0469541708413C6CF9FB7F89496
:1023500080907F0190908001A0908101B0908201D7
:102360009FBF4A815B816C817D8114012501241A04
:10237000350A460A570AB201A1018E809F80B12C0E
:10238000A12C2885481559056A057B0508F4B6CFA8
:10239000922F9170891709F4B1CF2FB7F8948091DB
:1023A0007F0190918001A0918101B09182012FBFA6
:1023B0008A839B83AC83BD838885862584608887D8
:1023C0002FB7F89480917F0190918001A0918101B5
:1023D000B09182012FBF49855A856B857C85841B0E
:1023E000950BA60BB70B8D879E87AF87B88B2FB742
:1023F000F89480917F0190918001A0918101B0912A
:1024000082012FBF89879A87AB87BC87288522FFE7
:1024100077CF39898A899B8920FF0FC1332309F43B
:1024200019C19091B601892B8F70907F982B909352
:10243000B601669623E0CB35D20709F067CF8091CD
:10244000B7019091B8017091B601672F6F709C0130
:10245000222733702115334009F014C14091C60181
:102460005091C7019C7F9093B8018093B70172FF90
:102470005AC122242394312C3092C7012092C601E4
:10248000707F7093B601C1E021E030E0421753073E
:1024900009F45CC181E090E00E94D2168C1729F00B
:1024A0006C2F81E090E00E94DA1682E090E00E94BA
:1024B000D216882329F060E082E090E00E94DA16CC
:1024C0008091B7019091B8016091B6016F70209131
:1024D000CA013091CB014091C6015091C701909340
:1024E000BB018093BA012130310509F462C108F4BF
:1024F00084C12230310509F059C1862F83708230A2
:1025000009F43DC1833009F45CC2813009F44DC245
:1025100080E0E8E024E078E034E090E06C7068303F
:1025200009F43DC16C3009F434C2643009F4B9C116
:10253000282F2F708091B901807F822B8093B90161
:102540004130510509F4A2C14230510509F0D2C011
:102550002091CD01211108C0D092BD01C092BC01D3
:10256000D092BF01C092BE01292F2C70243009F4F3
:10257000DAC1283009F0D4C12FEF3FEF3093C10109
:102580002093C00193702FEF3FEF913031F030E096
:1025900020E0923011F02FEF3FE73093C3012093FA
:1025A000C201807F8093B9010E94320B3FB7F8943B
:1025B0008091770190917801A0917901B0917A0191
:1025C00026B5A89B05C02F3F19F00196A11DB11D8E
:1025D0003FBFBA2FA92F982F8827820F911DA11DC9
:1025E000B11D880F991FAA1FBB1F880F991FAA1F13
:1025F000BB1F8093830190938401A0938501B093C6
:102600008601E114F10409F4BCCD0E940000B0CDB4
:10261000C9018827917030FF09C281E090E0909352
:10262000C9018093C801C1E0AFCB80818F7090E079
:1026300083CECE010995488585CE3323B1F09091A4
:10264000B601292F2F7080958223907F982B90932D
:10265000B60156CE2091B7013091B801822B932B51
:102660009093B8018093B7014BCE809590952091BF
:10267000B7013091B801822393239093B8018093DE
:10268000B7013ECE2091CA013091CB01AC01442765
:102690005C7041155C4009F01ECF937F9093B801A8
:1026A0008093B70170FF15C11092CB011092CA013F
:1026B000707F7093B601C0E050E040E0241735070A
:1026C00009F41AC182E090E00E94D2168C1729F01A
:1026D0006C2F82E090E00E94DA1683E090E00E9486
:1026E000D216882309F4ECCE60E083E090E00E94EB
:1026F000DA16E6CE8091CD01811108C0D092BD01DD
:10270000C092BC01D092BF01C092BE018091CE01A7
:1027100081114ACFD092C101C092C001D092C301B1
:10272000C092C20141CF73FFA4C0A2E04A2E512C37
:102730005092C7014092C601707F7093B601C2E00B
:1027400022E030E04217530709F0A4CE2091CA01DD
:102750003091CB019093BB018093BA0121303105B8
:1027600009F4D6C02130310508F4F4C02230310517
:10277000E9F460E0862F8370823009F0C3CE72E006
:10278000272E312C30927E0120927D01EAE026E056
:102790007AE036E092E06C70683009F0C3CE24E055
:1027A00030E030937C0120937B0117C080E090E003
:1027B000BFCE862F8370813009F4C6C0823009F005
:1027C000A8C0EAE026E07AE036E092E06C7064307F
:1027D00009F46EC0683009F0ABCE8091B901807FFA
:1027E0008E2B8093B9014130510509F402C142306A
:1027F000510509F07FCF972FABCE91E0862F8370E4
:10280000833009F090E0792F6C70643009F48EC049
:10281000683009F0FBC098608091B901807F892BF6
:102820008093B9014130510509F08ECE792F2FEFF9
:102830003FEF3093BD012093BC0173702FEF3FEF4A
:10284000713031F030E020E0723011F02FEF3FE7CF
:102850003093BF012093BE019091CE019111A1CE82
:10286000D092C101C092C001D092C301C092C201F6
:1028700098CE71FF7EC01092C7011092C601707F82
:102880007093B601C0E030E020E000CE292F2C701C
:10289000243009F4B5C0283049F2792F2FEF3FE7F3
:1028A000C8CF63E0462E512C50927C0140927B01B0
:1028B0002F708091B901807F822B8093B9014130C4
:1028C000510509F499C04230510509F013CF932FF7
:1028D0003FCE71FF7EC022242394312C3092CB0155
:1028E0002092CA01707F7093B601C1E041E050E0D0
:1028F0002417350709F0E6CE4091C6015091C70173
:102900009093BB018093BA012130310509F02ACFA1
:1029100060E080E0E8E024E078E034E090E056CF4A
:102920002FEF3FE72BCE30E020E028CE746080917F
:10293000B901807F872B8093B9014130510509F09F
:1029400056CF30E020E075CFE9E025E079E035E0D2
:1029500091E03CCF70E08091B901807F972F9F700C
:10296000892B8093B9014130510509F040CF972F51
:1029700094CF70FF09C0707F7093B60190619093FF
:10298000B8018093B70160E02091CA013091CB017A
:10299000A6CD80917B0190917C01039711F0C90134
:1029A000C7CD2E2F372FC901C3CD21E030E03093A2
:1029B0007E0120937D01E9E025E079E035E091E0BA
:1029C000ADCD80917D0190917E010197E9F081E08C
:1029D000F2CF72FF80CDE2E04E2E512C5092CB010F
:1029E0004092CA01707F7093B601C2E042E050E0AD
:1029F00065CE2FEF3FEF1DCF732F30E020E019CFD2
:102A0000792F30E020E015CF82E0C0CE6C3009F0A5
:102A1000A2CF8091B901807F892B8093B901413089
:102A2000510509F091CD2FEF3FE703CF31FF06C0ED
:102A30001092C9011092C801C0E0A6C9CA01C1C95B
:102A40008F929F92AF92BF92CF92DF92EF92FF92BE
:102A50000F931F93CF93DF938AE091E09093A501AA
:102A60008093A4011092C7011092C6011092C9016F
:102A70001092C8011092CB011092CA011092CC01A1
:102A80001092CD011092CE018FEC91E00E94340E95
:102A900004E011E01093D0010093CF01FF24F394E0
:102AA000F092E00188248394912C9092E20180922C
:102AB000E101C5E0D0E0D093D601C093D50185EE09
:102AC00091E00E94340E1093E6010093E501F0922C
:102AD000F60192E0A92EB12CB092F801A092F70174
:102AE000D093EC01C093EB018BEF91E00E94340E88
:102AF0001093FC010093FB01F0920C0224E0C22E23
:102B0000D12CD0920E02C0920D02D0930202C0933B
:102B1000010281E192E00E94340E109312020093B0
:102B20001102F092220238E0E32EF12CF0922402FE
:102B3000E0922302D0931802C093170287E292E03A
:102B40000E94340E1093280200932702109238023C
:102B500090923A0280923902D0932E02C0932D02B5
:102B60008DE392E00E94340E10933E0200933D02EA
:102B700010924E02B0925002A0924F02D0934402A3
:102B8000C093430283E592E00E94340E10935402F6
:102B90000093530210926402D0926602C0926502C2
:102BA000D0935A02C093590289E692E00E94340EF3
:102BB00010936A020093690210927A02F0927C02EA
:102BC000E0927B02D0937002C0936F028FE792E095
:102BD0000E94340E1093800200937F0210929002A4
:102BE00080E190E09093920280939102D0938602CC
:102BF000C093850285E992E00E94340E10939602FC
:102C0000009395021092A60280E290E09093A802B1
:102C10008093A702D0939C02C0939B028BEA92E020
:102C20000E94340E1093AC020093AB021092BC02CF
:102C300080E490E09093BE028093BD02D093B202F4
:102C4000C093B10281EC92E00E94340E1093C20254
:102C50000093C1021092D20280E890E09093D402D7
:102C60008093D302D093C802C093C70287ED92E04D
:102C70000E94340E1093D8020093D7021092E802FB
:102C800080E091E09093EA028093E902D093DE0223
:102C9000C093DD028DEE92E00E94340E1093EE029E
:102CA0000093ED021092FE0280E092E09093000308
:102CB0008093FF02D093F402C093F30283E093E089
:102CC0000E94340E10930403009303031092140324
:102CD00080E094E09093160380931503D0930A0349
:102CE000C093090389E193E00E94340E10931A0304
:102CF0000093190310922A0380E098E090932C032C
:102D000080932B03D0932003C0931F038FE293E0A3
:102D10000E94340E1093300300932F03109240034F
:102D200080E090E19093420380934103D093360377
:102D3000C093350385E493E00E94340E109346035C
:102D4000009345031092560380E090E2909358035D
:102D500080935703D0934C03C0934B03E3EEF1E011
:102D600086EB91E091838083769623E0EF36F2073D
:102D7000C9F78AE191E09093A5018093A401109294
:102D8000CC011092CD011092CE01DF91CF911F9115
:102D90000F91FF90EF90DF90CF90BF90AF909F90FA
:102DA0008F900895F999FECF92BD81BDF89A992729
:102DB00080B50895262FF999FECF1FBA92BD81BD27
:102DC00020BD0FB6F894FA9AF99A0FBE01960895AD
:102DD000EE0FFF1F0590F491E02D099481E090E043
:102DE000F8940C94FA16DC0101C06D9341505040E8
:082DF000E0F70895F894FFCF0D
:102DF80000000000690200000000C708A802A8023D
:102E080003098A027F0200000000C7089502FA0140
:102E180003098A027F0200000000DB09000408069B
:062E28000705080201038A
:00000001FF
