:100000000C94D0010C94F8010C94F8010C94F801B4
:100010000C94F8010C94F8010C94F8010C94F8017C
:100020000C94F8010C94F8010C94CD0A0C94F8018E
:100030000C94F8010C94F8010C94F8010C94F8015C
:100040000C94F8010C94F8010C94F8010C94F8014C
:100050000C94F8010C94F8010C94F8010C94830AA8
:100060000C94F8010C94F8010C94F8010C94F8012C
:100070000C94F8010C94F8010C94F8010C94F8011C
:100080000C94F8010C94F8010C94F8010C94F8010C
:100090000C94F8010C94F8010C94F8010C94F801FC
:1000A0000C94F8010C94F8010C94F80109029900E1
:1000B000040100A0FA0904000002FF5D0100112103
:1000C0000001012581140000000013010800000751
:1000D0000581032000010705010320000809040130
:1000E0000004FF5D03001B210001010182400102A9
:1000F000201683000000000000160300000000002E
:100100000007058203200002070502032000040700
:1001100005830320004007050303200010090402A3
:100120000001FF5D02000921000101228407000790
:100130000584032000100904030000FFFD130406DA
:1001400041000101030902290001010080FA0904AC
:1001500000000203000000092111010001225600E5
:100160000705020340000107058103400001050166
:100170000905A101150025013500450175019510FE
:10018000050919012910810205012507463B017562
:1001900004950165140939814265009501810126A4
:1001A000FF0046FF0009300931093209357508950D
:1001B0000481020600FF0920950181020A2126958B
:1001C000089102C00902290001010080FA09040017
:1001D0000002030000000921110100012294000720
:1001E00005020340000107058103400001092111B8
:1001F00001000122940005010904A101A102850169
:1002000075089501150026FF0081037501951315EA
:1002100000250135004501050919012913810275E1
:1002200001950D0600FF8103150026FF0005010959
:1002300001A10075089504350046FF000930093119
:10024000093209358102C005017508952709018128
:10025000027508953009019102750895300901B1C0
:1002600002C0A1028502750895300901B102C0A142
:100270000285EE750895300901B102C0A10285EF33
:10028000750895300901B102C0C012010002FFFFDC
:10029000FF405E048E0214010102030112010002FC
:1002A000000000400D0F9200000101020001120148
:1002B0000002000000404C0568020001010200013C
:1002C0003003580049006E00700075007400200073
:1002D0005300540041004E004400410052004400CD
:1002E0002000470041004D004500500041004400FF
:1002F000000014034D006900630072006F0073007A
:100300006F00660074000000240350004F004B0093
:100310004B0045004E00200043004F004E005400AB
:1003200052004F004C004C004500520000001C03DE
:1003300048004F0052004900200043004F002E00AB
:100340002C004C00540044002E0000000803310033
:100350002E0030000000360350004C0041005900D0
:10036000530054004100540049004F004E00280043
:10037000520029003300200043006F006E0074001B
:1003800072006F006C006C006500720000000A03D0
:1003900053006F006E007900000004030904E213AB
:1003A00011241FBECFEFDAE0DEBFCDBF11E0A0E029
:1003B000B1E0ECE0FCE202C005900D92A633B1077B
:1003C000D9F723E0A6E3B1E001C01D92A239B2073C
:1003D000E1F711E0C0EDD1E004C02197FE010E94D9
:1003E000DC15CF3CD107C9F70E94820C0C9404168F
:1003F0000C9400004091E4005091E50025E68091C6
:10040000EC0080FF1AC08091E80080FD1AC0809146
:1004100091038823C1F08530C1F08091EB0085FD08
:1004200016C08091E4009091E5004817590739F310
:100430002150AC0121F784E008958091E80082FF0B
:10044000E6CF80E0089582E0089583E0089581E09A
:100450000895FC012389348922273C7081E021150D
:100460003C4009F080E00895FC012389348922276B
:10047000337081E02115334009F080E00895FC01DC
:10048000A489B58982899389218921110AC011968D
:100490002D913C912823392381E0232B09F480E01E
:1004A00008952C912F7030E0F5CFFC0163B149B174
:1004B00040955FB1509510A211A2252F30E0C901DF
:1004C0009595879595958795959587959595879514
:1004D000959587958270D901B595A795B595A795FE
:1004E000B595A795A4708A2B551F5527551F852BA9
:1004F000359527952870822B9289907F892B828B46
:10050000262F2095622F70E0922F96959695822F38
:100510008295880F880F807C9B0122953295307FD1
:100520003227207F322720723327DB01AA0FBB1F1F
:10053000A078BB272A2B3B2B542F5F71252BDB0187
:10054000AA0FBB1FA295B295B07FBA27A07FBA278A
:10055000AA27B1702A2B3B2B7695762F66277795A5
:10056000679566277270262B372BBC01662774703F
:10057000262B372B88279870282B392B45954074CC
:10058000242B348B238B089584B1817884B98AB16C
:1005900080768AB980B38F7080BB85B18E6785B94C
:1005A0008BB18F698BB981B3806F81BB089508953A
:1005B0001092910310928401109283011092820193
:1005C0008091E0008B7F8093E0008091D800816073
:1005D0008093D8001092E9008091EB008E7F809389
:1005E000EB008091ED008D7F8093ED008091EB001A
:1005F00081608093EB001092EC0082E38093ED0029
:100600001092F0008091EE0087FFD9C081E08093C6
:10061000E9003091EC008091ED002091F00081FF25
:1006200019C09091EB009E7F9093EB009091ED00AC
:100630009D7F9093ED009091EB0091609093EB0083
:100640003093EC008093ED002093F0008091EE0059
:1006500087FFB5C082E08093E9003091EC00909173
:10066000ED002091F00091FF19C08091EB008E7F8A
:100670008093EB008091ED008D7F8093ED00809161
:10068000EB0081608093EB003093EC009093ED00E1
:100690002093F0008091EE0087FF91C083E080936B
:1006A000E9003091EC008091ED002091F00081FF95
:1006B00019C09091EB009E7F9093EB009091ED001C
:1006C0009D7F9093ED009091EB0091609093EB00F3
:1006D0003093EC008093ED002093F0008091EE00C9
:1006E00087FF6DC084E08093E9003091EC00909129
:1006F000ED002091F00091FF19C08091EB008E7FFA
:100700008093EB008091ED008D7F8093ED008091D0
:10071000EB0081608093EB003093EC009093ED0050
:100720002093F0008091EE0087FF49C085E0809320
:10073000E9003091EC009091ED002091F00091FFE4
:1007400019C08091EB008E7F8093EB008091ED00CB
:100750008D7F8093ED008091EB0081608093EB00B2
:100760003093EC009093ED002093F0008091EE0028
:1007700087FF25C086E08093E9003091EC008091EE
:10078000ED002091F00081FF18C09091EB009E7F5A
:100790009093EB009091ED009D7F9093ED009091F0
:1007A000EB0091609093EB003093EC008093ED00B0
:1007B0002093F0008091EE0087FD1092E900809177
:1007C000E1008E7F8093E1008091E2008160809360
:1007D000E2008091E20088608093E2008091E00076
:1007E0008E7F8093E0000895FC012091800130917C
:1007F00081016217730708F49B0140E02115310560
:1008000021F512C090919103992319F1953099F136
:100810009091E80093FD31C09091E80092FD25C0D1
:100820009091E80090FD4DC04111ECCF1EC0953075
:1008300011F19091E80093FD20C09091E80092FDA5
:1008400014C09091E80090FD1AC09091910391110D
:10085000EECF82E00895809191038823D1F3853013
:1008600051F08091E80083FD08C08091E80082FF8C
:10087000F2CF80E0089583E0089581E008956091CB
:10088000F3008091F200762F682F6034710520F01C
:100890000DC06034710551F081918093F1002150B9
:1008A00031096F5F7F4F2115310599F741E06034C1
:1008B000710509F040E08091E8008E778093E800B0
:1008C0009DCF6091F3008091F200762F682FEECFDC
:1008D0001F93CF93DF93CDB7DEB7AA970FB6F894E7
:1008E000DEBF0FBECDBF80919103882381F01091B0
:1008F000E9001F708091EC0080FD10681092E90003
:100900008091E80083FD0DC01F701093E900AA9646
:100910000FB6F894DEBF0FBECDBFDF91CF911F9110
:1009200008959091F10090937A018091F100809365
:100930007B012091F10020937C012091F100209314
:100940007D012091F10020937E012091F100209300
:100950007F012091F100209380012091F1002093EC
:1009600081012091CC013091CD01232B09F07BC076
:10097000813009F078C0913A09F45CC02091E80018
:1009800023FF49C0992309F40CC2923009F043C0F7
:1009900080917C01811126C080917E018F709FEF34
:1009A000980F9630C0F58093E9009091EB0090FF8E
:1009B00019C090917B01933009F4AEC29091EB0085
:1009C00090619093EB0021E030E001C0220F8A9506
:1009D000EAF72093EA001092EA008091EB00886029
:1009E0008093EB001092E9008091E800877F80936C
:1009F000E80080917A0187FF05C08AC18091910348
:100A0000882349F08091E80080FFF8CF8091E800CA
:100A10008E778093E8008091E80083FF75CF809106
:100A2000E800877F8093E8008091EB0080628093EC
:100A3000EB006ACF8091E800877F8093E800809187
:100A4000CC019091CD01009709F4A4C1029731F433
:100A500060E470E086E391E00E94F4038091E80096
:100A60008B778093E8008091E80083FFD4CF90914A
:100A70007A0180917B018A3070F6E82FF0E0ED5B1F
:100A8000FA4F0C94DC15A405C2040B05C2040B0537
:100A900034064D050B051406D6059058923008F023
:100AA000BACF80917C0190917D018C3D23E092072B
:100AB00009F48CC1292F33274091C9015091CA01F3
:100AC0004130510509F4B9C14230510509F0D2C194
:100AD0002330310509F400C208F4E5C121323105A3
:100AE00009F435C284E990E0E6EFF1E02232310505
:100AF00009F091CF2091E800277F2093E800209112
:100B00008001309181018217930708F49C0140E035
:100B10002115310509F028C114C080919103882363
:100B200009F4EBC0853009F4E8C08091E80083FD4A
:100B3000E4C08091E80082FD28C18091E80080FD3A
:100B4000F1C14111EACF21C1903809F436C1923880
:100B500009F061CF80917E018F70873008F05BCF04
:100B60008093E9008091EB0085FB882780F9109243
:100B7000E9009091E800977F9093E8008093F1005E
:100B80001092F1008091E8008E778093E8008091C8
:100B90007A0187FF06C0ADC080919103882309F4D4
:100BA0003ACF8091E80080FFF7CF30CF911133CF5B
:100BB00080917C01823008F02ECF9091E800977FE1
:100BC0009093E8008093840180917A0187FF05C0AB
:100BD000B3C080919103882349F08091E80080FFA1
:100BE000F8CF8091E8008E778093E80080918401AF
:100BF000882309F450C184E0809391038091CC0153
:100C00009091CD018130910509F429C1029709F431
:100C100026C142E261EC83E00E94941542E261EC5D
:100C200081E00E949415F7CE903809F0F4CE8091BF
:100C3000E800877F8093E800809184018093F10031
:100C40008091E8008E778093E80080917A0187FF99
:100C500006C068C080919103882309F4DCCE80919E
:100C6000E80080FFF7CFD2CE9111D5CE90917C01D4
:100C70009F778091E3008078892B8093E3008091B7
:100C8000E800877F8093E80080917A0187FF05C0A4
:100C900021C080919103882349F08091E80080FF72
:100CA000F8CF8091E8008E778093E8008091E8008B
:100CB00080FFFCCF8091E30080688093E30083E0B5
:100CC000911101C082E080939103A5CE80919103A0
:100CD000882361F38091E80082FFF8CF8091E800DB
:100CE0008B778093E800E2CF80919103882309F409
:100CF00092CE8091E80082FFF7CF8091E8008B7759
:100D00008093E80088CE80919103882309F483CEF4
:100D10008091E80082FFF7CFF0CF80919103882384
:100D200009F479CE8091E80082FFF7CFE6CF809179
:100D30009103882309F45ACF8091E80082FFF7CF0E
:100D40008091E8008B778093E80050CF8530A9F23E
:100D50008091E80083FDD1CF8091E80082FD15C02D
:100D60008091E80080FDDEC0809191038111EECF7B
:100D7000C4CF80919103882309F4BFCF853009F453
:100D8000BCCF8091E80083FDB8CF8091E80082FF5E
:100D9000F0CFB3CF64E170E086E691E00E94F40307
:100DA0005DCE90917C01913009F035CE91E0833099
:100DB00009F090E09093830115CE8091820190918B
:100DC0008301992309F4D5CE8260D3CE83E08A8350
:100DD0008AE289835FB7F894DE01139680E09EE093
:100DE00041E207C0295C3F4F2D933D938F5F8431D3
:100DF00091F0E92FF0E040935700E49180FF03C0A9
:100E0000E295EF709F5FEF702E2F30E0EA3050F7E1
:100E1000205D3F4FE9CF5FBF8091E800877F8093DF
:100E2000E8006AE270E0CE0101960E94F40380912E
:100E3000E8008B778093E800EECD2330310509F48C
:100E4000ACC0F0F12132310509F45CC086E590E0D8
:100E5000EEE6F1E02232310509F44CCEDCCD42E37E
:100E600060EC82E00E94941542E361EC81E00E9414
:100E70009415D1CD2230310509F47DC023303105E0
:100E800009F46AC082E190E0EAE8F2E0213031053D
:100E900009F0C1CD2FCE8091E30087FD71C081E0C4
:100EA00080939103ABCE2130310509F484C089E2EF
:100EB00090E0E4ECF1E02230310509F41BCEABCD3B
:100EC0002130310521F189E290E0E5E4F1E02230C2
:100ED000310509F40FCE9FCD99278130910509F492
:100EE00079C008F472C08230910509F478C0039784
:100EF00009F091CDECE4F3E0849190E0009709F4DF
:100F00008ACDF8CD89E090E0E7E5F1E0F3CD82E12C
:100F100090E0ECE9F2E0EECD8091EB00806280930E
:100F2000EB0060CD8091F3009091F2008927982723
:100F300089272115310531F18034910518F5449147
:100F40004093F1003196215031090196F2CF89E0AA
:100F500090E0EDEEF1E0CECD99278130910509F4D6
:100F600043C098F18230910509F0C1CFE0ECF2E086
:100F7000849190E0C3CF89E990E0ECEAF0E0BACD4B
:100F800084E08ECF41E08034910509F040E080910B
:100F9000E8008E778093E800BBCD992781309105DA
:100FA00079F098F08230910509F0A1CFE8E0F3E004
:100FB000849190E0A3CF82E190E0EEEAF2E09ACD56
:100FC000EEE2F3E0849190E099CFEAE9F3E08491D6
:100FD00090E094CFEEE8F3E0849190E08FCFE6E5E7
:100FE000F3E0849190E08ACFE2EFF2E0849190E028
:100FF00085CF0F931F93CF93DF938C01EB01209745
:1010000049F44CC0F80181918F018093F100219740
:1010100009F444C08091E80085FDF4CF8091E80098
:101020008E778093E8000E9468044091E40050911C
:10103000E50025E68091EC0080FF1EC08091E8006D
:1010400080FDE8CF809191038823F1F0853011F184
:101050008091EB0085FD20C08091E4009091E50037
:101060008417950739F32150AC0121F784E0DF9113
:10107000CF911F910F9108958091E80082FDCACF12
:10108000809191038111E2CF82E0DF91CF911F9196
:101090000F91089583E0EBCF81E0E9CF80E0E7CFC7
:1010A0000F931F93CF93DF938C014091E4005091F5
:1010B000E50025E68091EC0080FF20C08091E800EB
:1010C00080FD20C080919103882309F45FC08530A2
:1010D00009F462C08091EB0085FD64C08091E4005A
:1010E0009091E5008417950729F32150AC0111F781
:1010F00084E0DF91CF911F910F9108958091E800D6
:1011000082FFE0CFC7E0D0E008C08091F100F80195
:1011100081938F01219709F447C08091E80085FDF4
:10112000F4CF8091E8008B778093E8000E946804F8
:101130004091E4005091E50025E68091EC0080FFAD
:101140001DC08091E80080FDE8CF80919103882345
:10115000E9F0853009F18091EB0085FD23C0809195
:10116000E4009091E5008417950739F32150AC0114
:1011700009F4BECF8091EC0080FDE3CF8091E800C0
:1011800082FDCBCF809191038111E3CF82E0DF918B
:10119000CF911F910F91089583E0DF91CF911F911F
:1011A0000F91089581E0F3CF80E0F1CF0F931F936B
:1011B000CF93DF9300D0CDB7DEB78C0181E090E014
:1011C0000E94C615898382E090E00E94C6158A833A
:1011D00089819A81F80193A382A390E080E00E9424
:1011E000C615898381E090E00E94C6158A838981B3
:1011F0009A81F80195A384A382E090E00E94C6152D
:10120000898383E090E00E94C6158A8389819A8150
:10121000F80197A386A30F900F90DF91CF911F91B4
:101220000F9108951F93CF93DF93EC01A881B981AB
:101230001896ED91FC91199722E0E433F207F1F44E
:101240008B899C898827937081159340D9F01A96D1
:10125000ED91FC9182E0E932F80709F059C08B89E1
:101260009C8988279C7081159C4009F456C0D0E069
:10127000C0E0CE01DF91CF911F9108950995882399
:1012800009F49EC04AA15BA18A8982FF2EC021E099
:1012900030E03BA32AA32B893C893C7F3C8B2B8BE2
:1012A000807F8A8B11E081E090E0C2E0D0E04817B7
:1012B0005907F9F281E090E00E94C615811729F0E4
:1012C000612F81E090E00E94CE1582E090E00E94C4
:1012D000C615882371F260E082E090E00E94CE158E
:1012E000CE01DF91CF911F91089583FD49C081FF09
:1012F0006AC01BA21AA22B893C893C7F3C8B2B8B9A
:10130000807F8A8B10E090E080E0C1E0D0E0CFCF1A
:10131000CE010995882309F4AACF2EA13FA18A897D
:1013200080FD3FC081FF5CC041E050E05FA34EA361
:10133000807F8A8B8B899C89937F9C8B8B8B11E020
:1013400081E090E0C0E4D0E02817390709F491CF9C
:1013500082E090E00E94C615811729F0612F82E09B
:1013600090E00E94CE1583E090E00E94C61588238D
:1013700009F47FCF60E083E090E00E94CE1579CF42
:1013800022E030E03BA32AA32B893C893C7F3C8BA5
:101390002B8B807F8A8B12E082E090E0C4E0D0E06B
:1013A00086CF1FA21EA2807F8A8B8B899C89937F08
:1013B0009C8B8B8B10E090E080E0C0E2D0E0C4CF4B
:1013C000A881B98144CF80FF52CF807F8A8B8B89DF
:1013D0009C899C7F90619C8B8B8BC8E0D0E049CF2F
:1013E00082FF45CF42E050E05FA34EA3807F8A8B0F
:1013F0008B899C89937F9C8B8B8B12E082E090E0A1
:10140000C0E8D0E0A1CF0E94E215EF92FF920F93C7
:101410001F93CF93DF9300D000D000D01F92CDB7A1
:10142000DEB79093C7018093C6016093C501462F34
:1014300050E0BC0185E891E00E94E715892B09F492
:1014400053C080919103843009F04EC08091CC014B
:101450009091CD01892BC1F082E08093E9008091C9
:10146000E80082FF11C08091E80085FF08C050E0CD
:1014700040E067E070E0CE0101960E945008809144
:10148000E8008B778093E80081E08093E900809109
:10149000E80080FF29C01091C501E090C601F090DE
:1014A000C7010E94FA01811107C0612F70E050E06E
:1014B00040E0C7010E94F9078091E8008E77809391
:1014C000E8000091C50110E0E090C601F090C7016E
:1014D000A801B70185E891E00E94F415A80170E029
:1014E00060E0C7010E94FD150E94680427960FB6B0
:1014F000F894DEBF0FBECDBFDF91CF911F910F914A
:10150000FF90EF9008951F920F920FB60F92112443
:101510002F933F938F939F93AF93BF938091D2016B
:101520009091D301A091D401B091D5013091C8011F
:1015300023E0230F2D3768F126E8230F0296A11D23
:10154000B11D2093C8018093D2019093D301A09341
:10155000D401B093D5018091CE019091CF01A0919B
:10156000D001B091D1010196A11DB11D8093CE0192
:101570009093CF01A093D001B093D101BF91AF91CF
:101580009F918F913F912F910F900FBE0F901F90C1
:1015900018950196A11DB11DD4CF1F920F920FB6C1
:1015A0000F9211242F933F938F939F938091E1008B
:1015B00082FF04C08091E20082FD85C18091DA0043
:1015C00080FF04C08091D80080FD55C18091E1006A
:1015D00080FF04C08091E20080FD61C18091E10044
:1015E00084FF2AC08091E20084FF26C080E189BD8B
:1015F00082E189BD09B400FEFDCF8091D8008F7DC6
:101600008093D8008091E1008F7E8093E1008091EB
:10161000E2008F7E8093E2008091E20081608093FF
:10162000E20080918401811154C18091E30087FD23
:1016300058C181E0809391038091E10083FF12C142
:101640008091E20083FF0EC18091E100877F80934B
:10165000E10082E080939103109284018091E10087
:101660008E7F8093E1008091E2008E7F8093E20084
:101670008091E20080618093E2001092E900809105
:10168000EB008E7F8093EB008091ED008D7F809347
:10169000ED008091EB0081608093EB001092EC00F4
:1016A00082E38093ED001092F0008091EE0087FFBE
:1016B000D9C081E08093E9003091EC008091ED0089
:1016C0002091F00081FF19C09091EB009E7F9093D4
:1016D000EB009091ED009D7F9093ED009091EB00D9
:1016E00091609093EB003093EC008093ED00209399
:1016F000F0008091EE0087FFB5C082E08093E900A2
:101700003091EC009091ED002091F00091FF19C014
:101710008091EB008E7F8093EB008091ED008D7FB8
:101720008093ED008091EB0081608093EB0030931B
:10173000EC009093ED002093F0008091EE0087FF85
:1017400091C083E08093E9003091EC008091ED003E
:101750002091F00081FF19C09091EB009E7F909343
:10176000EB009091ED009D7F9093ED009091EB0048
:1017700091609093EB003093EC008093ED00209308
:10178000F0008091EE0087FF6DC084E08093E90057
:101790003091EC009091ED002091F00091FF19C084
:1017A0008091EB008E7F8093EB008091ED008D7F28
:1017B0008093ED008091EB0081608093EB0030938B
:1017C000EC009093ED002093F0008091EE0087FFF5
:1017D00049C085E08093E9003091EC009091ED00E4
:1017E0002091F00091FF19C08091EB008E7F8093D3
:1017F000EB008091ED008D7F8093ED008091EB00F8
:1018000081608093EB003093EC009093ED00209387
:10181000F0008091EE0087FF25C086E08093E9000C
:101820003091EC008091ED002091F00081FF18C014
:101830009091EB009E7F9093EB009091ED009D7F47
:101840009093ED009091EB0091609093EB003093BA
:10185000EC008093ED002093F0008091EE0087FD76
:101860001092E9009F918F913F912F910F900FBEA1
:101870000F901F9018958091DA008E7F8093DA0088
:101880008091D90080FF29C080E189BD82E189BDB6
:1018900009B400FEFDCF81E08093910397CE809143
:1018A000E2008E7F8093E2008091E200806180936D
:1018B000E2008091D80080628093D80019BC85E056
:1018C000809391038BCE8091E1008B7F8093E10028
:1018D00075CE84E080939103AFCE19BC1092910332
:1018E00075CE83E0A7CEFC018AE291E091838083EC
:1018F00012821382148215828AE090E09783868395
:1019000010860895CF93DF93CDB7DEB7A6970FB6B5
:10191000F894DEBF0FBECDBF789484B5826084BDDD
:1019200084B5816084BD85B5826085BD85B58160E3
:1019300085BD80916E00816080936E001092810061
:10194000809181008260809381008091810081601C
:1019500080938100809180008160809380008091DD
:1019600091008260809391008091910081608093CA
:101970009100809190008160809390008091C100DF
:1019800084608093C1008091C10082608093C10017
:101990008091C10081608093C1008091C30081600B
:1019A0008093C3008091C00082608093C0008091CA
:1019B000C20081608093C20080917A00846080932D
:1019C0007A0080917A00826080937A0080917A0018
:1019D000816080937A0080917A00806880937A0099
:1019E0008AED91E00E94C4028AED91E00E94D6083F
:1019F0008AED91E00E9455022091FE013091FF0195
:101A00008091ED019091EE0193FFBCC682E090E0E1
:101A10009093FF018093FE0142E0F42E28173907CE
:101A2000D1F090E080E00E94C6158F1529F06F2D4F
:101A300090E080E00E94CE1581E090E00E94C61503
:101A4000882329F060E081E090E00E94CE1580912B
:101A5000FE019091FF019093CD018093CC01909372
:101A6000CA018093C90184B7877F84BF0FB6F894F9
:101A7000A89580916000886180936000109260005A
:101A80000FBE80E830E020E00FB6F894809361004C
:101A9000209361000FBE8091D8008F7E8093D80084
:101AA0008091D70081608093D70084E082BF81E07D
:101AB0008093CB018091D8008E7F8093D8001092C4
:101AC000E2001092DA001092E1008091D8008F7746
:101AD0008093D8008091D80080688093D80080914E
:101AE000D8008F7D8093D80019BC0E94D8028091C5
:101AF000D80080618093D80078943FB7F8948091A3
:101B0000CE019091CF01A091D001B091D10126B525
:101B1000A89B05C02F3F19F00196A11DB11D3FBF25
:101B2000BA2FA92F982F8827820F911DA11DB11DB3
:101B3000880F991FAA1FBB1F880F991FAA1FBB1FC1
:101B400032E3C32ED12CE12CF12C3FB7F894409115
:101B5000CE015091CF016091D0017091D10126B595
:101B6000A89B06C02F3F21F04F5F5F4F6F4F7F4F05
:101B70003FBF762F652F542F4427420F511D611D03
:101B8000711D440F551F661F771F440F551F661F99
:101B9000771F481B590B6A0B7B0B483E534061056E
:101BA000710598F221E0C21AD108E108F1088851C4
:101BB0009C4FAF4FBF4FC114D104E104F10429F68B
:101BC0008091FE019091FF01009709F45EC5019795
:101BD00009F418C5CE0101961C0180E1ECEEF1E09C
:101BE000ACEDB1E001900D928A95E1F711E9E12E9B
:101BF00013E0F12E44244A940FE7502ECC24C394D2
:101C0000B2E0DB2E63B149B140955FB150951092BF
:101C1000FA011092FB01252F30E0C90195958795B7
:101C2000959587959595879595958795959587959C
:101C30008270F901F595E795F595E795F595E795A6
:101C4000E4708E2B551F5527551F852B35952795ED
:101C50002870822B9091EC01907F892B8093EC016E
:101C6000862F8095282F30E0782E76947694682EF3
:101C70006294660C660C80EC6822C901829592958C
:101C8000907F9827807F982780729927B901660FE7
:101C9000771F60787727862B972B542F5F71852BC2
:101CA000B901660F771F62957295707F7627607F06
:101CB000762766277170862B972B3695322F222731
:101CC0003795279522273270822B932B9301222759
:101CD0003470822B932B930122273870822B932B05
:101CE00045954074842B9093EE018093ED0105E0BF
:101CF00012E01BC02FB7F8948091D2019091D301CC
:101D0000A091D401B091D5012FBFF80182839383B4
:101D1000A483B58390859D25908792FD96C00A5E29
:101D20001F4FE016F10609F4AAC0D80118969C913D
:101D300018979B7F18969C931897ED91FC910190B2
:101D4000F081E02DB2E0EF33FB0709F0ABC1D80121
:101D50005496ED91FC91559752964D915C91539705
:101D600051968C9181119AC121813281242335238E
:101D700081E0232B09F480E0969591708913BACF06
:101D80009FB7F8948090D2019090D301A090D40195
:101D9000B090D5019FBFD80112964D915D916D9184
:101DA0007C911597841A950AA60AB70A16964D9142
:101DB0005C91179770E060E084169506A606B7065A
:101DC00008F475C1F8019085292F2170821709F454
:101DD000A4CF2FB7F8948091D2019091D301A09114
:101DE000D401B091D5012FBF82839383A483B5839F
:101DF00080858C25846080872FB7F8948091D201EC
:101E00009091D301A091D401B091D5012FBF41850C
:101E1000528563857485841B950BA60BB70B85874C
:101E20009687A787B08B2FB7F8948091D2019091B5
:101E3000D301A091D401B091D5012FBF81879287A2
:101E4000A387B487908592FF6ACFD80151968C9171
:101E5000519752962D913C9190FF2CC1882309F403
:101E600036C18091EC01282B2F70807F282B209386
:101E7000EC010A5E1F4FE016F10609F056CFE09123
:101E8000ED01F091EE012091EC01922F9F70AF01D6
:101E9000442753704115534009F031C14091FC0172
:101EA0005091FD0122FF56C201E010E01093FD01A8
:101EB0000093FC01FC7FF093EE01E093ED01207FA5
:101EC0002093EC0111E021E030E04217530709F4C0
:101ED0000CC281E090E00E94C615811729F0612FA5
:101EE00081E090E00E94CE1582E090E00E94C6154D
:101EF000882329F060E082E090E00E94CE15E09116
:101F0000ED01F091EE019091EC019F706091000263
:101F1000709101024091FC015091FD01F093F1019B
:101F2000E093F0016130710509F421C108F435C274
:101F30006230710509F022C2892F8370823009F462
:101F4000F3C1833009F41FC3813009F410C380E06A
:101F5000E8E034E0F8E074E020E09C70983009F4A8
:101F6000F2C19C3009F4FAC2943009F485C2982F6A
:101F70009F708091EF01807F892B8093EF0141302A
:101F8000510509F4E2C24230510509F014C19091A3
:101F90000302911108C05092F3014092F201509255
:101FA000F5014092F401922F9C70943009F47EC2A6
:101FB0004FEF5FEF983011F04FEF5FE75093F7016D
:101FC0004093F6012370213009F46DC2223009F0EC
:101FD00070C230E020E03093F9012093F801807F57
:101FE0008093EF018091FE019091FF01009709F429
:101FF00001C1019709F041C0B091F301A091F50131
:102000007091F7016091F901E091EF01EF70E150FB
:10201000EA3008F016C2F0E0E45DFE4FE081809106
:10202000F0019091F1019C01220F331F82FB4427A4
:1020300040F94DA31EA2A901427055270DA11EA172
:10204000402B512B887F9F73842B952B2470332733
:10205000822B932B9E8B8D8BEF8BB88FA98F7A8FD2
:102060006B8F88E0FE017596D10101900D928A95E3
:10207000E1F768E0C1010E94050A80E1ECEEF1E0C1
:10208000ACEDB1E001900D928A95E1F720E030E0EF
:10209000232B09F4B7CD0E940000B0CD20812F7012
:1020A00030E064CEC8010995F801908565CE189698
:1020B0009C9133CE8823B1F08091EC01982F9F70D2
:1020C00020952923807F282B2093EC0128CE809116
:1020D000ED019091EE01282B392B3093EE012093E6
:1020E000ED011DCE209530958091ED019091EE018E
:1020F000282339233093EE012093ED0110CE609117
:10210000000270910102AF0144275C7041155C40F0
:1021100009F000CF20FFD0C11092010210920002FE
:10212000207F2093EC01F37FF093EE01E093ED012B
:1021300010E030E020E06217730709F4DAC082E0B3
:1021400090E00E94C615811729F0612F82E090E08F
:102150000E94CE1583E090E00E94C615882309F402
:10216000CECE60E083E090E00E94CE15C8CE892FED
:102170008370813009F4B4C1823009F02EC2EAE0E4
:1021800036E0FAE076E022E09C70943009F47AC1FF
:10219000983009F0ECCE8091EF01807F8E2B8093F8
:1021A000EF012FEF3FEF4130510509F413C14230E9
:1021B000510509F444C180910302811108C0509275
:1021C000F3014092F2015092F5014092F4018091A6
:1021D0000402811107CF5092F7014092F60150920C
:1021E000F9014092F8018091FE019091FF01009762
:1021F00009F0FFCE84E18A838091F2019091F3018E
:10220000905898878F838091F4019091F5019058B0
:102210009A8789878091F6019091F70190589C8761
:102220008B878091F8019091F90190589E878D8756
:102230002091F0013091F101B901729562956F70B2
:1022400067277F706727A901569547955295429554
:102250004F7045275F704527942F9071A9015695BF
:10226000479556954795569547954072942B4091C2
:10227000EF014F70942B862F8074982B862F8078D7
:10228000982B9B83922F9295907F832F869586958E
:1022900084706370862B492F4071842B492F4072C4
:1022A000842B492F4074842B9078892B8C838091C8
:1022B00002028111C8C0C9010024880F991F001CA7
:1022C000880F991F001C892F902D817081958D8317
:1022D000220F232F221F330B3195217021952E833E
:1022E00064E1C1010E94050AC8CE2091000230912C
:1022F0000102F093F101E093F0012130310509F47E
:1023000007C108F487C04091FC015091FD012230C3
:102310003105A1F590E04091FC015091FD01892F1C
:102320008370823009F00DCEE2E0F0E0F093D90145
:10233000E093D801EAE036E0FAE076E022E09C7033
:10234000983009F00ECE24E030E03093D70120938E
:10235000D60121CF23FF7EC082E090E09093FD0163
:102360008093FC01FC7FF093EE01E093ED01207F70
:102370002093EC0112E022E030E0A7CD8091EF0144
:10238000807F8093EF014130510509F4BDC0423098
:10239000510509F010CF20E0FACD21E0892F83709C
:1023A000833009F020E0F22F9C70BA01943009F4D8
:1023B0009DC0983009F018C128608091EF01807F9E
:1023C000822B8093EF014130510509F0DCCDF22FD3
:1023D0002FEF3FEF3093F3012093F201F3702FEFD3
:1023E0003FEFF13031F030E020E0F23011F02FEF2C
:1023F0003FE73093F5012093F4019091040291118D
:10240000EECD5092F7014092F6015092F9014092C0
:10241000F801E5CD6091FC017091FD01F0E0809143
:10242000EF01807F9F2F9F70892B8093EF01613098
:10243000710509F46AC06230710509F0BCCE2F2F16
:10244000A6CDE8E0ECCD8091FA018D838091FB016F
:102450008E8346CF21FF68C01092FD011092FC01CF
:10246000FC7FF093EE01E093ED01207F2093EC01DF
:1024700010E030E020E029CD03E010E01093D70118
:102480000093D6013F708091EF01807F832B809372
:10249000EF014130510509F495C04230510509F072
:1024A0008ACE272F74CD2FEF3FEF95CD50E040E03F
:1024B00085CD2FEF3FE78FCD21FF70C001E010E009
:1024C0001093010200930002207F2093EC01F37F20
:1024D000F093EE01E093ED0111E021E030E02BCE2E
:1024E000E9E035E0F9E075E021E04ECEF46080915E
:1024F000EF01807F8F2B8093EF014130510509F070
:1025000056CE30E020E066CFF0E02FEF3FE762CF1D
:1025100090E080E0E8E034E0F8E074E020E0409112
:10252000FC015091FD0130CE20FF0AC0207F209396
:10253000EC01FC7FF061F093EE01E093ED0190E09F
:102540006091000270910102E9CC922F9C7094304E
:10255000E9F1983009F43BCFF22FD7CF8091D60123
:102560009091D7010397B1F1832F272F00CDA1E0E0
:10257000B0E0B093D901A093D801E9E035E0F9E0EB
:1025800075E021E0EACC2091D8013091D90182E0B8
:102590002130310509F4CECE81E0EFCF22FFBACC55
:1025A00082E090E09093010280930002207F2093CC
:1025B000EC01F37FF093EE01E093ED0112E022E0F5
:1025C00030E0B9CDF72F30E020E004CFF22F30E03B
:1025D00020E000CF3E2F7F2FC7CF80E0E8E034E03F
:1025E000F8E074E020E0D0CD9C3009F018CF809165
:1025F000EF01807F822B8093EF014130510509F07C
:10260000C2CC83CFB091F301A091F5017091F70195
:102610006091F901E091EF01EF70E150EA3008F0CC
:10262000BCC0F0E0E45DFE4FE0812091F00130910C
:10263000F101A901440F551F22FB002700F910E00A
:10264000CA0182709927802B912B287F3F73822BA0
:10265000932B44705527842B952B9E8F8D8FEF8F56
:10266000B8A3A9A37AA36BA388E0FE017D968E018F
:102670000F5F1F4F1801D80101900D928A95E1F765
:1026800068E0C8010E94050AA8CA84E18A83809193
:10269000F2019091F301905898878F838091F40113
:1026A0009091F50190589A8789878091F6019091D1
:1026B000F70190589C878B878091F8019091F901E0
:1026C00090589E878D878091F0019091F101AC0127
:1026D000529542954F7045275F7045279C0136956E
:1026E0002795329522952F7023273F70232720713D
:1026F000BC01769567957695679576956795607236
:10270000262B3091EF013F70232B342F3074232B75
:10271000342F3078232B2B83382F3295307F292F7D
:102720002695269524704370242B432F4071242B2B
:10273000432F4072242B432F4074242B3078232BBB
:102740002C832091020221112AC09C010024220F17
:10275000331F001C220F331F001C232F302D21702C
:1027600021952D83880F892F881F990B9195817052
:1027700081958E8364E1DE0111961D01CD010E94D9
:10278000050A2BCA90FF12C081E090E09093FF01F0
:102790008093FE01FF24F39441C9E8E046CF809185
:1027A000FA018D838091FB018E83E4CF91FF08C0F5
:1027B0001092FF011092FE01F12C90E080E02EC9F2
:1027C000C90149C98F929F92AF92BF92CF92DF9277
:1027D000EF92FF920F931F93CF93DF938AE091E0E4
:1027E0009093DB018093DA011092FD011092FC01BD
:1027F0001092FF011092FE0110920102109200024D
:1028000010920202109203021092040285E092E0FC
:102810000E94730C04E011E010930602009305027D
:10282000FF24F394F092160288248394912C9092C2
:10283000180280921702C5E0D0E0D0930C02C0933A
:102840000B028BE192E00E94730C10931C02009328
:102850001B02F0922C0292E0A92EB12CB0922E0213
:10286000A0922D02D0932202C093210281E392E034
:102870000E94730C1093320200933102F0924202D4
:1028800024E0C22ED12CD0924402C0924302D093B5
:102890003802C093370287E492E00E94730C1093D1
:1028A000480200934702F092580238E0E32EF12CE0
:1028B000F0925A02E0925902D0934E02C0934D0218
:1028C0008DE592E00E94730C10935E0200935D020E
:1028D00010926E029092700280926F02D093640206
:1028E000C093630283E792E00E94730C109374021A
:1028F0000093730210928402B0928602A092850225
:10290000D0937A02C093790289E892E00E94730C16
:1029100010938A020093890210929A02D0929C022C
:10292000C0929B02D0939002C0938F028FE992E0F5
:102930000E94730C1093A00200939F021092B002A9
:10294000F092B202E092B102D093A602C093A50227
:1029500085EB92E00E94730C1093B6020093B502CF
:102960001092C60280E190E09093C8028093C70263
:10297000D093BC02C093BB028BEC92E00E94730C1C
:102980001093CC020093CB021092DC0280E290E024
:102990009093DE028093DD02D093D202C093D102E5
:1029A00081EE92E00E94730C1093E2020093E10228
:1029B0001092F20280E490E09093F4028093F3028C
:1029C000D093E802C093E70287EF92E00E94730C75
:1029D0001093F8020093F7021092080380E890E049
:1029E00090930A0380930903D093FE02C093FD02E3
:1029F0008DE093E00E94730C10930E0300930D037F
:102A000010921E0380E091E09093200380931F03B7
:102A1000D0931403C093130383E293E00E94730CDA
:102A200010932403009323031092340380E092E078
:102A30009093360380933503D0932A03C0932903E0
:102A400089E393E00E94730C10933A0300933903D7
:102A500010924A0380E094E090934C0380934B03E0
:102A6000D0934003C0933F038FE493E00E94730C24
:102A70001093500300934F031092600380E098E09E
:102A80009093620380936103D0935603C0935503E0
:102A900085E693E00E94730C109366030093650330
:102AA0001092760380E090E190937803809377030F
:102AB000D0936C03C0936B038BE793E00E94730C7D
:102AC00010937C0300937B0310928C0380E090E2D0
:102AD00090938E0380938D03D0938203C0938103E0
:102AE000E9E1F2E08CEE91E091838083769623E039
:102AF000E53AF207C9F78AE191E09093DB01809310
:102B0000DA01109202021092030210920402DF9185
:102B1000CF911F910F91FF90EF90DF90CF90BF90DA
:102B2000AF909F908F900895982F9093E900242F55
:102B3000762F50E0891731F07091EC002091ED0074
:102B40005091F00021FD07C09F5F973071F780938F
:102B5000E90081E008953091EB003E7F3093EB0077
:102B60003091ED003D7F3093ED003091EB0031600E
:102B70003093EB007093EC002093ED005093F00045
:102B80002091EE0027FDE0CF80E00895F999FECF77
:102B900092BD81BDF89A992780B50895262FF9999D
:102BA000FECF1FBA92BD81BD20BD0FB6F894FA9A30
:102BB000F99A0FBE01960895EE0FFF1F0590F4914C
:102BC000E02D099481E090E0F8940C940416FB0148
:102BD000DC0104C08D910190801921F441505040D6
:102BE000C8F7881B990B0895FB01DC0102C0019016
:102BF0000D9241505040D8F70895DC0101C06D930B
:0C2C000041505040E0F70895F894FFCFD9
:102C0C00000000003F0200000000D608D702D702E7
:102C1C0012093402290200000000D608C402550231
:102C2C0012093402290200000000030A00040806FD
:062C3C0007050802010378
:00000001FF
