:100000000C94D0010C94F8010C94F8010C94F801B4
:100010000C94F8010C94F8010C94F8010C94F8017C
:100020000C94F8010C94F8010C9492090C94F801CA
:100030000C94F8010C94F8010C94F8010C94F8015C
:100040000C94F8010C94F8010C94F8010C94F8014C
:100050000C94F8010C94F8010C94F8010C944809E4
:100060000C94F8010C94F8010C94F8010C94F8012C
:100070000C94F8010C94F8010C94F8010C94F8011C
:100080000C94F8010C94F8010C94F8010C94F8010C
:100090000C94F8010C94F8010C94F8010C94F801FC
:1000A0000C94F8010C94F8010C94F80109029900E1
:1000B000040100A0FA0904000002FF5D0100112103
:1000C0000001012581140000000013010800000751
:1000D0000581032000010705010320000809040130
:1000E0000004FF5D03001B210001010182400102A9
:1000F000201683000000000000160300000000002E
:100100000007058203200002070502032000040700
:1001100005830320004007050303200010090402A3
:100120000001FF5D02000921000101228407000790
:100130000584032000100904030000FFFD130406DA
:1001400041000101030902290001010080FA0904AC
:1001500000000203000000092111010001225600E5
:100160000705020340000107058103400001050166
:100170000905A101150025013500450175019510FE
:10018000050919012910810205012507463B017562
:1001900004950165140939814265009501810126A4
:1001A000FF0046FF0009300931093209357508950D
:1001B0000481020600FF0920950181020A2126958B
:1001C000089102C00902290001010080FA09040017
:1001D0000002030000000921110100012294000720
:1001E00005020340000107058103400001092111B8
:1001F00001000122940005010904A101A102850169
:1002000075089501150026FF0081037501951315EA
:1002100000250135004501050919012913810275E1
:1002200001950D0600FF8103150026FF0005010959
:1002300001A10075089504350046FF000930093119
:10024000093209358102C005017508952709018128
:10025000027508953009019102750895300901B1C0
:1002600002C0A1028502750895300901B102C0A142
:100270000285EE750895300901B102C0A10285EF33
:10028000750895300901B102C0C012010002FFFFDC
:10029000FF405E048E0214010102030112010002FC
:1002A000000000400D0F9200000101020001120148
:1002B0000002000000404C0568020001010200013C
:1002C0003003580049006E00700075007400200073
:1002D0005300540041004E004400410052004400CD
:1002E0002000470041004D004500500041004400FF
:1002F000000014034D006900630072006F0073007A
:100300006F00660074000000240350004F004B0093
:100310004B0045004E00200043004F004E005400AB
:1003200052004F004C004C004500520000001C03DE
:1003300048004F0052004900200043004F002E00AB
:100340002C004C00540044002E0000000803310033
:100350002E0030000000360350004C0041005900D0
:10036000530054004100540049004F004E00280043
:10037000520029003300200043006F006E0074001B
:1003800072006F006C006C006500720000000A03D0
:1003900053006F006E0079000000040309046E0D25
:1003A00011241FBECFEFDAE0DEBFCDBF11E0A0E029
:1003B000B1E0E0ECFEE102C005900D92A633B1077A
:1003C000D9F723E0A6E3B1E001C01D92A239B2073C
:1003D000E1F711E0C0EDD1E004C02197FE010E94D9
:1003E000360FCF3CD107C9F70E94620A0C945E0F0A
:1003F0000C9400003FB7F8948091CA019091CB0112
:10040000A091CC01B091CD0126B5A89B05C02F3F8E
:1004100019F00196A11DB11D3FBFBA2FA92F982F2A
:100420008827BC01CD01620F711D811D911D42E025
:10043000660F771F881F991F4A95D1F708952FB728
:10044000F8946091C6017091C7018091C8019091A4
:10045000C9012FBF0895FC0183B169B160959FB1B7
:10046000909510A211A2A92FB0E0AD0125E05595FD
:1004700047952A95E1F742709D0153E03595279500
:100480005A95E1F72470422B991F9927991F492B00
:10049000B595A795A8704A2B9289907F492B428BDE
:1004A000809590E0AC01A6E0440F551FAA95E1F7B6
:1004B0009C01B4E0220F331FBA95E1F72072332775
:1004C000DC01AA0FBB1FA078BB272A2B3B2B762F62
:1004D0007F71272BDC0175E0AA0FBB1F7A95E1F72E
:1004E000AA27B1702A2B3B2B9695982F8827979592
:1004F000879588279270282B392BCA0188279470FA
:10050000282B392B44275870242B352B6595607484
:10051000262B348B238B089584B1817884B98AB1DA
:1005200080768AB980B38F7080BB85B18E6785B9BC
:100530008BB18F698BB981B3806F81BB0895FC014A
:10054000A489B589428953898189882351F02C91E6
:100550002F7030E02423352381E0232B09F480E041
:10056000089511962D913C91F5CF0895FC012389B2
:10057000348922273C7081E021153C4009F080E05D
:100580000895FC01238934892227337081E02115E5
:10059000334009F080E00895FC0120918001309102
:1005A00081016217730708F49B0190E02115310562
:1005B00041F4911106C08091E80082FF33C080E0D1
:1005C00008958091D3018823C9F18530C9F18091C4
:1005D000E80083FD31C08091E80082FDECCF80917E
:1005E000E80080FFE3CF4091F3008091F200542FA8
:1005F000482F2115310519F04034510558F091E08C
:100600004034510509F090E04091E8004E77409366
:10061000E800CCCF81918093F100215031094F5FE8
:100620005F4FE7CF8091D301882341F0853041F0BF
:100630008091E80083FFBFCF81E0089582E00895B4
:1006400083E008952091E4003091E50085E69091E3
:10065000EC0090FF06C09091E80090FF06C080E09B
:1006600008959091E80092FDFACF9091D3019923DB
:1006700091F0953091F09091EB0095FD10C0409174
:10068000E4005091E5002417350709F381509A01E1
:10069000F1F684E0089582E0089583E0089581E012
:1006A000089580917A0187FF13C08091E80082FF4E
:1006B00006C08091E8008B778093E80004C08091A9
:1006C000D3018111F2CF08958091D3018823D9F30A
:1006D0008091E80080FFF8CF8091E8008E77ECCF22
:1006E000982F9093E900242F762F50E0891731F04E
:1006F0007091EC002091ED005091F00021FD07C0B9
:100700009F5F973071F78093E90081E00895309101
:10071000EB003E7F3093EB003091ED003D7F309356
:10072000ED003091EB0031603093EB007093EC0002
:100730002093ED005093F0002091EE0027FDE0CFD4
:1007400080E008950F931F93CF93DF93CDB7DEB76B
:10075000AA970FB6F894DEBF0FBECDBF8091D3012C
:10076000882309F49FC01091E9001F708091EC006C
:1007700080FF4CC080E8182B1092E9008091E800BF
:1007800083FF8DC0EAE7F1E08091F100819321E0E1
:10079000E238F207C9F78091D5019091D601892BF3
:1007A000D1F480917B018130B1F480917A01813A5A
:1007B00091F48091E800877F8093E8008091D501D3
:1007C0009091D601009721F1029749F18091E800BC
:1007D0008B778093E8008091E80083FF52C080917E
:1007E0007A0190917B019A3008F04BC0E92FF0E03C
:1007F000E450FC4F0C94360F14043A0441043A04BC
:1008000041049C04BE0441042606330680E0B3CFB5
:1008100064E170E086E691E00E94CC02D7CF60E40C
:1008200070E086E391E0F8CF803889F0823849F5AE
:1008300080917E018F70873020F58093E900809150
:10084000EB0085FB882780F91092E90006C08091B3
:10085000D0019091D101911182609091E800977F31
:100860009093E8008093F1001092F1008091E800ED
:100870008E7731C0282F2D7F21F48823F1F082302C
:1008800079F18091E80083FF0AC08091E800877FBA
:100890008093E8008091EB0080628093EB001F70F2
:1008A0001093E900AA960FB6F894DEBF0FBECDBF35
:1008B000DF91CF911F910F91089580917C0181303C
:1008C00001F7933009F080E08093D1011092E900A4
:1008D0008091E800877F8093E8000E945103D1CF88
:1008E00080917C018111F2CF80917E018F702FEF7A
:1008F000280F263030F68093E9002091EB0020FF8E
:10090000E5CF933031F48091EB0080628093EB006F
:10091000DDCF9091EB0090619093EB0021E030E00F
:1009200001C0220F8A95EAF72093EA001092EA00AC
:100930008091EB008860EACF8111A3CF00917C0108
:100940000F778091E3008078802B8093E300809183
:10095000E800877F8093E8000E9451038091E800BF
:1009600080FFFCCF8091E30080688093E30083E008
:10097000011101C082E08093D30183CF805882307F
:1009800008F07FCF80917C0190917D018C3D23E028
:100990009207A1F583E08A838AE289834FB7F894AE
:1009A000DE01139620E03EE051E2E32FF0E05093A9
:1009B0005700E49120FF03C0E295EF703F5FEF70B6
:1009C0008E2F90E0EA30C0F0C7968D939D932F5FF5
:1009D000243159F74FBF8091E800877F8093E8006A
:1009E0006AE270E0CE0101960E94CC028091E8009C
:1009F0008B778093E80045CFC096E7CF292F332728
:100A00004091CE015091CF014130510509F475C09C
:100A10004230510509F0B1C02330310509F441C01D
:100A200080F521303105C1F189E290E0E4ECF1E09C
:100A30002230310509F025CF2091E800277F20934F
:100A4000E80020918001309181018217930708F41A
:100A50009C0140E02115310509F0C4C04111C2C01C
:100A60008091E80082FDC2CF8091D301882309F4F0
:100A7000BDCF853009F4BACF8091E80083FFF0CF75
:100A8000B5CF21323105A1F184E990E0E6EFF1E044
:100A90002232310589F2F5CE82E190E0EEEAF2E011
:100AA000CBCF99278130910581F008F486C0823040
:100AB0009105B1F0039709F0E4CEECE4F3E0E491A2
:100AC0008E2F90E0ECE4F3E007C0EEE8F3E0E49171
:100AD0008E2F90E0EEE8F3E0009709F4D2CEACCF91
:100AE000E6E5F3E0E4918E2F90E0E6E5F3E0F4CF65
:100AF00089E090E0EDEEF1E09FCF23303105F1F099
:100B000060F421303105A9F089E290E0E5E4F1E0FC
:100B10002230310509F490CFB4CE2132310541F1B4
:100B200086E590E0EEE6F1E02232310509F484CF6B
:100B3000A8CE82E190E0ECE9F2E07ECF9927813007
:100B4000910571F008F439C08230910509F0B2CFF7
:100B5000E8E0F3E0E4918E2F90E0E8E0F3E0BCCF32
:100B6000EEE2F3E0E4918E2F90E0EEE2F3E0B4CF1A
:100B700089E090E0E7E5F1E05FCF2230310569F1EF
:100B80002330310549F082E190E0EAE8F2E02130DB
:100B9000310509F076CE50CF992781309105A9F023
:100BA00060F08230910509F085CFE0ECF2E0E4914D
:100BB0008E2F90E0E0ECF2E08FCFEAE9F3E0E491F1
:100BC0008E2F90E0EAE9F3E087CFE2EFF2E0E491E4
:100BD0008E2F90E0E2EFF2E07FCF89E990E0ECEA3F
:100BE000F0E02ACF8091D301882309F4FFCE85302D
:100BF00009F4FCCE8091E80083FDF8CE8091E800F6
:100C000082FD2ECF8091E80080FF24CF8091F300F9
:100C10009091F2008927982789272115310519F02D
:100C20008034910558F041E08034910509F040E0AE
:100C30008091E8008E778093E8000CCF4491409338
:100C4000F1003196215031090196E7CF803809F043
:100C500018CE8091E800877F8093E8008091D201D0
:100C60008093F10003CE81110CCE00917C01023003
:100C700008F007CE8091E800877F8093E80000931A
:100C8000D2010E9451030023B9F084E08093D30184
:100C90008091D5019091D6018130910511F0029794
:100CA00089F442E360EC82E00E94700342E361EC6D
:100CB00081E00E947003E5CD8091E30087FDE5CFE0
:100CC00081E0E4CF42E261EC83E00E94700342E203
:100CD000EECF0F931F93CF93DF938C01EB010E9414
:100CE000200F8883C80101960E94200F8983CE01BE
:100CF000DF91CF911F910F9108950F931F93CF9381
:100D0000DF9300D0CDB7DEB78C011A821982BE0105
:100D10006F5F7F4F81E090E00E94690689819A8130
:100D2000F8018530910558F593A382A31A821982A0
:100D3000BE016F5F7F4F90E080E00E94690689816D
:100D40009A81F80182309105E8F495A384A31A8270
:100D50001982BE016F5F7F4F82E090E00E946906BA
:100D600089819A81F8018330910578F497A386A34D
:100D70000F900F90DF91CF911F910F91089513A2C3
:100D800012A2D4CF15A214A2E2CF17A216A2F0CFBE
:100D90000E943C0FFF920F931F93CF93DF93EC01C0
:100DA0008B01FB01F0800E94200FF81621F06F2DBF
:100DB000CE010E94280FF801F1802196CE010E94F9
:100DC000200FF81621F06F2DCE010E94280FC801C8
:100DD000DF91CF911F910F91FF900895EF92FF92B5
:100DE0000F931F93CF93DF9300D000D0CDB7DEB722
:100DF0008C01DC01ED91FC910084F185E02D0995D9
:100E0000882309F45FC0F80122A133A1828982FFFF
:100E100029C041E050E053A342A3438954895C7F39
:100E2000548B438B807F828BE2E0EE2EF12CF80115
:100E300082A193A18217930749F09C838B83BE0103
:100E40006D5F7F4F81E090E00E94CA06C7010F905E
:100E50000F900F900F90DF91CF911F910F91FF9006
:100E6000EF90089583FF0FC042E050E053A342A3E8
:100E7000438954895C7F548B438B807F828B74E0E1
:100E8000E72EF12CD4CF81FF0DC013A212A243890B
:100E900054895C7F548B438B807F828BEE24E39458
:100EA000F12CC5CFF12CE12C80FFC1CF807F828B4C
:100EB000838994899C7F9061948B838B58E0E52E85
:100EC000F12CB5CFD801ED91FC910284F385E02D92
:100ED000C8010995F12CE12C882309F4B7CFF8015A
:100EE00026A137A1828980FF1CC017A216A2807F8D
:100EF000828B83899489937F948B838B40E2E42E49
:100F0000F12CD80196968D919C918217930709F444
:100F10009DCF9A838983BE016F5F7F4F82E090E00F
:100F200093CF81FF0FC041E050E057A346A3807FDD
:100F3000828B83899489937F948B838B90E4E92EB1
:100F4000F12CDFCFF12CE12C82FFDBCF42E050E02F
:100F500057A346A3807F828B83899489937F948B48
:100F6000838B80E8E82EF12CCCCFEF92FF920F9389
:100F70001F93CF93DF9300D000D000D01F92CDB746
:100F8000DEB79093C4018093C3016093C201462FE2
:100F900050E0BC0182E891E00E94410F892B09F4E6
:100FA0005EC08091D301843009F059C08091D50191
:100FB0009091D601892B41F182E08093E9008091E4
:100FC000E80082FF21C08091E80085FF18C00E94E0
:100FD0002203811114C007E010E0CE0101967C01CC
:100FE0008091E80085FD4AC08091E8008B7780936E
:100FF000E8000E94A2030E942203882389F38091C3
:10100000E8008B778093E80081E08093E90080918D
:10101000E80080FF24C00091C201E090C301F0907D
:10102000C4010E94220310E0882309F440C080918B
:10103000E8008E778093E8000091C20110E0E09014
:10104000C301F090C401A801B70182E891E00E94B9
:101050004E0FA80170E060E0C7010E94570F0E9488
:10106000A20327960FB6F894DEBF0FBECDBFDF9167
:10107000CF911F910F91FF90EF9008958091F10013
:10108000F70181937F010150110909F0A9CFB7CF72
:101090008091E80085FD0FC08091E8008E778093F5
:1010A000E8000E94A2030E9422038111C0CF011513
:1010B000110571F7BCCFF70181917F018093F10099
:1010C00001501109F4CF1F93CF93DF93CDB7DEB753
:1010D0006C970FB6F894DEBF0FBECDBF2091FF0115
:1010E0003091000221153105B9F02130310509F4A4
:1010F00090C080E1EDEEF1E0ADEDB1E001900D9238
:101100008A95E1F76C960FB6F894DEBF0FBECDBF9F
:10111000DF91CF911F91089584E18A838091F3013B
:101120009091F401905898878F838FEF9FE72091DB
:10113000F5013091F601AC01421B530B5A874987E8
:101140002091F7013091F80130583C872B8720918E
:10115000F9013091FA01821B930B9E878D87809154
:10116000F1019091F201BC01E4E076956795EA9572
:10117000E1F7AC01F5E056954795FA95E1F7407136
:101180009C01A3E036952795AA95E1F72072422BA2
:101190002091F0012F70422B262F2074422B262FF6
:1011A0002078422B4B83382F3295307F292F26957C
:1011B000269524706370262B432F4071242B432FD8
:1011C0004072242B432F4074242B3078232B2C8304
:1011D00020910302222361F08091FB018D83809195
:1011E000FC018E8364E1CE0101960E94B50781CF98
:1011F0009C0146E0369527954A95E1F721702195A7
:101200002D83880F892F881F990B91958170819567
:10121000E8CF1091F401B091F601A091F80170911E
:10122000FA01E091F001EF70E15068E0EA3020F45B
:10123000F0E0E45DFE4F60812091F1013091F20118
:10124000A901440F551F22FB882780F990E0FA017D
:10125000E270FF278E2B9F2B287F3F73822B932BCF
:1012600044705527842B952B9A8389836B831C8329
:10127000BD83AE837F8388E0FE013196DE01559603
:1012800001900D928A95E1F768E0CE014596ADCFC9
:101290001F920F920FB60F9211242F933F938F93AB
:1012A0009F93AF93BF938091C6019091C701A09186
:1012B000C801B091C9013091C50123E0230F2D373A
:1012C00058F50196A11DB11D2093C5018093C6015B
:1012D0009093C701A093C801B093C9018091CA013E
:1012E0009091CB01A091CC01B091CD010196A11DAF
:1012F000B11D8093CA019093CB01A093CC01B09310
:10130000CD01BF91AF919F918F913F912F910F9000
:101310000FBE0F901F90189526E8230F0296A11D6F
:10132000B11DD2CF1F920F920FB60F9211242F939F
:101330003F934F935F936F937F938F939F93AF935D
:10134000BF93EF93FF938091E10082FF09C08091EA
:10135000E20082FF05C08091E1008B7F8093E10075
:101360008091DA0080FF17C08091D80080FF13C001
:101370008091DA008E7F8093DA008091D90080FF1F
:1013800086C080E189BD82E189BD09B400FEFDCF40
:1013900081E08093D3018091E10080FF17C08091AC
:1013A000E20080FF13C08091E2008E7F8093E20014
:1013B0008091E20080618093E2008091D800806299
:1013C0008093D80019BC85E08093D3018091E1001F
:1013D00084FF26C08091E20084FF22C080E189BDA5
:1013E00082E189BD09B400FEFDCF8091D8008F7DD8
:1013F0008093D8008091E1008F7E8093E1008091FE
:10140000E2008F7E8093E2008091E2008160809311
:10141000E2008091D2018823F1F184E08093D3012E
:101420008091E10083FF22C08091E20083FF1EC013
:101430008091E100877F8093E10082E08093D30177
:101440001092D2018091E1008E7F8093E100809123
:10145000E2008E7F8093E2008091E20080618093C1
:10146000E20042E360E080E00E947003FF91EF91B0
:10147000BF91AF919F918F917F916F915F914F91AC
:101480003F912F910F900FBE0F901F90189519BC90
:101490001092D30180CF8091E30087FD02C081E0EC
:1014A000BDCF83E0BBCFFC018AE291E091838083D2
:1014B00012821382148215828AE090E097838683D9
:1014C00010860895CF93DF9300D000D000D01F92F4
:1014D000CDB7DEB7789484B5826084BD84B5816071
:1014E00084BD85B5826085BD85B5816085BD8091EF
:1014F0006E00816080936E00109281008091810067
:10150000826080938100809181008160809381005E
:101510008091800081608093800080919100826042
:1015200080939100809191008160809391008091DF
:1015300090008160809390008091C10084608093CE
:10154000C1008091C10082608093C1008091C10080
:1015500081608093C1008091C30081608093C3004B
:101560008091C00082608093C0008091C200816041
:101570008093C20080917A00846080937A00809189
:101580007A00826080937A0080917A0081608093F3
:101590007A0080917A00806880937A008BED91E0E8
:1015A0000E948C028BED91E00E947D068BED91E014
:1015B0000E942B022091FF01309100028091EE01E8
:1015C0009091EF0193FF0CC182E090E090930002B4
:1015D0008093FF018091FF01909100022817390745
:1015E00049F09A838983BE016F5F7F4F90E080E06E
:1015F0000E94CA068091FF01909100029093D6014B
:101600008093D5019093CF018093CE0184B7877FDB
:1016100084BF0FB6F894A89580916000886180938C
:101620006000109260000FBE80E830E020E00FB64E
:10163000F89480936100209361000FBE8091D800E0
:101640008F7E8093D8008091D70081608093D700EF
:1016500084E082BF81E08093D4018091D8008E7FA6
:101660008093D8001092E2001092DA001092E1000C
:101670008091D8008F778093D8008091D8008068BF
:101680008093D8008091D8008F7D8093D80019BCBA
:101690001092D3011092D2011092D1011092D00178
:1016A0008091E0008B7F8093E0008091D800816082
:1016B0008093D80042E360E080E00E947003809154
:1016C000E1008E7F8093E1008091E2008160809351
:1016D000E2008091E20088608093E2008091E00067
:1016E0008E7F8093E0008091D80080618093D80045
:1016F00078940E94FA014B015C0172E3C72ED12C51
:10170000E12CF12C0E94FA01681979098A099B09D8
:10171000683E734081059105A8F321E0C21AD10803
:10172000E108F10838EE830E33E0931EA11CB11CD2
:10173000C114D104E104F10429F70E94630822E9ED
:10174000222E23E0322E32E0432E512CCC24C3949F
:10175000D12C54E0652E712CEE24EA946FE7F62E1E
:101760008BED91E00E942B0206E012E0D801189662
:101770008C9118978B7F18968C931897ED91FC910C
:101780000190F081E02DC80109958B83F8018085D7
:10179000869581708B80881679F10E941F02D8018E
:1017A00012966D937D938D939C93159718968C91BB
:1017B000B2E08B27F8018087F801308532FF73C0D3
:1017C00021898289938930FD64C02111A0C0809550
:1017D00090952091EE013091EF018223932392C0E6
:1017E00090FF03C081E090E0F1CE91FFF3CE109224
:1017F00000021092FF01EECE0E941F02D801129645
:101800008D909D90AD90BC9015979B01AC012819CF
:1018100039094A095B0916968D919C91B0E0A0E0C8
:10182000281739074A075B0738F2D80118968C91B8
:1018300081708B80881609F4BFCF0E941F02D801E7
:1018400012966D937D938D939C93159718968C911A
:10185000B1E08B278460F80180870E941F02D801C5
:1018600019962D913D914D915C911C97621B730BC4
:10187000840B950BF801658776878787908B0E948C
:101880001F02D80119966D937D938D939C931C979D
:1018900093CF222389F19091ED01892B8F70907F56
:1018A000892B8093ED010A5E1F4F2016310609F047
:1018B0005DCF8BED91E00E94EE068091EE0190915C
:1018C000EF019093F2018093F1018091ED01982F47
:1018D0009F7020910102309102028370823009F4DE
:1018E00040C08330D9F0813009F040C0D092DA0195
:1018F000C092D90181E023C02091EE013091EF0127
:10190000822B932B9093EF018093EE01CCCF90919B
:10191000ED01292F2F7080958223C1CF211531052C
:1019200029F32230310511F54091D9015091DA01A6
:1019300041155105D9F041305105E1F682E09C7026
:10194000983009F456C09C30B9F0943009F057C073
:10195000846093E0892E912C9092D8018092D701D7
:101960001CC05092DA014092D901E8CF1092DA01FE
:101970001092D90180E0E3CF2230310509F03FC059
:101980002091D7013091D80121153105C1F198E09E
:101990002330310509F094E0892B9091F001907F7C
:1019A000282F2F70922B9093F0012091FD01309100
:1019B000FE012130310541F19091040222303105C0
:1019C00009F460C0911108C0F092F401E092F301B3
:1019D000F092F601E092F50180910502811143C079
:1019E000F092F801E092F701F092FA01E092F90129
:1019F0003AC088607092D8016092D701CECF109221
:101A0000D8011092D701C9CF982F9C7030E020E008
:101A1000943031F02FEF3FEF983011F02FEF3FE788
:101A20003093F4012093F3018370813029F08230E8
:101A300031F18FEF9FE702C090E080E09093F601D4
:101A40008093F50180910502811108C0F092F801A0
:101A5000E092F701F092FA01E092F9018091F00131
:101A6000807F8093F0010E94630880E0A82E80E0D0
:101A7000B82EAB2809F474CE0E94000071CE8FEF0F
:101A80009FEFDCCF911108C0F092F401E092F301D6
:101A9000F092F601E092F501982F9C7030E020E082
:101AA000943031F02FEF3FEF983011F02FEF3FE7F8
:101AB0003093F8012093F7018370813029F0823050
:101AC00051F08FEF9FE702C090E080E09093FA0121
:101AD0008093F901C3CF8FEF9FEFF8CF8F929F9242
:101AE000AF92BF92CF92DF92EF92FF920F931F932C
:101AF000CF93DF938AE091E09093DC018093DB0148
:101B00001092FE011092FD01109200021092FF014E
:101B1000109202021092010210920302109204022B
:101B20001092050286E092E00E94530A04E011E060
:101B30001093070200930602FF24F394F092170219
:101B400088248394912C9092190280921802C5E007
:101B5000D0E0D0930D02C0930C028CE192E00E9481
:101B6000530A10931D0200931C02F0922D0292E082
:101B7000A92EB12CB0922F02A0922E02D093230254
:101B8000C093220282E392E00E94530A1093330230
:101B900000933202F092430224E0C22ED12CD09264
:101BA0004502C0924402D0933902C093380288E4BF
:101BB00092E00E94530A1093490200934802F09267
:101BC000590238E0E32EF12CF0925B02E0925A02C7
:101BD000D0934F02C0934E028EE592E00E94530ACA
:101BE00010935F0200935E0210926F029092710256
:101BF00080927002D0936502C093640284E792E001
:101C00000E94530A10937502009374021092850289
:101C1000B0928702A0928602D0937B02C0937A0290
:101C20008AE892E00E94530A10938B0200938A0282
:101C300010929B02D0929D02C0929C02D09391027E
:101C4000C093900280EA92E00E94530A1093A1028E
:101C50000093A0021092B102F092B302E092B2029D
:101C6000D093A702C093A60286EB92E00E94530A8B
:101C70001093B7020093B6021092C70280E190E081
:101C80009093C9028093C802D093BD02C093BC0256
:101C90008CEC92E00E94530A1093CD020093CC0288
:101CA0001092DD0280E290E09093DF028093DE02EA
:101CB000D093D302C093D20282EE92E00E94530AE4
:101CC0001093E3020093E2021092F30280E490E0AA
:101CD0009093F5028093F402D093E902C093E80256
:101CE00088EF92E00E94530A1093F9020093F802E1
:101CF0001092090380E890E090930B0380930A030D
:101D0000D093FF02C093FE028EE093E00E94530A3C
:101D100010930F0300930E0310921F0380E091E0D5
:101D20009093210380932003D0931503C093140351
:101D300084E293E00E94530A109325030093240346
:101D40001092350380E092E090933703809336033E
:101D5000D0932B03C0932A038AE393E00E94530A93
:101D600010933B0300933A0310924B0380E094E0FE
:101D700090934D0380934C03D0934103C093400351
:101D800080E593E00E94530A10935103009350039F
:101D90001092610380E098E0909363038093620364
:101DA000D0935703C093560386E693E00E94530AEC
:101DB00010936703009366031092770380E090E12D
:101DC0009093790380937803D0936D03C0936C0351
:101DD0008CE793E00E94530A10937D0300937C03E9
:101DE00010928D0380E090E290938F0380938E0396
:101DF000D0938303C0938203EAE1F2E08DEE91E099
:101E000091838083769623E0E63AF207C9F78AE168
:101E100091E09093DC018093DB0110920302109219
:101E2000040210920502DF91CF911F910F91FF9054
:101E3000EF90DF90CF90BF90AF909F908F900895DC
:101E4000F999FECF92BD81BDF89A992780B5089582
:101E5000262FF999FECF1FBA92BD81BD20BD0FB6C6
:101E6000F894FA9AF99A0FBE01960895EE0FFF1FA3
:101E70000590F491E02D099481E090E0F8940C94A1
:101E80005E0FFB01DC0104C08D910190801921F4EB
:101E900041505040C8F7881B990B0895FB01DC01A5
:101EA00002C001900D9241505040D8F70895DC01D6
:101EB00001C06D9341505040E0F70895F894FFCF72
:101EC000000000009F02000000007D06B502B50280
:101ED000EE06C102B602000000007D068C022B0255
:101EE000EE06C102B60200000000C80600040806A3
:061EF000070508020103D2
:00000001FF
