:100000000C94D0010C94F8010C94F8010C94F801B4
:100010000C94F8010C94F8010C94F8010C94F8017C
:100020000C94F8010C94F8010C94250C0C94F80134
:100030000C94F8010C94F8010C94F8010C94F8015C
:100040000C94F8010C94F8010C94F8010C94F8014C
:100050000C94F8010C94F8010C94F8010C94DB0B4F
:100060000C94F8010C94F8010C94F8010C94F8012C
:100070000C94F8010C94F8010C94F8010C94F8011C
:100080000C94F8010C94F8010C94F8010C94F8010C
:100090000C94F8010C94F8010C94F8010C94F801FC
:1000A0000C94F8010C94F8010C94F80109029900E1
:1000B000040100A0FA0904000002FF5D0100112103
:1000C0000001012581140000000013010800000751
:1000D0000581032000010705010320000809040130
:1000E0000004FF5D03001B210001010182400102A9
:1000F000201683000000000000160300000000002E
:100100000007058203200002070502032000040700
:1001100005830320004007050303200010090402A3
:100120000001FF5D02000921000101228407000790
:100130000584032000100904030000FFFD130406DA
:1001400041000101030902290001010080FA0904AC
:1001500000000203000000092111010001225600E5
:100160000705020340000107058103400001050166
:100170000905A101150025013500450175019510FE
:10018000050919012910810205012507463B017562
:1001900004950165140939814265009501810126A4
:1001A000FF0046FF0009300931093209357508950D
:1001B0000481020600FF0920950181020A2126958B
:1001C000089102C00902290001010080FA09040017
:1001D0000002030000000921110100012294000720
:1001E00005020340000107058103400001092111B8
:1001F00001000122940005010904A101A102850169
:1002000075089501150026FF0081037501951315EA
:1002100000250135004501050919012913810275E1
:1002200001950D0600FF8103150026FF0005010959
:1002300001A10075089504350046FF000930093119
:10024000093209358102C005017508952709018128
:10025000027508953009019102750895300901B1C0
:1002600002C0A1028502750895300901B102C0A142
:100270000285EE750895300901B102C0A10285EF33
:10028000750895300901B102C0C012010002FFFFDC
:10029000FF405E048E0214010102030112010002FC
:1002A000000000400D0F9200000101020001120148
:1002B0000002000000404C0568020001010200013C
:1002C0003003580049006E00700075007400200073
:1002D0005300540041004E004400410052004400CD
:1002E0002000470041004D004500500041004400FF
:1002F000000014034D006900630072006F0073007A
:100300006F00660074000000240350004F004B0093
:100310004B0045004E00200043004F004E005400AB
:1003200052004F004C004C004500520000001C03DE
:1003300048004F0052004900200043004F002E00AB
:100340002C004C00540044002E0000000803310033
:100350002E0030000000360350004C0041005900D0
:10036000530054004100540049004F004E00280043
:10037000520029003300200043006F006E0074001B
:1003800072006F006C006C006500720000000A03D0
:1003900053006F006E007900000004030904131578
:1003A00011241FBECFEFDAE0DEBFCDBF11E0A0E029
:1003B000B1E0EEEAFDE202C005900D92A633B1076E
:1003C000D9F723E0A6E3B1E001C01D92A637B2073A
:1003D000E1F711E0C0EDD1E004C02197FE010E94D9
:1003E000C316CF3CD107C9F70E94DA0D0C94D5167D
:1003F0000C94000081FFD5C091E09093E9009091AA
:10040000EB009E7F9093EB009091ED009D7F909389
:10041000ED009091EB0091609093EB0091EC909344
:10042000EC008093ED001092F0008091EE0087FFC9
:10043000DFC082E08093E9003091EC008091ED0014
:100440002091F00081FF19C09091EB009E7F909366
:10045000EB009091ED009D7F9093ED009091EB006B
:1004600091609093EB003093EC008093ED0020932B
:10047000F0008091EE0087FFBBC083E08093E9002D
:100480003091EC009091ED002091F00091FF19C0A7
:100490008091EB008E7F8093EB008091ED008D7F4B
:1004A0008093ED008091EB0081608093EB003093AE
:1004B000EC009093ED002093F0008091EE0087FF18
:1004C00097C084E08093E9003091EC008091ED00CA
:1004D0002091F00081FF19C09091EB009E7F9093D6
:1004E000EB009091ED009D7F9093ED009091EB00DB
:1004F00091609093EB003093EC008093ED0020939B
:10050000F0008091EE0087FF73C085E08093E900E2
:100510003091EC008091ED002091F00081FF19C036
:100520009091EB009E7F9093EB009091ED009D7F6A
:100530009093ED009091EB0091609093EB003093DD
:10054000EC008093ED002093F0008091EE0087FF97
:100550004FC086E08093E9003091EC008091ED007F
:100560002091F00081FF19C09091EB009E7F909345
:10057000EB009091ED009D7F9093ED009091EB004A
:1005800091609093EB003093EC008093ED0020930A
:10059000F0008091EE0087FF2BC081E08093E9009E
:1005A000089581E08093E90082E08093E900309132
:1005B000EC008091ED002091F00081FF1BC0909134
:1005C000EB009E7F9093EB009091ED009D7F9093C8
:1005D000ED009091EB0091609093EB003093EC0074
:1005E0008093ED002093F0008091EE0087FD02C023
:1005F00080E0089583E08093E9003091EC008091E1
:10060000ED002091F00081FF5CCF9091EB009E7F88
:100610009093EB009091ED009D7F9093ED00909171
:10062000EB0091609093EB003093EC008093ED0031
:100630002093F0008091EE0087FD43CFD9CF81FF5A
:10064000B2C092E09093E9009091EB009E7F90936E
:10065000EB009091ED009D7F9093ED009091EB0069
:1006600091609093EB0090EC9093EC008093ED0000
:100670001092F0008091EE0087FFBCC083E0809371
:10068000E9003091EC008091ED002091F00081FFB5
:1006900019C09091EB009E7F9093EB009091ED003C
:1006A0009D7F9093ED009091EB0091609093EB0013
:1006B0003093EC008093ED002093F0008091EE00E9
:1006C00087FF98C084E08093E9003091EC0090911E
:1006D000ED002091F00091FF19C08091EB008E7F1A
:1006E0008093EB008091ED008D7F8093ED008091F1
:1006F000EB0081608093EB003093EC009093ED0071
:100700002093F0008091EE0087FF74C085E0809315
:10071000E9003091EC008091ED002091F00081FF24
:1007200019C09091EB009E7F9093EB009091ED00AB
:100730009D7F9093ED009091EB0091609093EB0082
:100740003093EC008093ED002093F0008091EE0058
:1007500087FF50C086E08093E9003091EC008091E3
:10076000ED002091F00081FF19C09091EB009E7F79
:100770009093EB009091ED009D7F9093ED00909110
:10078000EB0091609093EB003093EC008093ED00D0
:100790002093F0008091EE0087FF2CC082E08093D0
:1007A000E90081E0089582E08093E90083E080938E
:1007B000E9003091EC008091ED002091F00081FF84
:1007C0001BC09091EB009E7F9093EB009091ED0009
:1007D0009D7F9093ED009091EB0091609093EB00E2
:1007E0003093EC008093ED002093F0008091EE00B8
:1007F00087FD02C080E0089584E08093E900309195
:10080000EC008091ED002091F00081FF7FCF90916E
:10081000EB009E7F9093EB009091ED009D7F909375
:10082000ED009091EB0091609093EB003093EC0021
:100830008093ED002093F0008091EE0087FD66CF5D
:10084000D9CFFC012489358922273C7081E021150C
:100850003C4009F080E00895FC0124893589222775
:10086000337081E02115334009F080E00895FC01E8
:10087000A689B78982899389218921110AC0119695
:100880002D913C912823392381E0232B09F480E02A
:1008900008952C912F7030E0F5CFFC0163B149B180
:1008A00040955FB1509513A211A212A2252F30E0FE
:1008B000C901959587959595879595958795959572
:1008C0008795959587958270D901B595A795B5952A
:1008D000A795B595A795A4708A2B551F5527551F29
:1008E000852B359527952870822B9389907F892BAE
:1008F000838B262F2095622F70E0922F96959695E8
:10090000822F8295880F880F807C9B0122953295DB
:10091000307F3227207F322720723327DB01AA0F56
:10092000BB1FA078BB272A2B3B2B542F5F71252B95
:10093000DB01AA0FBB1FA295B295B07FBA27A07F9B
:10094000BA27AA27B1702A2B3B2B7695762F6627DC
:100950007795679566277270262B372BBC01662723
:100960007470262B372B88279870282B392B4595A8
:100970004074242B358B248B089584B1817884B9FD
:100980008AB180768AB980B38F7080BB85B18E675B
:1009900085B98BB18F698BB981B3806F81BB0895A5
:1009A0000895FC0120916C0130916D01621773076D
:1009B00008F49B0140E02115310521F512C090910A
:1009C0009B01992319F1953099F19091E80093FDDD
:1009D00031C09091E80092FD25C09091E80090FD13
:1009E0004DC04111ECCF1EC0953011F19091E8003F
:1009F00093FD20C09091E80092FD14C09091E80012
:100A000090FD1AC090919B019111EECF82E0089564
:100A100080919B018823D1F3853051F08091E800CB
:100A200083FD08C08091E80082FFF2CF80E0089546
:100A300083E0089581E008956091F3008091F200D1
:100A4000762F682F6034710520F00DC06034710579
:100A500051F081918093F100215031096F5F7F4FF8
:100A60002115310599F741E06034710509F040E046
:100A70008091E8008E778093E8009DCF6091F3002D
:100A80008091F200762F682FEECFCF93DF93CDB712
:100A9000DEB7AA970FB6F894DEBF0FBECDBF909118
:100AA000F100909366018091F1008093670120919D
:100AB000F100209368012091F100209369012091B9
:100AC000F10020936A012091F10020936B012091A5
:100AD000F10020936C012091F10020936D01209191
:100AE000790130917A01232B09F083C0813009F01C
:100AF00080C0913A09F464C02091E80023FF49C006
:100B0000992309F43EC2923009F043C080916801F4
:100B1000811126C080916A018F709FEF980F9630E7
:100B2000C0F58093E9009091EB0090FF19C090917F
:100B30006701933009F41BC39091EB00906190938F
:100B4000EB0021E030E001C0220F8A95EAF7209304
:100B5000EA001092EA008091EB0088608093EB003D
:100B60001092E9008091E800877F8093E8008091EF
:100B7000660187FF05C0FBC180919B01882349F076
:100B80008091E80080FFF8CF8091E8008E77809315
:100B9000E8008091E80083FF0AC08091E800877F29
:100BA0008093E8008091EB0080628093EB00AA962E
:100BB0000FB6F894DEBF0FBECDBFDF91CF91089581
:100BC0008091E800877F8093E8008091790190917F
:100BD0007A01009709F439C2029731F460E470E0B9
:100BE00086E391E00E94D1048091E8008B778093A6
:100BF000E8008091E80083FFCCCF9091660180915E
:100C000067018A3030F6E82FF0E0E75FF94F0C9487
:100C1000C3164E078005C9058005C9058007F7067C
:100C2000C905D70613069111B4CF809168018230AF
:100C300008F0AFCF9091E800977F9093E800809301
:100C400077019091660197FF05C0CEC190919B01FD
:100C5000992359F09091E80090FFF8CF8091E80037
:100C60008E778093E80080917701882309F45EC233
:100C700084E080939B018091790190917A01813089
:100C8000910509F44CC2029709F449C283E08093AC
:100C9000E9008091EB008E7F8093EB008091ED0066
:100CA0008D7F8093ED008091EB0081608093EB005D
:100CB00081EC8093EC0082E28093ED001092F000D2
:100CC0008091EE0087FF6FC084E08093E90030914F
:100CD000EC009091ED002091F00091FF19C08091FF
:100CE000EB008E7F8093EB008091ED008D7F8093F1
:100CF000ED008091EB0081608093EB003093EC007D
:100D00009093ED002093F0008091EE0087FF4BC0A0
:100D100085E08093E9003091EC009091ED00209106
:100D2000F00091FF19C08091EB008E7F8093EB0063
:100D30008091ED008D7F8093ED008091EB008160CC
:100D40008093EB003093EC009093ED002093F00043
:100D50008091EE0087FF27C086E08093E900309104
:100D6000EC009091ED002091F00091FF19C080916E
:100D7000EB008E7F8093EB008091ED008D7F809360
:100D8000ED008091EB0081608093EB003093EC00EC
:100D90009093ED002093F0008091EE0087FF03C058
:100DA00083E08093E90082E20E94FA01F2CE90385B
:100DB00009F0EFCE8091E800877F8093E800809172
:100DC00077018093F1008091E8008E778093E800AE
:100DD0008091660187FF06C0FDC080919B0188233A
:100DE00009F4D7CE8091E80080FFF7CFCDCE9058A0
:100DF000923008F0CECE80916801909169018C3DCF
:100E000023E0920709F431C1292F33274091730160
:100E1000509174014130510509F45EC142305105D1
:100E200009F06CC12330310509F4CEC108F493C137
:100E30002132310509F4ECC184E990E0E6EFF1E0FC
:100E40002232310509F0A5CE2091E800277F2093BA
:100E5000E80020916C0130916D018217930708F42E
:100E60009C0140E02115310509F0D9C014C08091E2
:100E70009B01882309F47FC0853009F47CC08091F0
:100E8000E80083FD78C08091E80082FDD9C08091A0
:100E9000E80080FDE0C14111EACFD2C0903809F4EA
:100EA000DBC0923809F075CE80916A018F7087306F
:100EB00008F06FCE8093E9008091EB0085FB8827D6
:100EC00080F91092E9009091E800977F9093E800F4
:100ED0008093F1001092F1008091E8008E7780936A
:100EE000E8008091660187FF06C06AC080919B017F
:100EF000882309F44ECE8091E80080FFF7CF44CEDE
:100F0000911147CE909168019F778091E30080789E
:100F1000892B8093E3008091E800877F8093E8002D
:100F20008091660187FF05C03CC080919B018823AA
:100F300049F08091E80080FFF8CF8091E8008E773B
:100F40008093E8008091E80080FFFCCF8091E3006F
:100F500080688093E30083E0911101C082E0809378
:100F60009B0117CE80919B01882309F412CE8091BA
:100F7000E80082FFF7CF8091E8008B778093E8004C
:100F800008CE90916801913009F003CE91E0833052
:100F900009F090E090937601E3CD80919B01882346
:100FA00089F28091E80082FFF8CF8091E8008B778A
:100FB0008093E800C7CF80919B01882309F4E9CD95
:100FC0008091E80082FFF7CFD6CF80919B018823E4
:100FD00009F4DFCD8091E80082FFF7CFCCCF90916C
:100FE0009B01992309F441CE9091E80092FFF7CF3D
:100FF0008091E8008B778093E8008091770135CE6F
:10100000853009F4B8CF8091E80083FDB4CF80919A
:10101000E80082FD15C08091E80080FDB3C080919A
:101020009B018111EDCFA7CF80919B01882309F40B
:10103000A2CF853009F49FCF8091E80083FD9BCF3C
:101040008091E80082FFF0CF96CF64E170E087E8FE
:1010500091E00E94D104C8CD8091750190917601F4
:10106000992309F430CF82602ECF83E08A838AE20D
:1010700089835FB7F894DE01139680E09EE041E239
:1010800007C0295C3F4F2D933D938F5F843191F0D2
:10109000E92FF0E040935700E49180FF03C0E29510
:1010A000EF709F5FEF702E2F30E0EA3050F7205D39
:1010B0003F4FE9CF5FBF8091E800877F8093E800D2
:1010C0006AE270E0CE0101960E94D1048091E800AE
:1010D0008B778093E8005DCD2330310509F4A2C001
:1010E00068F12132310509F4ACC086E590E0EEE606
:1010F000F1E02232310509F4A7CE4BCD2230310583
:1011000009F4A4C02330310509F474C082E190E0F1
:10111000EAE8F2E02130310509F03BCD95CE82E3DB
:101120000E941F0382E30E94FA0133CD8091E30005
:1011300087FD85C081E080939B019DCD21303105E5
:1011400009F46BC089E290E0E5E4F1E0223031057A
:1011500009F47ACE1ECD2130310579F089E290E094
:10116000E4ECF1E02230310509F46ECE12CD80912D
:10117000EB0080628093EB00F3CC82E190E0EEEA3A
:10118000F2E062CE8091F3009091F20089279827D7
:1011900089278034910568F444914093F100319699
:1011A0002150310901962115310519F0803491053E
:1011B00099F741E08034910509F040E08091E80022
:1011C0008E778093E8004ECE99278130910509F4FF
:1011D0005EC008F457C08230910509F44EC00397F1
:1011E00009F0D7CCECE4F3E0849190E0009709F4A7
:1011F000D0CC2ACE992781309105A9F108F442C0BC
:101200008230910561F7E0ECF2E0849190E0EECF5E
:1012100089E090E0EDEEF1E017CE82E190E0ECE9BC
:10122000F2E012CE99278130910511F158F1823008
:101230009105A9F6E8E0F3E0849190E0D7CF84E04F
:101240007ACF89E090E0E7E5F1E0FECD89E990E032
:10125000ECEAF0E0F9CD8091F3009091F20089275B
:1012600098278927A6CFE2EFF2E0849190E0BECFE5
:10127000EEE2F3E0849190E0B9CFE6E5F3E084910B
:1012800090E0B4CFEAE9F3E0849190E0AFCFEEE8EC
:10129000F3E0849190E0AACFCF93DF93EC0190E04C
:1012A00080E00E94AD168EA381E090E00E94AD1612
:1012B0008FA381E090E00E94AD168CA382E090E0C5
:1012C0000E94AD168DA382E090E00E94AD1688A723
:1012D00083E090E00E94AD1689A788A599A52EA16C
:1012E0003FA12330310510F01FA21EA22CA13DA169
:1012F0002330310510F01DA21CA2029710F019A690
:1013000018A6DF91CF910895FF920F931F93CF936B
:10131000DF93EC01A881B9811896ED91FC911997A2
:1013200044E0EC32F40711F58C899D899C01222759
:1013300033702115334001F11A96ED91FC9184E050
:10134000E132F80709F057C08C899D899C0122275A
:101350003C7021153C4009F455C010E000E0C80184
:10136000DF91CF911F910F91FF90089509958823E8
:1013700009F486C08C899D894CA15DA19C7F9D8BC1
:101380008C8B2B8922FF2AC081E090E09DA38CA347
:10139000207F2B8B02E010E04817590701F3FCA0D7
:1013A00081E090E00E94AD16F81629F06F2D81E0E3
:1013B00090E00E94B516CDA182E090E00E94AD16AB
:1013C000C81769F26C2F82E090E00E94B516C80140
:1013D000DF91CF911F910F91FF90089523FD3EC0A3
:1013E00021FF51C01DA21CA2207F2B8B90E080E02A
:1013F00001E010E0D1CFCE010995882309F4ADCFEB
:101400008C899D8928A539A5937F9D8B8C8B8B8991
:1014100080FD2DC081FFA1CF41E050E059A748A732
:10142000807F8B8B81E090E000E410E02817390783
:1014300009F495CFF8A481E090E00E94AD16F8166B
:1014400029F06F2D81E090E00E94B516C9A582E0D9
:1014500090E00E94AD16C813B5CF81CF82E090E036
:101460009DA38CA3207F2B8B04E010E095CF19A6C1
:1014700018A6807F8B8B90E080E000E210E0D6CF52
:10148000A881B98159CF20FF68CF207F2B8B906135
:101490009D8B8C8B08E010E062CF0E94C916AF9242
:1014A000BF92CF92DF92EF92FF920F931F93CF9351
:1014B000DF93CDB7DEB728970FB6F894DEBF0FBE27
:1014C000CDBF8091790190917A01892B09F45AC09E
:1014D00082E08093E9008091E80082FF72C08091F1
:1014E000E80085FDD5C08091E8008B778093E80007
:1014F00048E0A42EB12C5FE7C52E51E0D52E81E047
:101500008093E9008091E80080FF4AC04091E400A8
:101510005091E50025E68091EC0080FF5AC0809153
:10152000E80080FD5AC080919B01882381F08530BE
:1015300071F08091EB0085FD0AC08091E4009091EC
:10154000E5008417950739F32150AC0121F780910C
:10155000E8008E778093E800A50170E060E0C601A6
:1015600028960FB6F894DEBF0FBECDBFDF91CF91A6
:101570001F910F91FF90EF90DF90CF90BF90AF90B1
:101580000C94CE1624E1A22EB12C37E8C32E31E004
:10159000D32E81E08093E9008091E80080FDB6CFF2
:1015A00028960FB6F894DEBF0FBECDBFDF91CF9166
:1015B0001F910F91FF90EF90DF90CF90BF90AF9071
:1015C000089588E0A82EB12C9FE7C92E91E0D92E6E
:1015D000E0CF8091E80082FFA6CF8501760109C0A7
:1015E000F70181917F018093F1000150110909F405
:1015F000AECF8091E80085FDF3CF8091E8008E7733
:101600008093E80080919B018823A9F08091E900F4
:101610008F7088878091EC0080FF03C0F885F068A8
:10162000F8871092E9008091E80083FDBBC08885AF
:101630008F708093E9004091E4005091E50025E629
:101640008091EC0080FF1FC08091E80080FDD1CF29
:1016500080919B01882309F47ACF853009F477CFF4
:101660008091EB0085FD73CF8091E4009091E500BF
:101670008417950729F32150AC0109F468CF8091B4
:10168000EC0080FDE1CF8091E80082FFE1CFB1CF97
:101690004091E4005091E50025E68091EC0080FF48
:1016A0001FC08091E80080FD80C080919B0188234D
:1016B00009F419CF853009F416CF8091EB0085FD30
:1016C00012CF8091E4009091E5008417950729F3EB
:1016D0002150AC0109F407CF8091EC0080FDE1CFEF
:1016E0008091E80082FFE1CF07E010E0FE01319633
:1016F0007F0109C08091F100F70181937F010150C2
:10170000110909F4F0CE8091E80085FDF3CF8091B6
:10171000E8008B778093E80080919B018823A9F0F3
:101720008091E9008F70D82E8091EC0080FF02C07C
:101730006894D7F81092E9008091E80083FD0E9438
:1017400045058D2D8F708093E9004091E400509104
:10175000E50025E68091EC0080FF1FC08091E80045
:1017600080FDD1CF80919B01882309F4BCCE8530C8
:1017700009F4B9CE8091EB0085FDB5CE8091E400EF
:101780009091E5008417950729F32150AC0109F4E5
:10179000AACE8091EC0080FDE1CF8091E80082FF2D
:1017A000E1CFB1CF0E94450542CF07E010E0CE0166
:1017B00001967C01A8CF1F920F920FB60F921124B1
:1017C0002F933F938F939F93AF93BF9380917B0110
:1017D00090917C01A0917D01B0917E0130917201C8
:1017E00023E0230F2D3768F126E8230F0296A11D71
:1017F000B11D2093720180937B0190937C01A09393
:101800007D01B0937E0180916E0190916F01A09156
:101810007001B09171010196A11DB11D80936E01FF
:1018200090936F01A0937001B0937101BF91AF913C
:101830009F918F913F912F910F900FBE0F901F900E
:1018400018950196A11DB11DD4CF1F920F920FB60E
:101850000F9211242F933F938F939F938091E100D8
:1018600082FF04C08091E20082FD85C18091DA0090
:1018700080FF04C08091D80080FD55C18091E100B7
:1018800080FF04C08091E20080FD61C18091E10091
:1018900084FF2AC08091E20084FF26C080E189BDD8
:1018A00082E189BD09B400FEFDCF8091D8008F7D13
:1018B0008093D8008091E1008F7E8093E100809139
:1018C000E2008F7E8093E2008091E200816080934D
:1018D000E20080917701811154C18091E30087FD7E
:1018E00058C181E080939B018091E10083FF12C188
:1018F0008091E20083FF0EC18091E100877F809399
:10190000E10082E080939B01109277018091E100D9
:101910008E7F8093E1008091E2008E7F8093E200D1
:101920008091E20080618093E2001092E900809152
:10193000EB008E7F8093EB008091ED008D7F809394
:10194000ED008091EB0081608093EB001092EC0041
:1019500082E38093ED001092F0008091EE0087FF0B
:10196000D9C081E08093E9003091EC008091ED00D6
:101970002091F00081FF19C09091EB009E7F909321
:10198000EB009091ED009D7F9093ED009091EB0026
:1019900091609093EB003093EC008093ED002093E6
:1019A000F0008091EE0087FFB5C082E08093E900EF
:1019B0003091EC009091ED002091F00091FF19C062
:1019C0008091EB008E7F8093EB008091ED008D7F06
:1019D0008093ED008091EB0081608093EB00309369
:1019E000EC009093ED002093F0008091EE0087FFD3
:1019F00091C083E08093E9003091EC008091ED008C
:101A00002091F00081FF19C09091EB009E7F909390
:101A1000EB009091ED009D7F9093ED009091EB0095
:101A200091609093EB003093EC008093ED00209355
:101A3000F0008091EE0087FF6DC084E08093E900A4
:101A40003091EC009091ED002091F00091FF19C0D1
:101A50008091EB008E7F8093EB008091ED008D7F75
:101A60008093ED008091EB0081608093EB003093D8
:101A7000EC009093ED002093F0008091EE0087FF42
:101A800049C085E08093E9003091EC009091ED0031
:101A90002091F00091FF19C08091EB008E7F809320
:101AA000EB008091ED008D7F8093ED008091EB0045
:101AB00081608093EB003093EC009093ED002093D5
:101AC000F0008091EE0087FF25C086E08093E9005A
:101AD0003091EC008091ED002091F00081FF18C062
:101AE0009091EB009E7F9093EB009091ED009D7F95
:101AF0009093ED009091EB0091609093EB00309308
:101B0000EC008093ED002093F0008091EE0087FDC3
:101B10001092E9009F918F913F912F910F900FBEEE
:101B20000F901F9018958091DA008E7F8093DA00D5
:101B30008091D90080FF29C080E189BD82E189BD03
:101B400009B400FEFDCF81E080939B0197CE809188
:101B5000E2008E7F8093E2008091E20080618093BA
:101B6000E2008091D80080628093D80019BC85E0A3
:101B700080939B018BCE8091E1008B7F8093E1006D
:101B800075CE84E080939B01AFCE19BC10929B016F
:101B900075CE83E0A7CEFC018AE291E09183808339
:101BA00012821382148215828AE090E097838683E2
:101BB00010860895CF93DF93CDB7DEB7E2970FB6C7
:101BC000F894DEBF0FBECDBF789484B5826084BD2B
:101BD00084B5816084BD85B5826085BD85B5816031
:101BE00085BD80916E00816080936E0010928100AF
:101BF000809181008260809381008091810081606A
:101C0000809381008091800081608093800080912A
:101C10009100826080939100809191008160809317
:101C20009100809190008160809390008091C1002C
:101C300084608093C1008091C10082608093C10064
:101C40008091C10081608093C1008091C300816058
:101C50008093C3008091C00082608093C000809117
:101C6000C20081608093C20080917A00846080937A
:101C70007A0080917A00826080937A0080917A0065
:101C8000816080937A0080917A00806880937A00E6
:101C90008CE991E00E94BD048CE991E00E944C091E
:101CA0008CE991E00E944D042091C2013091C30162
:101CB0008091B0019091B10193FF9FC682E090E0C6
:101CC0009093C3018093C20112E028173907E9F00D
:101CD00090E080E00E94AD16811709F48CC6612F58
:101CE00090E080E00E94B5161091C30181E090E081
:101CF0000E94AD16811729F0612F81E090E00E94CB
:101D0000B5168091C2019091C30190937A0180939E
:101D10007901909374018093730184B7877F84BFA6
:101D20000FB6F894A8958091600088618093600058
:101D3000109260000FBE80E830E020E00FB6F8940B
:101D400080936100209361000FBE8091D8008F7E48
:101D50008093D8008091D70081608093D70084E081
:101D600082BF91E0909378018091D8008E7F80931C
:101D7000D8001092E2001092DA001092E1008091F7
:101D8000D8008F778093D8008091D80080688093A6
:101D9000D8008091D8008F7D8093D80019BC109214
:101DA0009B0110927701109276011092750180913B
:101DB000E0008B7F8093E0008091D8008160809369
:101DC000D8001092E9008091EB008E7F8093EB00A9
:101DD0008091ED008D7F8093ED008091EB0081601C
:101DE0008093EB001092EC0082E38093ED00109260
:101DF000F0008091EE0087FFD8C09093E900309109
:101E0000EC009091ED002091F00091FF19C08091BD
:101E1000EB008E7F8093EB008091ED008D7F8093AF
:101E2000ED008091EB0081608093EB003093EC003B
:101E30009093ED002093F0008091EE0087FFB5C0F5
:101E400082E08093E9003091EC009091ED002091C8
:101E5000F00091FF19C08091EB008E7F8093EB0022
:101E60008091ED008D7F8093ED008091EB0081608B
:101E70008093EB003093EC009093ED002093F00002
:101E80008091EE0087FF91C083E08093E90030915C
:101E9000EC009091ED002091F00091FF19C080912D
:101EA000EB008E7F8093EB008091ED008D7F80931F
:101EB000ED008091EB0081608093EB003093EC00AB
:101EC0009093ED002093F0008091EE0087FF6DC0AD
:101ED00084E08093E9003091EC009091ED00209136
:101EE000F00091FF19C08091EB008E7F8093EB0092
:101EF0008091ED008D7F8093ED008091EB008160FB
:101F00008093EB003093EC009093ED002093F00071
:101F10008091EE0087FF49C085E08093E900309111
:101F2000EC009091ED002091F00091FF19C080919C
:101F3000EB008E7F8093EB008091ED008D7F80938E
:101F4000ED008091EB0081608093EB003093EC001A
:101F50009093ED002093F0008091EE0087FF25C064
:101F600086E08093E9003091EC009091ED002091A3
:101F7000F00091FF18C08091EB008E7F8093EB0002
:101F80008091ED008D7F8093ED008091EB0081606A
:101F90008093EB003093EC009093ED002093F000E1
:101FA0008091EE0087FD1092E9008091E1008E7F24
:101FB0008093E1008091E20081608093E200809153
:101FC000E20088608093E2008091E0008E7F809341
:101FD000E0008091D80080618093D800789412E06E
:101FE00044244A940FE7502E63B129B120953FB1A4
:101FF00030951092BF011092BD011092BE01432F87
:1020000050E0CA0195958795959587959595879503
:1020100095958795959587958270FA01F595E79541
:10202000F595E795F595E795E4708E2B331F3327EB
:10203000331F832B559547954870842B9091AF01A2
:10204000907F892B8093AF01862F8095482F50E099
:10205000782E76947694682E6294660C660C60EC0A
:102060006622CA0182959295907F9827807F982753
:1020700080729927BA01660F771F60787727862BC1
:10208000972B322F3F71832BBA01660F771F629512
:102090007295707F7627607F762766277170862B12
:1020A000972B5695542F44275795479544275270A0
:1020B000842B952BA30144275470842B952BA301CB
:1020C00044275870842B952B25952074822B909350
:1020D000B1018093B001B6ECEB2EB1E0FB2E1EC037
:1020E0002FB7F89480917B0190917C01A0917D01A4
:1020F000B0917E012FBFF70182839383A483B583C0
:1021000090859127908792FD9DC0B8E1EB0EF11C60
:10211000E6E7EE16E3E0FE0609F4B1C0D701189633
:102120009C9118979B7F18969C931897ED91FC9122
:102130000190F081E02DB4E0E733FB0709F0FDC129
:10214000D7015696ED91FC91579752964D915C911F
:10215000539751968C918111ECC1218132812423B6
:10216000352381E0232B09F480E096959170891343
:10217000B7CF9FB7F89480907B0190907C01A0909E
:102180007D01B0907E019FBFD70112964D915D9168
:102190006D917C911597841A950AA60AB70A16962E
:1021A0004D915C91179770E060E084169506A60645
:1021B000B70608F4C7C1F7019085292F217082174F
:1021C00009F4A1CF2FB7F89480917B0190917C0105
:1021D000A0917D01B0917E012FBF82839383A48360
:1021E000B5838085F1E08F278460D70118968C93A2
:1021F0002FB7F89480917B0190917C01A0917D0193
:10220000B0917E012FBFF7014185528563857485AA
:10221000841B950BA60BB70B85879687A787B08B7A
:102220002FB7F89480917B0190917C01A0917D0162
:10223000B0917E012FBF81879287A387B487908555
:1022400092FF63CFD70151968C91519752962D9161
:102250003C9190FF7AC1882309F484C18091AF0139
:10226000282B2F70807F282B2093AF01B8E1EB0E35
:10227000F11CE6E7EE16E3E0FE0609F04FCF809191
:10228000B0019091B1012091AF01322F3F70AC01AC
:10229000442753704115534009F07CC14091C0015F
:1022A0005091C1019C7F9093B1018093B00122FFB6
:1022B000B7C261E070E07093C1016093C001207FFC
:1022C0002093AF0101E021E030E06091C401709102
:1022D000C5014217530709F4B9C281E090E00E949A
:1022E000AD16801709F406C3602F81E090E00E94CC
:1022F000B5160091C10182E090E00E94AD168017F2
:1023000029F0602F82E090E00E94B5168091B00124
:102310009091B1012091AF01322F3F70B22FB27076
:10232000022F01706091C4017091C501F1E0422F4C
:102330004870E42E23FFF0E0E1E0A32FA470FA2E12
:1023400032FF80C1A1E0B11101C0A0E0232F2170B4
:102350004091C0015091C1019093B4018093B301A9
:102360006115710509F470C16130710509F077C11B
:10237000002309F4A8C2BB2309F4F7C220E0FF2020
:1023800009F473C124E0EE2009F4E0C23091B201F7
:10239000307F3093B2014130510509F428C34230F7
:1023A000510509F022C320E05092B6014092B501D8
:1023B0005092B8014092B701422F4C70443009F45A
:1023C000B7C26FEF7FEF483011F06FEF7FE7709388
:1023D000BA016093B9012370EE24EA94FE2C2130F7
:1023E00041F0F12CE12C223021F0EE24EA945FE759
:1023F000F52EF092BC01E092BB01307F3093B20128
:1024000000E0CC24CA944FE7D42E4FEF5FE721E1E0
:10241000EFEAF1E0DE01119601900D922A95E1F7C5
:10242000B090BD01A090BE0121E1EEE9F1E0DE0136
:10243000529601900D922A95E1F72C813D89232730
:102440002F7041F42091A2013091A3012817390780
:1024500009F410C22091C2013091C3012115310548
:1024600009F434C12130310509F052C0652FAD2D7A
:10247000BF2D0150E8E00A3028F4E02FF0E0E45DE1
:10248000FE4FE081AC01440F551F82FB222420F84F
:10249000312C9A012270332722293329887F9F7398
:1024A000822B932B44705527842B952B9CA38BA3B5
:1024B000EDA36EA3AFA378A7B9A788E0FE01B396FA
:1024C000DE019B9601900D928A95E1F788E0FE016E
:1024D000BB96AFE7B1E001900D928A95E1F780914C
:1024E0009B01843009F466C180919B01882381F0AF
:1024F0000091E9000F708091EC0080FD006810925F
:10250000E9008091E80083FDF7C10F700093E900B6
:1025100081E1EFEAF1E0AEE9B1E001900D928A9538
:10252000E1F720E030E0232B09F45ECD0E940000AB
:102530005BCD20812F7030E012CEC7010995F701E5
:10254000908513CE18969C91DECD8823B1F08091B2
:10255000AF01982F9F7020952923807F282B2093EF
:10256000AF01D3CD8091B0019091B101282B392BCF
:102570003093B1012093B001C8CD20953095809162
:10258000B0019091B101282339233093B1012093F8
:10259000B001BBCD6091C4017091C501022F0170E3
:1025A000AC0144275C7041155C4009F060C1937F29
:1025B0009093B1018093B001002309F4A0C110925F
:1025C000C5011092C401207F2093AF0100E030E0EC
:1025D00020E06217730709F439C181E090E00E949E
:1025E000AD16801709F4F0C1602F81E090E00E94E1
:1025F000B5160091C50182E090E00E94AD168017EB
:1026000029F0602F82E090E00E94B5168091B00121
:102610009091B1012091AF01322F3F70B22FB27073
:10262000022F01706091C4017091C501F1E0E22FA9
:10263000E870EE2E23FFF0E0E1E0232F2470F22E6D
:1026400032FD80CEE0E07ECE3370333009F477C1C6
:10265000FF2009F40AC1E1E0E110E0E0F0E0A1119F
:102660002127EE2311F064E02627FF2311F0A8E0D4
:102670002A27022F0F703091B201307F302B309318
:10268000B2014130510509F498C04230510509F4B6
:102690008BCE5092B6014092B5015092B801409253
:1026A000B7015092BA014092B9015092BC014092D8
:1026B000BB01EE24EA942FE7F22E6FEF7FE7CC24E4
:1026C000CA943FE7D32E4FEF5FE7A1CE5058B0E852
:1026D000DB1A7058E0E8FE1A9C0136952795329572
:1026E00022952F7023273F7023272071FC01F69538
:1026F000E795F695E795F695E795E0722E2BFC01A8
:10270000F295E295EF70EF27FF70EF273E2F3074C0
:10271000232B3E2F3078232B022B292F269526950D
:102720002470E3702E2B382F3295307FE32FE07129
:102730002E2BE32FE0722E2BE32FE0742E2B30781C
:10274000232B3091BF01311115C0FC010024EE0F85
:10275000FF1F001CEE0FFF1F001CEF2FF02DE1707C
:10276000BE2EB194880F892F881F990B9195817087
:10277000A82EA194F4E1F09388010093890120939D
:102780008A01B0928B01A0928C0150938E014093EC
:102790008D01D0929001C0928F017093920160934D
:1027A0009101F0929401E092930180919B01843019
:1027B00009F09ACE0E944F0A97CE422F4C704430B7
:1027C00009F4D0C0483009F0B7C04FEF5FEF509325
:1027D000B6014093B5012370CC24CA94DC2C21307F
:1027E00041F0D12CC12C223021F0CC24CA94AFE787
:1027F000DA2ED092B801C092B7015092BA0140923D
:10280000B9015092BC014092BB01307F3093B201BC
:1028100000E0EE24EA94FFE7FF2E6FEF7FE7F7CDAD
:1028200023FF59C062E070E07093C1016093C00162
:10283000207F2093AF0102E022E030E06091C401EC
:102840007091C5014217530709F047CD20E0A0E081
:10285000E0E0F12CF0E0E12C00E0B0E030E040916D
:10286000C0015091C10178CD20E0E0E0F8CEB22F58
:10287000B270DCCE2091AC01B212ECCD2091AD0152
:10288000A212E8CD2091A4013091A50124173507AB
:1028900009F0E0CD2091A6013091A7012C153D054E
:1028A00009F0D8CD2091A8013091A901261737074A
:1028B00009F0D0CD2091AA013091AB012E153F0532
:1028C00009F0C8CD11CEFF2079F2E1E0E110E0E09F
:1028D00020E0F0E0C4CEB22FB27021FF5EC01092B3
:1028E000C1011092C001207F2093AF0100E030E0D1
:1028F00020E0EBCC00E0FFCC0E94450506CEB22FD5
:10290000B27021FD63C0F1E0422F4870E42E23FF36
:10291000F0E0E1E0A32FA470FA2E32FFE0E0232FD5
:10292000217000E0A0E04091C0015091C10114CDA0
:1029300070E060E04CCD21E04FEF5FE748CFFF2033
:1029400009F493CEE11095CE34E02327022F0F70C7
:102950003091B201307F302B3093B20141305105BC
:1029600009F093CE50E040E032CF21E0FF2009F49F
:102970007CCE21E0F0E0EE2009F475CE3091B2017A
:10298000307F31603093B20141305105A1F24230C5
:10299000510509F07ECE21E007CD20FF24C0207F25
:1029A0002093AF0190619093B1018093B00130E02A
:1029B00020E06091C4017091C501F12CE12C00E090
:1029C000A0E0E0E0F0E0C8CC00E015CE41E050E04F
:1029D0005093C5014093C401207F2093AF0101E0D3
:1029E00021E030E0F6CD20E0E4CF00E052CE20E060
:1029F0004FEF5FE7ECCE10E079C990FF08C081E0AF
:102A000090E09093C3018093C20111E05EC991FFF1
:102A100008C01092C3011092C20110E090E080E063
:102A200054C9C90172C98F929F92AF92BF92CF923F
:102A3000DF92EF92FF920F931F93CF93DF938AE081
:102A400091E090939D0180939C0186EC91E00E941F
:102A5000CB0D04E011E01093C7010093C601FF24E1
:102A6000F394F092D70188248394912C9092D90109
:102A70008092D801C5E0D0E0D093DB01C093DA01A9
:102A80008EED91E00E94CB0D1093DF010093DE01EB
:102A9000F092EF0192E0A92EB12CB092F101A09238
:102AA000F001D093F301C093F20186EF91E00E9410
:102AB000CB0D1093F7010093F601F092070224E08A
:102AC000C22ED12CD0920902C0920802D0930B02E0
:102AD000C0930A028EE092E00E94CB0D10930F0289
:102AE00000930E02F0921F0238E0E32EF12CF092D8
:102AF0002102E0922002D0932302C093220286E2B8
:102B000092E00E94CB0D10932702009326021092B0
:102B100037029092390280923802D0933B02C093E0
:102B20003A028EE392E00E94CB0D10933F02009395
:102B30003E0210924F02B0925102A0925002D093E6
:102B40005302C093520286E592E00E94CB0D10938F
:102B500057020093560210926702D0926902C09207
:102B60006802D0936B02C0936A028EE692E00E94E4
:102B7000CB0D10936F0200936E0210927F02F092C1
:102B80008102E0928002D0938302C093820286E8A1
:102B900092E00E94CB0D1093870200938602109260
:102BA000970280E190E09093990280939802D093ED
:102BB0009B02C0939A028EE992E00E94CB0D109383
:102BC0009F0200939E021092AF0280E290E09093E9
:102BD000B1028093B002D093B302C093B20286EBED
:102BE00092E00E94CB0D1093B7020093B6021092B0
:102BF000C70280E490E09093C9028093C802D0930A
:102C0000CB02C093CA028EEC92E00E94CB0D1093CF
:102C1000CF020093CE021092DF0280E890E0909302
:102C2000E1028093E002D093E302C093E20286EED9
:102C300092E00E94CB0D1093E7020093E6021092FF
:102C4000F70280E091E09093F9028093F802D0932C
:102C5000FB02C093FA028EEF92E00E94CB0D10931C
:102C6000FF020093FE0210920F0380E092E0909327
:102C7000110380931003D0931303C093120386E1D2
:102C800093E00E94CB0D109317030093160310924C
:102C9000270380E094E09093290380932803D09346
:102CA0002B03C0932A038EE293E00E94CB0D109376
:102CB0002F0300932E0310923F0380E098E090933F
:102CC000410380934003D0934303C093420386E4BF
:102CD00093E00E94CB0D109347030093460310929C
:102CE000570380E090E19093590380935803D09369
:102CF0005B03C0935A038EE593E00E94CB0D1093C3
:102D00005F0300935E0310926F0380E090E2909364
:102D1000710380937003D0937303C0937203ECED3F
:102D2000F1E08FEA91E091838083789623E0EC389C
:102D3000F207C9F78AE191E090939D0180939C018D
:102D4000DF91CF911F910F91FF90EF90DF90CF9087
:102D5000BF90AF909F908F900895F999FECF92BD4C
:102D600081BDF89A992780B50895262FF999FECF4D
:102D70001FBA92BD81BD20BD0FB6F894FA9AF99A98
:102D80000FBE01960895EE0FFF1F0590F491E02D00
:102D9000099481E090E0F8940C94D516DC0101C010
:0E2DA0006D9341505040E0F70895F894FFCF36
:102DAE00000000003704000000004C09D004D004DD
:102DBE0084092C042104000000004C09BD044D04BC
:102DCE0084092C042104000000004D0A00040806AA
:062DDE00070508020103D5
:00000001FF
