:100000000C9442010C946A010C946A010C946A01EC
:100010000C946A010C946A010C946A010C946A01B4
:100020000C946A010C946A010C9459060C946A01B0
:100030000C946A010C946A010C946A010C946A0194
:100040000C946A010C946A010C946A010C946A0184
:100050000C946A010C946A010C946A010C940F06CA
:100060000C946A010C946A010C946A010C946A0164
:100070000C946A010C946A010C946A010C946A0154
:100080000C946A010C946A010C946A010C946A0144
:100090000C946A010C946A010C946A010C946A0134
:1000A0000C946A010C946A010C946A01120100021A
:1000B000FFFFFF405E048E021401010203010501EF
:1000C0000905A101150025013500450175019510AF
:1000D000050919012910810205012507463B017513
:1000E0000495016514093981426500950181012655
:1000F000FF0046FF000930093109320935750895BE
:100100000481020600FF0920950181020A2126953B
:10011000089102C012010002000000400D0F920081
:10012000000101020001080331002E003000000030
:10013000240350004F004B004B0045004E002000B0
:1001400043004F004E00540052004F004C004C0042
:100150004500520000003003580049006E00700056
:100160007500740020005300540041004E0044000C
:100170004100520044002000470041004D0045006E
:1001800050004100440000001C0348004F00520092
:100190004900200043004F002E002C004C0054006A
:1001A00044002E00000014034D006900630072003B
:1001B0006F0073006F006600740000000403090400
:1001C0000902290001010080FA090400000203006D
:1001D0000000092111010001225600070502034019
:1001E0000001070581034000010902990004010094
:1001F000A0FA0904000002FF5D01001121000101C5
:100200002581140000000013010800000705810388
:10021000200001070501032000080904010004FF74
:100220005D03001B210001010182400102201683B1
:100230000000000000001603000000000000070599
:100240008203200002070502032000040705830340
:10025000200040070503032000100904020001FFED
:100260005D020009210001012284070007058403C3
:100270002000100904030000FFFD130406410001E3
:1002800001030D0A11241FBECFEFDAE0DEBFCDBFA0
:1002900011E0A0E0B1E0E2E7F4E102C005900D92C8
:1002A000A231B107D9F721E0A2E1B1E001C01D926E
:1002B000AD35B207E1F711E0C2E4D1E004C0219707
:1002C000FE010E942A0AC134D107C9F70E941A0709
:1002D0000C94370A0C9400003FB7F89480911F01EA
:1002E00090912001A0912101B091220126B5A89BF7
:1002F00005C02F3F19F00196A11DB11D3FBFBA2FB8
:10030000A92F982F8827BC01CD01620F711D811D77
:10031000911D42E0660F771F881F991F4A95D1F7FC
:100320000895CF93DF93FC0193B1909549B1409527
:100330008FB18095108AA82FB0E09D01C5E035955A
:100340002795CA95E1F72270ED0133E0D595C79561
:100350003A95E1F7C4702C2B881F8827881F282B1B
:10036000B595A795A8702A2B2283522F587031E09B
:1003700009F430E0B22FB470A22FA270822F8170E6
:100380002370233009F4B3C0BB2309F4BAC021E0C1
:10039000511120E030E052E0A11102C030E050E005
:1003A0008527222309F4B1C024E0822728E03111F7
:1003B00001C020E0822783836130710579F06230CB
:1003C000710509F470C02FEF3FE73783268331872B
:1003D0002087338722873587248722C0282F2C70D7
:1003E000243031F0283009F45BC02FEF3FE702C022
:1003F00030E020E03783268383702FEF3FEF81309A
:1004000031F030E020E0823011F02FEF3FE731870C
:1004100020872FEF3FE73387228735872487138292
:10042000692F70E09B0186E0220F331F8A95E1F768
:10043000CB0154E0880F991F5A95E1F780729927F4
:10044000DB01AA0FBB1FA078BB278A2B9B2B542F45
:100450005F71852BDB01D5E0AA0FBB1FDA95E1F7B1
:10046000AA27B1708A2B9B2B7695762F66277795D6
:10047000679566277270862B972BB9016627747073
:10048000862B972B22273870822B932B459540740F
:10049000842B9583848316861786DF91CF910895E8
:1004A0002FEF3FEFA7CF2FEF3FE73783268331872B
:1004B0002087282F2C70243029F02830A9F02FEF26
:1004C0003FE702C030E020E03387228783702FEFC0
:1004D0003FEF813009F4A1CF30E020E0823009F411
:1004E0009CCF2FEF3FE799CF2FEF3FEFEDCF20E0ED
:1004F000BB2309F454CF21E0552309F44FCF20E06A
:100500004DCFAA2311F022E0822720E04ECF84B104
:10051000817884B98AB180768AB980B38F7080BBC4
:1005200085B18E6785B98BB18F698BB981B3806FC7
:1005300081BB0895FC0120911801309119016217C7
:10054000730708F49B0190E02115310541F49111E6
:1005500006C08091E80082FF33C080E0089580915A
:100560002B018823C9F18530C9F18091E80083FD12
:1005700031C08091E80082FDECCF8091E80080FFDF
:10058000E3CF4091F3008091F200542F482F2115C2
:10059000310519F04034510558F091E040345105CF
:1005A00009F090E04091E8004E774093E800CCCF0E
:1005B00081918093F100215031094F5F5F4FE7CF68
:1005C00080912B01882341F0853041F08091E80033
:1005D00083FFBFCF81E0089582E0089583E008950E
:1005E0002091E4003091E50085E69091EC0090FFC9
:1005F00006C09091E80090FF06C080E008959091B9
:10060000E80092FDFACF90912B01992391F095305B
:1006100091F09091EB0095FD10C04091E400509155
:10062000E5002417350709F381509A01F1F684E0BB
:10063000089582E0089583E0089581E0089580910F
:10064000120187FF13C08091E80082FF06C08091ED
:10065000E8008B778093E80004C080912B01811122
:10066000F2CF089580912B018823D9F38091E8007F
:1006700080FFF8CF8091E8008E77ECCF982F909391
:10068000E900242F762F50E0891731F07091EC00AB
:100690002091ED005091F00021FD07C09F5F973041
:1006A00071F78093E90081E008953091EB003E7F7F
:1006B0003093EB003091ED003D7F3093ED003091B1
:1006C000EB0031603093EB007093EC002093ED0071
:1006D0005093F0002091EE0027FDE0CF80E00895D8
:1006E000FF920F931F93CF93DF93CDB7DEB7AA97F7
:1006F0000FB6F894DEBF0FBECDBF80912B018823CB
:1007000009F492C01091E9001F708091EC0080FF05
:100710004BC080E8182B1092E9008091E80083FF1D
:1007200080C0E2E1F1E08AE191E02091F1002193C3
:100730008E179F07D1F78091480190914901892B2D
:10074000C1F4809113018130A1F480911201813AAA
:1007500081F48091E800877F8093E80064E170E095
:1007600084E391E00E949A028091E8008B77809365
:10077000E8008091E80083FF46C00091120190914B
:1007800013019A3008F03FC0E92FF0E0E653FC4F28
:100790000C942A0AD603FC030304FC0303045F043D
:1007A000810403048805950580E0B4CF003889F002
:1007B000023849F5809116018F70873020F58093BB
:1007C000E9008091EB0085FB882780F91092E90011
:1007D00006C0809124019091250191118260909131
:1007E000E800977F9093E8008093F1001092F10069
:1007F0008091E8008E7732C0802F8D7F21F4002316
:10080000F9F0023081F18091E80083FF0AC0809105
:10081000E800877F8093E8008091EB0080628093FE
:10082000EB001F701093E900AA960FB6F894DEBF94
:100830000FBECDBFDF91CF911F910F91FF90089513
:10084000809114018130F9F6933009F080E08093B3
:1008500025011092E9008091E800877F8093E800ED
:100860000E941F03D0CF809114018111F2CF80919B
:1008700016018F702FEF280F263028F68093E9009D
:100880002091EB0020FFE5CF933031F48091EB0015
:1008900080628093EB00DDCF9091EB0090619093AC
:1008A000EB0021E030E001C0220F8A95EAF72093A7
:1008B000EA001092EA008091EB008860EACF011113
:1008C000A2CF009114010F778091E3008078802BF4
:1008D0008093E3008091E800877F8093E8000E9486
:1008E0001F038091E80080FFFCCF8091E3008068C7
:1008F0008093E30083E0011101C082E080932B012B
:1009000082CF0058023008F07ECF80911401909180
:1009100015018C3D23E09207A1F583E08A838AE2EA
:1009200089834FB7F894DE01139620E03EE051E250
:10093000E32FF0E050935700E49120FF03C0E295CD
:10094000EF703F5FEF708E2F90E0EA30C0F0C796F7
:100950008D939D932F5F243159F74FBF8091E8000D
:10096000877F8093E8006AE270E0CE0101960E94E2
:100970009A028091E8008B778093E80044CFC0967C
:10098000E7CF292F33272330310509F44CC088F4F1
:100990002130310509F43EC02230310509F033CF52
:1009A0008091230181117BC089E290E0E0ECF1E0CD
:1009B0000CC02132310509F468C086E590E0EEEB09
:1009C000F0E02232310509F01ECF2091E800277FA8
:1009D0002093E800209118013091190182179307A4
:1009E00008F49C0140E02115310509F05DC041117A
:1009F0005BC08091E80082FDBCCF80912B018823F1
:100A000009F4B7CF853009F4B4CF8091E80083FFB3
:100A1000F0CFAFCF8091230181113CC082E190E003
:100A2000E4E1F1E0D2CF992781309105D1F070F067
:100A30008230910509F1039709F0E5CEE6E2F1E095
:100A4000E4918E2F90E0E6E2F1E007C0ECEBF1E0FC
:100A5000E4918E2F90E0ECEBF1E0009709F4D3CE17
:100A6000B4CF80912301E6EAF1E0811102C0E8E809
:100A7000F1E0849190E0F1CF80912301E6E5F1E08F
:100A80008111F7CFE0E3F1E0F4CF89E090E0E2ED0F
:100A9000F1E09BCF82E190E0ECEAF0E096CF89E9CB
:100AA00090E0E9EEF1E091CF80912B01882309F4E9
:100AB00060CF853009F45DCF8091E80083FD59CF88
:100AC0008091E80082FD95CF8091E80080FF8BCF78
:100AD0008091F3009091F2008927982789272115AA
:100AE000310519F08034910558F041E080349105CA
:100AF00009F040E08091E8008E778093E80073CFA2
:100B000044914093F1003196215031090196E7CF8D
:100B1000003809F078CE8091E800877F8093E80064
:100B2000809126018093F10063CE01116CCEF0908C
:100B3000140181E08F1508F466CE8091E800877F6C
:100B40008093E800F09226010E941F03FF2009F124
:100B500084E080932B018091480190914901892B79
:100B6000F1F042E360EC82E00E943E0320E430E0DA
:100B700088E090E00F5F880F991F82179307D0F3EA
:100B8000402F4295407F426061EC81E00E943E032D
:100B90003ACE8091E30087FDDBCF81E0DACF42E2FD
:100BA00061EC83E00E943E0324E130E0E1CF0F934B
:100BB0001F93CF93DF938C01EB010E94140A88836B
:100BC000C80101960E94140A8983CE01DF91CF915A
:100BD0001F910F910895FF920F931F93CF93DF936F
:100BE000EC018B01FB01F0800E94140AF81621F041
:100BF0006F2DCE010E941C0AF801F1802196CE01D2
:100C00000E94140AF81621F06F2DCE010E941C0AD2
:100C1000C801DF91CF911F910F91FF9008951F920E
:100C20000F920FB60F9211242F933F938F939F93A0
:100C3000AF93BF9380911B0190911C01A0911D0166
:100C4000B0911E0130911A0123E0230F2D3758F582
:100C50000196A11DB11D20931A0180931B01909351
:100C60001C01A0931D01B0931E0180911F01909162
:100C70002001A0912101B09122010196A11DB11D79
:100C800080931F0190932001A0932101B093220132
:100C9000BF91AF919F918F913F912F910F900FBE78
:100CA0000F901F90189526E8230F0296A11DB11DE5
:100CB000D2CF1F920F920FB60F9211242F933F9312
:100CC0004F935F936F937F938F939F93AF93BF9354
:100CD000EF93FF938091E10082FF09C08091E200D1
:100CE00082FF05C08091E1008B7F8093E1008091BD
:100CF000DA0080FF17C08091D80080FF13C0809178
:100D0000DA008E7F8093DA008091D90080FF86C060
:100D100080E189BD82E189BD09B400FEFDCF81E09B
:100D200080932B018091E10080FF17C08091E20049
:100D300080FF13C08091E2008E7F8093E20080915B
:100D4000E20080618093E2008091D800806280930D
:100D5000D80019BC85E080932B018091E10084FFCD
:100D600026C08091E20084FF22C080E189BD82E13B
:100D700089BD09B400FEFDCF8091D8008F7D80939E
:100D8000D8008091E1008F7E8093E1008091E200A5
:100D90008F7E8093E2008091E20081608093E20088
:100DA000809126018823F1F184E080932B018091CA
:100DB000E10083FF22C08091E20083FF1EC080918A
:100DC000E100877F8093E10082E080932B01109205
:100DD00026018091E1008E7F8093E1008091E20006
:100DE0008E7F8093E2008091E20080618093E20038
:100DF00042E360E080E00E943E03FF91EF91BF91EB
:100E0000AF919F918F917F916F915F914F913F91A2
:100E10002F910F900FBE0F901F90189519BC109234
:100E20002B0180CF8091E30087FD02C081E0BDCF20
:100E300083E0BBCFCF93DF93CDB7DEB7A0970FB6DC
:100E4000F894DEBF0FBECDBF789484B5826084BDB8
:100E500084B5816084BD85B5826085BD85B58160BE
:100E600085BD80916E00816080936E00109281003C
:100E700080918100826080938100809181008160F7
:100E800080938100809180008160809380008091B8
:100E900091008260809391008091910081608093A5
:100EA0009100809190008160809390008091C100BA
:100EB00084608093C1008091C10082608093C100F2
:100EC0008091C10081608093C1008091C3008160E6
:100ED0008093C3008091C00082608093C0008091A5
:100EE000C20081608093C20080917A008460809308
:100EF0007A0080917A00826080937A0080917A00F3
:100F0000816080937A0080917A00806880937A0073
:100F100069E271E090E080E00E94D7056BE571E046
:100F200081E090E00E94D70582E090E00E94140AE0
:100F3000809328018AE491E00E9487020E946C015C
:100F40004B015C0134EFC32EDD24D394E12CF12C52
:100F50000E946C01681979098A099B09683E7340EF
:100F600081059105A8F321E0C21AD108E108F10832
:100F700038EE830E33E0931EA11CB11CC114D104C2
:100F8000E104F10429F760915B0170915C018AE44E
:100F900091E00E94910120914E0130914F01C901D1
:100FA0008827927030FF31C2892B61F481E090E094
:100FB00090932A018093290169E271E090E080E03A
:100FC0000E94EB052091290130912A0130934901BB
:100FD0002093480181E0232B09F080E080932301D6
:100FE00084B7877F84BF0FB6F894A895809160007E
:100FF000886180936000109260000FBE80E830E04E
:1010000020E00FB6F89480936100209361000FBE3A
:101010008091D8008F7E8093D8008091D700816026
:101020008093D70084E082BF81E080932701809184
:10103000D8008E7F8093D8001092E2001092DA00E0
:101040001092E1008091D8008F778093D800809132
:10105000D80080688093D8008091D8008F7D8093DD
:10106000D80019BC10922B01109226011092250174
:10107000109224018091E0008B7F8093E0008091AA
:10108000D80081608093D80042E360E080E00E9455
:101090003E038091E1008E7F8093E1008091E20029
:1010A00081608093E2008091E20088608093E2009A
:1010B0008091E0008E7F8093E0008091D800806175
:1010C0008093D800789400E010E092E0E92EF12CB3
:1010D00024E1222E82E0382E60915B0170915C0148
:1010E0008AE491E00E94910180914E0190914F011C
:1010F0009C0122273370232BD1F120914C0122FF38
:1011000015C081E090E090935C0180935B016BE5FA
:1011100071E081E090E00E94EB0560915B017091CD
:101120005C018AE491E00E94910115C023FF05C093
:10113000F0925C01E0925B01EACF20FF05C01092C3
:101140005C0110925B01E3CF21FF11C0906190938D
:101150004F0180934E0110924D0180914E0190916C
:101160004F01F3E09F2790934F0180934E018FE052
:10117000ECE4F1E0DE01119601900D928A95E1F721
:1011800040914801509149014115510509F472C03F
:101190004130510509F4EDC080912B01843009F0F4
:1011A00060C024E1422E512C34E3A32E31E0B32E53
:1011B000452B81F13092E9008091E80082FF23C045
:1011C0008091E80085FF1AC00E94F002811116C0CC
:1011D00047E0A42EB12C6E0188E1C80ED11C80918D
:1011E000E80085FDFCC08091E8008B778093E800E3
:1011F0000E9470030E94F002882389F38091E80026
:101200008B778093E80088E0482E512C9CE2A92E31
:1012100091E0B92E21E02093E9008091E80080FF61
:1012200020C00E94F002811111C06201450180912D
:10123000E80085FDDFC08091E8008E778093E800AC
:101240000E9470030E94F002882389F38091E800D5
:101250008E778093E800A20170E060E0C5010E94F3
:10126000300A0E9470030115110509F435CF0E9460
:10127000000030CF8B819C815D844E84CD80DE80E8
:1012800020E8D21AAF81B885B058E985FA85F058C0
:101290006B857C8570585C0134E0B694A7943A95D0
:1012A000E1F79C01689414F8369527951694E1F7B8
:1012B00020714C0133E0969487943A95E1F7382DEC
:1012C0003072832E822A2A81822A2A2D2074822A31
:1012D0002A2D2078822A9C0122953295307F322750
:1012E000207F322738A32F8F392F36953695232F1D
:1012F00024703A2D3370A32EA22A3F8D3071A32A79
:101300003F8D3072A32A3F8D3074A32A2F8D207811
:10131000A22A2F85211112C09C01689415F83695D8
:1013200027951694E1F72170522E5194880F892F3A
:10133000881F990B91958170482E41942092350118
:1013400080923601A09237015092380140923901C3
:10135000D0923B01C0923A01B0933D01A0933C0171
:10136000F0933F01E0933E0170934101609340018F
:1013700013CF8B819C81CE80D884BA85AC85EA81DD
:10138000EF70E150EA3048F5F0E0E85FFE4FE081B1
:101390009C01220F331F82FB662460F8712CB90177
:1013A0006270772766297729887F9F73862B972B12
:1013B00024703327822B932B998B888BEA8BCB8AD3
:1013C000DC8ABD8BAE8B88E0FE017096ACE2B1E0AA
:1013D00001900D928A95E1F7DFCEE8E0D9CF8091B8
:1013E000F100F60181936F01F1E0AF1AB10809F045
:1013F000F6CE04CFF40181914F018093F100F1E02A
:10140000CF1AD10809F013CF21CF892B09F4DACDF7
:1014100010922A0110922901CFCD84E091E090939F
:101420004B0180934A010895F999FECF92BD81BD89
:10143000F89A992780B50895262FF999FECF1FBAFB
:1014400092BD81BD20BD0FB6F894FA9AF99A0FBEED
:1014500001960895EE0FFF1F0590F491E02D099479
:10146000DC0101C06D9341505040E0F70895F894BD
:02147000FFCFAC
:101472000000000087029101000408060705080227
:02148200010364
:00000001FF
