:100000000C9457000C947F000C947F000C947F009C
:100010000C947F000C947F000C947F000C947F0064
:100020000C947F000C947F000C9494060C947F0039
:100030000C947F000C947F000C947F000C947F0044
:100040000C947F000C947F000C947F000C947F0034
:100050000C947F000C947F000C947F000C944A0653
:100060000C947F000C947F000C947F000C947F0014
:100070000C947F000C947F000C947F000C947F0004
:100080000C947F000C947F000C947F000C947F00F4
:100090000C947F000C947F000C947F000C947F00E4
:1000A0000C947F000C947F000C947F005507112462
:1000B0001FBECFEFDAE0DEBFCDBF13E0A0E0B1E0BE
:1000C000EEE9FFE102C005900D92AC31B107D9F71E
:1000D00025E0ACE1B3E001C01D92AF39B207E1F712
:1000E00010E0C7E5D0E004C02197FE010E94AA0FEE
:1000F000C635D107C9F70E94AA080C94CD0F0C94FD
:100100000000FC0142855385648575854427507C39
:100110006627772781E04115504C6105710509F08C
:1001200080E00895FC0142855385648575854427E8
:1001300050736627772781E04115504361057105AB
:1001400009F080E008950F931F93CF93DF93EC01A4
:10015000E881F9810284F385E02D0995882309F46B
:1001600050C02C813D818A859B85AC85BD8582FFF1
:100170001EC041E050E05D834C83807F9F7C8A8776
:100180009B87AC87BD8702E010E08C819D81821740
:10019000930739F0E881F9810280F381E02DCE01E7
:1001A0000995C801DF91CF911F910F91089583FFA9
:1001B0000DC042E050E05D834C83807F9F7C8A8746
:1001C0009B87AC87BD8704E010E0DFCF81FF0BC0C9
:1001D0001D821C82807F9F7C8A879B87AC87BD871E
:1001E00001E010E0D2CF10E000E080FFCECF807FB2
:1001F0009F7CA1608A879B87AC87BD8708E010E061
:10020000C4CFE881F9810484F585E02DCE010995FC
:1002100010E000E0882329F2288539858A859B85AE
:10022000AC85BD8580FF0DC019861886807F9F73C1
:100230008A879B87AC87BD8700E210E08885998517
:10024000A6CF81FF0DC041E050E059874887807FED
:100250009F738A879B87AC87BD8700E410E0EECF51
:1002600010E000E082FFEACF42E050E05987488783
:10027000807F9F738A879B87AC87BD8700E810E0EB
:10028000DDCF4F925F926F927F928F929F92AF924B
:10029000BF92CF92DF92EF92FF920F931F93FC01D8
:1002A000C3B0A9B1A0955FB150958FEF9FE7978735
:1002B0008687918B808B938B828B958B848B168A10
:1002C000178A852F90E08A2E912CB12CA12C24E046
:1002D000880C991CAA1CBB1C2A95D1F7C094D12C60
:1002E000F12CE12C970186014AE0000F111F221F1B
:1002F000331F4A95D1F7B52FBB1FBB27BB1FB501D5
:10030000A40140775527662777274B2B2401350119
:10031000B0E84B22552466247724442955296629C0
:1003200077298824B1E09B22AA24BB244829592993
:100330006A297B2988249C2CAD2CBE2C8824B2E011
:100340009B22AA24BB24482959296A297B298A2E61
:10035000AA0F9908AA08BB088824A4E09A22AA2414
:10036000BB24482959296A297B2946015701A5E060
:10037000880C991CAA1CBB1CAA95D1F78824B8E04C
:100380009B22AA24BB24482959296A297B29460192
:100390005701B9E0880C991CAA1CBB1CBA95D1F76F
:1003A0008824A0E19A22AA24BB24482959296A2931
:1003B0007B29ABE0CC0CDD1CEE1CFF1CAA95D1F711
:1003C000CC24B0E2DB22EE24FF244C295D296E29E7
:1003D0007F2968017901CC24A0E4DA22EE24FF24ED
:1003E0004C295D296E297F29002710782227332781
:1003F000402B512B622B732B8C01B5E01595079583
:10040000BA95E1F702701127012E000C220B330B75
:10041000402B512B622B732B8C0123E015950795F4
:100420002A95E1F704701127012E000C220B330BE3
:10043000402B512B622B732B9595879588709927AC
:10044000092E000CAA0BBB0B842B952BA62BB72BCC
:1004500082879387A487B5871F910F91FF90EF90B4
:10046000DF90CF90BF90AF909F908F907F906F90D4
:100470005F904F90089584B1817884B98AB1807675
:100480008AB980B38F7080BB85B18E6785B98BB117
:100490008F698BB981B3806F81BB0895FC01809116
:1004A00085039091860386179707A0F06115710563
:1004B00029F49091E8009E779093E80090E0611510
:1004C000710551F4911108C08091E80082FF35C098
:1004D00080E00895BC01F2CF8091BD038823C9F16B
:1004E0008530C9F18091E80083FD31C08091E8003A
:1004F00082FDEACF8091E80080FFE1CF2091F300F8
:100500008091F200322F282F6115710519F02034E7
:10051000310558F091E02034310509F090E0209148
:10052000E8002E772093E800CACF81918093F100F4
:10053000615071092F5F3F4FE7CF8091BD03882342
:1005400041F0853041F08091E80083FFBDCF81E02C
:10055000089582E0089583E008952091E4003091A9
:10056000E50085E69091EC0090FF06C09091E800D0
:1005700090FF06C080E008959091E80092FDFACFC8
:100580009091BD03992391F0953091F09091EB00FB
:1005900095FD10C04091E4005091E5002417350707
:1005A00009F381509A01F1F684E0089582E00895FC
:1005B00083E0089581E0089580917F0387FF13C051
:1005C0008091E80082FF06C08091E8008B778093DD
:1005D000E80004C08091BD038111F2CF089580919D
:1005E000BD038823D9F38091E80080FFF8CF809184
:1005F000E8008E77ECCF982F9093E900242F762F88
:1006000050E0891731F07091EC002091ED0050918D
:10061000F00021FD07C09F5F973071F78093E900DC
:1006200081E008953091EB003E7F3093EB003091F4
:10063000ED003D7F3093ED003091EB003160309361
:10064000EB007093EC002093ED005093F0002091AC
:10065000EE0027FDE0CF80E00895FF920F931F93F7
:10066000CF93DF93EC018B01FB01F0800E94940F8C
:10067000F81621F06F2DCE010E949C0FF801F18039
:100680002196CE010E94940FF81621F06F2DCE0115
:100690000E949C0FC801DF91CF911F910F91FF9095
:1006A00008950F931F93CF93DF9300D000D000D015
:1006B000CDB7DEB7FC012381222321F18C01868195
:1006C00097819A838983BE016F5F7F4F90E080E0BE
:1006D0000E942D03F801848195819C838B83BE0148
:1006E0006D5F7F4F81E090E00E942D03F8018085CF
:1006F00091859E838D83BE016B5F7F4F82E090E08A
:100700000E942D0326960FB6F894DEBF0FBECDBF14
:10071000DF91CF911F910F9108950F931F93CF9366
:10072000DF938C01EB010E94940F8883C80101962E
:100730000E94940F8983CE01DF91CF911F910F9179
:100740000895EF92FF920F931F93CF93DF9300D002
:10075000CDB7DEB7FC0123812223B9F18C011A82C7
:100760001982BE016F5F7F4F90E080E00E948D0391
:1007700089819A81F8018330910584F59783868376
:100780001A821982BE016F5F7F4F81E090E00E9464
:100790008D0389819A81F8018330910514F5958341
:1007A0008483EE24E394F12CFA82E982BE016F5F28
:1007B0007F4F82E090E00E948D0389819A81F80149
:1007C000833091058CF4918780870F900F90DF9193
:1007D000CF911F910F91FF90EF900895178216828D
:1007E000CFCF15821482DDCFF186E086EECF0F9356
:1007F0001F93CF93DF93CDB7DEB7AA970FB6F894C8
:10080000DEBF0FBECDBF8091BD03882309F4A0C019
:100810001091E9001F708091EC0080FF48C080E8D3
:10082000182B1092E9008091E80083FF8EC0EFE75B
:10083000F3E08091F100819323E0E738F207C9F7F4
:10084000809180038130C1F480917F03813AA1F4CB
:100850008091E800877F8093E8008091BB039091AE
:10086000BC038130910561F120F1029771F1809113
:10087000E8008B778093E8008091E80083FF57C001
:1008800080917F03909180039A3008F050C0E92F47
:10089000F0E0E35BFB4F0C94AA0F6A04900497040A
:1008A00090049704F204140597040A06170680E0E2
:1008B000B7CF64E170E08BE293E00E944E02D7CFA5
:1008C00060E470E083E293E0F8CF60E470E08CE1F4
:1008D00093E0F3CF803889F0823849F58091830323
:1008E0008F70873020F58093E9008091EB0085FBC5
:1008F000882780F91092E90006C080918C039091BE
:100900008D03911182609091E800977F9093E800A9
:100910008093F1001092F1008091E8008E7731C051
:10092000282F2D7F21F48823F1F0823079F18091F6
:10093000E80083FF0AC08091E800877F8093E80089
:100940008091EB0080628093EB001F701093E900B0
:10095000AA960FB6F894DEBF0FBECDBFDF91CF9140
:100960001F910F91089580918103813001F7933099
:1009700009F080E080938D031092E9008091E800F7
:10098000877F8093E8000E94DC02D1CF80918103B1
:100990008111F2CF809183038F702FEF280F2630C3
:1009A00030F68093E9002091EB0020FFE5CF9330F3
:1009B00031F48091EB0080628093EB00DDCF909169
:1009C000EB0090619093EB0021E030E001C0220F3A
:1009D0008A95EAF72093EA001092EA008091EB00F2
:1009E0008860EACF8111A3CF009181030F778091B6
:1009F000E3008078802B8093E3008091E800877F7C
:100A00008093E8000E94DC028091E80080FFFCCF28
:100A10008091E30080688093E30083E0011101C0CE
:100A200082E08093BD0383CF8058823008F07FCF6F
:100A300080918103909182038C3DA3E09A07A1F5F8
:100A400083E08A838AE289834FB7F894DE011396A4
:100A500020E03EE051E2E32FF0E050935700E491B4
:100A600020FF03C0E295EF703F5FEF708E2F90E0A4
:100A7000EA30C0F0C7968D939D932F5F243159F7CC
:100A80004FBF8091E800877F8093E8006AE270E0C2
:100A9000CE0101960E944E028091E8008B778093F0
:100AA000E80045CFC096E7CF292F33272330310503
:100AB00009F447C0A8F42130310531F12230310565
:100AC00009F035CF8091BB039091BC030097A1F151
:100AD000019709F48DC062E270E084EB91E026C0DA
:100AE0002132310509F479C02232310509F01FCFD6
:100AF0008091BB039091BC03019709F086C066E525
:100B000070E08AEA92E012C08091BB039091BC032E
:100B1000009741F0019709F470C062E170E08EE740
:100B200091E004C062E170E082EA91E02091E80087
:100B3000277F2093E800AECF60E370E08FEF91E075
:100B4000F5CF811116C080917C0190917D01909329
:100B5000420380934103E1E0EF5FEE0FF0E09F017D
:100B600033603093400320933F03BF018FE393E052
:100B7000DDCF99272091BB033091BC03880F991FCB
:100B80002115310531F02130310521F1815D9D4F75
:100B900002C0815C9D4FFC01A081B181FD010190EB
:100BA0000020E9F73197EA1BE03208F0EFE16A2F05
:100BB00041E453E0CD01282F261B2E1768F6DC01F7
:100BC0002D91CD01022E000C330BDA012D933D93B4
:100BD000AD01F1CF895C9D4FDECF8091BB03909139
:100BE000BC0369E070E0019769F480E592E09ECF74
:100BF00069E270E086ED91E099CF62E170E080E912
:100C000091E094CF87E492E091CF61E570E089E5CF
:100C100092E08CCF803809F08ACE8091E800877FFF
:100C20008093E80080918E038093F10075CE81114E
:100C30007ECE00918103023008F079CE8091E800E9
:100C4000877F8093E80000938E030E94DC020023DC
:100C5000A1F084E08093BD038091BB039091BC031D
:100C6000892B89F042E360EC82E00E94FB0242E3C0
:100C700061EC81E00E94FB025ACE8091E30087FD87
:100C8000E8CF81E0E7CF42E261EC83E00E94FB0223
:100C900042E2EECF1F920F920FB60F9211242F93C4
:100CA0003F938F939F93AF93BF93809190039091C5
:100CB0009103A0919203B091930330918B0323E0B1
:100CC000230F2D3758F50196A11DB11D20938B03DD
:100CD0008093900390939103A0939203B093930316
:100CE0008091870390918803A0918903B0918A0332
:100CF0000196A11DB11D8093870390938803A09353
:100D00008903B0938A03BF91AF919F918F913F91D7
:100D10002F910F900FBE0F901F90189526E8230F6C
:100D20000296A11DB11DD2CF1F920F920FB60F9246
:100D300011242F933F934F935F936F937F938F93E0
:100D40009F93AF93BF93EF93FF938091E10082FF56
:100D500009C08091E20082FF05C08091E1008B7F95
:100D60008093E1008091DA0080FF17C08091D80065
:100D700080FF13C08091DA008E7F8093DA0080912B
:100D8000D90080FF86C080E189BD82E189BD09B4B8
:100D900000FEFDCF81E08093BD038091E10080FFE4
:100DA00017C08091E20080FF13C08091E2008E7F27
:100DB0008093E2008091E20080618093E200809164
:100DC000D80080628093D80019BC85E08093BD0371
:100DD0008091E10084FF26C08091E20084FF22C060
:100DE00080E189BD82E189BD09B400FEFDCF80911B
:100DF000D8008F7D8093D8008091E1008F7E809312
:100E0000E1008091E2008F7E8093E2008091E20019
:100E100081608093E20080918E038823F1F184E069
:100E20008093BD038091E10083FF22C08091E200A6
:100E300083FF1EC08091E100877F8093E10082E004
:100E40008093BD0310928E038091E1008E7F80938A
:100E5000E1008091E2008E7F8093E2008091E200C9
:100E600080618093E20042E360E080E00E94FB0248
:100E7000FF91EF91BF91AF919F918F917F916F9172
:100E80005F914F913F912F910F900FBE0F901F9048
:100E9000189519BC1092BD0380CF8091E30087FDA7
:100EA00002C081E0BDCF83E0BBCF8EE093E09093A2
:100EB0000B0480930A0485E080930C0481E0809306
:100EC0000D0410920F0410920E041092110410924F
:100ED000100410921304109212048EE0E0E0F1E08E
:100EE000A4E1B4E001900D928A95E1F710922204FA
:100EF000109223041092240481E090E0A0E0B0E07E
:100F00008093250490932604A0932704B09328048B
:100F100085E090E090932E0480932D0442E050E011
:100F200060E070E040933A0450933B0460933C04CB
:100F300070933D04909343048093420444E050E056
:100F400060E070E040934F0450935004609351046C
:100F500070935204909358048093570448E050E0F3
:100F600060E070E04093640450936504609366040D
:100F70007093670490936D0480936C0440E150E09B
:100F800060E070E04093790450937A0460937B04AE
:100F900070937C04909382048093810440E250E03B
:100FA00060E070E040938E0450938F04609390044F
:100FB00070939104909397048093960440E450E0DA
:100FC00060E070E04093A3045093A4046093A504F0
:100FD0007093A6049093AC048093AB0440E850E077
:100FE00060E070E04093B8045093B9046093BA0491
:100FF0007093BB049093C1048093C00440E051E01F
:1010000060E070E04093CD045093CE046093CF0431
:101010007093D0049093D6048093D50440E052E0BE
:1010200060E070E04093E2045093E3046093E404D2
:101030007093E5049093EB048093EA0440E054E05D
:1010400060E070E04093F7045093F8046093F90473
:101050007093FA04909300058093FF0440E058E0F9
:1010600060E070E040930C0550930D0560930E0511
:1010700070930F05909315058093140540E050E19F
:1010800060E070E0409321055093220560932305B2
:101090007093240590932A058093290540E050E23F
:1010A00060E070E040933605509337056093380553
:1010B0007093390590933F0580933E0540E050E4DE
:1010C00060E070E040934B0550934C0560934D05F4
:1010D00070934E05909354058093530540E050E87B
:1010E00060E070E040936005509361056093620595
:1010F00070936305909369058093680540E050E024
:1011000061E070E040937505509376056093770534
:101110007093780590937E0580937D0540E050E0C4
:1011200062E070E040938A0550938B0560938C05D4
:1011300070938D059093930580939205EAE0F4E017
:1011400084E194E097A786A7759625E0E438F20736
:10115000C9F70895CF93DF93CDB7DEB7C256D10953
:101160000FB6F894DEBF0FBECDBF789484B5826011
:1011700084BD84B5816084BD85B5826085BD85B53B
:10118000816085BD80916E00816080936E001092B9
:101190008100809181008260809381008091810034
:1011A00081608093810080918000816080938000C5
:1011B0008091910082608093910080919100816084
:1011C0008093910080919000816080939000809145
:1011D000C10084608093C1008091C10082608093CF
:1011E000C1008091C10081608093C1008091C300E3
:1011F00081608093C3008091C00082608093C000B2
:101200008091C20081608093C20080917A008460E6
:1012100080937A0080917A00826080937A00809136
:101220007A00816080937A0080917A008068809350
:101230007A008AE094E00E943B028AE094E00E94F7
:10124000A1038AE094E00E944101209110043091B2
:1012500011048091140490911504A0911604B0918A
:10126000170497FDA0C094FDA1C095FF0DC090E0AC
:1012700080E02817390741F09093110480931004FF
:101280008AE094E00E94510380911004909111042F
:101290009093BC038093BB0384B7877F84BF0FB652
:1012A000F894A89580916000886180936000109206
:1012B00060000FBE80E830E020E00FB6F894809325
:1012C0006100209361000FBE8091D8008F7E8093D3
:1012D000D8008091D70081608093D70084E082BFDE
:1012E00081E080938F038091D8008E7F8093D80017
:1012F0001092E2001092DA001092E1008091D80082
:101300008F778093D8008091D80080688093D80030
:101310008091D8008F7D8093D80019BC1092BD03B6
:1013200010928E0310928D0310928C038091E00036
:101330008B7F8093E0008091D80081608093D800FB
:1013400042E360E080E00E94FB028091E1008E7F3A
:101350008093E1008091E20081608093E2008091BF
:10136000E20088608093E2008091E0008E7F8093AD
:10137000E0008091D80080618093D80078948E013D
:101380000F5F1F4F1EA70DA780910204811117C088
:101390008091100490911104009759F0019709F47D
:1013A000D9C087E007C082E090E063CF81E090E0A1
:1013B00060CF84E18093010411E0109302048AE07D
:1013C00094E00E944101EAE0F4E025A12B7F25A3EF
:1013D000A6A5B7A58D919D910D90BC91A02D438D93
:1013E000548D658D768D84239523A623B723FF2402
:1013F000F394892B8A2B8B2B09F4F12C21702F1558
:1014000009F447C09FB7F89440919003509191031D
:1014100060919203709193039FBF078D10A121A14A
:1014200032A1401B510B620B730B03A114A130E0DE
:1014300020E0401751076207730758F195A121E09A
:101440009227946095A39FB7F89440919003509190
:10145000910360919203709193039FBF06A117A11E
:1014600020A531A5401B510B620B730B42A753A75C
:1014700064A775A79FB7F89440919003509191038A
:1014800060919203709193039FBF46A357A360A7F7
:1014900071A795A191FB222720F92F1591F032E039
:1014A000932795A32FB7F89480919003909191037F
:1014B000A0919203B09193032FBF878F90A3A1A314
:1014C000B2A325A122FF1EC040911404509115041F
:1014D0006091160470911704838D948DA58DB68D3F
:1014E00020FD3AC080959095A095B09584239523D2
:1014F000A623B7238093140490931504A093160495
:10150000B0931704759644E855E04E175F0709F04D
:101510005CCF8AE094E00E94A300409114045091B3
:1015200015046091160470911704209112043091F3
:101530001304842F83708230E9F1833091F081307D
:1015400009F03FC0A1E0B0E0B0939703A0939603E9
:1015500081E010C088E02ECF842B952BA62BB72BD3
:10156000C9CF21153105C9F481E090E0909397032C
:1015700080939603942F9C70983009F456C09C3049
:1015800031F1943009F05AC08460A3E0CA2ED12C06
:10159000D0929503C09294032AC02230310589F479
:1015A0008091960390919703009759F0019781F6E7
:1015B00082E0E0CFE2E0F0E0F0939703E09396035F
:1015C000F7CF109297031092960380E0D3CF22308A
:1015D0003105A1F520919403309195032115310532
:1015E00069F198E02330310509F094E0892B407FC0
:1015F00040931404509315046093160470931704D9
:1016000020910E0430910F0421303105E1F0223099
:10161000310509F4ECC1482B409314045093150490
:1016200060931604709317042DC08860F4E0EF2EC9
:10163000F12CF0929503E0929403D9CF1092950388
:1016400010929403D4CF982F9C7030E020E0943017
:1016500031F02FEF3FEF983011F02FEF3FE730934D
:101660001904209318048370813031F0823009F41A
:10167000BBC18FEF9FE702C090E080E090931B0416
:1016800080931A0400911804109119041CAB0BAB41
:1016900020911A0430911B0438AB2FA740911C04F1
:1016A00050911D045AAB49AB20901E0430901F048A
:1016B0008091140490911504A0911604B091170420
:1016C00060911004709111046F967FAF6EAF6F97A9
:1016D0008C019D0100271072222733270DAB1EAB12
:1016E0002FAB38AF9C01AD0122273071442755271D
:1016F00029AF3AAF4BAF5CAFAC01BD01442750748A
:101700006627772721964CAF5DAF6EAF7FAF2197ED
:101710008C019D01002710782227332725960CAFD6
:101720001DAF2EAF3FAF25979C01AD012227327030
:101730004427552729962CAF3DAF4EAF5FAF299771
:10174000AC01BD0144275527617077272D964CAF1A
:101750005DAF6EAF7FAF2D972C013D0150E145226B
:101760005524662477246C017D0160E2C622DD24C5
:10177000EE24FF248C019D010078112722273327B6
:1017800061960CAF1DAF2EAF3FAF61976F962EAD38
:101790003FAD6F97232B09F44CC1AC01BD014F70D5
:1017A0005527662777278C019D01E6E0369527951A
:1017B00017950795EA95D1F7A3960CAF1DAF2EAFFD
:1017C0003FAFA3974C015D01882411E09122AA2428
:1017D000BB248C019D0100271470222733276596B6
:1017E0000CAF1DAF2EAF3FAF65978C019D01002759
:1017F00018702227332769960CAF1DAF2EAF3FAF6D
:1018000069978C019D0100271127227033276D965F
:101810000CAF1DAF2EAF3FAF6D976F962EAD3FADA6
:101820006F972130310509F446C2415051096109D1
:1018300071094A3051056105710508F045C34050F2
:101840005D4FDA014C91A1960EAD1FADA1970170CD
:10185000112782E090E045284628472811F490E0BF
:1018600080E0802B912B24E030E0CD28CE28CF28BB
:1018700011F430E020E0822B932B6196CCACDDACF0
:10188000EEACFFAC619728E030E0CD28CE28CF2821
:1018900011F430E020E0822B932B20E130E0892806
:1018A0008A288B2811F430E020E0822B932B299694
:1018B000ECACFDAC0EAD1FAD299720E230E0EF2877
:1018C000E02AE12A11F430E020E0822B932B659688
:1018D0000CAD1DAD2EAD3FAD6597012B022B032B3B
:1018E00009F4F4C220E430E0822B932B6996CCAC4F
:1018F000DDACEEACFFAC699720E830E0CD28CE2817
:10190000CF2811F430E020E0822B932BE9ACFAAC25
:101910000BAD1CAD20E031E0EF28E02AE12A11F404
:1019200030E020E0822B932B0DA91EA92FA938AD02
:10193000012B022B032B09F4CCC220E032E0822BD6
:10194000932B2196CCACDDACEEACFFAC219720E024
:1019500034E0CD28CE28CF2811F430E020E0822BCF
:10196000932B2596ECACFDAC0EAD1FAD259720E07A
:1019700038E0EF28E02AE12A11F430E020E0822B61
:10198000932B2D960CAD1DAD2EAD3FAD2D97012B9C
:10199000022B032B09F4A0C220E030E1822B932B11
:1019A0006D96CCACDDACEEACFFAC6D9720E030E2D8
:1019B000CD28CE28CF2811F430E020E0822B932BC5
:1019C000909399038093980340939A03DCA8D09254
:1019D0009B03E8A8E0929C03FAA8F0929D03309242
:1019E0009E0368E973E0E4C08FEF9FEF47CE982F26
:1019F0009C7030E020E0943031F02FEF3FEF9830D2
:101A000011F02FEF3FE730931D0420931C048370E7
:101A1000813029F0823051F08FEF9FE702C090E0D3
:101A200080E090931F0480931E042CCE8FEF9FEFD5
:101A3000F8CF24E1EDA5FEA511922A95E9F7EBA9CF
:101A4000FCA9F0580FEF1FE72FA538A9021B130BB5
:101A5000A9A8BAA830E8B31A88248A942FE7922E4E
:101A600082189308AC01BD0141705527662777277E
:101A700022E081FF20E0422B24E082FF20E0422B85
:101A800028E083FF20E0642F622B2DA93EA94FA9F7
:101A900058AD232B242B252B09F403C120E1622B05
:101AA00029AD3AAD4BAD5CAD232B242B252B09F48E
:101AB000FAC020E2622B21962CAD3DAD4EAD5FAD5C
:101AC0002197232B242B252B09F4EFC020E4262B70
:101AD00025964CAD5DAD6EAD7FAD259730E8452BBD
:101AE000462B472B09F430E0232B392F31702996F0
:101AF0004CAD5DAD6EAD7FAD2997452B462B472B89
:101B000009F4D5C042E0342B2D964CAD5DAD6EADE1
:101B10007FAD2D97452B462B472B09F4CAC044E0D7
:101B2000342B40E145284628472809F440E0342B6F
:101B300050E2CD28CE28CF2809F450E0352B50E4D0
:101B400086FF50E0532B6196CCACDDACEEACFFAC25
:101B5000619730E8CD28CE28CF2809F430E0532B08
:101B6000309122046091200480912104311108C039
:101B700092FB662760F9619593FB882780F9819530
:101B800094E19A832B835C836D838E83F887EF8344
:101B90001A870987BC86AB869E868D86FE013196A4
:101BA000A7EAB3E001900D929A95E1F767EA73E036
:101BB00040910104709300046093FF034093FE037F
:101BC00050E08EEB93E00E94B00F892B09F45FC0C8
:101BD0008091BD03843009F05AC08091BB0390917D
:101BE000BC03892B49F102E00093E9008091E800F1
:101BF00082FF22C08091E80085FF19C00E94AD02DB
:101C0000811115C007E010E07E0125E2E20EF11C13
:101C10008091E80085FD63C18091E8008B77809317
:101C2000E8000E94F7030E94AD02882389F38091A7
:101C3000E8008B778093E800B1E0B093E9008091F1
:101C4000E80080FF24C00091FE03E090FF03F090C5
:101C500000040E94AD0210E0882309F459C180916C
:101C6000E8008E778093E8000091FE0310E0E0909A
:101C7000FF03F0900004A801B7018EEB93E00E94EF
:101C8000BD0FA80170E060E0C7010E94C60F0E946E
:101C9000F70380E090E0892B09F476CB0E940000E6
:101CA00073CB20E0FCCE20E005CF20E010CF40E059
:101CB0002ACF40E035CF88E0EEE0F1E0DE019596F6
:101CC00001900D928A95E1F741505109610971091E
:101CD0004A3051056105710508F0E8C040505D4F7C
:101CE000DA014C91A1962EAD3FADA197217033271B
:101CF00082E090E045284628472811F490E080E0F3
:101D0000282B392B84E090E0CD28CE28CF2811F461
:101D100090E080E0282B392B6196CCACDDACEEACAA
:101D2000FFAC619788E090E0CD28CE28CF2811F451
:101D300090E080E0282B392B80E190E089288A28E8
:101D40008B2811F490E080E0282B392B2996ECACFD
:101D5000FDAC0EAD1FAD299780E290E0EF28E02AA0
:101D6000E12A11F490E080E0282B392B65966CADC8
:101D70007DAD8EAD9FAD6597672B682B692B09F400
:101D800097C080E490E0282B392B69968CAD9DADEF
:101D9000AEADBFAD6997892B8A2B8B2B09F48BC015
:101DA00080E890E0282B392BC9ACDAACEBACFCAC6A
:101DB00080E091E0CD28CE28CF2811F490E080E09B
:101DC000282B392BEDA8FEA80FA918AD80E092E0D2
:101DD000EF28E02AE12A11F490E080E0282B392B4B
:101DE00021966CAD7DAD8EAD9FAD2197672B682B95
:101DF000692B09F463C080E094E0282B392B2596E9
:101E00008CAD9DADAEADBFAD2597892B8A2B8B2BAD
:101E100009F457C080E098E0282B392B2D96CCACE4
:101E2000DDACEEACFFAC2D9780E090E1CD28CE2864
:101E3000CF2811F490E080E0282B392B6D96ECAC84
:101E4000FDAC0EAD1FAD6D9780E090E2EF28E02A6B
:101E5000E12A11F490E080E0822B932B9EA38DA3C6
:101E60004FA3FCA8F8A608A909A71AA91AA73BA678
:101E700088E0FE01B596DE01559601900D928A9597
:101E8000E1F788E0FE017596DE015D9601900D9206
:101E90008A95E1F788E0FE017D96AFE9B3E0019015
:101EA0000D928A95E1F76FE973E082CE48E01ACF90
:101EB00090E080E068CF90E080E074CF90E080E038
:101EC0009CCF90E080E0A8CF48E0BDCC30E020E09F
:101ED0000BCD30E020E033CD30E020E05FCD8091CD
:101EE000F100D7018D937D010150110909F090CEC9
:101EF0009ECE8091E80085FD0FC08091E8008E772E
:101F00008093E8000E94F7030E94AD028111A7CEE2
:101F10000115110571F7A3CEF70181917F0180931F
:101F2000F10001501109F4CFF999FECF92BD81BDA6
:101F3000F89A992780B50895262FF999FECF1FBAF0
:101F400092BD81BD20BD0FB6F894FA9AF99A0FBEE2
:101F500001960895EE0FFF1F0590F491E02D09946E
:101F6000FB01DC0104C08D910190801921F44150E6
:101F70005040C8F7881B990B0895FB01DC0102C093
:101F800001900D9241505040D8F70895DC0101C0F6
:0E1F90006D9341505040E0F70895F894FFCF54
:101F9E0000000000FF7FFF7FFF7FFF7F000000003B
:101FAE00008080808000312E3000484944204761F7
:101FBE006D657061640047656E6572696300090442
:101FCE00312E3000504F4B4B454E20434F4E545206
:101FDE004F4C4C455200484F524920434F2E2C4CEB
:101FEE0054442E000904312E300058496E70757419
:101FFE00205354414E444152442047414D45504197
:10200E0044004D6963726F736F66740009041201A8
:10201E000002000000400D0F9400000101020001BB
:10202E0012010002000000400D0F9200000101029B
:10203E00000112010002FFFFFF405E048E02140138
:10204E00010203010902220001010080FA090400C5
:10205E0000010300000009211101000122510007B7
:10206E000581034000010902290001010080FA09DF
:10207E000400000203000000092111010001225694
:10208E000007050203400001070581034000010916
:10209E0002300001010080FA0904000002FF5D0118
:1020AE000010211001012481140300031302000308
:1020BE000007058103200001070502032000082EFA
:1020CE000126011A01160154014601340130017C2A
:1020DE000172015A015601092111010001225A0013
:1020EE0009211101000122560005010905A1011562
:1020FE0000250135004501750195100509190129C5
:10210E0010810205012507463B01750495016514F2
:10211E000939814265009501810126FF0046FF00C5
:10212E000930093109320935750895048102060016
:10213E00FF092075089501B102C005010905A1012D
:10214E001500250135004501750195100509190188
:10215E002910810205012507463B0175049501658D
:10216E00140939814265009501810126FF0046FF61
:10217E0000093009310932093575089504810206C6
:10218E0000FF0920950181020A212695089102C0BF
:10219E000004080607050802010300000000A10361
:0C21AE0051033B024101A300920081009C
:00000001FF
