:100000000C94CC010C94F4010C94F4010C94F401C4
:100010000C94F4010C94F4010C94F4010C94F4018C
:100020000C94F4010C94F4010C94F40D0C94F40170
:100030000C94F4010C94F4010C94F4010C94F4016C
:100040000C94F4010C94F4010C94F4010C94F4015C
:100050000C94F4010C94F4010C94F4010C94AA0D8A
:100060000C94F4010C94F4010C94F4010C94F4013C
:100070000C94F4010C94F4010C94F4010C94F4012C
:100080000C94F4010C94F4010C94F4010C94F4011C
:100090000C94F4010C94F4010C94F4010C94F4010C
:1000A0000C94F4010C94F4010C94F40109029900ED
:1000B000040100A0FA0904000002FF5D0100112103
:1000C0000001012581140000000013010800000751
:1000D0000581032000010705010320000809040130
:1000E0000004FF5D03001B210001010182400102A9
:1000F000201683000000000000160300000000002E
:100100000007058203200002070502032000040700
:1001100005830320004007050303200010090402A3
:100120000001FF5D02000921000101228407000790
:100130000584032000100904030000FFFD130406DA
:1001400041000101030902290001010080FA0904AC
:1001500000000203000000092111010001225600E5
:100160000705020340000107058103400001050166
:100170000905A101150025013500450175019510FE
:10018000050919012910810205012507463B017562
:1001900004950165140939814265009501810126A4
:1001A000FF0046FF0009300931093209357508950D
:1001B0000481020600FF0920950181020A2126958B
:1001C000089102C00902290001010080FA09040017
:1001D0000002030000000921110100012294000720
:1001E00005020340000107058103400001050109E4
:1001F00004A101A102850175089501150026FF00E3
:100200008103750195131500250135004501050988
:100210001901291381027501950D0600FF8103154F
:100220000026FF0005010901A100750895043500AD
:1002300046FF0009300931093209358102C0050144
:100240007508952709018102750895300901910209
:10025000750895300901B102C0A1028502750895A3
:10026000300901B102C0A10285EE7508953009017F
:10027000B102C0A10285EF750895300901B102C035
:10028000C012010002FFFFFF405E048E0214010154
:1002900002030112010002000000400D0F92000055
:1002A000010102000112010002000000404C05683B
:1002B000020001010200013003580049006E007085
:1002C000007500740020005300540041004E0044AB
:1002D000004100520044002000470041004D00450D
:1002E00000500041004400000014034D0069006309
:1002F0000072006F0073006F00660074000000243D
:100300000350004F004B004B0045004E00200043BF
:10031000004F004E00540052004F004C004C00456E
:1003200000520000001C0348004F0052004900200A
:100330000043004F002E002C004C00540044002EBF
:10034000000000080331002E00300000003603508A
:10035000004C004100590053005400410054004932
:10036000004F004E002800520029003300200043B7
:10037000006F006E00740072006F006C006C00650E
:1003800000720000000A0353006F006E0079000045
:100390000004030904009B1A11241FBECFEFDAE00A
:1003A000DEBFCDBF11E0A0E0B1E0E0EAF5E302C0BE
:1003B00005900D92A231B107D9F721E0A2E1B1E099
:1003C00001C01D92AD3BB207E1F711E0CCECD1E0EA
:1003D00004C02197FE010E94C11ACB3CD107C9F786
:1003E0000E949A0F0C94CE1A0C94000081FFD5C085
:1003F00091E09093E9009091EB009E7F9093EB0049
:100400009091ED009D7F9093ED009091EB009160B5
:100410009093EB0091EC9093EC008093ED001092A0
:10042000F0008091EE0087FFDFC082E08093E9005A
:100430003091EC008091ED002091F00081FF19C017
:100440009091EB009E7F9093EB009091ED009D7F4B
:100450009093ED009091EB0091609093EB003093BE
:10046000EC008093ED002093F0008091EE0087FF78
:10047000BBC083E08093E9003091EC009091ED00E7
:100480002091F00091FF19C08091EB008E7F809346
:10049000EB008091ED008D7F8093ED008091EB006B
:1004A00081608093EB003093EC009093ED002093FB
:1004B000F0008091EE0087FF97C084E08093E90010
:1004C0003091EC008091ED002091F00081FF19C087
:1004D0009091EB009E7F9093EB009091ED009D7FBB
:1004E0009093ED009091EB0091609093EB0030932E
:1004F000EC008093ED002093F0008091EE0087FFE8
:1005000073C085E08093E9003091EC008091ED00AC
:100510002091F00081FF19C09091EB009E7F909395
:10052000EB009091ED009D7F9093ED009091EB009A
:1005300091609093EB003093EC008093ED0020935A
:10054000F0008091EE0087FF4FC086E08093E900C5
:100550003091EC008091ED002091F00081FF19C0F6
:100560009091EB009E7F9093EB009091ED009D7F2A
:100570009093ED009091EB0091609093EB0030939D
:10058000EC008093ED002093F0008091EE0087FF57
:100590002BC081E08093E900089581E08093E90019
:1005A00082E08093E9003091EC008091ED00209191
:1005B000F00081FF1BC09091EB009E7F9093EB00B9
:1005C0009091ED009D7F9093ED009091EB009160F4
:1005D0009093EB003093EC008093ED002093F000BB
:1005E0008091EE0087FD02C080E0089583E0809353
:1005F000E9003091EC008091ED002091F00081FF46
:100600005CCF9091EB009E7F9093EB009091ED007A
:100610009D7F9093ED009091EB0091609093EB00A3
:100620003093EC008093ED002093F0008091EE0079
:1006300087FD43CFD9CF8F929F92AF92BF92CF9237
:10064000DF92EF92FF920F931F93CF93DF93FC0102
:1006500073B189B180956FB1609513A2262F30E0F8
:10066000A9015595479555954795559547955595A4
:100670004795559547954270D901B595A795B5957C
:10068000A795B595A7959A2F9470942B661F66270A
:10069000661F962B359527952870922B938B272FC5
:1006A0002095622F70E0522F56955695422F429515
:1006B000440F440F407C9B0122953295307F3227B6
:1006C000207F322720723327DB01AA0FBB1FA078BF
:1006D000BB272A2B3B2BA82FAF712A2BDB01AA0F9C
:1006E000BB1FA295B295B07FBA27A07FBA27AA27D1
:1006F000B1702A2B3B2B7695762F662777956795D9
:1007000066277270262B372BBA0166277470262B4A
:10071000372B44275870242B352B85958074282B34
:10072000358B248B41A552A563A574A5452B462B7B
:10073000472B09F07EC0308F278B392F3870292F37
:100740002470892F827090FF2BC0811141C0222319
:1007500009F440C03111CCC285E0868B84A195A1FB
:100760008130910509F4D6C2029709F4E8C28FEFEF
:100770009FE7928F818F948F838F968F858F90A321
:10078000878F11A212A2DF91CF911F910F91FF903D
:10079000EF90DF90CF90BF90AF909F908F90089593
:1007A000222389F0332309F49FC28823C1F082E019
:1007B000868B84A195A18130910509F4BCC2029772
:1007C000B1F682E017C0882309F4A2C282E003C018
:1007D0002111C0CF81E0332311F098E08927868B67
:1007E00024A135A12130310509F463C2223031053D
:1007F00009F0BDCF2FEF3FE7328F218F348F238F4A
:10080000982F9C70943009F490C22FEF3FEF9830EE
:1008100009F070C2368F258F8370813009F472C25F
:10082000823009F072C290E080E090A3878F168A30
:10083000A8CF9FB7F894409127015091280160916B
:10084000290170912A0186B5A89B06C08F3F21F02F
:100850004F5F5F4F6F4F7F4F9FBF762F652F542F96
:100860004427480F511D611D711D440F551F661F00
:10087000771F440F551F661F771FA381B48184899A
:1008800095899D012827392720FF1AC0EF01ED9691
:10089000C880D980EA80FB804A015B018C189D08E2
:1008A000AE08BF08C1A4D2A4E3A4F4A4C814D90418
:1008B000EA04FB0408F045C2488359836A837B83BA
:1008C00021FF1BC0EF01CF5BDF4FC880D980EA80DA
:1008D000FB804A015B018C189D08AE08BF08C1A4CB
:1008E000D2A4E3A4F4A4C814D904EA04FB0408F0D5
:1008F00030C2488359836A837B8322FF1BC0EF0188
:10090000CB5BDF4FC880D980EA80FB804A015B0166
:100910008C189D08AE08BF08C1A4D2A4E3A4F4A417
:10092000C814D904EA04FB0408F033C2488359838D
:100930006A837B8323FF1BC0EF01C75BDF4FC88047
:10094000D980EA80FB804A015B018C189D08AE08C3
:10095000BF08C1A4D2A4E3A4F4A4C814D904EA042F
:10096000FB0408F00EC2488359836A837B8324FF0B
:100970001BC0EF01C35BDF4FC880D980EA80FB80DA
:100980004A015B018C189D08AE08BF08C1A4D2A41F
:10099000E3A4F4A4C814D904EA04FB0408F0E9C1F0
:1009A000488359836A837B8325FF1BC0EF01CF5A9D
:1009B000DF4FC880D980EA80FB804A015B018C1838
:1009C0009D08AE08BF08C1A4D2A4E3A4F4A4C8142F
:1009D000D904EA04FB0408F0C4C1488359836A833C
:1009E0007B8326FF1BC0EF01CB5ADF4FC880D98025
:1009F000EA80FB804A015B018C189D08AE08BF08A5
:100A0000C1A4D2A4E3A4F4A4C814D904EA04FB0446
:100A100008F0FBC1488359836A837B8327FF1BC08F
:100A2000EF01C75ADF4FC880D980EA80FB804A01B6
:100A30005B018C189D08AE08BF08C1A4D2A4E3A432
:100A4000F4A4C814D904EA04FB0408F0D7C148830D
:100A500059836A837B8330FF1BC0EF01C35ADF4F8A
:100A6000C880D980EA80FB804A015B018C189D0810
:100A7000AE08BF08C1A4D2A4E3A4F4A4C814D90446
:100A8000EA04FB0408F0B2C1488359836A837B837C
:100A900031FF1BC0EF01CF59DF4FC880D980EA80FA
:100AA000FB804A015B018C189D08AE08BF08C1A4F9
:100AB000D2A4E3A4F4A4C814D904EA04FB0408F003
:100AC0008DC1488359836A837B8332FF1BC0EF014A
:100AD000CB59DF4FC880D980EA80FB804A015B0197
:100AE0008C189D08AE08BF08C1A4D2A4E3A4F4A446
:100AF000C814D904EA04FB0408F068C14883598388
:100B00006A837B8333FF1BC0EF01C759DF4FC88067
:100B1000D980EA80FB804A015B018C189D08AE08F1
:100B2000BF08C1A4D2A4E3A4F4A4C814D904EA045D
:100B3000FB0408F043C1488359836A837B8334FFF5
:100B40001BC0EF01C359DF4FC880D980EA80FB800A
:100B50004A015B018C189D08AE08BF08C1A4D2A44D
:100B6000E3A4F4A4C814D904EA04FB0408F01EC1E9
:100B7000488359836A837B8335FF1DC0DF01AF58EB
:100B8000BF4F0D911D912D913C9113976A017B01EF
:100B9000C01AD10AE20AF30A01A512A523A534A5B9
:100BA0000C151D052E053F0508F0FBC04D935D9308
:100BB0006D937C93139722819389822F892780FFDD
:100BC0001CC0DF01DD96CD90DD90ED90FC904A01D8
:100BD0005B018C189D08AE08BF087501640181A4F3
:100BE00092A4A3A4B4A48C149D04AE04BF0408F082
:100BF00024C145A756A767A770AB81FF1DC0DF01C1
:100C0000AF5BBF4FCD90DD90ED90FC904A015B0152
:100C10008C189D08AE08BF087501640181A492A4D8
:100C2000A3A4B4A48C149D04AE04BF0408F0FFC0B8
:100C300041AB52AB63AB74AB82FF1BC0DF01AB5B5C
:100C4000BF4FCD90DD90ED90FC904A015B018C1878
:100C50009D08AE08BF08C1A4D2A4E3A4F4A4C8149C
:100C6000D904EA04FB0408F0DCC045AB56AB67AB23
:100C700070AF83FF1BC0DF01A75BBF4F0D911D91BC
:100C80002D913C916A017B01C01AD10AE20AF30A54
:100C900001A512A523A534A50C151D052E053F059C
:100CA00008F0BBC041AF52AF63AF74AF2489358940
:100CB00042CD982F9C70943071F12FEF3FEF983018
:100CC000D9F5328F218F8370813061F1823081F5C7
:100CD00090E080E0948F838F8FEF9FE7968F858FD2
:100CE00090A3878F168A4DCD811182E0846077CDE5
:100CF00081E075CD2FEF3FE7368F258F83708130F0
:100D000009F08ECD8FEF9FEF90CD8FEF9FE78DCDC8
:100D100080E061CD85E030E020E0328F218F83706C
:100D20008130A1F68FEF9FEFD5CF30E020E072CD7C
:100D30008FEF9FE7CFCF82E02FEF3FE7C2CF85E075
:100D400059CD21E08227958B848B9D012827392757
:100D5000B7CD22E08227958B848B9D0128273927E8
:100D6000CCCD20E28227958B848B9D0128273927C3
:100D700038CE20E18227958B848B9D012827392747
:100D800013CE28E08227958B848B9D012827392755
:100D9000EECD24E08227958B848B9D01282739276F
:100DA000C9CD20E29227958B848B05CF20E1922735
:100DB000958B848B9D0128273927DECE28E092274A
:100DC000958B848B9D0128273927B9CE24E0922763
:100DD000958B848B9D012827392794CE22E092277A
:100DE000958B848B9D01282739276FCE21E0922790
:100DF000958B848B9D01282739274ACE8058958B67
:100E0000848B9D012827392726CE20E48227958BC5
:100E1000848B9D012827392701CE88E09827938B62
:100E200045CF84E09827938B822F892722CF82E0B9
:100E30009827938B822F8927FFCE81E09827938B69
:100E4000822F8927DACE84B1817884B98AB18076FD
:100E50008AB980B38F7080BB85B18E6785B98BB13D
:100E60008F698BB981B3806F81BB08950895FC01B0
:100E700020911801309119016217730708F49B0142
:100E800040E02115310521F512C090913F019923D1
:100E900019F1953099F19091E80093FD31C090914E
:100EA000E80092FD25C09091E80090FD4DC04111F1
:100EB000ECCF1EC0953011F19091E80093FD20C059
:100EC0009091E80092FD14C09091E80090FD1AC046
:100ED00090913F019111EECF82E0089580913F0102
:100EE0008823D1F3853051F08091E80083FD08C05C
:100EF0008091E80082FFF2CF80E0089583E00895BA
:100F000081E008956091F3008091F200762F682FC0
:100F10006034710520F00DC06034710551F081918D
:100F20008093F100215031096F5F7F4F211531050A
:100F300099F741E06034710509F040E08091E800E4
:100F40008E778093E8009DCF6091F3008091F2004E
:100F5000762F682FEECF1F93CF93DF93CDB7DEB7F9
:100F6000AA970FB6F894DEBF0FBECDBF80913F01A8
:100F7000882381F01091E9001F708091EC0080FDC2
:100F800010681092E9008091E80083FD0DC01F7089
:100F90001093E900AA960FB6F894DEBF0FBECDBF3E
:100FA000DF91CF911F9108959091F10090931201DC
:100FB0008091F100809313012091F100209314019E
:100FC0002091F100209315012091F100209316014A
:100FD0002091F100209317012091F1002093180136
:100FE0002091F100209319012091250130912601D3
:100FF000232B09F072C0813009F06FC0913A09F4D7
:101000005CC02091E80023FF49C0992309F47CC209
:10101000923009F043C080911401811126C0809163
:1010200016018F709FEF980F9630C0F58093E900FE
:101030009091EB0090FF19C090911301933009F447
:10104000CAC39091EB0090619093EB0021E030E0F7
:1010500001C0220F8A95EAF72093EA001092EA0075
:101060008091EB0088608093EB001092E900809102
:10107000E800877F8093E8008091120187FF05C018
:1010800001C280913F01882349F08091E80080FFF0
:10109000F8CF8091E8008E778093E8008091E80097
:1010A00083FF75CF8091E800877F8093E80080916F
:1010B000EB0080628093EB006ACF8091E800877F2D
:1010C0008093E80064E170E08BE291E00E943707D2
:1010D0008091E8008B778093E8008091E80083FF9F
:1010E000DDCF90911201809113018A30B8F6E82F7C
:1010F000F0E0E358F74F0C94C11AA70905084E0811
:1011000005084E086709D9094E0847098708911153
:10111000C5CF80911401823008F0C0CF9091E800D3
:10112000977F9093E800809323018091120187FFBD
:1011300005C0BCC180913F01882349F08091E8003F
:1011400080FFF8CF8091E8008E778093E80080914F
:101150002301882309F4FDC284E080933F0180913C
:10116000250190912601019709F43EC283E0809306
:10117000E9008091EB008E7F8093EB008091ED0081
:101180008D7F8093ED008091EB0081608093EB0078
:1011900081EC8093EC0082E28093ED001092F000ED
:1011A0008091EE0087FF6FC084E08093E90030916A
:1011B000EC009091ED002091F00091FF19C080911A
:1011C000EB008E7F8093EB008091ED008D7F80930C
:1011D000ED008091EB0081608093EB003093EC0098
:1011E0009093ED002093F0008091EE0087FF4BC0BC
:1011F00085E08093E9003091EC009091ED00209122
:10120000F00091FF19C08091EB008E7F8093EB007E
:101210008091ED008D7F8093ED008091EB008160E7
:101220008093EB003093EC009093ED002093F0005E
:101230008091EE0087FF27C086E08093E90030911F
:10124000EC009091ED002091F00091FF19C0809189
:10125000EB008E7F8093EB008091ED008D7F80937B
:10126000ED008091EB0081608093EB003093EC0007
:101270009093ED002093F0008091EE0087FF03C073
:1012800083E08093E90082E20E94F60107CF903864
:1012900009F004CF8091E800877F8093E800809177
:1012A00023018093F1008091E8008E778093E8001D
:1012B0008091120187FF06C0EFC080913F01882313
:1012C00009F4ECCE8091E80080FFF7CFE2CE9111D7
:1012D000E5CE909114019F778091E3008078892B6F
:1012E0008093E3008091E800877F8093E8008091FD
:1012F000120187FF05C021C080913F01882349F07A
:101300008091E80080FFF8CF8091E8008E7780938D
:10131000E8008091E80080FFFCCF8091E3008068C6
:101320008093E30083E0911101C082E080933F014C
:10133000B5CE80913F01882361F38091E80082FF60
:10134000F8CF8091E8008B778093E800E2CF903867
:1013500009F4E6C0923809F0A1CE809116018F7091
:10136000873008F09BCE8093E9008091EB0085FBED
:10137000882780F91092E9009091E800977F909378
:10138000E8008093F1001092F1008091E8008E77E0
:101390008093E8008091120187FF06C064C08091AD
:1013A0003F01882309F47ACE8091E80080FFF7CFCF
:1013B00070CE9058923008F071CE809114019091C7
:1013C00015018C3D23E0920709F4B3C0292F332780
:1013D00040911F01509120014130510509F4E0C0B6
:1013E0004230510509F0EFC02330310509F41FC226
:1013F00008F4B7C12132310509F4CCC184E990E089
:10140000EDEEF1E02232310509F048CE2091E800FE
:10141000277F2093E800209118013091190182174D
:10142000930708F49C0140E02115310509F056C0EE
:1014300012C080913F018823D1F08530C1F08091A6
:10144000E80083FD14C08091E80082FD58C08091BF
:10145000E80080FDABC14111ECCF51C080913F014C
:10146000882309F41BCE8091E80082FFF7CF80919A
:10147000E8008B778093E80011CE80913F018823AC
:1014800009F40CCE8091E80082FFF7CFF0CF809175
:101490003F01882309F402CE8091E80082FFF7CF54
:1014A000E6CF80913F01882309F451CE8091E80076
:1014B00082FFF7CF8091E8008B778093E80047CEDA
:1014C0008530A9F28091E80083FDD1CF8091E800BA
:1014D00082FD15C08091E80080FD68C180913F01C8
:1014E0008111EECFC4CF80913F01882309F4BFCF93
:1014F000853009F4BCCF8091E80083FDB8CF80919E
:10150000E80082FFF0CFB3CF90911401913009F041
:10151000C5CD91E0833009F090E090932201A5CDF4
:101520008091210190912201992309F425CF8260B5
:1015300023CF83E08A838AE289835FB7F894DE0150
:10154000139680E09EE041E207C0295C3F4F2D9357
:101550003D938F5F843191F0E92FF0E04093570085
:10156000E49180FF03C0E295EF709F5FEF702E2F34
:1015700030E0EA3050F7205D3F4FE9CF5FBF809108
:10158000E800877F8093E8006AE270E0CE01019670
:101590000E9437078091E8008B778093E8007ECD2A
:1015A0002330310509F456C108F4E8C02132310571
:1015B00009F44BC186E590E0EEE6F1E02232310518
:1015C00009F424CF6BCD2230310509F42BC123302F
:1015D000310509F411C182E190E0E1E8F2E0213047
:1015E000310509F05BCD12CF82E08093E900809154
:1015F000EB008E7F8093EB008091ED008D7F8093D8
:10160000ED008091EB0081608093EB0080EC809393
:10161000EC0082E38093ED001092F0008091EE00E8
:1016200087FF93C083E08093E9003091EC009091B4
:10163000ED002091F00091FF19C08091EB008E7FAA
:101640008093EB008091ED008D7F8093ED00809181
:10165000EB0081608093EB003093EC009093ED0001
:101660002093F0008091EE0087FF6FC084E08093AC
:10167000E9003091EC009091ED002091F00091FF95
:1016800019C08091EB008E7F8093EB008091ED007C
:101690008D7F8093ED008091EB0081608093EB0063
:1016A0003093EC009093ED002093F0008091EE00D9
:1016B00087FF4BC085E08093E9003091EC0090916A
:1016C000ED002091F00091FF19C08091EB008E7F1A
:1016D0008093EB008091ED008D7F8093ED008091F1
:1016E000EB0081608093EB003093EC009093ED0071
:1016F0002093F0008091EE0087FF27C086E0809362
:10170000E9003091EC009091ED002091F00091FF04
:1017100019C08091EB008E7F8093EB008091ED00EB
:101720008D7F8093ED008091EB0081608093EB00D2
:101730003093EC009093ED002093F0008091EE0048
:1017400087FF03C082E08093E90082E30E94F601F4
:10175000A5CC8091E30087FD22C081E080933F010A
:10176000FECC2130310509F482C089E290E0E4EC3E
:10177000F1E02230310509F449CE90CC2130310519
:1017800081F089E290E0E5E4F1E02230310509F4EE
:101790003DCE84CC89E090E0E4ECF1E037CE84E00B
:1017A000DDCF82E190E0E3E9F2E030CE8091F3001A
:1017B0009091F2008927982789272115310589F012
:1017C0008034910570F444914093F100319621509A
:1017D00031090196F2CF8091EB0080628093EB009B
:1017E00044CC41E08034910509F040E08091E8006C
:1017F0008E778093E80018CE99278130910509F4FF
:1018000045C008F43EC08230910509F444C00397F6
:1018100009F044CCE3E4F3E0849190E0009709F40C
:101820003DCCF4CD89E990E0ECEAF0E0EFCD9927EA
:101830008130910509F434C020F18230910539F7E7
:10184000EDE4F3E0849190E0E9CF89E090E0E7E512
:10185000F1E0DCCD99278130910571F090F0823074
:101860009105A9F6EFEFF2E0849190E0D7CF82E105
:1018700090E0E5EAF2E0CACDE5E2F3E0849190E0A1
:10188000CDCFE1E9F3E0849190E0C8CFE9EEF2E05A
:10189000849190E0C3CFE7EBF2E0849190E0BECF7B
:1018A000E5E8F3E0849190E0B9CFAF92BF92CF9298
:1018B000DF92EF92FF920F931F93CF93DF9300D0AD
:1018C00000D000D01F92CDB7DEB780912501909156
:1018D0002601892B09F45AC082E08093E9008091A7
:1018E000E80082FF72C08091E80085FDBEC0809153
:1018F000E8008B778093E80048E0A42EB12C50E4F8
:10190000C52E51E0D52E81E08093E9008091E8005A
:1019100080FF4AC04091E4005091E50025E68091A7
:10192000EC0080FF5AC08091E80080FD5AC0809191
:101930003F01882381F0853071F08091EB0085FDB7
:101940000AC08091E4009091E5008417950739F36F
:101950002150AC0121F78091E8008E778093E80058
:10196000A50170E060E0C60127960FB6F894DEBFCF
:101970000FBECDBFDF91CF911F910F91FF90EF90E0
:10198000DF90CF90BF90AF900C94C71A24E1A22EA5
:10199000B12C3BE2C32E31E0D32E81E08093E900ED
:1019A0008091E80080FDB6CF27960FB6F894DEBF91
:1019B0000FBECDBFDF91CF911F910F91FF90EF90A0
:1019C000DF90CF90BF90AF90089588E0A82EB12C03
:1019D00090E4C92E91E0D92EE0CF8091E80082FFFB
:1019E000A6CF8501760109C0F70181917F0180931F
:1019F000F1000150110909F4AECF8091E80085FD96
:101A0000F3CF8091E8008E778093E8000E94AB07C7
:101A10004091E4005091E50025E68091EC0080FFC4
:101A20001FC08091E80080FDE8CF80913F018823AE
:101A300009F491CF853009F48ECF8091EB0085FDBC
:101A40008ACF8091E4009091E5008417950729F3EF
:101A50002150AC0109F47FCF8091EC0080FDE1CFF3
:101A60008091E80082FFE1CFC8CF4091E40050911F
:101A7000E50025E68091EC0080FF1FC08091E80022
:101A800080FD1FC080913F01882309F430CF85304D
:101A900009F42DCF8091EB0085FD29CF8091E400E2
:101AA0009091E5008417950729F32150AC0109F4C2
:101AB0001ECF8091EC0080FDE1CF8091E80082FF95
:101AC000E1CF67E0E62EF12C8E010F5F1F4F0AC0B9
:101AD0008091F100F80181938F01F1E0EF1AF10894
:101AE00009F405CF8091E80085FDF2CF8091E800F0
:101AF0008B778093E8000E94AB074091E4005091FF
:101B0000E50025E68091EC0080FF1FC08091E80091
:101B100080FDE8CF80913F01882309F4E8CE85302D
:101B200009F4E5CE8091EB0085FDE1CE8091E400E3
:101B30009091E5008417950729F32150AC0109F431
:101B4000D6CE8091EC0080FDE1CF8091E80082FF4D
:101B5000E1CFC8CF1F920F920FB60F9211242F938F
:101B60003F938F939F93AF93BF9380911B0190916D
:101B70001C01A0911D01B0911E0130911A0123E0BA
:101B8000230F2D3768F126E8230F0296A11DB11D02
:101B900020931A0180931B0190931C01A0931D01B7
:101BA000B0931E018091270190912801A0912901F5
:101BB000B0912A010196A11DB11D80932701909338
:101BC0002801A0932901B0932A01BF91AF919F9161
:101BD0008F913F912F910F900FBE0F901F901895EE
:101BE0000196A11DB11DD4CF1F920F920FB60F9277
:101BF00011242F933F938F939F938091E10082FF55
:101C000004C08091E20082FD85C18091DA0080FFEE
:101C100004C08091D80080FD55C18091E10080FF13
:101C200004C08091E20080FD61C18091E10084FFE9
:101C30002AC08091E20084FF26C080E189BD82E154
:101C400089BD09B400FEFDCF8091D8008F7D8093BF
:101C5000D8008091E1008F7E8093E1008091E200C6
:101C60008F7E8093E2008091E20081608093E200A9
:101C700080912301811154C18091E30087FD58C1F7
:101C800081E080933F018091E10083FF12C1809148
:101C9000E20083FF0EC18091E100877F8093E10025
:101CA00082E080933F01109223018091E1008E7FBA
:101CB0008093E1008091E2008E7F8093E20080912A
:101CC000E20080618093E2001092E9008091EB00D5
:101CD0008E7F8093EB008091ED008D7F8093ED00EF
:101CE0008091EB0081608093EB001092EC0082E326
:101CF0008093ED001092F0008091EE0087FFD9C034
:101D000081E08093E9003091EC008091ED0020911A
:101D1000F00081FF19C09091EB009E7F9093EB0043
:101D20009091ED009D7F9093ED009091EB0091607C
:101D30009093EB003093EC008093ED002093F00043
:101D40008091EE0087FFB5C082E08093E90030917A
:101D5000EC009091ED002091F00091FF19C080916E
:101D6000EB008E7F8093EB008091ED008D7F809360
:101D7000ED008091EB0081608093EB003093EC00EC
:101D80009093ED002093F0008091EE0087FF91C0CA
:101D900083E08093E9003091EC008091ED00209188
:101DA000F00081FF19C09091EB009E7F9093EB00B3
:101DB0009091ED009D7F9093ED009091EB009160EC
:101DC0009093EB003093EC008093ED002093F000B3
:101DD0008091EE0087FF6DC084E08093E900309130
:101DE000EC009091ED002091F00091FF19C08091DE
:101DF000EB008E7F8093EB008091ED008D7F8093D0
:101E0000ED008091EB0081608093EB003093EC005B
:101E10009093ED002093F0008091EE0087FF49C081
:101E200085E08093E9003091EC009091ED002091E5
:101E3000F00091FF19C08091EB008E7F8093EB0042
:101E40008091ED008D7F8093ED008091EB008160AB
:101E50008093EB003093EC009093ED002093F00022
:101E60008091EE0087FF25C086E08093E9003091E5
:101E7000EC008091ED002091F00081FF18C090915E
:101E8000EB009E7F9093EB009091ED009D7F9093EF
:101E9000ED009091EB0091609093EB003093EC009B
:101EA0008093ED002093F0008091EE0087FD10926A
:101EB000E9009F918F913F912F910F900FBE0F904E
:101EC0001F9018958091DA008E7F8093DA008091C0
:101ED000D90080FF29C080E189BD82E189BD09B4B4
:101EE00000FEFDCF81E080933F0197CE8091E2001C
:101EF0008E7F8093E2008091E20080618093E20017
:101F00008091D80080628093D80019BC85E08093CE
:101F10003F018BCE8091E1008B7F8093E10075CEF5
:101F200084E080933F01AFCE19BC10923F0175CE83
:101F300083E0A7CECF93DF93CDB7DEB7A4970FB6DC
:101F4000F894DEBF0FBECDBF789484B5826084BDA7
:101F500084B5816084BD85B5826085BD85B58160AD
:101F600085BD80916E00816080936E00109281002B
:101F700080918100826080938100809181008160E6
:101F800080938100809180008160809380008091A7
:101F90009100826080939100809191008160809394
:101FA0009100809190008160809390008091C100A9
:101FB00084608093C1008091C10082608093C100E1
:101FC0008091C10081608093C1008091C3008160D5
:101FD0008093C3008091C00082608093C000809194
:101FE000C20081608093C20080917A0084608093F7
:101FF0007A0080917A00826080937A0080917A00E2
:10200000816080937A0080917A00806880937A0062
:1020100090E080E00E94AB1A80936E0181E090E036
:102020000E94AB1A80936F0181E090E00E94AB1A8E
:1020300080936C0182E090E00E94AB1A80936D0166
:1020400082E090E00E94AB1A8093700188E491E0F6
:102050000E9423079FB7F8944091270150912801CF
:102060006091290170912A0186B5A89B06C08F3F17
:1020700021F04F5F5F4F6F4F7F4F9FBF762F652FD0
:10208000542F4427480F511D611D711D440F551FCA
:10209000661F771F440F551F661F771FB4EFCB2EA7
:1020A000DD24D394E12CF12C3FB7F89480912701E3
:1020B00090912801A0912901B0912A0126B5A89BF1
:1020C00005C02F3F19F00196A11DB11D3FBFBA2FCA
:1020D000A92F982F8827820F911DA11DB11D880F50
:1020E000991FAA1FBB1F880F991FAA1FBB1F841B04
:1020F000950BA60BB70B883E9340A105B105A0F246
:1021000021E0C21AD108E108F10848515C4F6F4F35
:102110007F4FC114D104E104F10431F620915E0136
:1021200080915F019091600130914D01321711F45F
:102130000C94341A40916E0150916F014115510574
:1021400011F40C949C194130510511F40C94481968
:102150009E012F5F3F4F3AA329A321E1EBE5F1E078
:10216000AAE4B1E001900D922A95E1F793FD02C037
:102170000C943C1982E090E090936F0180936E0183
:1021800022E0F22E48175907E1F090E080E00E942B
:10219000AB1AF81629F06F2D90E080E00E94B31A78
:1021A000F0906F0181E090E00E94AB1AF81629F0E0
:1021B0006F2D81E090E00E94B31A80916E019091A2
:1021C0006F019093260180932501909320018093C5
:1021D0001F0184B7877F84BF0FB6F894A8958091BC
:1021E0006000886180936000109260000FBE80E8FC
:1021F00030E020E00FB6F8948093610020936100F6
:102200000FBE8091D8008F7E8093D8008091D70038
:1022100081608093D70084E082BF91E09093240195
:102220008091D8008E7F8093D8001092E2001092A7
:10223000DA001092E1008091D8008F778093D80067
:102240008091D80080688093D8008091D8008F7DDD
:102250008093D80019BC10923F0110922301109274
:102260002201109221018091E0008B7F8093E00099
:102270008091D80081608093D8001092E90080910D
:10228000EB008E7F8093EB008091ED008D7F80933B
:10229000ED008091EB0081608093EB001092EC00E8
:1022A00082E38093ED001092F0008091EE0087FFB2
:1022B000D8C09093E9003091EC009091ED0020910E
:1022C000F00091FF19C08091EB008E7F8093EB00AE
:1022D0008091ED008D7F8093ED008091EB00816017
:1022E0008093EB003093EC009093ED002093F0008E
:1022F0008091EE0087FFB5C082E08093E9003091C5
:10230000EC009091ED002091F00091FF19C08091B8
:10231000EB008E7F8093EB008091ED008D7F8093AA
:10232000ED008091EB0081608093EB003093EC0036
:102330009093ED002093F0008091EE0087FF91C014
:1023400083E08093E9003091EC009091ED002091C2
:10235000F00091FF19C08091EB008E7F8093EB001D
:102360008091ED008D7F8093ED008091EB00816086
:102370008093EB003093EC009093ED002093F000FD
:102380008091EE0087FF6DC084E08093E90030917A
:10239000EC009091ED002091F00091FF19C0809128
:1023A000EB008E7F8093EB008091ED008D7F80931A
:1023B000ED008091EB0081608093EB003093EC00A6
:1023C0009093ED002093F0008091EE0087FF49C0CC
:1023D00085E08093E9003091EC009091ED00209130
:1023E000F00091FF19C08091EB008E7F8093EB008D
:1023F0008091ED008D7F8093ED008091EB008160F6
:102400008093EB003093EC009093ED002093F0006C
:102410008091EE0087FF25C086E08093E90030912F
:10242000EC009091ED002091F00091FF18C0809198
:10243000EB008E7F8093EB008091ED008D7F809389
:10244000ED008091EB0081608093EB003093EC0015
:102450009093ED002093F0008091EE0087FD1092A4
:10246000E9008091E1008E7F8093E1008091E2009D
:1024700081608093E2008091E20088608093E200B6
:102480008091E0008E7F8093E0008091D800806191
:102490008093D8007894B0E0EB2EB0E0FB2E22249D
:1024A0002A948FE7382E1CA30BA3BCC0711195C2D0
:1024B000552309F494C2662309F4CAC5AA24A39437
:1024C000A0925E0120916C0130916D0121303105A7
:1024D00009F459C22230310509F042C2309262013A
:1024E0002092610130926401209263012A2D2C70A8
:1024F000243009F4C9C5283009F045C12FEF3FEF5A
:1025000030936601209365012A2D2370213009F450
:1025100045C1223009F0DCC530E020E0309368018D
:102520002093670110925E0122E030E0A12C10920E
:10253000690110926A01FC01EE27F370EF2B41F064
:1025400051115BC26111B2C5A111A1C57111E1C5E3
:1025500080914D018A1509F424C180916E019091FA
:102560006F01009709F46CC1019709F04EC0B0915A
:102570006201A09164017091660160916801EA2D89
:10258000EF70E150EA3008F06FC2F0E0E85FFE4F14
:10259000E08180915F0190916001AC01440F551F73
:1025A00082FB222720F92BA31CA29A012270332739
:1025B000ABA0BCA02A293B29887F9F73822B932B39
:1025C0009A0124703327282B392B3A832983EB83F4
:1025D000BC83AD837E836F8388E0E9A1FAA1DE012D
:1025E000199601900D928A95E1F788E0FE013996DF
:1025F000A0E4B1E001900D928A95E1F780913F014E
:10260000843009F4AAC10E94AB0781E1EBE5F1E057
:10261000AAE4B1E001900D928A95E1F7E114F1048A
:1026200009F024C273B159B150956FB16095109201
:102630006B01862F90E09C01359527953595279560
:102640003595279535952795359527952270FC0169
:10265000F595E795F595E795F595E7954E2F447037
:10266000422B661F6627661F462B959587958870B7
:10267000482B40935B01872F8095282F30E0982EC0
:1026800096949694882E8294880C880C10EC812263
:10269000C90182959295907F9827807F98278072B4
:1026A0009927B901660F771F60787727862B972BBC
:1026B000652F6F71862BB901660F771F6295729532
:1026C000707F7627607F762766277170862B972B21
:1026D0003695322F22273795279522273270822B65
:1026E000932B940122273470822B932B9401222761
:1026F0003870822B932B55955074852B90935D01E8
:1027000080935C0140907101509072016090730160
:102710007090740145284628472809F0B4C1909369
:10272000600180935F01642F6870542F5470742F80
:102730007270A42FA17040FDB9CE552309F457C182
:10274000662309F498C1A12C772309F4B9CE22E0BD
:10275000D22ED0925E0120916C0130916D0121301A
:10276000310509F40EC142E0A42E2230310509F0F2
:10277000F7C0309262012092610130926401209290
:10278000630132E0A32E2FEF3FE7309366012093E1
:1027900065012A2D2370213009F0BBCE2FEF3FEFCA
:1027A000BDCE20914E0130914F0180915F019091FB
:1027B00060012817390709F0D0CE90915801809117
:1027C00069019813CACE9091590180916A019813BA
:1027D000C4CE2091500130915101809161019091BE
:1027E00062012817390709F0B8CE209152013091C3
:1027F000530180916301909164012817390709F012
:10280000ACCE209154013091550180916501909199
:1028100066012817390709F0A0CE209156013091A2
:10282000570180916701909168012817390709F4D1
:10283000EACE80916E0190916F01009709F094CEDD
:10284000A0916101B0916201B058E0916301F091F3
:102850006401F05860916501709166017058409173
:10286000670150916801505880915F01909160011B
:102870006C01D294C2941FE0C122CD24D122CD2478
:102880009C0136952795329522952F7023273F700E
:10289000232720713C01769467947694679476940C
:1028A0006794062D0072202B3C2D3074232B3C2D79
:1028B0003078232BA22A9C0122953295307F322733
:1028C000207F3227D92ED694D6941D2D1470D12E68
:1028D0000C2D0370D02A322F3071D32A322F307250
:1028E000D32A322F3074D32A2078D22A20916B0138
:1028F0002111B5C09C010024220F331F001C220FA0
:10290000331F001C232F302D21702195880F892F14
:10291000881F990B91958170819514E110932C017A
:10292000A0922D01D0922E0120932F01809330018F
:10293000B0933201A0933101F0933401E09333015D
:1029400070933601609335015093380140933701FD
:1029500080913F01843009F056CE0E94550C53CE31
:1029600030926201209261013092640120926301F1
:1029700030926601209265013092680120926701D1
:10298000D6CDB2E0AB2E2A2D2C70243009F4BCC376
:10299000283009F4A6C32FEF3FE73093620120935C
:1029A00061012A2D2370213009F498C3223009F0E7
:1029B00092C330E020E030936401209363013092B1
:1029C00066012092650130926801209267011092A1
:1029D0005E0121E030E0A12CAACD511185C3AA24CB
:1029E000A394662309F46CCD38E0A32669CDF2E008
:1029F000AF2E7111F6CFA12CF4CF10925E019C7F07
:102A00009093600180935F0141E050E050936D012D
:102A100040936C01DD24D39481E090E0A12C8217D7
:102A2000930709F495CD81E090E00E94AB1A8D15D3
:102A300009F46DC36D2D81E090E00E94B31AD0902F
:102A40006D0182E090E00E94AB1A8D1529F06D2D8A
:102A500082E090E00E94B31AA0905E0179CD2091AF
:102A6000690180916A0159CFE8E093CD0BA11CA1C7
:102A70000E94000018CDA12C772311F002E0A02EB7
:102A800024E0A2261DCD3FB7F894809127019091B4
:102A90002801A0912901B0912A0126B5A89B05C063
:102AA0002F3F19F00196A11DB11D3FBFBA2FA92FCD
:102AB000982F8827820F911DA11DB11D2C013D016A
:102AC000440C551C661C771C440C551C661C771C5A
:102AD00080915C0190915D01E0914B01F0914C017E
:102AE0009C012E273F2720FF25C040918501509152
:102AF0008601609187017091880163015201A41AD7
:102B0000B50AC60AD70A40917101509172016091CD
:102B10007301709174014A155B056C057D0508F41D
:102B20003BC351E0852790935D0180935C019F0139
:102B30002827392721FF25C0A0908901B0908A015C
:102B4000C0908B01D0908C01B301A2014A195B099E
:102B50006C097D09A0907101B0907201C090730161
:102B6000D0907401A416B506C606D70608F4DEC2D6
:102B700002E0802790935D0180935C019F012827EC
:102B8000392722FF25C040918D0150918E0160911F
:102B90008F017091900163015201A41AB50AC60A0F
:102BA000D70A409171015091720160917301709147
:102BB00074014A155B056C057D0508F4C0C254E03C
:102BC000852790935D0180935C019F012827392719
:102BD00023FF25C0A0909101B0909201C090930175
:102BE000D0909401B301A2014A195B096C097D09D7
:102BF000A0907101B0907201C0907301D0907401E7
:102C0000A416B506C606D70608F4A2C208E08027B7
:102C100090935D0180935C019F012827392724FF51
:102C200025C0409195015091960160919701709156
:102C3000980163015201A41AB50AC60AD70A409145
:102C400071015091720160917301709174014A1584
:102C50005B056C057D0508F484C250E185279093DF
:102C60005D0180935C019F012827392725FF25C03E
:102C7000A0909901B0909A01C0909B01D0909C01C6
:102C8000B301A2014A195B096C097D09A090710189
:102C9000B0907201C0907301D0907401A416B50673
:102CA000C606D70608F466C200E2802790935D014D
:102CB00080935C019F012827392726FF25C040917A
:102CC0009D0150919E0160919F017091A00163014F
:102CD0005201A41AB50AC60AD70A4091710150914F
:102CE000720160917301709174014A155B056C0566
:102CF0007D0508F448C250E4852790935D018093D8
:102D00005C019F012827392727FF24C0A090A1013B
:102D1000B090A201C090A301D090A401B301A20180
:102D20004A195B096C097D09A0907101B09072018C
:102D3000C0907301D0907401A416B506C606D706DC
:102D400008F433C2805890935D0180935C019F0129
:102D50002827392730FF25C04091A5015091A601B1
:102D60006091A7017091A80163015201A41AB50AEC
:102D7000C60AD70A409171015091720160917301A6
:102D8000709174014A155B056C057D0508F416C247
:102D900051E0952790935D0180935C019F01282766
:102DA000392731FF25C0A090A901B090AA01C09099
:102DB000AB01D090AC01B301A2014A195B096C09C7
:102DC0007D09A0907101B0907201C0907301D09004
:102DD0007401A416B506C606D70608F4F8C102E0C9
:102DE000902790935D0180935C019F0128273927EC
:102DF00032FF25C04091AD015091AE016091AF010D
:102E00007091B00163015201A41AB50AC60AD70A2B
:102E10004091710150917201609173017091740140
:102E20004A155B056C057D0508F4DAC154E0952769
:102E300090935D0180935C019F012827392733FF20
:102E400025C0A090B101B090B201C090B301D09064
:102E5000B401B301A2014A195B096C097D09A09074
:102E60007101B0907201C0907301D0907401A416EA
:102E7000B506C606D70608F4BCC108E090279093B3
:102E80005D0180935C019F012827392734FF25C00D
:102E90004091B5015091B6016091B7017091B801B0
:102EA00063015201A41AB50AC60AD70A40917101FA
:102EB0005091720160917301709174014A155B0524
:102EC0006C057D0508F49EC150E1952790935D0146
:102ED00080935C019F012827392735FF22C040914C
:102EE000B9015091BA016091BB017091BC0193018D
:102EF0008201041B150B260B370B40917101509179
:102F0000720160917301709174014017510762075B
:102F1000730708F480C160E2962790935D01809367
:102F20005C0140915B0160914A01542F562750FF8C
:102F300023C0A0908501B0908601C0908701D090F9
:102F40008801930182010A191B092C093D09A090EF
:102F50007101B0907201C0907301D0907401A016FD
:102F6000B106C206D30608F46CC1BB24B3944B254A
:102F700040935B01562F542751FF22C000918901D5
:102F800010918A0120918B0130918C0163015201D3
:102F9000A01AB10AC20AD30A0091710110917201FC
:102FA00020917301309174010A151B052C053D0514
:102FB00008F450C112E0412740935B01562F54277B
:102FC00052FF23C0A0908D01B0908E01C0908F0160
:102FD000D0909001930182010A191B092C093D0927
:102FE000A0907101B0907201C0907301D0907401F3
:102FF000A016B106C206D30608F435C124E0B22EED
:103000004B2540935B01562F542753FF88CB0091EB
:1030100091011091920120919301309194016301EB
:103020005201A01AB10AC20AD30A0091710110918B
:10303000720120917301309174010A151B052C0552
:103040003D0508F4F1C018E0412740935B0167CBD0
:1030500045E0C42EC0925E0120916C0130916D015B
:103060002130310509F45FC0E5E0AE2E2230310594
:1030700009F076CC309262012092610130926401B5
:1030800020926301E5E0AE2E30E020E039CA1092D4
:103090005E019C7F9093600180935F0110926D01AF
:1030A00010926C01D12C90E080E0B8CC10925E01BF
:1030B0009C7F9093600180935F0162E070E0709369
:1030C0006D0160936C0102E0D02E82E090E0A6CC0E
:1030D0002FEF3FE723CA2FEF3FE76DCC2FEF3FEFF6
:1030E0006ACC2FEF3FEF59CC6111E8C9B5E0BB2E98
:1030F000B0925E0120916C0130916D01213031055B
:1031000009F0B2CFF5E0AF2E30E020E046CCD12C74
:1031100098CC10925E019C7F9061909360018093A7
:103120005F01A12C15CA15E0A12E2DCC409289017A
:1031300050928A0160928B0170928C0122CD409254
:103140008D0150928E0160928F017092900140CD5E
:103150004092910150929201609293017092940179
:103160005ECD4092950150929601609297017092C7
:1031700098017CCD4092990150929A0160929B01F6
:1031800070929C019ACD40929D0150929E01609256
:103190009F017092A001B8CD4092850150928601A6
:1031A0006092870170928801C5CC4092A101509233
:1031B000A2016092A3017092A401CCCD4092A5011E
:1031C0005092A6016092A7017092A801EACD4092A8
:1031D000A9015092AA016092AB017092AC0108CE95
:1031E0004092AD015092AE016092AF017092B00179
:1031F00026CE4092B1015092B2016092B30170921A
:10320000B40144CE4092B5015092B6016092B7012C
:103210007092B80162CE4092B9015092BA016092A8
:10322000BB017092BC017DCE40928101509282011F
:10323000609283017092840180915C0190915D01A4
:103240006ECA409275015092760160927701709239
:10325000780192CE4092790150927A0160927B017E
:1032600070927C01ADCE40927D0150927E016092C1
:103270007F0170928001C9CE90FF4FC181E090E044
:1032800090936F0180936E01FF24F3940C94C2100D
:1032900070916201609164015091660140916801F2
:1032A000E22FEF70E150EA3008F035C1F0E0E85F5E
:1032B000FE4FE0819C01220F331F82FBAA24A0F85D
:1032C000B12CD901A270BB27AA29BB29887F9F7383
:1032D0008A2B9B2B24703327822B932B9A8B898BE1
:1032E000EB8B7C8B6D8B5E8B4F8B88E0FE01719638
:1032F0009E012F5F3F4F3AA329A3D90101900D9260
:103300008A95E1F788E0E9A1FAA1A0E4B1E0019093
:103310000D928A95E1F780913F01843009F4F3C062
:103320000E94AB0740916E0150916F0180915F0147
:10333000909160010C94AD10409161015091620137
:103340007A0130E8F31AA0916301B0916401B0589A
:10335000E0916501F0916601F0586091670170910C
:1033600068017058AC0156954795529542954F703B
:1033700045275F704527342F3071AC01569547952E
:1033800056954795569547954072342B322BAC0194
:10339000529542954F7045275F704527242F207422
:1033A000322B242F2078322B292F26952695247016
:1033B0004370242BAC0142955295507F5427407F97
:1033C0005427542F5071252B542F5072252B542FD6
:1033D0005074252B4078242B40916B01411196C0ED
:1033E000AC010024440F551F001C440F551F001C46
:1033F000452F502D41704195880F892F881F990BBB
:1034000091958170819594E190932C0130932D01D9
:1034100020932E0140932F0180933001F0923201CE
:10342000E0923101B0933401A0933301F09336015F
:10343000E0933501709338016093370180913F012B
:10344000843009F45DC00E94AB0740916E01509139
:103450006F0180915F0190916001BE016F5F7F4FAE
:103460007AA369A30C94AD1040914E0150914F0185
:103470004817590711F00C949A1040915801309157
:10348000690143130C949A104091590130916A01DB
:1034900043130C949A106091500170915101409126
:1034A0006101509162016417750711F00C949A1034
:1034B00060915201709153014091630150916401F8
:1034C0006417750711F00C949A1060915401709173
:1034D000550140916501509166016417750711F01F
:1034E0000C949A10609156017091570140916701B8
:1034F000509168016417750711F00C949A10A3CFCE
:103500000E94550CA0CF0E94550C0ACF4091690132
:1035100080916A0178CFE8E0CDCE91FF09C010928A
:103520006F0110926E01F12C90E080E00C94C210BB
:10353000CA010C94E110E8E4F1E010A688E893E1F8
:10354000A0E0B0E081A792A7A3A7B4A784E091E090
:10355000918380830895F999FECF92BD81BDF89A39
:10356000992780B50895262FF999FECF1FBA92BDED
:1035700081BD20BD0FB6F894FA9AF99A0FBE019654
:103580000895EE0FFF1F0590F491E02D0994DC01E2
:1035900001C06D9341505040E0F70895F894FFCF7B
:1035A0000000000023071B030004080607050802AB
:0235B000010315
:00000001FF
