:100000000C94D0010C94F8010C94F8010C94F801B4
:100010000C94F8010C94F8010C94F8010C94F8017C
:100020000C94F8010C94F8010C94370C0C94F80122
:100030000C94F8010C94F8010C94F8010C94F8015C
:100040000C94F8010C94F8010C94F8010C94F8014C
:100050000C94F8010C94F8010C94F8010C94ED0B3D
:100060000C94F8010C94F8010C94F8010C94F8012C
:100070000C94F8010C94F8010C94F8010C94F8011C
:100080000C94F8010C94F8010C94F8010C94F8010C
:100090000C94F8010C94F8010C94F8010C94F801FC
:1000A0000C94F8010C94F8010C94F80109029900E1
:1000B000040100A0FA0904000002FF5D0100112103
:1000C0000001012581140000000013010800000751
:1000D0000581032000010705010320000809040130
:1000E0000004FF5D03001B210001010182400102A9
:1000F000201683000000000000160300000000002E
:100100000007058203200002070502032000040700
:1001100005830320004007050303200010090402A3
:100120000001FF5D02000921000101228407000790
:100130000584032000100904030000FFFD130406DA
:1001400041000101030902290001010080FA0904AC
:1001500000000203000000092111010001225600E5
:100160000705020340000107058103400001050166
:100170000905A101150025013500450175019510FE
:10018000050919012910810205012507463B017562
:1001900004950165140939814265009501810126A4
:1001A000FF0046FF0009300931093209357508950D
:1001B0000481020600FF0920950181020A2126958B
:1001C000089102C00902290001010080FA09040017
:1001D0000002030000000921110100012294000720
:1001E00005020340000107058103400001092111B8
:1001F00001000122940005010904A101A102850169
:1002000075089501150026FF0081037501951315EA
:1002100000250135004501050919012913810275E1
:1002200001950D0600FF8103150026FF0005010959
:1002300001A10075089504350046FF000930093119
:10024000093209358102C005017508952709018128
:10025000027508953009019102750895300901B1C0
:1002600002C0A1028502750895300901B102C0A142
:100270000285EE750895300901B102C0A10285EF33
:10028000750895300901B102C0C012010002FFFFDC
:10029000FF405E048E0214010102030112010002FC
:1002A000000000400D0F9200000101020001120148
:1002B0000002000000404C0568020001010200013C
:1002C0003003580049006E00700075007400200073
:1002D0005300540041004E004400410052004400CD
:1002E0002000470041004D004500500041004400FF
:1002F000000014034D006900630072006F0073007A
:100300006F00660074000000240350004F004B0093
:100310004B0045004E00200043004F004E005400AB
:1003200052004F004C004C004500520000001C03DE
:1003300048004F0052004900200043004F002E00AB
:100340002C004C00540044002E0000000803310033
:100350002E0030000000360350004C0041005900D0
:10036000530054004100540049004F004E00280043
:10037000520029003300200043006F006E0074001B
:1003800072006F006C006C006500720000000A03D0
:1003900053006F006E007900000004030904191572
:1003A00011241FBECFEFDAE0DEBFCDBF11E0A0E029
:1003B000B1E0EAEEFDE202C005900D92A633B1076E
:1003C000D9F723E0A6E3B1E001C01D92A435B2073E
:1003D000E1F711E0C0EDD1E004C02197FE010E94D9
:1003E000E116CF3CD107C9F70E94EC0D0C94F3162F
:1003F0000C94000081FFD5C091E09093E9009091AA
:10040000EB009E7F9093EB009091ED009D7F909389
:10041000ED009091EB0091609093EB0091EC909344
:10042000EC008093ED001092F0008091EE0087FFC9
:10043000DFC082E08093E9003091EC008091ED0014
:100440002091F00081FF19C09091EB009E7F909366
:10045000EB009091ED009D7F9093ED009091EB006B
:1004600091609093EB003093EC008093ED0020932B
:10047000F0008091EE0087FFBBC083E08093E9002D
:100480003091EC009091ED002091F00091FF19C0A7
:100490008091EB008E7F8093EB008091ED008D7F4B
:1004A0008093ED008091EB0081608093EB003093AE
:1004B000EC009093ED002093F0008091EE0087FF18
:1004C00097C084E08093E9003091EC008091ED00CA
:1004D0002091F00081FF19C09091EB009E7F9093D6
:1004E000EB009091ED009D7F9093ED009091EB00DB
:1004F00091609093EB003093EC008093ED0020939B
:10050000F0008091EE0087FF73C085E08093E900E2
:100510003091EC008091ED002091F00081FF19C036
:100520009091EB009E7F9093EB009091ED009D7F6A
:100530009093ED009091EB0091609093EB003093DD
:10054000EC008093ED002093F0008091EE0087FF97
:100550004FC086E08093E9003091EC008091ED007F
:100560002091F00081FF19C09091EB009E7F909345
:10057000EB009091ED009D7F9093ED009091EB004A
:1005800091609093EB003093EC008093ED0020930A
:10059000F0008091EE0087FF2BC081E08093E9009E
:1005A000089581E08093E90082E08093E900309132
:1005B000EC008091ED002091F00081FF1BC0909134
:1005C000EB009E7F9093EB009091ED009D7F9093C8
:1005D000ED009091EB0091609093EB003093EC0074
:1005E0008093ED002093F0008091EE0087FD02C023
:1005F00080E0089583E08093E9003091EC008091E1
:10060000ED002091F00081FF5CCF9091EB009E7F88
:100610009093EB009091ED009D7F9093ED00909171
:10062000EB0091609093EB003093EC008093ED0031
:100630002093F0008091EE0087FD43CFD9CF81FF5A
:10064000B2C092E09093E9009091EB009E7F90936E
:10065000EB009091ED009D7F9093ED009091EB0069
:1006600091609093EB0090EC9093EC008093ED0000
:100670001092F0008091EE0087FFBCC083E0809371
:10068000E9003091EC008091ED002091F00081FFB5
:1006900019C09091EB009E7F9093EB009091ED003C
:1006A0009D7F9093ED009091EB0091609093EB0013
:1006B0003093EC008093ED002093F0008091EE00E9
:1006C00087FF98C084E08093E9003091EC0090911E
:1006D000ED002091F00091FF19C08091EB008E7F1A
:1006E0008093EB008091ED008D7F8093ED008091F1
:1006F000EB0081608093EB003093EC009093ED0071
:100700002093F0008091EE0087FF74C085E0809315
:10071000E9003091EC008091ED002091F00081FF24
:1007200019C09091EB009E7F9093EB009091ED00AB
:100730009D7F9093ED009091EB0091609093EB0082
:100740003093EC008093ED002093F0008091EE0058
:1007500087FF50C086E08093E9003091EC008091E3
:10076000ED002091F00081FF19C09091EB009E7F79
:100770009093EB009091ED009D7F9093ED00909110
:10078000EB0091609093EB003093EC008093ED00D0
:100790002093F0008091EE0087FF2CC082E08093D0
:1007A000E90081E0089582E08093E90083E080938E
:1007B000E9003091EC008091ED002091F00081FF84
:1007C0001BC09091EB009E7F9093EB009091ED0009
:1007D0009D7F9093ED009091EB0091609093EB00E2
:1007E0003093EC008093ED002093F0008091EE00B8
:1007F00087FD02C080E0089584E08093E900309195
:10080000EC008091ED002091F00081FF7FCF90916E
:10081000EB009E7F9093EB009091ED009D7F909375
:10082000ED009091EB0091609093EB003093EC0021
:100830008093ED002093F0008091EE0087FD66CF5D
:10084000D9CFFC012389348922273C7081E021150E
:100850003C4009F080E00895FC0123893489222777
:10086000337081E02115334009F080E00895FC01E8
:10087000A489B58982899389218921110AC0119699
:100880002D913C912823392381E0232B09F480E02A
:1008900008952C912F7030E0F5CFFC0163B149B180
:1008A00040955FB1509510A211A2252F30E0C901EB
:1008B0009595879595958795959587959595879520
:1008C000959587958270D901B595A795B595A7950A
:1008D000B595A795A4708A2B551F5527551F852BB5
:1008E000359527952870822B9289907F892B828B52
:1008F000262F2095622F70E0922F96959695822F45
:100900008295880F880F807C9B0122953295307FDD
:100910003227207F322720723327DB01AA0FBB1F2B
:10092000A078BB272A2B3B2B542F5F71252BDB0193
:10093000AA0FBB1FA295B295B07FBA27A07FBA2796
:10094000AA27B1702A2B3B2B7695762F66277795B1
:10095000679566277270262B372BBC01662774704B
:10096000262B372B88279870282B392B45954074D8
:10097000242B348B238B089584B1817884B98AB178
:1009800080768AB980B38F7080BB85B18E6785B958
:100990008BB18F698BB981B3806F81BB0895089546
:1009A000FC0120916C0130916D016217730708F40E
:1009B0009B0140E02115310521F512C090919C0169
:1009C000992319F1953099F19091E80093FD31C088
:1009D0009091E80092FD25C09091E80090FD4DC0F7
:1009E0004111ECCF1EC0953011F19091E80093FDBC
:1009F00020C09091E80092FD14C09091E80090FD15
:100A00001AC090919C019111EECF82E008958091DF
:100A10009C018823D1F3853051F08091E80083FD5B
:100A200008C08091E80082FFF2CF80E0089583E063
:100A3000089581E008956091F3008091F200762F8F
:100A4000682F6034710520F00DC06034710551F0DD
:100A500081918093F100215031096F5F7F4F211503
:100A6000310599F741E06034710509F040E080916B
:100A7000E8008E778093E8009DCF6091F30080912D
:100A8000F200762F682FEECFCF93DF93CDB7DEB78E
:100A9000AA970FB6F894DEBF0FBECDBF9091F100BC
:100AA000909366018091F100809367012091F1009D
:100AB000209368012091F100209369012091F100B9
:100AC00020936A012091F10020936B012091F100A5
:100AD00020936C012091F10020936D012091790108
:100AE00030917A01232B09F083C0813009F080C056
:100AF000913A09F464C02091E80023FF49C099238A
:100B000009F43EC2923009F043C08091680181111E
:100B100026C080916A018F709FEF980F9630C0F5C4
:100B20008093E9009091EB0090FF19C090916701CC
:100B3000933009F41BC39091EB0090619093EB000C
:100B400021E030E001C0220F8A95EAF72093EA0005
:100B50001092EA008091EB0088608093EB00109285
:100B6000E9008091E800877F8093E800809166012A
:100B700087FF05C0FBC180919C01882349F08091CB
:100B8000E80080FFF8CF8091E8008E778093E8003E
:100B90008091E80083FF0AC08091E800877F8093FE
:100BA000E8008091EB0080628093EB00AA960FB67C
:100BB000F894DEBF0FBECDBFDF91CF910895809135
:100BC000E800877F8093E8008091790190917A0115
:100BD000009709F439C2029731F460E470E086E3CB
:100BE00091E00E94D0048091E8008B778093E80028
:100BF0008091E80083FFCCCF9091660180916701DE
:100C00008A3030F6E82FF0E0E85FF94F0C94E116F7
:100C10004D077F05C8057F05C8057F07F606C8058F
:100C2000D60612069111B4CF80916801823008F087
:100C3000AFCF9091E800977F9093E8008093770181
:100C40009091660197FF05C0CEC190919C019923B8
:100C500059F09091E80090FFF8CF8091E8008E77EE
:100C60008093E80080917701882309F45EC284E0D4
:100C700080939C018091790190917A018130910556
:100C800009F44CC2029709F449C283E08093E90059
:100C90008091EB008E7F8093EB008091ED008D7F43
:100CA0008093ED008091EB0081608093EB0081ECFC
:100CB0008093EC0082E28093ED001092F00080912E
:100CC000EE0087FF6FC084E08093E9003091EC0074
:100CD0009091ED002091F00091FF19C08091EB0000
:100CE0008E7F8093EB008091ED008D7F8093ED00EF
:100CF0008091EB0081608093EB003093EC00909347
:100D0000ED002093F0008091EE0087FF4BC085E05E
:100D10008093E9003091EC009091ED002091F0007B
:100D200091FF19C08091EB008E7F8093EB00809142
:100D3000ED008D7F8093ED008091EB0081608093CA
:100D4000EB003093EC009093ED002093F000809145
:100D5000EE0087FF27C086E08093E9003091EC0029
:100D60009091ED002091F00091FF19C08091EB006F
:100D70008E7F8093EB008091ED008D7F8093ED005E
:100D80008091EB0081608093EB003093EC009093B6
:100D9000ED002093F0008091EE0087FF03C083E018
:100DA0008093E90082E20E94FA01F2CE903809F0C5
:100DB000EFCE8091E800877F8093E80080917701F3
:100DC0008093F1008091E8008E778093E800809115
:100DD000660187FF06C0FDC080919C01882309F44D
:100DE000D7CE8091E80080FFF7CFCDCE90589230DB
:100DF00008F0CECE80916801909169018C3D23E08E
:100E0000920709F431C1292F332740917301509182
:100E100074014130510509F45EC14230510509F0B9
:100E20006CC12330310509F4CEC108F493C12132DD
:100E3000310509F4ECC184E990E0E6EFF1E02232FB
:100E4000310509F0A5CE2091E800277F2093E80026
:100E500020916C0130916D018217930708F49C0179
:100E600040E02115310509F0D9C014C080919C01E2
:100E7000882309F47FC0853009F47CC08091E800A4
:100E800083FD78C08091E80082FDD9C08091E800A0
:100E900080FDE0C14111EACFD2C0903809F4DBC037
:100EA000923809F075CE80916A018F70873008F012
:100EB0006FCE8093E9008091EB0085FB882780F955
:100EC0001092E9009091E800977F9093E80080935A
:100ED000F1001092F1008091E8008E778093E80095
:100EE0008091660187FF06C06AC080919C018823BB
:100EF00009F44ECE8091E80080FFF7CF44CE9111E7
:100F000047CE909168019F778091E3008078892B8C
:100F10008093E3008091E800877F8093E8008091D0
:100F2000660187FF05C03CC080919C01882349F081
:100F30008091E80080FFF8CF8091E8008E77809361
:100F4000E8008091E80080FFFCCF8091E30080689A
:100F50008093E30083E0911101C082E080939C01C3
:100F600017CE80919C01882309F412CE8091E8006D
:100F700082FFF7CF8091E8008B778093E80008CE5E
:100F800090916801913009F003CE91E0833009F02F
:100F900090E090937601E3CD80919C01882389F2C3
:100FA0008091E80082FFF8CF8091E8008B778093F2
:100FB000E800C7CF80919C01882309F4E9CD809196
:100FC000E80082FFF7CFD6CF80919C01882309F4F7
:100FD000DFCD8091E80082FFF7CFCCCF90919C01CC
:100FE000992309F441CE9091E80092FFF7CF8091C8
:100FF000E8008B778093E8008091770135CE8530CB
:1010000009F4B8CF8091E80083FDB4CF8091E80067
:1010100082FD15C08091E80080FDB3C080919C01E5
:101020008111EDCFA7CF80919C01882309F4A2CF35
:10103000853009F49FCF8091E80083FD9BCF80919C
:10104000E80082FFF0CF96CF64E170E088E891E09D
:101050000E94D004C8CD80917501909176019923AA
:1010600009F430CF82602ECF83E08A838AE28983BD
:101070005FB7F894DE01139680E09EE041E207C07E
:10108000295C3F4F2D933D938F5F843191F0E92F81
:10109000F0E040935700E49180FF03C0E295EF70C9
:1010A0009F5FEF702E2F30E0EA3050F7205D3F4F0A
:1010B000E9CF5FBF8091E800877F8093E8006AE214
:1010C00070E0CE0101960E94D0048091E8008B77F9
:1010D0008093E8005DCD2330310509F4A2C068F1AA
:1010E0002132310509F4ACC086E590E0EEE6F1E08E
:1010F0002232310509F4A7CE4BCD2230310509F457
:10110000A4C02330310509F474C082E190E0EAE81C
:10111000F2E02130310509F03BCD95CE82E30E940B
:101120001F0382E30E94FA0133CD8091E30087FD23
:1011300085C081E080939C019DCD2130310509F46B
:101140006BC089E290E0E5E4F1E02230310509F47A
:101150007ACE1ECD2130310579F089E290E0E4ECC1
:10116000F1E02230310509F46ECE12CD8091EB0012
:1011700080628093EB00F3CC82E190E0EEEAF2E053
:1011800062CE8091F3009091F200892798278927F9
:101190008034910568F444914093F10031962150D8
:1011A000310901962115310519F08034910599F71F
:1011B00041E08034910509F040E08091E8008E77AD
:1011C0008093E8004ECE99278130910509F45EC0E6
:1011D00008F457C08230910509F44EC0039709F016
:1011E000D7CCECE4F3E0849190E0009709F4D0CC04
:1011F0002ACE992781309105A9F108F442C08230A6
:10120000910561F7E0ECF2E0849190E0EECF89E0A7
:1012100090E0EDEEF1E017CE82E190E0ECE9F2E053
:1012200012CE99278130910511F158F18230910544
:10123000A9F6E8E0F3E0849190E0D7CF84E07ACF9C
:1012400089E090E0E7E5F1E0FECD89E990E0ECEAA5
:10125000F0E0F9CD8091F3009091F2008927982772
:101260008927A6CFE2EFF2E0849190E0BECFEEE2D4
:10127000F3E0849190E0B9CFE6E5F3E0849190E06B
:10128000B4CFEAE9F3E0849190E0AFCFEEE8F3E089
:10129000849190E0AACF0F931F93CF93DF9300D058
:1012A000CDB7DEB78C0181E090E00E94CB16898338
:1012B00082E090E00E94CB168A8389819A81F801AE
:1012C00093A382A390E080E00E94CB16898381E003
:1012D00090E00E94CB168A8389819A81F80195A3B8
:1012E00084A382E090E00E94CB16898383E090E0A3
:1012F0000E94CB168A8389819A81F80197A386A3DD
:101300000F900F90DF91CF911F910F9108951F9330
:10131000CF93DF93EC01A881B9811896ED91FC91F0
:10132000199744E0EC32F40701F58B899C899C0104
:101330002227337021153340F1F01A96ED91FC917C
:1013400084E0E132F80709F053C08B899C899C0145
:1013500022273C7021153C4009F451C0D0E0C0E088
:10136000CE01DF91CF911F9108950995882309F44B
:101370008BC08B899C894AA15BA19C7F9C8B8B8BAA
:101380002A8922FF27C081E090E09BA38AA3207FC7
:101390002A8B11E0C2E0D0E04817590709F381E039
:1013A00090E00E94CB16811729F0612F81E090E038
:1013B0000E94D31682E090E00E94CB16882381F22F
:1013C00060E082E090E00E94D316CE01DF91CF91E1
:1013D0001F91089523FD44C021FF59C01BA21AA2EA
:1013E000207F2A8B10E090E080E0C1E0D0E0D4CFF5
:1013F000CE010995882309F4B1CF8B899C892EA150
:101400003FA1937F9C8B8B8B8A8980FD33C081FFAA
:1014100048C041E050E05FA34EA3807F8A8B11E07B
:1014200081E090E0C0E4D0E02817390709F498CFB4
:1014300082E090E00E94CB16811729F0612F82E0B4
:1014400090E00E94D31683E090E00E94CB168823A0
:1014500009F486CF60E083E090E00E94D31680CF4D
:1014600082E090E09BA38AA3207F2A8B12E0C4E055
:10147000D0E092CF1FA21EA2807F8A8B10E090E066
:1014800080E0C0E2D0E0D0CFA881B98156CF20FF64
:1014900065CF207F2A8B90619C8B8B8BC8E0D0E03E
:1014A0005FCF82FF5BCF42E050E05FA34EA3807F1F
:1014B0008A8B12E082E090E0C0E8D0E0B5CF0E94D5
:1014C000E716AF92BF92CF92DF92EF92FF920F9307
:1014D0001F93CF93DF93CDB7DEB728970FB6F8945D
:1014E000DEBF0FBECDBF8091790190917A01892B2B
:1014F00009F45AC082E08093E9008091E80082FFFD
:1015000072C08091E80085FDD5C08091E8008B779E
:101510008093E80048E0A42EB12C50E8C52E51E09D
:10152000D52E81E08093E9008091E80080FF4AC0D9
:101530004091E4005091E50025E68091EC0080FFA9
:101540005AC08091E80080FD5AC080919C01882398
:1015500081F0853071F08091EB0085FD0AC08091AB
:10156000E4009091E5008417950739F32150AC0110
:1015700021F78091E8008E778093E800A50170E064
:1015800060E0C60128960FB6F894DEBF0FBECDBF4F
:10159000DF91CF911F910F91FF90EF90DF90CF904F
:1015A000BF90AF900C94EC1624E1A22EB12C38E839
:1015B000C32E31E0D32E81E08093E9008091E800D2
:1015C00080FDB6CF28960FB6F894DEBF0FBECDBF14
:1015D000DF91CF911F910F91FF90EF90DF90CF900F
:1015E000BF90AF90089588E0A82EB12C90E8C92E46
:1015F00091E0D92EE0CF8091E80082FFA6CF85014F
:10160000760109C0F70181917F018093F1000150BB
:10161000110909F4AECF8091E80085FDF3CF8091E8
:10162000E8008E778093E80080919C018823A9F0E0
:101630008091E9008F7088878091EC0080FF03C063
:10164000F885F068F8871092E9008091E80083FD42
:10165000BBC088858F708093E9004091E400509171
:10166000E50025E68091EC0080FF1FC08091E80036
:1016700080FDD1CF80919C01882309F47ACF8530F9
:1016800009F477CF8091EB0085FD73CF8091E40062
:101690009091E5008417950729F32150AC0109F4D6
:1016A00068CF8091EC0080FDE1CF8091E80082FF5F
:1016B000E1CFB1CF4091E4005091E50025E6809163
:1016C000EC0080FF1FC08091E80080FD80C0809109
:1016D0009C01882309F419CF853009F416CF809135
:1016E000EB0085FD12CF8091E4009091E500841716
:1016F000950729F32150AC0109F407CF8091EC0044
:1017000080FDE1CF8091E80082FFE1CF07E010E0AB
:10171000FE0131967F0109C08091F100F7018193AC
:101720007F010150110909F4F0CE8091E80085FD98
:10173000F3CF8091E8008B778093E80080919C0143
:101740008823A9F08091E9008F70D82E8091EC0059
:1017500080FF02C06894D7F81092E9008091E800F9
:1017600083FD0E9444058D2D8F708093E900409188
:10177000E4005091E50025E68091EC0080FF1FC059
:101780008091E80080FDD1CF80919C01882309F4ED
:10179000BCCE853009F4B9CE8091EB0085FDB5CE85
:1017A0008091E4009091E5008417950729F321507A
:1017B000AC0109F4AACE8091EC0080FDE1CF8091CC
:1017C000E80082FFE1CFB1CF0E94440542CF07E09D
:1017D00010E0CE0101967C01A8CF1F920F920FB6A8
:1017E0000F9211242F933F938F939F93AF93BF93A7
:1017F00080917B0190917C01A0917D01B0917E014F
:101800003091720123E0230F2D3768F126E8230F72
:101810000296A11DB11D2093720180937B019093CC
:101820007C01A0937D01B0937E0180916E01909127
:101830006F01A0917001B09171010196A11DB11DC0
:1018400080936E0190936F01A0937001B09371012A
:10185000BF91AF919F918F913F912F910F900FBEAC
:101860000F901F9018950196A11DB11DD4CF1F9206
:101870000F920FB60F9211242F933F938F939F9344
:101880008091E10082FF04C08091E20082FD85C169
:101890008091DA0080FF04C08091D80080FD55C19E
:1018A0008091E10080FF04C08091E20080FD61C171
:1018B0008091E10084FF2AC08091E20084FF26C06D
:1018C00080E189BD82E189BD09B400FEFDCF809130
:1018D000D8008F7D8093D8008091E1008F7E809327
:1018E000E1008091E2008F7E8093E2008091E2002F
:1018F00081608093E20080917701811154C18091D1
:10190000E30087FD58C181E080939C018091E10054
:1019100083FF12C18091E20083FF0EC18091E1003C
:10192000877F8093E10082E080939C011092770191
:101930008091E1008E7F8093E1008091E2008E7FB4
:101940008093E2008091E20080618093E200109237
:10195000E9008091EB008E7F8093EB008091ED0099
:101960008D7F8093ED008091EB0081608093EB0090
:101970001092EC0082E38093ED001092F0008091D1
:10198000EE0087FFD9C081E08093E9003091EC0040
:101990008091ED002091F00081FF19C09091EB0043
:1019A0009E7F9093EB009091ED009D7F9093ED00D2
:1019B0009091EB0091609093EB003093EC0080935A
:1019C000ED002093F0008091EE0087FFB5C082E02B
:1019D0008093E9003091EC009091ED002091F000AF
:1019E00091FF19C08091EB008E7F8093EB00809176
:1019F000ED008D7F8093ED008091EB0081608093FE
:101A0000EB003093EC009093ED002093F000809178
:101A1000EE0087FF91C083E08093E9003091EC00F5
:101A20008091ED002091F00081FF19C09091EB00B2
:101A30009E7F9093EB009091ED009D7F9093ED0041
:101A40009091EB0091609093EB003093EC008093C9
:101A5000ED002093F0008091EE0087FF6DC084E0E0
:101A60008093E9003091EC009091ED002091F0001E
:101A700091FF19C08091EB008E7F8093EB008091E5
:101A8000ED008D7F8093ED008091EB00816080936D
:101A9000EB003093EC009093ED002093F0008091E8
:101AA000EE0087FF49C085E08093E9003091EC00AB
:101AB0009091ED002091F00091FF19C08091EB0012
:101AC0008E7F8093EB008091ED008D7F8093ED0001
:101AD0008091EB0081608093EB003093EC00909359
:101AE000ED002093F0008091EE0087FF25C086E096
:101AF0008093E9003091EC008091ED002091F0009E
:101B000081FF18C09091EB009E7F9093EB00909125
:101B1000ED009D7F9093ED009091EB00916090938C
:101B2000EB003093EC008093ED002093F000809167
:101B3000EE0087FD1092E9009F918F913F912F91C8
:101B40000F900FBE0F901F9018958091DA008E7F36
:101B50008093DA008091D90080FF29C080E189BD9F
:101B600082E189BD09B400FEFDCF81E080939C0134
:101B700097CE8091E2008E7F8093E2008091E20018
:101B800080618093E2008091D80080628093D800C9
:101B900019BC85E080939C018BCE8091E1008B7F06
:101BA0008093E10075CE84E080939C01AFCE19BC98
:101BB00010929C0175CE83E0A7CEFC018AE291E0F1
:101BC0009183808312821382148215828AE090E0CE
:101BD0009783868310860895CF93DF93CDB7DEB7C2
:101BE000E4970FB6F894DEBF0FBECDBF789484B5EE
:101BF000826084BD84B5816084BD85B5826085BD09
:101C000085B5816085BD80916E00816080936E0096
:101C10001092810080918100826080938100809188
:101C20008100816080938100809180008160809339
:101C3000800080919100826080939100809191005A
:101C400081608093910080919000816080939000EA
:101C50008091C10084608093C1008091C100826046
:101C60008093C1008091C10081608093C100809108
:101C7000C30081608093C3008091C0008260809324
:101C8000C0008091C20081608093C20080917A0080
:101C9000846080937A0080917A00826080937A00D9
:101CA00080917A00816080937A0080917A008068C8
:101CB00080937A008DE991E00E94BC048DE991E067
:101CC0000E944B098DE991E00E944D042091C101D1
:101CD0003091C2018091B0019091B10193FF93C600
:101CE00082E090E09093C2018093C10112E0281736
:101CF0003907D1F090E080E00E94CB16811729F0DF
:101D0000612F90E080E00E94D31681E090E00E9475
:101D1000CB16882329F060E081E090E00E94D31682
:101D20008091C1019091C20190937A0180937901D1
:101D3000909374018093730184B7877F84BF0FB63B
:101D4000F894A8958091600088618093600010925B
:101D500060000FBE80E830E020E00FB6F89480937A
:101D60006100209361000FBE8091D8008F7E809328
:101D7000D8008091D70081608093D70084E082BF33
:101D800091E0909378018091D8008E7F8093D80065
:101D90001092E2001092DA001092E1008091D800D7
:101DA0008F778093D8008091D80080688093D80086
:101DB0008091D8008F7D8093D80019BC10929C012F
:101DC0001092770110927601109275018091E000D7
:101DD0008B7F8093E0008091D80081608093D80051
:101DE0001092E9008091EB008E7F8093EB00809150
:101DF000ED008D7F8093ED008091EB0081608093FA
:101E0000EB001092EC0082E38093ED001092F00062
:101E10008091EE0087FFD8C09093E9003091EC00EC
:101E20009091ED002091F00091FF19C08091EB009E
:101E30008E7F8093EB008091ED008D7F8093ED008D
:101E40008091EB0081608093EB003093EC009093E5
:101E5000ED002093F0008091EE0087FFB5C082E096
:101E60008093E9003091EC009091ED002091F0001A
:101E700091FF19C08091EB008E7F8093EB008091E1
:101E8000ED008D7F8093ED008091EB008160809369
:101E9000EB003093EC009093ED002093F0008091E4
:101EA000EE0087FF91C083E08093E9003091EC0061
:101EB0009091ED002091F00091FF19C08091EB000E
:101EC0008E7F8093EB008091ED008D7F8093ED00FD
:101ED0008091EB0081608093EB003093EC00909355
:101EE000ED002093F0008091EE0087FF6DC084E04C
:101EF0008093E9003091EC009091ED002091F0008A
:101F000091FF19C08091EB008E7F8093EB00809150
:101F1000ED008D7F8093ED008091EB0081608093D8
:101F2000EB003093EC009093ED002093F000809153
:101F3000EE0087FF49C085E08093E9003091EC0016
:101F40009091ED002091F00091FF19C08091EB007D
:101F50008E7F8093EB008091ED008D7F8093ED006C
:101F60008091EB0081608093EB003093EC009093C4
:101F7000ED002093F0008091EE0087FF25C086E001
:101F80008093E9003091EC009091ED002091F000F9
:101F900091FF18C08091EB008E7F8093EB008091C1
:101FA000ED008D7F8093ED008091EB008160809348
:101FB000EB003093EC009093ED002093F0008091C3
:101FC000EE0087FD1092E9008091E1008E7F809302
:101FD000E1008091E20081608093E2008091E20064
:101FE00088608093E2008091E0008E7F8093E00023
:101FF0008091D80080618093D800789490E0892EF9
:1020000090E0992E01E012E084E1282E33B129B14D
:102010002095EFB1E0951092BD011092BE014E2FB8
:1020200050E0CA01959587959595879595958795E3
:1020300095958795959587958270BA017595679561
:1020400075956795759567956470862BEE1FEE27DD
:10205000EE1F8E2B559547954870842B9091AF01BC
:10206000907F892B8093AF013095432F50E0C32E92
:10207000C694C694CCAA3295330F330F307C3BAB59
:10208000CA0182959295907F9827807F98278072C9
:102090009927BA01660F771F60787727862B972BD1
:1020A000322F3F71832BBA01660F771F62957295AD
:1020B000707F7627607F762766277170862B972B37
:1020C0005695542F44275795479544275270842B93
:1020D000952B4BA95CA944275470842B952B4BA9B5
:1020E0005CA944275870842B952B25952074822B4E
:1020F0009093B1018093B001B8ECAB2EB1E0BB2E50
:102100001EC02FB7F89480917B0190917C01A09123
:102110007D01B0917E012FBFF50182839383A4835B
:10212000B58390859127908792FD9EC0B6E1AB0E56
:10213000B11CE4E5AE16E3E0BE0609F4B2C0D50179
:1021400018969C9118979B7F18969C931897ED91E1
:10215000FC910190F081E02DB4E0E733FB0709F03A
:10216000EAC1D5015496ED91FC91559752964D9147
:102170005C91539751968C918111D9C12181328103
:102180002423352381E0232B09F480E09695917078
:102190008913B7CF9FB7F89440917B0150917C0190
:1021A00060917D0170917E019FBFD50112964D9087
:1021B0005D906D907C9015976A017B01C418D508DD
:1021C000E608F7082601370116964D915C9117979E
:1021D00070E060E0441655066606770608F4B0C164
:1021E00018969C91292F2170821709F49DCF2FB743
:1021F000F89480917B0190917C01A0917D01B09138
:102200007E012FBFF50182839383A483B5838085EC
:102210008027846080872FB7F89480917B0190910C
:102220007C01A0917D01B0917E012FBF4185528537
:1022300063857485841B950BA60BB70B85879687E2
:10224000A787B08B2FB7F89480917B0190917C0188
:10225000A0917D01B0917E012FBF81879287A387D6
:10226000B487908592FF62CFD50151968C9151979A
:1022700052962D913C9190FF66C1882309F470C15C
:102280008091AF01282B2F70807F282B2093AF01E6
:10229000B6E1AB0EB11CE4E5AE16E3E0BE0609F014
:1022A0004ECF8091B0019091B1012091AF01322FBA
:1022B0003F70AC01442753704115534009F068C189
:1022C0004091BF015091C0019C7F9093B1018093D8
:1022D000B00122FF45C2CC24C394D12CD092C001BE
:1022E000C092BF01207F2093AF01BB24B39421E0B3
:1022F00030E04217530709F41DC281E090E00E94CC
:10230000CB168B1529F06B2D81E090E00E94D3163F
:1023100082E090E00E94CB16882329F060E082E002
:1023200090E00E94D3168091B0019091B10130915C
:10233000AF013F706091C3017091C401232F4091A0
:10234000BF015091C0019093B4018093B3016130FB
:10235000710509F48AC208F447C26230710569F454
:10236000832F8370833009F409C3822F3C703C3083
:1023700009F4FAC220937F01282F8091B201807F57
:10238000922F9F70892B8093B2014130510509F43F
:10239000F7C14230510509F0AFC1922F9C703091C6
:1023A000C601332309F43FC2A090B501B090B60135
:1023B0006091B7017091B801943009F449C24FEFB0
:1023C0005FEF983011F04FEF5FE75093BA01409301
:1023D000B9012370213009F445C2223009F0ACC2A2
:1023E00030E020E03093BC012093BB01807F8093DC
:1023F000B20180E1EFEAF1E0DE01119601900D9269
:102400008A95E1F78091B3019091B4017090BD017C
:102410006090BE01E0E13E2EEFE9F1E0DE01519671
:1024200001900D923A94E1F7EC81FC89EF27EF706F
:1024300041F4E091A301F091A4018E179F0709F4E4
:102440001BC2E091C101F091C201309709F4D8C0DC
:10245000319709F05CC0EB2D672FF52FB32EA091BB
:10246000B201AF70A15078E0AA3020F4B0E0A45DD2
:10247000BE4F7C919C01220F331F82FBBB27B0F91A
:10248000B9AB1AAAA90142705527C9A8DAA84C29E4
:102490005D29887F9F73842B952B24703327282BED
:1024A000392B3AA329A37BA3ECA36DA3FEA3BFA260
:1024B00088E0FE01B196DE01999601900D928A9511
:1024C000E1F788E0FE01B996A0E8B1E001900D9235
:1024D0008A95E1F780919C01843009F40AC18091CA
:1024E0009C018823A1F08091E9008F70B82E809123
:1024F000EC0080FF02C06894B7F81092E900809168
:10250000E80083FD16C28B2D8F708093E90080E177
:10251000EFEAF1E0AFE9B1E001900D928A95E1F7C1
:102520008114910409F472CD0E9400006BCD2081CA
:102530002F7030E025CEC5010995F501908526CE96
:1025400018969C91F1CD8823B1F08091AF01982F1E
:102550009F7020952923807F282B2093AF01E6CD03
:102560008091B0019091B101282B392B3093B101AA
:102570002093B001DBCD209530958091B0019091F2
:10258000B101282339233093B1012093B001CECD7E
:102590006091C3017091C401AC0144275C70411586
:1025A0005C4009F0CBCE937F9093B1018093B00152
:1025B00020FFC5C11092C4011092C301207F209357
:1025C000AF01B12C30E020E06217730709F4B6C008
:1025D00082E090E00E94CB168B1529F06B2D82E0F3
:1025E00090E00E94D31683E090E00E94CB168823EF
:1025F00009F499CE60E083E090E00E94D31693CE78
:10260000A0E8BA1A7058FA01F058D901B0589C01E4
:1026100036952795329522952F7023273F702327D3
:102620002071AC0156954795569547955695479517
:10263000542F5072522B3091B2013F70252F232B13
:10264000AC01529542954F7045275F704527542F36
:102650005074522B242F2078522B292F2695269503
:1026600024704370422B282F2295207F322F307107
:10267000432B322F3072342B422F4074432B20785F
:10268000422B2091C501211115C09C010024220F6D
:10269000331F001C220F331F001C232F302D2170ED
:1026A000722E7194880F892F881F990B91958170D4
:1026B000682E61942092890150938A0140938B0186
:1026C00070928C0160928D01B0928F01A0928E0168
:1026D0007093910160939001F0939301E0939201C4
:1026E000B0939501A093940180919C01843009F0EE
:1026F000F6CE0E94610AF3CE8091C601882309F4C8
:10270000E4C0A090B501B090B6016091B70170919E
:10271000B8018091C7018111EDC04FEF5FE7509381
:10272000BA014093B9015093BC014093BB012FEF14
:102730003FE75FCE2091C3013091C4019093B40173
:102740008093B3012115310509F429C122303105E7
:1027500009F41EC120E04091BF015091C0010DCE8F
:1027600023FFDAC062E070E07093C0016093BF01A4
:10277000207F2093AF0162E0B62E22E030E0B9CD99
:10278000922F9C70B12CA12C943031F0AA24AA94E1
:10279000BA2C983009F0E3C0B092B601A092B5010E
:1027A00023706FEF7FEF213031F070E060E0223076
:1027B00011F06FEF7FE77093B8016093B7019091CC
:1027C000C7019111A0C0CC24CA949FE7D92ED09202
:1027D000BA01C092B901D092BC01C092BB012FEFE7
:1027E0003FE74FEF5FE702CE832F8370833009F41A
:1027F0002D7F3C703C3009F0C0CD237F8091B20129
:10280000807F922F9F70892B8093B20141305105B8
:1028100009F4A5C04230510509F06ECF90E0309127
:10282000C6013111C1CDEE24EA94AFE7FA2EF09241
:10283000B601E092B501F092B801E092B7016FEFF6
:102840007FE7AA24AA94BFE7BB2E943009F0B7CD46
:1028500050E040E05093BA014093B9012370213019
:1028600009F0BBCD2FEF3FEFBDCD832F83708330B9
:1028700009F0BFCF2C7FBDCFE091AD017E12E1CD3D
:10288000E091AE016E12DDCDE091A501F091A601BF
:10289000EA15FB0509F0D5CDE091A701F091A8015B
:1028A000E617F70709F0CDCDE091A901F091AA0153
:1028B000E417F50709F0C5CDE091AB01F091AC014B
:1028C000E217F30709F0BDCD0ACE2FEF3FE73093B3
:1028D000B6012093B5013093B8012093B7016FEF93
:1028E0007FE7AA24AA94FFE7BF2E8091C70188231F
:1028F00009F413CF4091B9015091BA012091BB0165
:102900003091BC0176CD4091B9015091BA0120912E
:10291000BB013091BC016ACD21FF48C01092C001BB
:102920001092BF01207F2093AF01B12C30E020E056
:10293000E0CC0E944405E7CD2FEF3FE753CD21FFC8
:1029400046C0E1E0F0E0F093C401E093C301207FD2
:102950002093AF01BB24B39421E030E035CEAA240C
:10296000AA943FE7B32E18CF90917F019C709430CA
:1029700009F441C09830E9F5877FFCCC80917F0154
:1029800083708130E9F18230C1F5822F8D7FEECCEA
:1029900020E030E04091BF015091C001E1CC30E037
:1029A00020E04091BF015091C00123CF20FF1FC004
:1029B000207F2093AF0190619093B1018093B0018B
:1029C00030E020E06091C3017091C401BCCC22FFD3
:1029D000B5CC42E050E05093C4014093C301207F46
:1029E0002093AF0152E0B52E22E030E0EDCD232F51
:1029F000E9CF837FBFCC8B7FBDCC822F8C7FB6CCC1
:102A0000822F8E7FB3CC90FF08C081E090E090933E
:102A1000C2018093C10111E06AC991FF08C0109200
:102A2000C2011092C10110E090E080E060C9C901CC
:102A30007BC98F929F92AF92BF92CF92DF92EF921B
:102A4000FF920F931F93CF93DF938AE091E09093CF
:102A50009E0180939D011092C0011092BF011092BF
:102A6000C2011092C1011092C4011092C3011092D0
:102A7000C5011092C6011092C70188EC91E00E9436
:102A8000DD0D04E011E01093C9010093C801FF249B
:102A9000F394F092D90188248394912C9092DB01D5
:102AA0008092DA01C5E0D0E0D093CF01C093CE018F
:102AB0008EED91E00E94DD0D1093DF010093DE01A9
:102AC000F092EF0192E0A92EB12CB092F101A09208
:102AD000F001D093E501C093E40184EF91E00E94FE
:102AE000DD0D1093F5010093F401F092050224E04E
:102AF000C22ED12CD0920702C0920602D093FB01C5
:102B0000C093FA018AE092E00E94DD0D10930B025F
:102B100000930A02F0921B0238E0E32EF12CF092AF
:102B20001D02E0921C02D0931102C093100280E2B9
:102B300092E00E94DD0D109321020093200210927A
:102B400031029092330280923202D0932702C093D6
:102B5000260286E392E00E94DD0D10933702009377
:102B6000360210924702B0924902A0924802D093D6
:102B70003D02C0933C028CE492E00E94DD0D109374
:102B80004D0200934C0210925D02D0925F02C092FF
:102B90005E02D0935302C093520282E692E00E94FA
:102BA000DD0D109363020093620210927302F092A3
:102BB0007502E0927402D0936902C093680288E7BC
:102BC00092E00E94DD0D109379020093780210923A
:102BD000890280E190E090938B0280938A02D093E7
:102BE0007F02C0937E028EE892E00E94DD0D10937A
:102BF0008F0200938E0210929F0280E290E09093E9
:102C0000A1028093A002D0939502C093940284EA1B
:102C100092E00E94DD0D1093A5020093A402109291
:102C2000B50280E490E09093B7028093B602D0930F
:102C3000AB02C093AA028AEB92E00E94DD0D1093D2
:102C4000BB020093BA021092CB0280E890E090930E
:102C5000CD028093CC02D093C102C093C00280ED1C
:102C600092E00E94DD0D1093D1020093D0021092E9
:102C7000E10280E091E09093E3028093E202D0933E
:102C8000D702C093D60286EE92E00E94DD0D10932B
:102C9000E7020093E6021092F70280E092E0909340
:102CA000F9028093F802D093ED02C093EC028CEF0E
:102CB00092E00E94DD0D1093FD020093FC02109241
:102CC0000D0380E094E090930F0380930E03D09364
:102CD0000303C093020382E193E00E94DD0D109391
:102CE0001303009312031092230380E098E0909363
:102CF000250380932403D0931903C093180388E21B
:102D000093E00E94DD0D1093290300932803109295
:102D1000390380E090E190933B0380933A03D09392
:102D20002F03C0932E038EE393E00E94DD0D1093DA
:102D30003F0300933E0310924F0380E090E2909394
:102D4000510380935003D0934503C0934403ECEDAB
:102D5000F1E08FEA91E091838083769623E0E83674
:102D6000F207C9F78AE191E090939E0180939D015B
:102D70001092C5011092C6011092C701DF91CF9148
:102D80001F910F91FF90EF90DF90CF90BF90AF9089
:102D90009F908F900895F999FECF92BD81BDF89ACA
:102DA000992780B50895262FF999FECF1FBA92BDB5
:102DB00081BD20BD0FB6F894FA9AF99A0FBE01961C
:102DC0000895EE0FFF1F0590F491E02D099481E026
:102DD00090E0F8940C94F316DC0101C06D9341501F
:0A2DE0005040E0F70895F894FFCF8B
:102DEA00000000003704000000004B09CF04CF04A4
:102DFA0087092C042104000000004B09BC044D047F
:102E0A0087092C042104000000005F0A0004080658
:062E1A0007050802010398
:00000001FF
