:100000000C94D0010C94F8010C94F8010C94F801B4
:100010000C94F8010C94F8010C94F8010C94F8017C
:100020000C94F8010C94F8010C942B0C0C94F8012E
:100030000C94F8010C94F8010C94F8010C94F8015C
:100040000C94F8010C94F8010C94F8010C94F8014C
:100050000C94F8010C94F8010C94F8010C94E10B49
:100060000C94F8010C94F8010C94F8010C94F8012C
:100070000C94F8010C94F8010C94F8010C94F8011C
:100080000C94F8010C94F8010C94F8010C94F8010C
:100090000C94F8010C94F8010C94F8010C94F801FC
:1000A0000C94F8010C94F8010C94F80109029900E1
:1000B000040100A0FA0904000002FF5D0100112103
:1000C0000001012581140000000013010800000751
:1000D0000581032000010705010320000809040130
:1000E0000004FF5D03001B210001010182400102A9
:1000F000201683000000000000160300000000002E
:100100000007058203200002070502032000040700
:1001100005830320004007050303200010090402A3
:100120000001FF5D02000921000101228407000790
:100130000584032000100904030000FFFD130406DA
:1001400041000101030902290001010080FA0904AC
:1001500000000203000000092111010001225600E5
:100160000705020340000107058103400001050166
:100170000905A101150025013500450175019510FE
:10018000050919012910810205012507463B017562
:1001900004950165140939814265009501810126A4
:1001A000FF0046FF0009300931093209357508950D
:1001B0000481020600FF0920950181020A2126958B
:1001C000089102C00902290001010080FA09040017
:1001D0000002030000000921110100012294000720
:1001E00005020340000107058103400001092111B8
:1001F00001000122940005010904A101A102850169
:1002000075089501150026FF0081037501951315EA
:1002100000250135004501050919012913810275E1
:1002200001950D0600FF8103150026FF0005010959
:1002300001A10075089504350046FF000930093119
:10024000093209358102C005017508952709018128
:10025000027508953009019102750895300901B1C0
:1002600002C0A1028502750895300901B102C0A142
:100270000285EE750895300901B102C0A10285EF33
:10028000750895300901B102C0C012010002FFFFDC
:10029000FF405E048E0214010102030112010002FC
:1002A000000000400D0F9200000101020001120148
:1002B0000002000000404C0568020001010200013C
:1002C0003003580049006E00700075007400200073
:1002D0005300540041004E004400410052004400CD
:1002E0002000470041004D004500500041004400FF
:1002F000000014034D006900630072006F0073007A
:100300006F00660074000000240350004F004B0093
:100310004B0045004E00200043004F004E005400AB
:1003200052004F004C004C004500520000001C03DE
:1003300048004F0052004900200043004F002E00AB
:100340002C004C00540044002E0000000803310033
:100350002E0030000000360350004C0041005900D0
:10036000530054004100540049004F004E00280043
:10037000520029003300200043006F006E0074001B
:1003800072006F006C006C006500720000000A03D0
:1003900053006F006E007900000004030904051586
:1003A00011241FBECFEFDAE0DEBFCDBF11E0A0E029
:1003B000B1E0E2E9FDE202C005900D92A633B1077B
:1003C000D9F723E0A6E3B1E001C01D92A637B2073A
:1003D000E1F711E0C0EDD1E004C02197FE010E94D9
:1003E000B516CF3CD107C9F70E94E00D0C94C71693
:1003F0000C94000081FFD5C091E09093E9009091AA
:10040000EB009E7F9093EB009091ED009D7F909389
:10041000ED009091EB0091609093EB0091EC909344
:10042000EC008093ED001092F0008091EE0087FFC9
:10043000DFC082E08093E9003091EC008091ED0014
:100440002091F00081FF19C09091EB009E7F909366
:10045000EB009091ED009D7F9093ED009091EB006B
:1004600091609093EB003093EC008093ED0020932B
:10047000F0008091EE0087FFBBC083E08093E9002D
:100480003091EC009091ED002091F00091FF19C0A7
:100490008091EB008E7F8093EB008091ED008D7F4B
:1004A0008093ED008091EB0081608093EB003093AE
:1004B000EC009093ED002093F0008091EE0087FF18
:1004C00097C084E08093E9003091EC008091ED00CA
:1004D0002091F00081FF19C09091EB009E7F9093D6
:1004E000EB009091ED009D7F9093ED009091EB00DB
:1004F00091609093EB003093EC008093ED0020939B
:10050000F0008091EE0087FF73C085E08093E900E2
:100510003091EC008091ED002091F00081FF19C036
:100520009091EB009E7F9093EB009091ED009D7F6A
:100530009093ED009091EB0091609093EB003093DD
:10054000EC008093ED002093F0008091EE0087FF97
:100550004FC086E08093E9003091EC008091ED007F
:100560002091F00081FF19C09091EB009E7F909345
:10057000EB009091ED009D7F9093ED009091EB004A
:1005800091609093EB003093EC008093ED0020930A
:10059000F0008091EE0087FF2BC081E08093E9009E
:1005A000089581E08093E90082E08093E900309132
:1005B000EC008091ED002091F00081FF1BC0909134
:1005C000EB009E7F9093EB009091ED009D7F9093C8
:1005D000ED009091EB0091609093EB003093EC0074
:1005E0008093ED002093F0008091EE0087FD02C023
:1005F00080E0089583E08093E9003091EC008091E1
:10060000ED002091F00081FF5CCF9091EB009E7F88
:100610009093EB009091ED009D7F9093ED00909171
:10062000EB0091609093EB003093EC008093ED0031
:100630002093F0008091EE0087FD43CFD9CF81FF5A
:10064000B2C092E09093E9009091EB009E7F90936E
:10065000EB009091ED009D7F9093ED009091EB0069
:1006600091609093EB0090EC9093EC008093ED0000
:100670001092F0008091EE0087FFBCC083E0809371
:10068000E9003091EC008091ED002091F00081FFB5
:1006900019C09091EB009E7F9093EB009091ED003C
:1006A0009D7F9093ED009091EB0091609093EB0013
:1006B0003093EC008093ED002093F0008091EE00E9
:1006C00087FF98C084E08093E9003091EC0090911E
:1006D000ED002091F00091FF19C08091EB008E7F1A
:1006E0008093EB008091ED008D7F8093ED008091F1
:1006F000EB0081608093EB003093EC009093ED0071
:100700002093F0008091EE0087FF74C085E0809315
:10071000E9003091EC008091ED002091F00081FF24
:1007200019C09091EB009E7F9093EB009091ED00AB
:100730009D7F9093ED009091EB0091609093EB0082
:100740003093EC008093ED002093F0008091EE0058
:1007500087FF50C086E08093E9003091EC008091E3
:10076000ED002091F00081FF19C09091EB009E7F79
:100770009093EB009091ED009D7F9093ED00909110
:10078000EB0091609093EB003093EC008093ED00D0
:100790002093F0008091EE0087FF2CC082E08093D0
:1007A000E90081E0089582E08093E90083E080938E
:1007B000E9003091EC008091ED002091F00081FF84
:1007C0001BC09091EB009E7F9093EB009091ED0009
:1007D0009D7F9093ED009091EB0091609093EB00E2
:1007E0003093EC008093ED002093F0008091EE00B8
:1007F00087FD02C080E0089584E08093E900309195
:10080000EC008091ED002091F00081FF7FCF90916E
:10081000EB009E7F9093EB009091ED009D7F909375
:10082000ED009091EB0091609093EB003093EC0021
:100830008093ED002093F0008091EE0087FD66CF5D
:10084000D9CFFC012489358922273C7081E021150C
:100850003C4009F080E00895FC0124893589222775
:10086000337081E02115334009F080E00895FC01E8
:10087000A689B78982899389218921110AC0119695
:100880002D913C912823392381E0232B09F480E02A
:1008900008952C912F7030E0F5CFFC0163B149B180
:1008A00040955FB1509513A211A212A2252F30E0FE
:1008B000C901959587959595879595958795959572
:1008C0008795959587958270D901B595A795B5952A
:1008D000A795B595A795A4708A2B551F5527551F29
:1008E000852B359527952870822B9389907F892BAE
:1008F000838B262F2095622F70E0922F96959695E8
:10090000822F8295880F880F807C9B0122953295DB
:10091000307F3227207F322720723327DB01AA0F56
:10092000BB1FA078BB272A2B3B2B542F5F71252B95
:10093000DB01AA0FBB1FA295B295B07FBA27A07F9B
:10094000BA27AA27B1702A2B3B2B7695762F6627DC
:100950007795679566277270262B372BBC01662723
:100960007470262B372B88279870282B392B4595A8
:100970004074242B358B248B089584B1817884B9FD
:100980008AB180768AB980B38F7080BB85B18E675B
:1009900085B98BB18F698BB981B3806F81BB0895A5
:1009A0000895FC0120916C0130916D01621773076D
:1009B00008F49B0140E02115310521F512C090910A
:1009C0009B01992319F1953099F19091E80093FDDD
:1009D00031C09091E80092FD25C09091E80090FD13
:1009E0004DC04111ECCF1EC0953011F19091E8003F
:1009F00093FD20C09091E80092FD14C09091E80012
:100A000090FD1AC090919B019111EECF82E0089564
:100A100080919B018823D1F3853051F08091E800CB
:100A200083FD08C08091E80082FFF2CF80E0089546
:100A300083E0089581E008956091F3008091F200D1
:100A4000762F682F6034710520F00DC06034710579
:100A500051F081918093F100215031096F5F7F4FF8
:100A60002115310599F741E06034710509F040E046
:100A70008091E8008E778093E8009DCF6091F3002D
:100A80008091F200762F682FEECFCF93DF93CDB712
:100A9000DEB7AA970FB6F894DEBF0FBECDBF909118
:100AA000F100909366018091F1008093670120919D
:100AB000F100209368012091F100209369012091B9
:100AC000F10020936A012091F10020936B012091A5
:100AD000F10020936C012091F10020936D01209191
:100AE000790130917A01232B09F083C0813009F01C
:100AF00080C0913A09F464C02091E80023FF49C006
:100B0000992309F43EC2923009F043C080916801F4
:100B1000811126C080916A018F709FEF980F9630E7
:100B2000C0F58093E9009091EB0090FF19C090917F
:100B30006701933009F41BC39091EB00906190938F
:100B4000EB0021E030E001C0220F8A95EAF7209304
:100B5000EA001092EA008091EB0088608093EB003D
:100B60001092E9008091E800877F8093E8008091EF
:100B7000660187FF05C0FBC180919B01882349F076
:100B80008091E80080FFF8CF8091E8008E77809315
:100B9000E8008091E80083FF0AC08091E800877F29
:100BA0008093E8008091EB0080628093EB00AA962E
:100BB0000FB6F894DEBF0FBECDBFDF91CF91089581
:100BC0008091E800877F8093E8008091790190917F
:100BD0007A01009709F439C2029731F460E470E0B9
:100BE00086E391E00E94D1048091E8008B778093A6
:100BF000E8008091E80083FFCCCF9091660180915E
:100C000067018A3030F6E82FF0E0E75FF94F0C9487
:100C1000B5164E078005C9058005C9058007F7068A
:100C2000C905D70613069111B4CF809168018230AF
:100C300008F0AFCF9091E800977F9093E800809301
:100C400077019091660197FF05C0CEC190919B01FD
:100C5000992359F09091E80090FFF8CF8091E80037
:100C60008E778093E80080917701882309F45EC233
:100C700084E080939B018091790190917A01813089
:100C8000910509F44CC2029709F449C283E08093AC
:100C9000E9008091EB008E7F8093EB008091ED0066
:100CA0008D7F8093ED008091EB0081608093EB005D
:100CB00081EC8093EC0082E28093ED001092F000D2
:100CC0008091EE0087FF6FC084E08093E90030914F
:100CD000EC009091ED002091F00091FF19C08091FF
:100CE000EB008E7F8093EB008091ED008D7F8093F1
:100CF000ED008091EB0081608093EB003093EC007D
:100D00009093ED002093F0008091EE0087FF4BC0A0
:100D100085E08093E9003091EC009091ED00209106
:100D2000F00091FF19C08091EB008E7F8093EB0063
:100D30008091ED008D7F8093ED008091EB008160CC
:100D40008093EB003093EC009093ED002093F00043
:100D50008091EE0087FF27C086E08093E900309104
:100D6000EC009091ED002091F00091FF19C080916E
:100D7000EB008E7F8093EB008091ED008D7F809360
:100D8000ED008091EB0081608093EB003093EC00EC
:100D90009093ED002093F0008091EE0087FF03C058
:100DA00083E08093E90082E20E94FA01F2CE90385B
:100DB00009F0EFCE8091E800877F8093E800809172
:100DC00077018093F1008091E8008E778093E800AE
:100DD0008091660187FF06C0FDC080919B0188233A
:100DE00009F4D7CE8091E80080FFF7CFCDCE9058A0
:100DF000923008F0CECE80916801909169018C3DCF
:100E000023E0920709F431C1292F33274091730160
:100E1000509174014130510509F45EC142305105D1
:100E200009F06CC12330310509F4CEC108F493C137
:100E30002132310509F4ECC184E990E0E6EFF1E0FC
:100E40002232310509F0A5CE2091E800277F2093BA
:100E5000E80020916C0130916D018217930708F42E
:100E60009C0140E02115310509F0D9C014C08091E2
:100E70009B01882309F47FC0853009F47CC08091F0
:100E8000E80083FD78C08091E80082FDD9C08091A0
:100E9000E80080FDE0C14111EACFD2C0903809F4EA
:100EA000DBC0923809F075CE80916A018F7087306F
:100EB00008F06FCE8093E9008091EB0085FB8827D6
:100EC00080F91092E9009091E800977F9093E800F4
:100ED0008093F1001092F1008091E8008E7780936A
:100EE000E8008091660187FF06C06AC080919B017F
:100EF000882309F44ECE8091E80080FFF7CF44CEDE
:100F0000911147CE909168019F778091E30080789E
:100F1000892B8093E3008091E800877F8093E8002D
:100F20008091660187FF05C03CC080919B018823AA
:100F300049F08091E80080FFF8CF8091E8008E773B
:100F40008093E8008091E80080FFFCCF8091E3006F
:100F500080688093E30083E0911101C082E0809378
:100F60009B0117CE80919B01882309F412CE8091BA
:100F7000E80082FFF7CF8091E8008B778093E8004C
:100F800008CE90916801913009F003CE91E0833052
:100F900009F090E090937601E3CD80919B01882346
:100FA00089F28091E80082FFF8CF8091E8008B778A
:100FB0008093E800C7CF80919B01882309F4E9CD95
:100FC0008091E80082FFF7CFD6CF80919B018823E4
:100FD00009F4DFCD8091E80082FFF7CFCCCF90916C
:100FE0009B01992309F441CE9091E80092FFF7CF3D
:100FF0008091E8008B778093E8008091770135CE6F
:10100000853009F4B8CF8091E80083FDB4CF80919A
:10101000E80082FD15C08091E80080FDB3C080919A
:101020009B018111EDCFA7CF80919B01882309F40B
:10103000A2CF853009F49FCF8091E80083FD9BCF3C
:101040008091E80082FFF0CF96CF64E170E087E8FE
:1010500091E00E94D104C8CD8091750190917601F4
:10106000992309F430CF82602ECF83E08A838AE20D
:1010700089835FB7F894DE01139680E09EE041E239
:1010800007C0295C3F4F2D933D938F5F843191F0D2
:10109000E92FF0E040935700E49180FF03C0E29510
:1010A000EF709F5FEF702E2F30E0EA3050F7205D39
:1010B0003F4FE9CF5FBF8091E800877F8093E800D2
:1010C0006AE270E0CE0101960E94D1048091E800AE
:1010D0008B778093E8005DCD2330310509F4A2C001
:1010E00068F12132310509F4ACC086E590E0EEE606
:1010F000F1E02232310509F4A7CE4BCD2230310583
:1011000009F4A4C02330310509F474C082E190E0F1
:10111000EAE8F2E02130310509F03BCD95CE82E3DB
:101120000E941F0382E30E94FA0133CD8091E30005
:1011300087FD85C081E080939B019DCD21303105E5
:1011400009F46BC089E290E0E5E4F1E0223031057A
:1011500009F47ACE1ECD2130310579F089E290E094
:10116000E4ECF1E02230310509F46ECE12CD80912D
:10117000EB0080628093EB00F3CC82E190E0EEEA3A
:10118000F2E062CE8091F3009091F20089279827D7
:1011900089278034910568F444914093F100319699
:1011A0002150310901962115310519F0803491053E
:1011B00099F741E08034910509F040E08091E80022
:1011C0008E778093E8004ECE99278130910509F4FF
:1011D0005EC008F457C08230910509F44EC00397F1
:1011E00009F0D7CCECE4F3E0849190E0009709F4A7
:1011F000D0CC2ACE992781309105A9F108F442C0BC
:101200008230910561F7E0ECF2E0849190E0EECF5E
:1012100089E090E0EDEEF1E017CE82E190E0ECE9BC
:10122000F2E012CE99278130910511F158F1823008
:101230009105A9F6E8E0F3E0849190E0D7CF84E04F
:101240007ACF89E090E0E7E5F1E0FECD89E990E032
:10125000ECEAF0E0F9CD8091F3009091F20089275B
:1012600098278927A6CFE2EFF2E0849190E0BECFE5
:10127000EEE2F3E0849190E0B9CFE6E5F3E084910B
:1012800090E0B4CFEAE9F3E0849190E0AFCFEEE8EC
:10129000F3E0849190E0AACFCF93DF93EC0190E04C
:1012A00080E00E949F168EA381E090E00E949F162E
:1012B0008FA381E090E00E949F168CA382E090E0D3
:1012C0000E949F168DA382E090E00E949F1688A73F
:1012D00083E090E00E949F1689A788A599A52EA17A
:1012E0003FA12330310510F01FA21EA22CA13DA169
:1012F0002330310510F01DA21CA2029710F019A690
:1013000018A6DF91CF910895FF920F931F93CF936B
:10131000DF93EC01A881B9811896ED91FC911997A2
:1013200044E0EC32F40711F58C899D899C01222759
:1013300033702115334001F11A96ED91FC9184E050
:10134000E132F80709F057C08C899D899C0122275A
:101350003C7021153C4009F455C010E000E0C80184
:10136000DF91CF911F910F91FF90089509958823E8
:1013700009F48CC08C899D894CA15DA19C7F9D8BBB
:101380008C8B2B8922FF2AC081E090E09DA38CA347
:10139000207F2B8B02E010E04817590701F3FCA0D7
:1013A00081E090E00E949F16F81629F06F2D81E0F1
:1013B00090E00E94A716CDA182E090E00E949F16C7
:1013C000C81769F26C2F82E090E00E94A716C8014E
:1013D000DF91CF911F910F91FF90089523FD44C09D
:1013E00021FF57C01DA21CA2207F2B8B90E080E024
:1013F00001E010E0D1CFCE010995882309F4ADCFEB
:101400008C899D8928A539A5937F9D8B8C8B8B8991
:1014100080FD33C081FFA1CF41E050E059A748A72C
:10142000807F8B8B81E090E000E410E02817390783
:1014300009F495CFF8A482E090E00E949F16F81678
:1014400029F06F2D82E090E00E94A716C9A583E0E5
:1014500090E00E949F16C81709F481CF6C2F83E09B
:1014600090E00E94A7167BCF82E090E09DA38CA322
:10147000207F2B8B04E010E08FCF19A618A6807F69
:101480008B8B90E080E000E210E0D0CFA881B981A2
:1014900053CF20FF62CF207F2B8B90619D8B8C8B55
:1014A00008E010E05CCF0E94BB16AF92BF92CF92D3
:1014B000DF92EF92FF920F931F93CF93DF93CDB7FD
:1014C000DEB728970FB6F894DEBF0FBECDBF809170
:1014D000790190917A01892B09F45AC082E08093B6
:1014E000E9008091E80082FF72C08091E80085FDEC
:1014F000D5C08091E8008B778093E80048E0A42E67
:10150000B12C5FE7C52E51E0D52E81E08093E90034
:101510008091E80080FF4AC04091E4005091E500CE
:1015200025E68091EC0080FF5AC08091E80080FDA4
:101530005AC080919B01882381F0853071F08091A1
:10154000EB0085FD0AC08091E4009091E5008417CE
:10155000950739F32150AC0121F78091E8008E778F
:101560008093E800A50170E060E0C60128960FB600
:10157000F894DEBF0FBECDBFDF91CF911F910F91C9
:10158000FF90EF90DF90CF90BF90AF900C94C0167B
:1015900024E1A22EB12C37E8C32E31E0D32E81E016
:1015A0008093E9008091E80080FDB6CF28960FB6C1
:1015B000F894DEBF0FBECDBFDF91CF911F910F9189
:1015C000FF90EF90DF90CF90BF90AF90089588E0AC
:1015D000A82EB12C9FE7C92E91E0D92EE0CF8091A3
:1015E000E80082FFA6CF8501760109C0F70181914D
:1015F0007F018093F1000150110909F4AECF809171
:10160000E80085FDF3CF8091E8008E778093E800B5
:1016100080919B018823A9F08091E9008F708887D1
:101620008091EC0080FF03C0F885F068F887109285
:10163000E9008091E80083FDBBC088858F708093AE
:10164000E9004091E4005091E50025E68091EC002E
:1016500080FF1FC08091E80080FDD1CF80919B0169
:10166000882309F47ACF853009F477CF8091EB0095
:1016700085FD73CF8091E4009091E5008417950774
:1016800029F32150AC0109F468CF8091EC0080FD72
:10169000E1CF8091E80082FFE1CFB1CF4091E4003B
:1016A0005091E50025E68091EC0080FF1FC08091FD
:1016B000E80080FD80C080919B01882309F419CF48
:1016C000853009F416CF8091EB0085FD12CF809113
:1016D000E4009091E5008417950729F32150AC01AF
:1016E00009F407CF8091EC0080FDE1CF8091E80004
:1016F00082FFE1CF07E010E0FE0131967F0109C0D3
:101700008091F100F70181937F010150110909F4E3
:10171000F0CE8091E80085FDF3CF8091E8008B77D3
:101720008093E80080919B018823A9F08091E900D3
:101730008F70D82E8091EC0080FF02C06894D7F89B
:101740001092E9008091E80083FD0E9445058D2DEF
:101750008F708093E9004091E4005091E50025E608
:101760008091EC0080FF1FC08091E80080FDD1CF08
:1017700080919B01882309F4BCCE853009F4B9CE51
:101780008091EB0085FDB5CE8091E4009091E5005D
:101790008417950729F32150AC0109F4AACE809152
:1017A000EC0080FDE1CF8091E80082FFE1CFB1CF76
:1017B0000E94450542CF07E010E0CE0101967C0172
:1017C000A8CF1F920F920FB60F9211242F933F9321
:1017D0008F939F93AF93BF9380917B0190917C01F6
:1017E000A0917D01B0917E013091720123E0230F21
:1017F0002D3768F126E8230F0296A11DB11D209315
:10180000720180937B0190937C01A0937D01B09342
:101810007E0180916E0190916F01A0917001B09155
:1018200071010196A11DB11D80936E0190936F010E
:10183000A0937001B0937101BF91AF919F918F916F
:101840003F912F910F900FBE0F901F90189501960A
:10185000A11DB11DD4CF1F920F920FB60F9211246C
:101860002F933F938F939F938091E10082FF04C059
:101870008091E20082FD85C18091DA0080FF04C082
:101880008091D80080FD55C18091E10080FF04C0A7
:101890008091E20080FD61C18091E10084FF2AC057
:1018A0008091E20084FF26C080E189BD82E189BD8C
:1018B00009B400FEFDCF8091D8008F7D8093D800C1
:1018C0008091E1008F7E8093E1008091E2008F7E25
:1018D0008093E2008091E20081608093E200809139
:1018E0007701811154C18091E30087FD58C181E0E7
:1018F00080939B018091E10083FF12C18091E200FF
:1019000083FF0EC18091E100877F8093E10082E038
:1019100080939B01109277018091E1008E7F8093EC
:10192000E1008091E2008E7F8093E2008091E200EE
:1019300080618093E2001092E9008091EB008E7F3D
:101940008093EB008091ED008D7F8093ED0080917E
:10195000EB0081608093EB001092EC0082E38093B7
:10196000ED001092F0008091EE0087FFD9C081E079
:101970008093E9003091EC008091ED002091F0001F
:1019800081FF19C09091EB009E7F9093EB009091A6
:10199000ED009D7F9093ED009091EB00916090930E
:1019A000EB003093EC008093ED002093F0008091E9
:1019B000EE0087FFB5C082E08093E9003091EC0033
:1019C0009091ED002091F00091FF19C08091EB0003
:1019D0008E7F8093EB008091ED008D7F8093ED00F2
:1019E0008091EB0081608093EB003093EC0090934A
:1019F000ED002093F0008091EE0087FF91C083E01E
:101A00008093E9003091EC008091ED002091F0008E
:101A100081FF19C09091EB009E7F9093EB00909115
:101A2000ED009D7F9093ED009091EB00916090937D
:101A3000EB003093EC008093ED002093F000809158
:101A4000EE0087FF6DC084E08093E9003091EC00E8
:101A50009091ED002091F00091FF19C08091EB0072
:101A60008E7F8093EB008091ED008D7F8093ED0061
:101A70008091EB0081608093EB003093EC009093B9
:101A8000ED002093F0008091EE0087FF49C085E0D3
:101A90008093E9003091EC009091ED002091F000EE
:101AA00091FF19C08091EB008E7F8093EB008091B5
:101AB000ED008D7F8093ED008091EB00816080933D
:101AC000EB003093EC009093ED002093F0008091B8
:101AD000EE0087FF25C086E08093E9003091EC009E
:101AE0008091ED002091F00081FF18C09091EB00F3
:101AF0009E7F9093EB009091ED009D7F9093ED0081
:101B00009091EB0091609093EB003093EC00809308
:101B1000ED002093F0008091EE0087FD1092E90027
:101B20009F918F913F912F910F900FBE0F901F901B
:101B300018958091DA008E7F8093DA008091D90029
:101B400080FF29C080E189BD82E189BD09B400FE22
:101B5000FDCF81E080939B0197CE8091E2008E7F44
:101B60008093E2008091E20080618093E2008091A6
:101B7000D80080628093D80019BC85E080939B01D7
:101B80008BCE8091E1008B7F8093E10075CE84E065
:101B900080939B01AFCE19BC10929B0175CE83E060
:101BA000A7CEFC018AE291E09183808312821382A6
:101BB000148215828AE090E09783868310860895C8
:101BC000CF93DF93CDB7DEB7E2970FB6F894DEBFC1
:101BD0000FBECDBF789484B5826084BD84B581602A
:101BE00084BD85B5826085BD85B5816085BD8091E8
:101BF0006E00816080936E00109281008091810060
:101C00008260809381008091810081608093810057
:101C1000809180008160809380008091910082603B
:101C200080939100809191008160809391008091D8
:101C300090008160809390008091C10084608093C7
:101C4000C1008091C10082608093C1008091C10079
:101C500081608093C1008091C30081608093C30044
:101C60008091C00082608093C0008091C20081603A
:101C70008093C20080917A00846080937A00809182
:101C80007A00826080937A0080917A0081608093EC
:101C90007A0080917A00806880937A008CE991E0E4
:101CA0000E94BD048CE991E00E944C098CE991E00E
:101CB0000E944D042091C2013091C3018091B00176
:101CC0009091B10193FF8BC682E090E09093C301A5
:101CD0008093C20112E028173907E9F090E080E014
:101CE0000E949F16811709F478C6612F90E080E06A
:101CF0000E94A7161091C30181E090E00E949F16F8
:101D0000811729F0612F81E090E00E94A716809151
:101D1000C2019091C30190937A01809379019093CD
:101D200074018093730184B7877F84BF0FB6F894E2
:101D3000A895809160008861809360001092600097
:101D40000FBE80E830E020E00FB6F8948093610089
:101D5000209361000FBE8091D8008F7E8093D800C1
:101D60008091D70081608093D70084E082BF91E0AA
:101D7000909378018091D8008E7F8093D800109244
:101D8000E2001092DA001092E1008091D8008F7783
:101D90008093D8008091D80080688093D80080918B
:101DA000D8008F7D8093D80019BC10929B011092AF
:101DB000770110927601109275018091E0008B7F7F
:101DC0008093E0008091D80081608093D8001092C9
:101DD000E9008091EB008E7F8093EB008091ED0015
:101DE0008D7F8093ED008091EB0081608093EB000C
:101DF0001092EC0082E38093ED001092F00080914D
:101E0000EE0087FFD8C09093E9003091EC009091EC
:101E1000ED002091F00091FF19C08091EB008E7FC2
:101E20008093EB008091ED008D7F8093ED00809199
:101E3000EB0081608093EB003093EC009093ED0019
:101E40002093F0008091EE0087FFB5C082E0809380
:101E5000E9003091EC009091ED002091F00091FFAD
:101E600019C08091EB008E7F8093EB008091ED0094
:101E70008D7F8093ED008091EB0081608093EB007B
:101E80003093EC009093ED002093F0008091EE00F1
:101E900087FF91C083E08093E9003091EC0090913E
:101EA000ED002091F00091FF19C08091EB008E7F32
:101EB0008093EB008091ED008D7F8093ED00809109
:101EC000EB0081608093EB003093EC009093ED0089
:101ED0002093F0008091EE0087FF6DC084E0809336
:101EE000E9003091EC009091ED002091F00091FF1D
:101EF00019C08091EB008E7F8093EB008091ED0004
:101F00008D7F8093ED008091EB0081608093EB00EA
:101F10003093EC009093ED002093F0008091EE0060
:101F200087FF49C085E08093E9003091EC009091F3
:101F3000ED002091F00091FF19C08091EB008E7FA1
:101F40008093EB008091ED008D7F8093ED00809178
:101F5000EB0081608093EB003093EC009093ED00F8
:101F60002093F0008091EE0087FF25C086E08093EB
:101F7000E9003091EC009091ED002091F00091FF8C
:101F800018C08091EB008E7F8093EB008091ED0074
:101F90008D7F8093ED008091EB0081608093EB005A
:101FA0003093EC009093ED002093F0008091EE00D0
:101FB00087FD1092E9008091E1008E7F8093E1001F
:101FC0008091E20081608093E2008091E20088606D
:101FD0008093E2008091E0008E7F8093E00080910A
:101FE000D80080618093D800789444244A94BFE755
:101FF0005B2EA2E0EA2E63B129B120953FB1309566
:102000001092BF011092BD011092BE01432F50E00B
:10201000CA019595879595958795959587959595F9
:102020008795959587958270FA01F595E795F595D1
:10203000E795F595E795E4708E2B331F3327331F13
:10204000832B559547954870842B9091AF01907FD5
:10205000892B8093AF01862F8095482F50E0782EF2
:1020600076947694682E6294660C660C10EC61226D
:10207000CA0182959295907F9827807F98278072D9
:102080009927BA01660F771F60787727862B972BE1
:10209000322F3F71832BBA01660F771F62957295BD
:1020A000707F7627607F762766277170862B972B47
:1020B0005695542F44275795479544275270842BA3
:1020C000952BA30144275470842B952BA3014427FF
:1020D0005870842B952B25952074822B9093B101F9
:1020E0008093B00106EC11E01CC02FB7F8948091EA
:1020F0007B0190917C01A0917D01B0917E012FBF69
:10210000F80182839383A483B58390859E2590876D
:1021100092FD9BC0085E1F4FB3E006371B0709F412
:10212000AFC0D80118969C9118979B7F18969C93E6
:102130001897ED91FC910190F081E02DB4E0E73328
:10214000FB0709F0F7C1D8015696ED91FC9157971E
:1021500052964D915C91539751968C918111E6C1A5
:10216000218132812423352381E0232B09F480E06F
:10217000969591708913B9CF9FB7F89480907B01A1
:1021800090907C01A0907D01B0907E019FBFD8010E
:1021900012964D915D916D917C911597841A950AD7
:1021A000A60AB70A16964D915C91179770E060E009
:1021B00084169506A606B70608F4C1C1F8019085F5
:1021C000292F2170821709F4A3CF2FB7F89480919B
:1021D0007B0190917C01A0917D01B0917E012FBF88
:1021E00082839383A483B5838085F1E08F27846005
:1021F000D80118968C932FB7F89480917B01909119
:102200007C01A0917D01B0917E012FBFF801418535
:10221000528563857485841B950BA60BB70B858748
:102220009687A787B08B2FB7F89480917B01909108
:102230007C01A0917D01B0917E012FBF81879287A3
:10224000A387B487908592FF65CFD80151968C9172
:10225000519752962D913C9190FF74C1882309F4B7
:102260007EC18091AF01282B2F70807F282B209377
:10227000AF01085E1F4FB3E006371B0709F051CFCF
:102280008091B0019091B1012091AF01322F3F7048
:10229000AC01442753704115534009F0C2C140912D
:1022A000C0015091C1019C7F9093B1018093B00116
:1022B00022FFA9C261E070E07093C1016093C00188
:1022C000207F2093AF0111E021E030E06091C40154
:1022D0007091C5014217530709F4ABC281E090E049
:1022E0000E949F16811709F4F7C2612F81E090E0E8
:1022F0000E94A7161091C10182E090E00E949F16F3
:10230000811729F0612F82E090E00E94A71680914A
:10231000B0019091B1012091AF01322F3F70B22FE7
:10232000B270722F7170F72E6091C4017091C50167
:10233000F1E0022F087023FF31C1E1E0132F147088
:1023400032FFE0E0A1E0B11101C0A0E0232F217035
:102350004091C0015091C1019093B4018093B301A9
:102360006115710509F41CC16130710509F023C1C3
:10237000FF2009F498C2BB2309F4E8C220E011232E
:1023800009F41FC124E0002309F4B6C23091B20160
:10239000307F3093B2014130510509F41AC3423005
:1023A000510509F014C320E05092B6014092B501E6
:1023B0005092B8014092B701422F4C70443009F45A
:1023C000C2C26FEF7FEF483011F06FEF7FE770937D
:1023D000BA016093B90123700FEF1FEF213031F084
:1023E00010E000E0223011F00FEF1FE71093BC0166
:1023F0000093BB01307F3093B201F12CCC24CA94FE
:102400003FE7D32E4FEF5FE721E1EFEAF1E0DE0196
:10241000119601900D922A95E1F7B090BD01A09020
:10242000BE0121E1EEE9F1E0DE01529601900D924C
:102430002A95E1F72C813D8923272F7041F42091C3
:10244000A2013091A3012817390709F403C2209192
:10245000C2013091C3012115310509F42DC121308C
:10246000310509F052C0652FAD2DB12FEFEFEF0D03
:10247000EA3008F020C2F0E0E45DFE4FE081AC01FC
:10248000440F551F82FB222420F8312C9A01227020
:10249000332722293329887F9F73822B932B447003
:1024A0005527842B952B9CA38BA3EDA36EA3AFA3E1
:1024B00078A7B9A788E0FE01B396DE019B9601904C
:1024C0000D928A95E1F788E0FE01BB96AFE7B1E097
:1024D00001900D928A95E1F780919B01843009F477
:1024E0005EC180919B01882381F01091E9001F70EB
:1024F0008091EC0080FD10681092E9008091E80066
:1025000083FDECC11F701093E90081E1EFEAF1E077
:10251000AEE9B1E001900D928A95E1F720E030E05C
:10252000232B09F468CD0E94000063CD20812F7019
:1025300030E018CEC8010995F801908519CE18969B
:102540009C91E6CD8823B1F08091AF01982F9F70C8
:1025500020952923807F282B2093AF01DBCD80910C
:10256000B0019091B101282B392B3093B101209308
:10257000B001D0CD209530958091B0019091B101FE
:10258000282339233093B1012093B001C3CDB22F5A
:10259000B270F1E0022F087023FDCFCEF0E0CDCE77
:1025A0003370333009F4A1C1112309F451C1E1E0C2
:1025B0000111E0E0F0E0A1112E25EE2311F064E01E
:1025C0002627FF2311F078E02727A22FAF70FA2EDD
:1025D0003091B201307F3A2B3093B2014130510536
:1025E00009F4E0C04230510509F4DECE5092B60144
:1025F0004092B5015092B8014092B7015092BA0191
:102600004092B9015092BC014092BB010FEF1FE70D
:102610006FEF7FE7CC24CA942FE7D22E4FEF5FE70E
:10262000F3CE6091C4017091C501A22FA170FA2E62
:10263000AC0144275C7041155C4009F0A8CF937F42
:102640009093B1018093B001AA2309F465C110925F
:10265000C5011092C401207F2093AF0110E030E04B
:1026600020E06217730709F4E4C082E090E00E9462
:102670009F16811709F49AC1612F82E090E00E94B1
:10268000A7161091C50183E090E00E949F16811764
:1026900029F0612F83E090E00E94A7168091B0019D
:1026A0009091B1012091AF01322F3F70B22FB270E3
:1026B000F22FF170FF2E38CE5058B0E8DB1A705868
:1026C00010589C0136952795329522952F70232717
:1026D0003F7023272071FC01F695E795F695E79565
:1026E000F695E795E0722E2BFC01F295E295EF70DE
:1026F000EF27FF70EF273E2F3074232B3E2F3078CB
:10270000232BF22A292F269526952470E3702E2B51
:10271000382F3295307FE32FE0712E2BE32FE072BC
:102720002E2BE32FE0742E2B3078232B3091BF011A
:10273000311115C0FC010024EE0FFF1F001CEE0F2D
:10274000FF1F001CEF2FF02DE170BE2EB194880FFB
:10275000892F881F990B91958170A82EA194E4E18F
:10276000E0938801F092890120938A01B0928B0155
:10277000A0928C0150938E0140938D01D0929001D4
:10278000C0928F0170939201609391011093940114
:102790000093930180919B01843009F0A2CE0E94A6
:1027A000550A9FCE422F4C70443009F4B2C04830D5
:1027B00009F098C04FEF5FEF5093B6014093B50119
:1027C0002370CC24CA94DC2C213041F0D12CC12CB4
:1027D000223021F0CC24CA946FE7D62ED092B801D3
:1027E000C092B7015092BA014092B9015092BC0117
:1027F0004092BB01307F3093B201F12C0FEF1FE705
:102800006FEF7FE701CE23FF58C062E070E0709366
:10281000C1016093C001207F2093AF0112E022E04C
:1028200030E06091C4017091C5014217530709F06F
:1028300055CD20E0A0E0E0E010E0F0E000E0F12C79
:10284000B0E030E04091C0015091C10185CD20E061
:10285000E0E0B1CE2091AC01B212F9CD2091AD01F2
:10286000A212F5CD2091A4013091A50124173507BE
:1028700009F0EDCD2091A6013091A7012C153D0561
:1028800009F0E5CD2091A8013091A901261737075D
:1028900009F0DDCD2091AA013091AB01201731075D
:1028A00009F0D5CD1ECE112391F2E1E00111E0E057
:1028B00020E0F0E080CEE8E0E2CDB22FB27021FF60
:1028C0005EC01092C1011092C001207F2093AF0121
:1028D00010E030E020E0FACC10E00ECD0E9445057B
:1028E00011CE21E04FEF5FE767CF112309F469CEE6
:1028F00001116BCE34E02327322F3F70F32E30913D
:10290000B201307F3F293093B2014130510509F0C7
:1029100069CE50E040E050CFB22FB27021FD48C0E8
:10292000F1E0022F087023FFF0E0E1E0132F1470B4
:1029300032FFE0E0232F2170F12CA0E04091C00194
:102940005091C10109CD70E060E041CD21E011233B
:1029500009F437CE21E0F0E0002309F430CE3091C5
:10296000B201307F31603093B2014130510509F43A
:10297000B8CF4230510509F039CE21E015CD20FF06
:1029800024C0207F2093AF0190619093B101809388
:10299000B00130E020E06091C4017091C50110E009
:1029A00000E0F12CA0E0E0E0F0E0D6CC10E06BCE4F
:1029B000E1E0F0E0F093C501E093C401207F2093B3
:1029C000AF0111E021E030E04CCE20E0E4CFF12C6B
:1029D0000DCE20E04FEF5FE7EFCE10E08DC990FF06
:1029E00008C081E090E09093C3018093C20111E0A0
:1029F00072C991FF08C01092C3011092C20110E089
:102A000090E080E068C9C90186C98F929F92AF9219
:102A1000BF92CF92DF92EF92FF920F931F93CF93CB
:102A2000DF938AE091E090939D0180939C0186EC76
:102A300091E00E94D10D04E011E01093C7010093D2
:102A4000C601FF24F394F092D70188248394912C3B
:102A50009092D9018092D801C5E0D0E0D093DB01FB
:102A6000C093DA018EED91E00E94D10D1093DF0149
:102A70000093DE01F092EF0192E0A92EB12CB0920A
:102A8000F101A092F001D093F301C093F20186EF1F
:102A900091E00E94D10D1093F7010093F601F0929E
:102AA000070224E0C22ED12CD0920902C092080263
:102AB000D0930B02C0930A028EE092E00E94D10DE7
:102AC00010930F0200930E02F0921F0238E0E32EE3
:102AD000F12CF0922102E0922002D0932302C093C5
:102AE000220286E292E00E94D10D10932702009309
:102AF0002602109237029092390280923802D093C7
:102B00003B02C0933A028EE392E00E94D10D1093F3
:102B10003F0200933E0210924F02B0925102A092E7
:102B20005002D0935302C093520286E592E00E9475
:102B3000D10D109357020093560210926702D09263
:102B40006902C0926802D0936B02C0936A028EE65B
:102B500092E00E94D10D10936F0200936E021092CA
:102B60007F02F0928102E0928002D0938302C093B0
:102B7000820286E892E00E94D10D109387020093B2
:102B800086021092970280E190E0909399028093E0
:102B90009802D0939B02C0939A028EE992E00E9421
:102BA000D10D10939F0200939E021092AF0280E21B
:102BB00090E09093B1028093B002D093B302C0939F
:102BC000B20286EB92E00E94D10D1093B7020093FF
:102BD000B6021092C70280E490E09093C9028093FD
:102BE000C802D093CB02C093CA028EEC92E00E943E
:102BF000D10D1093CF020093CE021092DF0280E835
:102C000090E09093E1028093E002D093E302C093BE
:102C1000E20286EE92E00E94D10D1093E70200934B
:102C2000E6021092F70280E091E09093F90280931F
:102C3000F802D093FB02C093FA028EEF92E00E945A
:102C4000D10D1093FF020093FE0210920F0380E05B
:102C500092E09093110380931003D0931303C093D9
:102C6000120386E193E00E94D10D109317030093A5
:102C700016031092270380E094E090932903809339
:102C80002803D0932B03C0932A038EE293E00E9483
:102C9000D10D10932F0300932E0310923F0380E079
:102CA00098E09093410380934003D0934303C093F3
:102CB000420386E493E00E94D10D109347030093F2
:102CC00046031092570380E090E19093590380935C
:102CD0005803D0935B03C0935A038EE593E00E94A0
:102CE000D10D10935F0300935E0310926F0380E099
:102CF00090E29093710380937003D0937303C09319
:102D00007203ECEDF1E08FEA91E091838083789695
:102D100023E0EC38F207C9F78AE191E090939D0136
:102D200080939C01DF91CF911F910F91FF90EF90C5
:102D3000DF90CF90BF90AF909F908F900895F999BA
:102D4000FECF92BD81BDF89A992780B50895262FB0
:102D5000F999FECF1FBA92BD81BD20BD0FB6F89480
:102D6000FA9AF99A0FBE01960895EE0FFF1F05908B
:102D7000F491E02D099481E090E0F8940C94C7164A
:102D8000DC0101C06D9341505040E0F70895F89484
:022D9000FFCF73
:102D9200000000003704000000004C09D004D004F9
:102DA20084092C042104000000004C09BD044D04D8
:102DB20084092C04210400000000530A00040806C0
:062DC200070508020103F1
:00000001FF
